:020000040000FA
:0600000002010A0226F3D2
:03002B00021F327F
:03003300021F0A9F
:03003B00021F574A
:03004300021EBAE0
:030053000227661B
:03006B00021EE290
:1000830002255FE5C754F84401F5C7790122000052
:100093000080FB120086B900030200F4E4792178A2
:1000A30008B800028004F709D8FCE479297802B87B
:1000B30000028004F709D8FCE4900281789C79114E
:1000C3008002F0A3D8FCD9FA90131CAA82AB8390C8
:1000D300013A78B379038015E493A3AC82AD838AA4
:1000E300828B83F0A3AA82AB838C828D83D8E9D9D8
:1000F300E77582277583FA740412011C7582917562
:100103008300740012011C75D00075813F7518813E
:10011300751902759F00020096C09FF59FE473D086
:100123009F22D083D082C09FE493C0E0740193C028
:10013300E0740293F59F22FFFF0202020202020211
:100143000202010D000000100102B98501000096B2
:100153008502CD850100001E1302D585010000E153
:100163000202CD850100001F1302BF850100005C60
:100173008402CD85010000201302C585010000160D
:100183008402CD85010000211302CF8501000022E6
:100193008302CD850100002213029D85010000FE2C
:1001A3008202CD850100002313029985010000EC32
:1001B3008202CD850100002413029B8501000010FB
:1001C3008302CD85010000251302C3850100004091
:1001D3008402CD85010000261302AB8501000027B0
:1001E300130A484F535400000A504F525400000A58
:1001F3005353494400000A50415353574F5244004C
:100203000002B9850100008D8502CD85010000C67D
:100213001302B785030000EB0202C985010000C782
:100223001302CD85010000CD1302BB85030000EF4F
:100233000202C985010000CE1302CD85010000D45E
:100243001302BD85030000F10202C985010000D538
:100253001302CD85010000DB1302C18503000005F5
:100263000302C985010000DC1301E803053F100206
:100273000A010809474154455741590512500020C6
:1002830003020A000201060302F0FF4741544557E7
:1002930041590000000000000000000000000000C1
:1002A300FEFFCA070000D007FA070008FF0001306D
:1002B30075030201060000000000000000000000BA
:1002C300000000000000000000000000000000002B
:1002D30000FFFF0600800CE8038E0AA00ACA0A94F6
:1002E3000AFF0000B4000028002800283075A00091
:1002F300A000A000A00000080008E001F00010002A
:1003030010001000100010001000500050005000AA
:1003130010001000D0070000000000000F000100D3
:100323000500307507001000010081FF0000000088
:10033300FF0E0C2C0C140CFF02020208025000A04A
:10034300000000E80302B985010000908502CD8515
:100353000100001D1502B385010000F80702CD85D9
:100363000100001E1502A9850100000E0802CD85BB
:100373000100001F1502A785010000100802CD85AA
:10038300010000201502A585080000110802CD8593
:10039300010000211502A3850100002215FFFF01C2
:1003A30000FF2002B985010000C98402CD85010048
:1003B300008715029F85000000000002C785030027
:1003C30000F20846134613461346134613461346D4
:1003D3001346134613461346134613461350156E1E
:1003E300154A158E16A6168816120125B7C10312D3
:1003F3000125CCC10312012524C2031201258BC29E
:1004030003120125D3C20312012549C30312012597
:1004130078C303120125DEC603120125ECC60312BD
:10042300012550C7031201258EC703120125A9C751
:100433000312012541C803120125EAC8031201254D
:100443006DC903120125A6C90312012531CA03127E
:10045300012588CA03120125E7CA03120125F9CA37
:10046300031201251FCB0312012528CB03120125FB
:1004730081CC03120125D3F004120125B2F1041239
:10048300012578F80412012521E10412012566E112
:1004930004120125ACE1041201253FE304120125F6
:1004A300A5F904120125C0F904120125D0F904129B
:1004B300012527A10412012547A1041201254BA2FE
:1004C3000412012597A204120125B7A204120125E3
:1004D3000AA30412012577A304120125BDA3041264
:1004E300012521A404120125D3A6041201250EF22D
:1004F3000412012522F20412012552F204120125ED
:1005030015F3041201258DE7041201259CE704125B
:1005130001251AE8041201258AE804120125ACE832
:100523000412012544EB031201258CEB0312012570
:1005330056EC0312012572EC03120125F0EC0312B1
:10054300012542ED03120125E0ED0312012522EE00
:1005530003120125BDEE0312012539EF0312012514
:1005630096F003120125CBF10312012562F2031267
:100573000125CEF2031201253CF303120125E3BB4F
:100583000412012508BC0412012543BC04120125F1
:10059300E4A60412012523A70412012540A704128F
:1005A3000125DDA704120125A1A8041201250FAA24
:1005B300041201250AF70412012583A6011201255D
:1005C300B2A901120125D9AB0112012584AC011294
:1005D300012528AD01120125C1AD01120125F0ADA0
:1005E300011201255CAE01120125B1B401120125EE
:1005F3005CB501120125CCB60112012534B70112F5
:100603000125E8B701120125AABA01120125E9BAA9
:10061300011201255DBB01120125BCBB011201259D
:100623001BBC011201258ABC011201257DBD0112EB
:100633000125C3BD0112012508BE011201252BBEF0
:1006430001120125A6BF01120125B9BF011201251F
:10065300C2C00112012501C1011201252DC10112E0
:10066300012580C101120125A1C101120125E5C1A6
:100673000112012537C40112012578C40112012595
:1006830023C5011201258EC501120125CBC6011216
:1006930001254EF4041201255FF40412012578DECE
:1006A3000412012513E1041201259AFA041201250B
:1006B3002CF6041201253CF6041201255CF6041203
:1006C3000125FCF604120125F2FC0112012598FD17
:1006D30001120125B4FF011201258FEF0412012538
:1006E300BFEF041201251BF00412012596F004123A
:1006F300012554FB031201259DFB031201255AFC1E
:100703000312012572FC03120125BAFD0312012510
:10071300C5FD03120125E5FD0312012595FE031214
:100723000125BFFE03120125E9FE031201253FFF48
:10073300031201256DFF03120125C2FF03120125D8
:1007430046C50412012568C504120125FDC504121E
:100753000125EDC6041201254AC9041201250E958F
:1007630004120125ED960412012574970412012544
:10077300789804120125409904120125BE990412A8
:100783000125A29A04120125A59A04120125B39A00
:1007930004120125D09A04120125F99A04120125A5
:1007A300229B04120125309B04120125479B04124E
:1007B3000125FFC6011201252EC70112012560CCB8
:1007C3000112012505CD0112012523CD01120125B9
:1007D30067CE01120125B4D0011201252BD10112DC
:1007E300012569D201120125CED301120125D1D3EE
:1007F3000112012555D7011201252DD8011201251A
:100803006CD801120125BCD801120125BFD80112F1
:10081300012531D9011201250ADA0112012593DAE2
:1008230001120125D3DA0112012548E20112012543
:10083300B3E3011201258EE504120125F7E5041245
:100843000125B5E60412012534E704120125AAC9DE
:1008530004120125DCC904120125E4CA041201258E
:1008630009CC04120125C5CC04120125B8CC03120E
:1008730001259ECD03120125EBCD031201252ECEBA
:1008830003120125A3CE0312012504CF0312012570
:1008930079CF0312012555D00312012560D103122C
:1008A3000125E1D10312012588D3031201251ED4AA
:1008B3000312012591D4031201250DD5031201253D
:1008C30024D5031201255BD603120125B5D60312E5
:1008D30001250F9502120125A799021201257B9C80
:1008E30002120125A49C02120125CD9C02120125AE
:1008F3007F9D02120125659F02120125A0A002120D
:100903000125D6A5021201250FA60212012553A621
:100913000212012565A70212012545EE04120125E5
:100923005BEE041201258AEE04120125C0EE0412C7
:100933000125D7EE041201250EEF0412012561EF04
:100943000412012578EF041201256DE90412012533
:1009530084E904120125B5E904120125F0E9041222
:1009630001251AEA0412012544EA041201255BEA6F
:100973000412012572EA0412012589EA04120125F1
:10098300B2EA04120125C5EA04120125DBEA0412C6
:10099300012505EB0412012598A9031201259CAA40
:1009A30003120125C9AA031201251FAB0312012556
:1009B30042AB0312012556AB0312012558AB0312B8
:1009C30001257BAB031201258AAC031201254EAD31
:1009D3000312012523AE0312012594AE0312012550
:1009E30020AF0312012523AF03120125ABAF03127E
:1009F3000125E6AF031201254DB00312012584B092
:100A03000312012512B1031201259CB10312012522
:100A1300EBB103120125F8B103120125FBB1031257
:100A230001255BB20312012566B203120125E5B26B
:100A330003120125E8B203120125FBB203120125BB
:100A4300FEB2031201258DB303120125A7B30312CE
:100A53000125B7B303120125E7B303120125F4B34C
:100A630003120125F7B30312012578B403120125FC
:100A730066B50312012518B60312012577E10312A7
:100A8300012574E203120125F6E20312012516E3A0
:100A9300031201255EE303120125B1E303120125CD
:100AA30015E403120125A2E4031201255CE50312F8
:100AB30001256BE803120125F6E90312012519EA62
:100AC300031201258CCD0412012529CF041201251F
:100AD3008DCF04120125ECCF04120125FACF0412A5
:100AE300012523D00412012566AC041201258EAC26
:100AF30004120125BCAC04120125F3AC0412012538
:100B030051AD041201259CAD04120125E7AD041279
:100B1300012527AE041201256DAE041201259BAEFB
:100B23000412012558AF0412012562AF04120125F6
:100B33006FAF04120125A2AF041201256EB0041297
:100B430001257AB00412012592B0041201259CB04C
:100B5300041201251AB1041201253DF504120125E1
:100B63004BF50412012563F5041201257BF50412EC
:100B7300012593F504120125BDD90212012569DA75
:100B830002120125E4DA0212012505DC0212012515
:100B930041DC02120125EADC02120125D1DD021239
:100BA300012535DF021201258CDF021201250DE03C
:100BB30002120125FDE0021201254AE1021201257C
:100BC300D0E10212012502E20212012516E402120B
:100BD300012558E40212012576E402120125F9E405
:100BE30002120125CDE50212012595E60212012527
:100BF300A2E8021201257A87041201254D88041206
:100C03000125F68804120125498904120125F98971
:100C130004120125858A04120125718B0412012512
:100C2300A08B04120125B38C04120125FB8C041242
:100C33000125D08D041201250C8E04120125288E66
:100C43000412012521F90412012537D104120125CB
:100C53004DD10412012573D1041201258FD2041240
:100C6300012599D204120125CED304120125C6D43D
:100C730004120125D0D404120125A2B104120125C6
:100C8300D2B20412012505B3041201254FB3041295
:100C9300012516B50412012525A8021201259EA8D7
:100CA30002120125AEA8021201259CA902120125F8
:100CB300C1A902120125CCA902120125B6AA02126A
:100CC30001256CAB0212012553AD021201250CAFB5
:100CD30002120125E8AF021201259CB00212012580
:100CE300D9B30212012587B402120125F6B5021207
:100CF300012576B7021201251DB80212012566B837
:100D0300021201259DB8021201253AB902120125EA
:100D1300C5B902120125A2BA02120125F7BA0212BD
:100D2300012556BC0212012566BC0212012593BCA3
:100D330002120125EABC0212012593BD021201250C
:100D43009ABE0212012564BF02120125C4C0021219
:100D5300012507C102120125ACC102120125D2C12E
:100D630002120125E0C302120125E5C30212012587
:100D7300EAC50212012537C602120125AAC60212CC
:100D83000125DDC6021201257FC70212012528C8ED
:100D93000212012560C80212012563C8021201254F
:100DA300ABC802120125EDC80212012544C9021283
:100DB30001259CDB04120125AFDB04120125BDDBF9
:100DC3000412012505DC041201251BDC0412012594
:100DD30062DC0412012576DD0412012503DE041210
:100DE30001254EDE04120125C8E301120125D8E3D3
:100DF300011201253BE40112012580E401120125C2
:100E030036E50112012511E6011201253AE6011228
:100E130001256AE601120125AAE80112012591EADA
:100E23000112012569EC01120125ADED0112012525
:100E330014F00112012522F10112012574F20112AD
:100E430001257EF301120125C0F301120125F8F3F8
:100E5300011201251AF4011201257DF40112012565
:100E63003FF901120125D4F90112012528FA0112D3
:100E730001254FFA011201258DFA01120125ACFA61
:100E83000112012506FB0112012506FC01120125B1
:100E93008BFC011201258FF30312012599F3031231
:100EA30001253DF40312012580F4031201259BF46F
:100EB300031201252BF50312012553F50312012516
:100EC3008BF503120125C2F503120125EBF503127D
:100ED300012564F60312012579F6031201258EF626
:100EE30003120125B0F603120125EAF603120125C8
:100EF3000EF703120125D7F703120125EDF70312AD
:100F0300012500F80312012515F8031201259BF8AA
:100F130003120125D5F8031201250AF9031201254D
:100F230036F90312012564F903120125CDF90312E1
:100F330001254CFA031201258EFA03120125D7FA73
:100F43000312012501FB031201252CFB03120125CA
:100F530035F30412012531CA021201255FCA0212B8
:100F63000125BACB021201259ACC02120125B9CC74
:100F73000212012536CD0212012579CD0212012577
:100F8300F4CE0212012563CF021201258ED1021283
:100F9300012512D402120125C3D402120125B9D5A9
:100FA3000212012559D60212012557D70212012533
:100FB300B1D8021201253CD902120125BCEC04125E
:100FC300012525ED0412012579ED04120125A0ED7B
:100FD30004120125D1ED04120125F2ED04120125BD
:100FE300D9C00412012546C1041201258DC1041282
:100FF3000125A5C204120125A1C30412012584C43D
:101003000412012531F70212012573F7021201259B
:1010130045F8021201251EF90212012518FA0212DF
:101023000125FAFA0212012563FB0212012533FCA2
:1010330002120125A7FC0212012513FD021201254C
:1010430016FD021201253FFD02120125B9FD021210
:10105300012552FE02120125B7FE02120125CCFE24
:101063000212012512FF021201252BFF0212012594
:1010730090FF0212012593FF02120125DAD4041214
:10108300012516D50412012554D5041201251ED6B7
:10109300041201258DD604120125C8D60412012598
:1010A30006D70412012536D7041201255DD7041291
:1010B3000125CBD7041201250DD804120125885030
:1010C30000120125E35200120125F55500120125F6
:1010D3003156001201255E560012012550570012A9
:1010E30001259B5700120125E65700120125F857E9
:1010F300001201253858001201256D5800120125F0
:10110300BB5800120125EA58001201250D5900129F
:1011130001259459001201257C5A001201251E5DF8
:10112300001201255D5F001201259E5F001201255B
:101133004261001201258361001201257C620012C5
:101143000125896400120125466500120125E06529
:1011530000120125B86B00120125086C001201254D
:101163007A6E001201258970001201254171001267
:1011730001256B710012012583E30412012538E573
:1011830004120125839C03120125819D031201256D
:101193001AA4031201253BA60312012506A8031274
:1011A30001256EA903120125042B00120125B32B7F
:1011B30000120125FF2B00120125352D00120125F8
:1011C300932D00120125292F00120125A32F0012B0
:1011D3000125F22F001201256C3000120125C631C2
:1011E300001201252633001201252C34001201259B
:1011F3008D3500120125DF3500120125503700120D
:1012030001259539001201258F3A00120125A83ACC
:1012130000120125063B00120125253B0012012582
:10122300443B00120125473B00120125783C001284
:101233000125703D001201255C3E001201253E3F51
:1012430000120125713F00120125E13F0012012523
:10125300534000120125CD40001201252341001205
:101263000125FE4100120125C842001201259D43BC
:10127300001201257C4400120125074500120125B7
:10128300754500120125E945001201251446001297
:101293000125D34600120125C04900120125094A40
:1012A300001201254C4A00120125C54A00120125EE
:1012B3005D4B001201254E4C00120125734C0012A8
:1012C3000125B94C00120125E34C001201252B4DD9
:1012D30000120125A64D00120125004E0012012522
:1012E300694F0012012517500012012558500012B2
:1012F3000125FA710012012548720012012554726A
:1013030000120125327300120125637300120125B7
:101313009473001201251474001201254C740012F9
:1013230001259E7400120125DB7400120125F87655
:10133300001201251E7900120125097B00120125E7
:10134300F37C00120125FA7F00120125559B04123C
:101353000125A09F04120125E4A0041201250080A9
:1013630003120125B88203120125BE82031201254F
:10137300788503120125458803120125C9B6041295
:1013830001256DB7041201253FB80412012569B880
:1013930004120125B7BA04120125DB8501120125C8
:1013A300258601120125EE9601120125739801127B
:1013B300012596990112012507A00112012502A119
:1013C300011201253FA10112012562A1011201258C
:1013D300A4A101120125ADA101120125B7A101129A
:1013E3000125A5A2011201259BA30112012534A405
:1013F30001120125008002120125FF83021201253B
:10140300058402120125408B021201255990021214
:10141300012555D8041201254FD904120125C3D93A
:101423000412012501DA0412012575DA04120125DB
:10143300EEDA04120125F7DA0412012503DB0412A4
:10144300012518DB0412012556DB041201256CDB90
:10145300041201259D8E04120125AA8E0412012572
:10146300C48E04120125038F04120125418F041237
:101473000125A68F04120125BB8F04120125C68FF7
:1014830004120125D38F04120125EA8F04120125CA
:10149300F88F041201250790041201251C900412F1
:1014A30001253190041201253C9004120125489036
:1014B300041201255590041201256490041201259C
:1014C3006F90041201259490041201253B9104129C
:1014D30001254B9104120125609104120125759198
:1014E300041201258F9104120125AA9104120125EA
:1014F300C79104120125D291041201258E92041280
:1015030001257A93041201259F9304120125AA93BE
:1015130004120125BF9304120125D393041201255C
:101523003494041201253A940412012540940412C0
:1015330001254694041201255E9404120125919419
:101543000412012521D70312012543D703120125D4
:1015530023D803120125FADA0312012526DC03122C
:1015630001254ADD03120125FCDD031201259DDE61
:1015730003120125598E03120125DD8E0312012565
:101583008C8F03120125EB90031201250C93031298
:101593000125F893031201252D94031201254F947D
:1015A30003120125FE9403120125F6960312012569
:1015B3001F9703120125B19703120125E397031225
:1015C3000125F097031201254798031201256D9811
:1015D30003120125DA9A03120125DD9B031201256B
:1015E300359C03120125BBE802120125C5E902124D
:1015F3000125ACEA02120125B6EA02120125C0EA6E
:1016030002120125E2EA02120125EEEA0212012585
:1016130087EC02120125B6EC02120125D2ED02126B
:1016230001252BEE0212012591EF0212012570F024
:1016330002120125CCF00212012539F10212012513
:1016430074F102120125B3F1021201256CF40212A6
:10165300012586F40212012512F50212012520F557
:101663000212012579F50212012587F502120125DF
:10167300FAF5021201255EF602120125A8F60212FE
:10168300012589B603120125ABB603120125D1B892
:1016930003120125E6BB03120125FEBC031201253B
:1016A300B1BD0312012593BE0312012517EB0412EA
:1016B30001253CEB04120125AEEB04120125008049
:1016C3000412012509800412012512800412012548
:1016D300E980041201259A8204120125D0820412A2
:1016E30001250A83041201254083041201257A830C
:1016F30004120125AE8304120125DA8304120125A5
:101703002384041201255D8404120125A684041296
:101713000125FE84041201253385041201258E85DB
:1017230004120125C8850412012519860412012516
:101733004F8604120125898604120125B7860412F7
:101743000125DA8604120125CDF704120125F9F7E4
:101753000412012554F8041201255EF80412012530
:101763006EF804120125CE7F00120125B7FF021285
:101773000125CFFF011201257CFA04E766701008EA
:1017830009E766700A0809E76670040809E7662234
:10179300E066701008A3E066700A08A3E0667004B0
:1017A30008A3E06622C3E7960809E7960809E796C7
:1017B3000809E79622C3E09608A3E09608A3E096FB
:1017C30008A3E09622C008C3E096F50808A3E096B4
:1017D300420808A3E096420808A3E0964508700172
:1017E300D3D00822080808EAC0E0EBC0E086F0E79F
:1017F300A4FA180986F0E7A42AFA180986F0E7A4E0
:101803002AFA180986F0E7A42AFA1986F0E7A4FB56
:10181300E5F02AFA190886F0E7A42BFBE5F03AFA7B
:10182300190886F0E7A42BFBE5F03AFA18180986A5
:10183300F0E7A4C5F02BFBE43AFA1908E7C5F0C6B4
:10184300A426F6E5F03BFBE43AFA1886F0E7A4F6A3
:10185300E5F00826F6E43B08F6E43A08F6D0E0FBA8
:10186300D0E0FA22E4CFC0E0E4CEC0E0E4CDC0E0B3
:10187300E4CCC0E075F020C3E633F608E633F6089F
:10188300E633F608E633F6181818EC33FCED33FDAF
:10189300EE33FEEF33FFC3EC9709ED9709EE97099B
:1018A300EF97191919400FFFEC97FC09ED97FD0904
:1018B300EE97FE191906D5F0BEECF709EDF709EE20
:1018C300F709EFF7191919D0E0FCD0E0FDD0E0FEDD
:1018D300D0E0FF226016080808C6C313C618C61353
:1018E300C618C613C618C613C6D5E0EA227009087F
:1018F3000808226016181818C6C333C608C633C6AC
:1019030008C633C608C633C6D5E0EA22E627F6087A
:1019130009E637F60809E637F60809E637F622E05E
:1019230026F608A3E036F608A3E036F608A3E03669
:10193300F622E026F008A3E036F008A3E036F0082C
:10194300A3E036F022C3E697F60809E697F60809FE
:10195300E697F60809E697F622C3E096F008A3E0B7
:1019630096F008A3E096F008A3E096F022E657F677
:101973000809E657F60809E657F60809E657F62276
:10198300E056F608A3E056F608A3E056F608A3E0EF
:1019930056F622E056F008A3E056F008A3E056F00E
:1019A30008A3E056F022E667F60809E667F6080999
:1019B300E667F60809E667F622E0F608A3E0F6080C
:1019C300A3E0F608A3E0F622E6F008A3E6F008A3F6
:1019D300E6F008A3E6F022E0FAA3E0FBA3E0FCA311
:1019E300E0FD22EAF0A3EBF0A3ECF0A3EDF022CAB2
:1019F300C0E0E6F0A308DAFAD0E0FA22CAC0E0E0D9
:101A0300A3C582CCC582C583CDC583F0A3C582CCD3
:101A1300C582C583CDC583DAE6D0E0CA22C3E49884
:101A2300F8E499F9121A618026C3E49AFAE49BFB5D
:101A3300E920E7E9121A61E498F8E499F922C3E48A
:101A430098F8E499F9121A61E498F8E499F9C3E46F
:101A53009AFAE49BFB22EB20E7CFE920E7E0B90009
:101A630010BB0008E88AF084F8AAF022E4FBC8FA65
:101A730022EB70227B10C833C8C933C9335007C364
:101A83009AC3DBF280069A50012ADBEAC833F4C812
:101A9300C933F4C9FA2275F008E4C833C8C933C995
:101AA30033C99AC99B5004C92AC93BD5F0ECFBC87A
:101AB30033F4C8E4C9FA22600D08C6A2E713C618B6
:101AC300C613C6D5E0F322600C08C6C313C618C6F6
:101AD30013C6D5E0F422700422600D18C6C333C6C2
:101AE30008C633C6D5E0F41822251810AF08F51838
:101AF300400215198008F51840021519D2AF22C00B
:101B0300D0251810AF08F518500205198008F518EC
:101B130050020519D2AFD0D0222518F58210AF0894
:101B2300F518400215198008F51840021519D2AFAF
:101B330085198322C5822518C582C583351910AF3F
:101B430007F5198582188007F519858218D2AFC564
:101B530083222518F582E43519F58322E4732518C9
:101B6300C582C0E0E51934FFC583C0E0E518C3951D
:101B73008224F810AF08858319858218800885832D
:101B830019858218D2AFCEF0A3E520F0A37808E63A
:101B930008F0A3DEFAEFF0A3E58124FAF8E608F0F3
:101BA300A3E608F0A3E608F0A30808E608F0A3E616
:101BB30008F0A315811581D0E0FED0E0F81581155A
:101BC300811581E8C0E0EEC0E0222518C582C0E09F
:101BD300E51934FFC583C0E0E518C3958224F910E5
:101BE300AF08858319858218800885831985821833
:101BF300D2AFCEF0A3E520F0A37808E608F0A3DE89
:101C0300FAEFF0A3E58124FBF8E608F0A3E608F079
:101C1300A30808E608F0A3E608F0A315811581D010
:101C2300E0FED0E0F815811581E8C0E0EEC0E022C7
:101C3300851983851882E0A3FEE0A3F5207808E0E8
:101C4300A3F608DFFAE0A3FFE0A3C0E0E0A3C0E04F
:101C5300E0A3C0E0E0A3C0E0E0A3C0E010AF0885CC
:101C630082188583198008858218858319D2AFD09D
:101C730083D082020122851983851882E0A3FEE0C6
:101C8300A3F5207808E0A3F608DFFAE0A3FFE0A3BA
:101C9300C0E0E0A3C0E0E0A3C0E0E0A3C0E010AF79
:101CA300088582188583198008858218858319D24F
:101CB300AFD083D08222C0D02518C582C0E0E519F9
:101CC30034FFC583C0E0E518C3958224F310AF0841
:101CD3008583198582188008858319858218D2AF78
:101CE300C8F0A3E9F0A3EAF0A3EBF0A37908E709AE
:101CF300F0A3D8FAECF0A3EDF0A3EEF0A3EFF0A37A
:101D0300D0E0F0A3D0E0F0A3D0E0F0A3E520F0A36F
:101D1300E5F0F0A322851983851882E0C0E0A3E0F3
:101D2300F9A3E0FAA3E0FBA37808E0F608A3DFFA3F
:101D3300E0FCA3E0FDA3E0FEA3E0FFA3E0C0E0A37B
:101D4300E0C0E0A3E0F5D0A3E0F520A3E0A3F5F025
:101D530010AF0885831985821880088583198582C9
:101D630018D2AFD082D083D0E0F8D0E032740480B0
:101D730006740280027401C0E0F404121B1CD0E05C
:101D83001219F2227404800474028000CCC0E0EDC6
:101D9300C0E0E518C39CCCAD1950011D10AF068CF3
:101DA300188D1980068C188D19D2AF1219FFD0E047
:101DB300FDD0E0FC22D083D082E9C0E0E493A3C34A
:101DC30086F0C5F095F0F908E493A386F0C5F09585
:101DD300F0700BE493A3C3994005E9048002A3E4E4
:101DE30075F002A42582F582E5F03583F583D0E012
:101DF300F9E493A3C0E0E493C0E022D083D082EC63
:101E0300C0E0EDC0E0E493A3FCE493A3FDED4C60DC
:101E13000D121E4AEC24FFFCED34FFFD80EFE4932A
:101E2300A3FCE493A3FDED4C600D121E89EC24FF8B
:101E3300FCED34FFFD80EFD0E0FDD0E0FCE493A3A4
:101E4300C0E0E493C0E022C0E0C3E49396087401C9
:101E5300939618400FE4936670080874019366180C
:101E630070007019A3A3C3E49396087401939618A2
:101E7300A3A3400DD0E0D0E0D0E0021E3AA3A3A379
:101E8300A3A3A3D0E022C0E0C0F088F0E49366707F
:101E9300080874019366187000A8F0A3A3700BD010
:101EA300F0D0E0D0E0D0E0021E3AA3A3D0F0D0E01F
:101EB30022C2AF02000022C0E074F2121CB9A2AF2A
:101EC300E433FED2AFC2C0E5D1A2E4500653D1EF52
:101ED3001207ACEEF8EEA2E092AF7F01021D18C02C
:101EE300E074F2121CB9A2AFE433FED2AFE589A2CB
:101EF300E150031206EC758900C2C5EEF8EEA2E0CC
:101F030092AF7F01021D18C0E074F2121CB9A2AF98
:101F1300E433FED2AFE58BA2E050031206EC758BDF
:101F230000C2E8EEF8EEA2E092AF7F01021D18C0F6
:101F3300E0C0D0E8C0E0E9C0E0A2AFE433F8D2AF3C
:101F4300C2C7E8F9E8A2E092AFD0E0F9D0E0F8D058
:101F5300D0D0E032C0E0C0D0E8C0E0E9C0E0C008C3
:101F6300C009C082C083A2AFE433F9D2AF9005ADFC
:101F7300E0F89005AEE068700B539AFB9005AF74E0
:101F830001F08031C2E99005ADE0F5087401250840
:101F93009005ADF0750900742D2508F5827405359B
:101FA30009F583E0F5C19005ADE0C3948040069048
:101FB30005AD7400F0E9F8E9A2E092AFD083D082D6
:101FC300D009D008D0E0F9D0E0F8D0D0D0E0327416
:101FD300F5121BCDEAFEEBFFEE2434F8EF3400F9E3
:101FE30088088909EE2435F582EF3400F583E0F89B
:101FF300EE2437F582EF3400F583E0F50AEC850A29
:10200300F0A4FCAAF0850AF0EDA42AFDE82CF8E47C
:102013003DF97A257B00121A61EA850882850983D6
:10202300F0F8740758F97401B900028004C333D976
:10203300FCFAE8131313541FF8EE28F8EF3400F9F1
:10204300E8245DF582E93400F583E05A6008EE2464
:1020530034F582EF802CEE2434F582EF3400F583DF
:10206300E0C0E0EE2436F582EF3400F583E0F5F0CE
:10207300D0E084A8F0EE28F8EF3400F9E82438F52E
:1020830082E93400F583E0F97F04021C7974F512C8
:102093001BCDEAFEEBFFEE2434F582EF3400F5832B
:1020A300E0C0E0EE2435F582EF3400F583D0E0F0B4
:1020B3008E828F83A3A3A3A3A3A3A3C082C0838E73
:1020C300828F83A3A3A3A3A3E0F8A3E0F9D083D0D3
:1020D30082E0C398F508A3E099F509EE247FF58221
:1020E300EF3400F583E064017069EE2480F582EF3C
:1020F3003400F583E0F8A3E0F98E828F83A3A3A3D2
:10210300A3A3A3A3E0FCA3E0FD8E828F83A3A3A3D9
:10211300A3A3E0FAA3E0FBC3EA9CEB9D5010C3EC3E
:1021230098ED99402EC3EA98EB995027800EC3EAA5
:1021330098EB994007C3EC98ED9940177C0D7D0D02
:10214300EEFAEFFB12128CEE247FF582EF3400F5EA
:1021530083E4F0EE2434F8EF3400F9E8FCE9FDEE13
:102163002435F582EF3400F583E0F8EE2437F58269
:10217300EF3400F583E0F50AE508850AF0A4F508D5
:10218300AAF0850AF0E509A42AF509E82508F8E488
:102193003509F97A257B00121A61EA8C828D83F066
:1021A300F8740758F97401B900028004C333D9FCE9
:1021B300FAE8131313541FF8EE28F8EF3400F9E884
:1021C300245DF582E93400F583E05A6008EE243497
:1021D300F582EF802CEE2434F582EF3400F583E0B2
:1021E300C0E0EE2436F582EF3400F583E0F5F0D05D
:1021F300E084A8F0EE28F8EF3400F9E82438F582FB
:10220300E93400F583E0F9122AED02208BC082C085
:1022130083851882851983E0F8A3E0F9C3EA9CEB70
:102223009D5010C3EC98ED99401BC3EA98EB99506D
:1022330014800EC3EA98EB994007C3EC98ED9940DC
:1022430004790180027900D083D08222EAC39CFA08
:10225300EB9DFB2274EF121BCD9009C7E06408606D
:1022630005E06407702A9061C8E060249009F5E0F6
:10227300F4601DE0F875F005A4C8AAF02AF974F714
:1022830028FE740939FF8E828F83A3A3A3E0700312
:10229300022387906060E0C0E0EE2468F582EF34AB
:1022A30000F583D0E0F0750CA0750D0D7508007571
:1022B3000900E5D914F50AE5D95403F50E6017743E
:1022C30003650E605CE50A6010EE2467F582EF3467
:1022D30000F583E0700302236C900D9BE0640160C2
:1022E3002AEE2482F582EF3400F583E0600478045B
:1022F30080027800850A08E508C398FA95E0FB1286
:1023030010D08A088B09EA450970051215268074D6
:10231300EE2482F582EF3400F583E070048A0C8B9F
:102323000DE50A6012850C82850D83F50BE5D9F066
:10233300A3150BE50B70F6EE2482F582EF3400F55E
:1023430083E0604474FC250AF50A780C121D74AC12
:102353000AA90EEEFAEFFB1213407402121B02E9F4
:102363007026AA08AB0912083C793D8E828F83A39D
:10237300A3A3A3E0FA7B00120F92EEFAEFFB121273
:10238300B01213A07900807D7403650E6056850A30
:10239300107511007810121D74AC0CAD0DAA08ABAA
:1023A3000912131C7402121B02EE2468F582EF3427
:1023B30000F583E064807004747F8001E0F50C789D
:1023C3000C121D78E50EF50C780C121D78A90AACD9
:1023D30008AD099009F5E0FA7B00120F5074021260
:1023E3001B02801C9009C7E06408AC0CAD0D70099A
:1023F300EEFAEFFB1213708007EEFAEFFB121406EE
:1024030012153279017F0A021C7974F5121BCD74FF
:10241300FC121AECEAFEEBFF8908A2AFE433F509DC
:10242300C2AF806AEE2463F8EF3400F97A007B00D0
:10243300A2AFE433F50AC2AF88828983E0FCA3E04C
:10244300FDEC4D603A88828983E0FAA3E0FB8A823F
:102453008B83E0FCA3E0FD88828983ECF0A3EDF09D
:102463008A828B83E4F0A3F088828983E0FCA3E073
:10247300FDEC4D700A88828983A3A3E4F0A3F0E501
:102483000AA2E092AF12083C900D14E004F0EE248F
:1024930063F582EF3400F583E0F8A3E0F9E84960DF
:1024A3003DEE2463F582EF3400F583E02402FAA3C2
:1024B300E03400FBEA2402F50AEB3400F50B780A5A
:1024C300121D748A828B83E0FCA3E0F9EEFAEFFB22
:1024D3001212E07402121B02E97003022427900D0A
:1024E30014E06063900D15E0F8900D14E0C398506C
:1024F3000C740265087050900D16E0604A8E828F4E
:1025030083A3A3A3A3E0851882851983F0A3E4F032
:10251300900D14E0F87402121B55E8F0A3E4F09058
:102523000D14E0F8900D13E028F07402121B55AC63
:1025330082AD83851882851983AA82AB83790112C0
:102543000F5C900D14E4F0E509A2E092AF7404125D
:102553001B0202208B8521878522C622C0E0C0D0C2
:10256300E8C0E0E9C0E0EAC0E0EBC0E0ECC0E0EDC9
:10257300C0E0EEC0E0C008C009C00AC00BC082C002
:1025830083C0F0A2AFE433FEC2AF759B00906182BB
:10259300E0A2E05012E591A2E0500C7591FE7401A7
:1025A30065217003122257E0A2E55051E591A2E59F
:1025B300504B7591DF9009C7E064076005E064083C
:1025C300702374016521703579019009F5E0FA757E
:1025D300F005A4CAA8F028FB74F72AFA74093BFB98
:1025E30012240D8018E0640D70139009E9E004F0E3
:1025F30064287002E4F07A00E0F9121538906182E1
:10260300E0A2E640030226A6E591A2E640030226E5
:10261300A67591BF9009C7E06405700812143012C3
:10262300143C80031214367521001214A2E9900998
:10263300C8F079001214841211B47A017B00900956
:10264300C6E0F912044C907803E064427055900D93
:102653009FE014F0704DC2AF12265E00782AD0E0DE
:10266300F618D0E0F6E59F540770057509FF80035F
:1026730075097FC4C0E07829E6F50808E65509F531
:1026830009740B7808121ACAD0E02508F890627012
:10269300E0A2E740F8E8C333906272F0906270E022
:1026A300D2E0F0906181E0A2E35009E5E9A2E350B2
:1026B3000375E9F7A3E0A2E75009E591A2E7500308
:1026C30075917FEEA2E092AFD0F0D083D082D00B91
:1026D300D00AD009D008D0E0FED0E0FDD0E0FCD095
:1026E300E0FBD0E0FAD0E0F9D0E0F8D0D0D0E0328F
:1026F300C0E0C0D0C082C083906183E0A2E05009F3
:10270300E5BFA2E0500375BFFEE0A2E15009E5BFBB
:10271300A2E1500375BFFDE0A2E25009E5BFA2E2CA
:10272300500375BFFBE0A2E35009E5BFA2E35003EA
:1027330075BFF7E0A2E45009E5BFA2E4500375BFFB
:10274300EFE0A2E55009E5BFA2E5500375BFDFE066
:10275300A2E65009E5BFA2E6500375BFBFD083D000
:10276300828088C0E0C0D0E8C0E0E9C0E0EAC0E011
:10277300EBC0E0ECC0E0EDC0E0C0F0E5A7A2E6509E
:102783000FE5A1A2E6500953A7BF75A1BF1227CB3E
:10279300E5A7A2E5500CE5A1A2E5500653A7DF7516
:1027A300A1DFE5A7A2E15009E5A1A2E1500375A1CC
:1027B300FDE5A7A2E2500CE5A1A2E2500653A7FB58
:1027C30075A1FBD0F00226DC74F8121BCD75210134
:1027D3009009C7E0640670151213C48A828B83A321
:1027E300A3A3A3A3A3E0FAA3E0FB12141EA2AFE4E6
:1027F30033FED2AF9009CDE0640170187A207B00DC
:102803009009C6E0F91204D67A207B009009C6E04D
:10281300F9120452906182E0D2E6F0900D9CE060E0
:102823002185C62280169009CCE064017008E5C6B4
:1028330054F84405F5C653BEFC12255874016521AE
:1028430060E4EEA2E092AF7F01021C79008E238F39
:1028530024858228858327851882851983E0CEA362
:10286300E0CF852882852783EBC9EAC8EDCBECCA84
:1028730075F010C3E833C8E933C9EA33CAEB33CB85
:10288300C3EA9EF526EB9FF525B35004AB25AA2694
:10289300EC33CCED33CDD5F0DAAE23AF242274ED97
:1028A300121BCD8A088B098C0A8D0B7413121B55CE
:1028B300780C1219BC7808790C1217A875100175D9
:1028C30011C875120075130050127808790C12198B
:1028D30048781079081217A850168010780C7908D8
:1028E3001219487810790C1217A840047901800254
:1028F30079007F0C021C7974ED121BCD8A088B09B9
:102903008C0A8D0B7413121B55780C1219BC780C9E
:1029130079081217A840117808790C121948AA08E7
:10292300AB09AC0AAD0B802275100075110075124E
:10293300007513017810790C121948781079081270
:10294300190FAA10AB11AC12AD1380A68A828B8328
:102953007508FF7509FF750AFF750B0078081219D2
:10296300967F04021C7974F5121BCD8C828D8378BB
:10297300081219BC8A828B83780812195CEA240432
:10298300F8EB3400F98C828D83A3A3A3A3E0FCA30B
:10299300E0FD88828983C3E09CF0A3E09DF08882F8
:1029A3008983C3E09420A3E0944E40268A828B83DC
:1029B3007508FF7509FF750AFF750BFF7808121973
:1029C300358A828B83A3A3A3A3E02420F0A3E0345E
:1029D3004EF002294F74F5121BCDE9FE900D28E04D
:1029E300FAA3E0FBEEC333F8E433F974CA28F582A3
:1029F300748339F583E02AF508A3E03BF5097808E9
:102A0300121D747A407B427C0F7D001228507402A1
:102A1300121B028A088B098C0A8D0B74107808121A
:102A230018D7AA08AB097F04021C7974F1121BCDD5
:102A33008A0C8B0D8C0E8D0F740F121B55E0FAA3AD
:102A4300E0FB7411121B55E0F508A3E0F5097808C3
:102A5300121D74EA2401F508EB3400F509E4F50AC4
:102A6300F50B780C79081217E77508717509027868
:102A73000C79081217E7AA0CAB0DAC0EAD0F122898
:102A8300507402121B028B09EA450960047A018023
:102A9300027A00EC2AFCED3400FD7413121B55E09E
:102AA300F8A3E0F9E8FEE9FFECF8EDF97A717B02AF
:102AB300121A61880889098E828F8378081219CBCC
:102AC300ECF8EDF97A717B02121A618A088B0974AA
:102AD300057808121AD98E828F83A3A3A3A3E508CE
:102AE300F0A3E509F07F08021C79C082C083E99056
:082AF3006000F0D083D08222C4
:102AFC00FFFFFFFFFFFFFFFFC082C0839061907458
:102B0C0004F0A37448F0A37402F09061807440F058
:102B1C009061BC7403F09061877419F090626574D5
:102B2C001BF0906249E0C3941390619C400A7409B5
:102B3C00F090606674018007740DF0906066E4F0AC
:102B4C0090619A7433F0A37455F09061A0743AF0CC
:102B5C00900D9AE064017009C2919009CB74678062
:102B6C00059009CB7461F0902B02E493906186F090
:102B7C00902AFCE493F46027E493540FF890618559
:102B8C00E0686012E5C654804449F5C6E59E547F62
:102B9C00644970F8E8F053C680E59E547F70FA796A
:102BAC000512151A022FEBC082C083E5A8F853A8B2
:102BBC007E906181E4F0A3F0A3F0C2BA539AFEC2F6
:102BCC0089759B00C2C275E90075910075BF0075CF
:102BDC00A91175B905906181F0A374C0F0A3E4F05C
:102BEC00D2BA439A0174805842A8022FEBF0A3F09A
:102BFC00022FEBC082C08374F8121AEC9009C9E062
:102C0C00F8A3E0F9E8497003022D2D9009C9E054AE
:102C1C004060237908851882851983AA82AB8312B8
:102C2C0012FE851882851983AA82AB83120F389005
:102C3C0009C9E054BFF0E054806010790C7AC07B75
:102C4C000D1212FE9009C9E0547FF0E0A2E0503161
:102C5C0090619A7433F0A37455F09061A0743AF0BB
:102C6C00900D9AE064017009C2919009CB74678051
:102C7C00059009CB7461F0120F3E9009C9E054FE27
:102C8C00F0E05402603190619A743FF0A3745AF0F2
:102C9C009061A0747FF0900D9AE064017009D2915C
:102CAC009009CB747180059009CB746AF0120F3EB9
:102CBC009009C9E054FDF0E054046013902B00E43B
:102CCC0093906186F0120F449009C9E054FBF0E038
:102CDC0054086013902B01E493906186F0120F441A
:102CEC009009C9E054F7F0E054106013902B02E403
:102CFC0093906186F0120F449009C9E054EFF0E014
:102D0C005420600A120F449009C9E054DFF0A3E08C
:102D1C005401600D1211C6120F4A9009CAE054FEFC
:102D2C00F07408121B02022FEBC082C083E960050D
:102D3C0014602A804F90619A7433F0A37455F0900C
:102D4C0061A0743AF0900D9AE064017009C2919000
:102D5C0009CB7467802D9009CB7461802690619AA1
:102D6C00743FF0A3745AF09061A0747FF0900D9AA8
:102D7C00E064017009D2919009CB747180059009BF
:102D8C00CB746AF0022FEB74EC121B6174F4121A00
:102D9C00EC851882851983AC82AD83758385758229
:102DAC007974041219FF902B0093F46003022F1F07
:102DBC00907808E0C394025003022EFF7404121B97
:102DCC0055AC82AD837583847582DA74081219FF51
:102DDC008518828519838582128583137404121BCE
:102DEC0055AC82AD83750EFF750FFF7FFF7E0075AE
:102DFC000C48750D78801574086E7003022E937450
:102E0C00096E7003022E93740A6E607B850C8285AA
:102E1C000D8378081219BC8C828D83A909E50AC927
:102E2C00F88810741878081218D7E5104508F8C3FC
:102E3C00E098A3E099850C82850D8378081219BC63
:102E4C0040188C828D83741878081218D7E51045B9
:102E5C0008F8E0C398F8A3E0801C741878081218DE
:102E6C00D7E5104508FAE9FB8C828D83E0F8A3E0E6
:102E7C00F9EAC398F8EB99F9C3E8950EE9950F5068
:102E8C0006880E890FEEFF0EE50C2404F50CE50DFB
:102E9C003400F50DEEC394135003022E0374FF653A
:102EAC000E700474FF650F60238F0874027808128B
:102EBC001AD974482508F58274783509F583780891
:102ECC001219BC851282851383E508F0EC2402FCF0
:102EDC00ED3400FD851282851383A38582128583D0
:102EEC0013740C121B55E5826C7003E5836D600343
:102EFC00022DF17508017509007808121D74740211
:102F0C00121B55AC82AD837AC07B0A1206CE7402BA
:102F1C00121B02740C121B027F0C021C33C082C0E9
:102F2C00839061AE7468F0A3746AF090624574FB90
:102F3C00F0A304F053F4FD43FE02900D9A7401F0DB
:102F4C009061A0E0643A90619A70237433F0A3749A
:102F5C0055F09061A0743AF0740164017009C2914B
:102F6C009009CB746780289009CB74618021743FE1
:102F7C00F0A3745AF09061A0747FF0740164017036
:102F8C0009D2919009CB747180059009CB746A02B7
:102F9C002BFB7F08021C33C082C083900D78E06449
:102FAC00017011900D7EE064016027E07006A3E0D3
:102FBC006401601E900D8FE064017008900D95E027
:102FCC006401600E900D22E06401700A900D27E000
:102FDC006004790C800279008005E0F9122AEDD0AA
:102FEC0083D082020122C082C08375E1F1900D254D
:102FFC00E0605A14600914605E14605614705D121F
:10300C0011D8900D1BE0F97A1C7B0D1214667AD640
:10301C007BBE7C897D8E1214B47A557B557C557D94
:10302C0000121472900D26E0F912147E790112151B
:10303C000E900D19E0F8A3E0C82416F582E83400D0
:10304C00F5837408F0A37412F0790080921211DEEB
:10305C0080B01211E480AB1211EA80A6791280EBD9
:10306C0074F0121B6175D90D900D06E0A2E0E433EB
:10307C001313F8900D1BE0C4333354C0484401F5CE
:10308C00D97819790D88828983A3A3A3E0F5D9880F
:10309C00828983A3A882A983E8641F7003E9640D65
:1030AC0070E37806790D88828983A3E0F5D988824C
:1030BC008983A3A882A983E8640C7003E9640D706A
:1030CC00E575E195900D06E0F97A077B0D12146C0D
:1030DC009015A87484F0A37411F0A37446F0A37433
:1030EC0013F0A37446F0A37413F0A37446F0A37406
:1030FC0013F0A3748AF0A37411F0A37446F0A374B4
:10310C0013F0A374A2F0A37411F09015B67446F0EA
:10311C00A37413F0A37446F0A37413F0A37446F0D5
:10312C00A37413F0A37446F0A37413F0A37446F0C5
:10313C00A37413F0A37446F0A37413F0900D25E060
:10314C006401900D197012E0F8A3E0F5838882A356
:10315C00A37508007509088010E0F8A3E0F58388D2
:10316C0082A3A3750804750900750A00750B007815
:10317C0008121922750CFF750DFF750EFF750F00E7
:10318C007808790C121970900D19E0F8A3E0C82496
:10319C000EF582E83400F58378081219CB900D19DE
:1031AC00E0F8A3E0C82414F582E83400F583741326
:1031BC00F09009C77402F0022F9E74F7121B6190F5
:1031CC000D2BE02407F5D9900D1BE0C4333354C00C
:1031DC00F5D97819790D88828983A3A3A3E0F5D951
:1031EC0088828983A3A882A983E8641F7003E96499
:1031FC000D70E3900D2BE0601F7819790DFAE8241F
:10320C0013F582E93400F583E0F5D988828983A32C
:10321C00A882A9831AEA70E6900D4BE02407F5D931
:10322C00900D1BE0C4333354C04404F5D97819799C
:10323C000D88828983A3A3A3E0F5D988828983A30F
:10324C00A882A983E8641F7003E9640D70E3900DF4
:10325C004BE0601F7819790DFAE82433F582E934D4
:10326C0000F583E0F5D988828983A3A882A9831A03
:10327C00EA70E675E1959015A87490F0A37411F0BE
:10328C00A37446F0A37413F0A37446F0A37413F064
:10329C00A37446F0A37413F0A3748AF0A37411F012
:1032AC00A37446F0A37413F0A374A2F0A37411F0EA
:1032BC009015B67446F0A37413F0A37446F0A3747F
:1032CC0013F0A37446F0A37413F0A37446F0A37424
:1032DC0013F0A37446F0A37413F0A37446F0A37414
:1032EC0013F0900D19E0F8A3E0C8240EF582E83431
:1032FC0000F58374FFF0A3F0A3F0A3F0900D19E098
:10330C00F8A3E0C82414F582E83400F5837412F0B5
:10331C009009C77401F0FF021C3374F7121B619003
:10332C000D2BE02407F5D9900D1BE0C4333354C0AA
:10333C004402F5D97819790D88828983A3A3A3E077
:10334C00F5D988828983A3A882A983E8641F7003B6
:10335C00E9640D70E3900D2BE0601F7819790DFA7C
:10336C00E82413F582E93400F583E0F5D9888289E5
:10337C0083A3A882A9831AEA70E675E1959015A833
:10338C00749CF0A37411F0A3749CF0A37411F0A3BB
:10339C00749CF0A37411F0A3749CF0A37411F0A3AB
:1033AC00749CF0A37411F0A3749CF0A37411F0A39B
:1033BC0074A2F0A37411F09015B67446F0A37413B4
:1033CC00F0A37446F0A37413F0A37446F0A3741323
:1033DC00F0A37446F0A37413F0A37446F0A3741313
:1033EC00F0A37446F0A37413F0900D19E0F8A3E069
:1033FC00C8240EF582E83400F58374FFF0A3F0A323
:10340C00F0A3F0900D19E0F8A3E0C82414F582E8BD
:10341C003400F5837414F09009C77404F002411E53
:10342C0074F7121B61900D2BE02407F5D9900D1B3E
:10343C00E0C4333354C04406F5D97819790D888229
:10344C008983A3A3A3E0F5D988828983A3A882A941
:10345C0083E8641F7003E9640D70E3900D2BE0604A
:10346C001F7819790DFAE82413F582E93400F583F5
:10347C00E0F5D988828983A3A882A9831AEA70E629
:10348C00900D4BE02407F5D9900D1BE0C433335459
:10349C00C04404F5D97819790D88828983A3A3A334
:1034AC00E0F5D988828983A3A882A983E8641F7078
:1034BC0003E9640D70E3900D4BE0601F7819790DF2
:1034CC00FAE82433F582E93400F583E0F5D98882F3
:1034DC008983A3A882A9831AEA70E675E1959015F1
:1034EC00A87496F0A37411F0A37446F0A37413F0AF
:1034FC00A37446F0A37413F0A37446F0A37413F0F2
:10350C00A37446F0A37413F0A37446F0A37413F0E1
:10351C00A374A2F0A37411F09015B67446F0A374C2
:10352C0013F0A37446F0A37413F0A37446F0A374C1
:10353C0013F0A37446F0A37413F0A37446F0A374B1
:10354C0013F0A37446F0A37413F0900D19E0F8A3D4
:10355C00E0C8240EF582E83400F58374FFF0A3F084
:10356C00A3F0A3F0900D19E0F8A3E0C82414F582A1
:10357C00E83400F5837415F09009C77403F0024128
:10358C001EC082C083900D827425F0900D80740152
:10359C00F0A3E4F07A01FB121490900D6EE0F8A306
:1035AC00E0C82416F582E83400F5837414F0A37493
:1035BC0012F0900D7FE064017016900D7EE070109B
:1035CC0079011214F61214C01214F07900121502BB
:1035DC00022FEBC082C08374FA121AEC900D77E0C4
:1035EC00640170081211F0900D77E4F075E1F19020
:1035FC000D6EE0F8A3E0C82415F582E83400F583DD
:10360C007401F0900D79E06401707690850FC082A2
:10361C00851882851983AC82AD83758385D08274BD
:10362C00061219FF75D90D900D70E0C4333354C0D8
:10363C004403F5D9786E790D88828983A3A3A3E01E
:10364C00F5D988828983A3A882A983E8647470035E
:10365C00E9640D70E3851882851983A882A9838893
:10366C00828983E0F5D9A3A882A9837406121B551D
:10367C00E582687003E5836970E575E195790180F1
:10368C000279001214969015A8747CF0A37413F0B0
:10369C00A37482F0A37413F0A3747CF0A37413F0DE
:1036AC00A3747CF0A37413F0A37446F0A37413F00A
:1036BC00A37446F0A37413F0A37488F0A37413F0EE
:1036CC009015B67446F0A37413F0A37446F0A3746B
:1036DC0013F0A37446F0A37413F0A37446F0A37410
:1036EC0013F0A37446F0A37413F0A37446F0A37400
:1036FC0013F0900D70E0F97A717B0D121466900D39
:10370C0082E0F9122AED790112149C7AD67BBE7CE8
:10371C00897D8E1214B47A557B557C557D0012141C
:10372C0072790012150E900D6EE0F8A3E0C8241407
:10373C00F582E83400F5837416F09009C77405F02F
:10374C0004022D2F74F7121B618908A808E875F084
:10375C0005A4C8AAF02AF974F728FE740939FF9059
:10376C000D87E0F97A887B0D121466900D95E07048
:10377C001A79001214D8900D06E0700479008002BA
:10378C0079017A077B0D12146C800579011214D81B
:10379C0075E1F175D923900D87E0C4333354C044DF
:1037AC0005F5D97885790D88828983A3A3A3E0F5E3
:1037BC00D988828983A3A882A983E8648B7003E9E2
:1037CC00640D70E375D90075D90075D90075D900F1
:1037DC0075D90075D900EEF8EFF9E82404FAE9344C
:1037EC0000FBE82422F582E93400F583E0F5D98862
:1037FC00828983A3A882A983EA687002EB6970E2CC
:10380C00EEF8EFF9E824031AE93400FBE82426F576
:10381C0082E93400F583E0F5D988828983A3A882F4
:10382C00A983EA687002EB6970E2EE242BF582EF53
:10383C003400F583E0F5D9EE242CF582EF3400F555
:10384C0083E0F5D9EE242DF582EF3400F583E0F515
:10385C00D9EE242EF582EF3400F583E0F5D9EE2471
:10386C002FF582EF3400F583E0F5D9EE2430F582A4
:10387C00EF3400F583E0F5D9EE2431F582EF340016
:10388C00F583E0F5D9EE2432F582EF3400F583E0D0
:10389C00F5D9EE2433F582EF3400F583E0F5D9EE5B
:1038AC00F8EFF9E82405FAE93400FBE8245DF58229
:1038BC00E93400F583E0F5D988828983A3A882A92D
:1038CC0083EA687002EB6970E2EE2437F582EF341C
:1038DC0000F583E0541FF8EE242AF582EF3400F54E
:1038EC0083E0C43354E048F5D975E1959015A8747C
:1038FC004CF0A37413F0A37452F0A37413F0A374DC
:10390C0046F0A37413F0A37446F0A37413F0A374DD
:10391C0046F0A37413F0A37446F0A37413F0A374CD
:10392C0058F0A37413F09015B67446F0A37413F00A
:10393C00A37446F0A37413F0A37446F0A37413F0AD
:10394C00A37446F0A37413F0A37446F0A37413F09D
:10395C00A37446F0A37413F0900D94E0F9122AEDC1
:10396C007AD67BBE7C897D8E1214B47A557B557CBD
:10397C00557D0012147290600DE4F0790112150E51
:10398C009009C77406F002411E74E8121B61900D79
:10399C0085E0F8A3E0F5838882A3A3780C1219BC08
:1039AC00900D96E0FAF875F005A4C8ACF02CF974FB
:1039BC002528F582740A39F583E0FEA3E0FFEEC3F7
:1039CC0033FEEF33FF8E14F5157516007517008551
:1039DC000C08850D09850E0A850F0B7510047511E1
:1039EC00007512007513007808791012190F7808F9
:1039FC00121D70850C08850D09850E0A850F0B7834
:103A0C0008791412190F780C7914121867E4F5164A
:103A1C00F517780879141219488A0C750D0074037F
:103A2C00780C121AD9E50D3395E0F50EF50F7808E0
:103A3C00790C12190F750CFF750DFF750EFF7808B8
:103A4C00790C121970AA08AB09AC0A7D001228FA7D
:103A5C007404121B028A088B09A808A909C3EE98E2
:103A6C00EF995006E82EF8E93FF9E890600EF0E97E
:103A7C00A3F0EEA3F0EFA3F090600D74C1F07F10F3
:103A8C00021C33C082C083900D19E0F8A3E0C82457
:103A9C0006F582E83400F583E4022BF974F7121B67
:103AAC00619009F5E0F875F005A4C8AAF02AF9743C
:103ABC00F728F8740939F9E82405FAE93400FB8A87
:103ACC00828B83E0FCA3E0FD88828983A3A3A3A35C
:103ADC00A3A3A3A3A3ECF0A3EDF088828983A3A3F3
:103AEC00A3A3A3A3A3E024FFF8A3E034FFF98A82E5
:103AFC008B83E8F0A3E9F002411EC082C083900DD5
:103B0C006EE0F8A3E0C82406F582E83400F583E4FF
:103B1C00F0A3F0900D82022FE6C082C083900D8539
:103B2C00E0F8A3E0C82406F582E83400F583E4F05D
:103B3C00A3F0900D94022FE602012274F6121B6181
:103B4C009061D0E0F87480C398FCEA2482F582EB93
:103B5C003400F583E06004780480027800E8240ED9
:103B6C00F8ECC3985003023C737C0C900DA0E4F06D
:103B7C00EA2476F582EB3400F583E0900DA1F0EAAF
:103B8C002477F8EB3400F988828983E0900DA2F059
:103B9C0088828983A3E0900DA3F0EA2479F8EB34B2
:103BAC0000F988828983E0900DA4F088828983A330
:103BBC00E0900DA5F0EA247BF8EB3400F9888289BB
:103BCC0083E0900DA6F088828983A3E0900DA7F086
:103BDC00EA247DF8EB3400F988828983E0900DA803
:103BEC00F088828983A3E0900DA9F0EA2474F8EBA5
:103BFC003400F98A828B83A3A3A3A3A3E0FEA3E0E2
:103C0C00FF88828983E02EF0A3E03FF088828983CD
:103C1C00E0900DAAF088828983A3E0900DABF0EAC6
:103C2C002482F582EB3400F583E060177508A075EB
:103C3C00090D7808121D74790312133A7402121BC1
:103C4C00027C1074012CF5D975D9037582A075838B
:103C5C000DECFEE0F5D9A31EEE70F875E195790434
:103C6C001214BA79018002790002439874F6121B7F
:103C7C00619061D0E0F87480C398FCEA2482F582EC
:103C8C00EB3400F583E06004780480027800E824CB
:103C9C000AF8ECC3985003023D6B750808900DA010
:103CAC007401F07C0D7D0D78A1790D7E058C828DD3
:103CBC0083E088828983F08C828D83A3AC82AD8370
:103CCC0088828983A3A882A9831EEE70E0EA2480EF
:103CDC00FCEB3400FD8A828B83A3A3A3A3A3E0FE99
:103CEC00A3E0FF8C828D83E02EF0A3E03FF08C826A
:103CFC008D83E088828983F08C828D83A3AC82AD26
:103D0C008388828983A308A9838C828D83E088822F
:103D1C008983F0EA2482F582EB3400F583E0601AA3
:103D2C007508A075090D7808121D747C08790312AA
:103D3C00133A7402121B0275080C74012508F5D98C
:103D4C0075D9037582A075830DAE08E0F5D9A31E55
:103D5C00EE70F875E19579041214BA790180027944
:103D6C000002439874F7121B61EAFEEBFF9061D0DE
:103D7C00E06003023E5775D91875D90375D903EE67
:103D8C00F8EFF9E82408FAE93400FBE8249BF58203
:103D9C00E93400F583E0F5D988828983A3A882A948
:103DAC0083EA687002EB6970E2EE24A3F582EF34CB
:103DBC0000F583E0F5D9EE24A4F582EF3400F58309
:103DCC00E0F5D9EE2493F582EF3400F583E58224F7
:103DDC0008F8E5833400F9E0F5D9A3E865827003AF
:103DEC00E9658370F2EE2487F582EF3400F583E504
:103DFC00822404F8E5833400F9E0F5D9A3E8658260
:103E0C007003E9658370F275E1957908EE2493FAF5
:103E1C00EF3400FB1212F27904EE2487FAEF34002F
:103E2C00FB1212F279041214BAEE246FF582EF34FD
:103E3C0000F583E0F8A3E0F9EE2471F582EF34008D
:103E4C00F583E8F0A3E9F079018002790002411EC4
:103E5C0074F7121B61EAFEEBFF9061D0E060030285
:103E6C003F3975D90E75D90375D904EE248BF582BB
:103E7C00EF3400F583E5822408F8E5833400F9E09B
:103E8C00F5D9A3E865827003E9658370F2EE2483AB
:103E9C00F582EF3400F583E5822404F8E5833400E1
:103EAC00F9E0F5D9A3E865827003E9658370F275D2
:103EBC00E1957908EE248BFAEF3400FB1212F279BB
:103ECC0004EE2483FAEF3400FB1212F27C00EEF8BD
:103EDC00EFF9ECFAC3E49AFA95E0FBEE2AFAEF3B21
:103EEC00FBEA248AF582EB3400F583E0C0E0E82499
:103EFC00AAF582E93400F583D0E0F00C888289833E
:103F0C00A3A882A983ECC3940840C7EE246FF58262
:103F1C00EF3400F583E0F8A3E0F9EE2471F582EFBD
:103F2C003400F583E8F0A3E9F0790180027900020E
:103F3C00411EC082C08375D90275D90375D9057528
:103F4C00E195EA246FF582EB3400F583E0F8A3E009
:103F5C00F9EA2471F582EB3400F583E8F0A3E9F07B
:103F6C007901022FEB74F6121B61EAFEEBFF900D48
:103F7C00A07406F07508A075090D7808121D747CE4
:103F8C0001790312133A7402121B0275D90675D902
:103F9C00037582A075830DE0F5D9A3E58264A57045
:103FAC0004E583640D70F075E1959009C7E0640831
:103FBC00701EEE246FF582EF3400F583E0F8A3E079
:103FCC00F9EE2471F582EF3400F583E8F0A3E9F003
:103FDC00790102439874F6121B61EAFEEBFF9061C3
:103FEC00D0E0705E900DA0740AF07508A075090DF4
:103FFC007808121D747C01790312133A7402121B97
:10400C000275D90675D9037582A075830DE0F5D9B3
:10401C00A3E58264A57004E583640D70F075E195E9
:10402C00EE246FF582EF3400F583E0F8A3E0F9EEAF
:10403C002471F582EF3400F583E8F0A3E9F07901FF
:10404C008002790002439874F6121B61EAFEEBFFC2
:10405C009061D0E070667801900DA0740BF090091F
:10406C00C7E0640770197508A075090D7808121D52
:10407C00747C01790312133A7402121B02780574D2
:10408C000128F5D975D9037582A075830DE8FAE07E
:10409C00F5D9A31AEA70F875E195EE246FF582EF65
:1040AC003400F583E0F8A3E0F9EE2471F582EF34E7
:1040BC0000F583E8F0A3E9F079018002790002436E
:1040CC009874F7121B61EAFEEBFF75D90375D903DF
:1040DC0075D90DEE24DDF582EF3400F583E0F5D9CA
:1040EC0075E19579041214BAEE246FF582EF340061
:1040FC00F583E0F8A3E0F9EE2471F582EF3400F5D6
:10410C0083E8F0A3E9F079018008F0EEA2E092AF29
:10411C0079007F01021C3374F6121B61EAFEEBFF7F
:10412C009061D0E0F87480C398FAEE2482F582EFA7
:10413C003400F583E06004780480027800E8240BF6
:10414C00F8EAC39850030241F97D09900DA0740858
:10415C00F0EE24E4F8EF3400F97AA17B0D7C0888AA
:10416C00828983E08A828B83F088828983A3A882E8
:10417C00A9838A828B83A3AA82AB831CEC70E0EEAA
:10418C002482F582EF3400F583E0601D7508A0757C
:10419C00090D7808121D747C097903EEFAEFFB12F5
:1041AC00133A7402121B027D0D74012DF5D975D9C9
:1041BC00037582A075830D8D08E0F5D9A31508E56C
:1041CC000870F675E19579041214BAEE246FF58235
:1041DC00EF3400F583E0F8A3E0F9EE2471F582EFFB
:1041EC003400F583E8F0A3E9F0790180027900024C
:1041FC00439874F6121B61EAFEEBFF9061D0E0F875
:10420C007480C398FAEE2482F582EF3400F583E0D3
:10421C006004780480027800E8240BF8EAC3985014
:10422C00030242C37D09900DA0EDF0EE24E4F8EFFB
:10423C003400F97AA17B0D7C0888828983E08A821C
:10424C008B83F088828983A3A882A9838A828B833B
:10425C00A3AA82AB831CEC70E0EE2482F582EF34CF
:10426C0000F583E0601D7508A075090D7808121D16
:10427C00747C097903EEFAEFFB12133A7402121BE9
:10428C00027D0D74012DF5D975D9037582A0758346
:10429C000D8D08E0F5D9A31508E50870F675E195C4
:1042AC0079041214BAEE241DF582EF3400F583E480
:1042BC00F0A3F079018002790002439874F6121B86
:1042CC0061EAFEEBFF9061D0E0F87480C398FAEEDF
:1042DC002482F582EF3400F583E0600478048002D8
:1042EC007800E82408F8EAC398500302439678064D
:1042FC00900DA0740CF09009E4E0900DA1F09009E1
:10430C00E5E0900DA2F09009E6E0900DA3F0900985
:10431C00E7E0900DA4F09009E8E0900DA5F0EE24F4
:10432C0082F582EF3400F583E0601B7508A07509F7
:10433C000D7808121D747C067903EEFA12133A7488
:10434C0002121B02780A740128F5D975D9037582FB
:10435C00A075830D8808E0F5D9A31508E50870F65B
:10436C0075E19579041214BAEE246FF582EF3400DE
:10437C00F583E0F8A3E0F9EE2471F582EF3400F553
:10438C0083E8F0A3E9F07901800279007F02021C36
:10439C003374F6121B61EAFEEBFF9061D0E0F87407
:1043AC0080C398FAEE2482F582EF3400F583E06046
:1043BC0004780480027800E82404F8EAC3985003D7
:1043CC000244777802900DA0E8F0EE24F6F582EF27
:1043DC003400F583E0900DA1F0EE2482F582EF34E9
:1043EC0000F583E0601B7508A075090D7808121D97
:1043FC00747C027903EEFA12133A7402121B0278DF
:10440C0006740128F5D975D9037582A075830D88BA
:10441C0008E0F5D9A31508E50870F675E195EE24CA
:10442C0073F582EF3400F583E4F0EE247FF582EF30
:10443C003400F583E4F0EE241DF582EF3400F583AF
:10444C00E4F0A3F079041214BAEE240DF582EF34E3
:10445C0000F583E0F8A3E0F9EE2471F582EF340067
:10446C00F583E8F0A3E9F079018002790002439822
:10447C0074F6121B619061D0E0F87480C398FCEA6A
:10448C002482F582EB3400F583E06004780480022A
:10449C007800E82404F8ECC398405B7902900DA0F6
:1044AC007407F0EA24F7F582EB3400F583E0900D05
:1044BC00A1F0EA2482F582EB3400F583E0601875F4
:1044CC0008A075090D7808121D747C020912133AA4
:1044DC007402121B027906740129F5D975D903757A
:1044EC0082A075830DE9F8E0F5D9A318E870F8758A
:1044FC00E19579018002790002439874F5121B61F1
:10450C00E9FCA2AFE433F50AC2AF7D0080010DEAED
:10451C00246EF582EB3400F583E0F8EDC398501A65
:10452C008D08EA2508F8EB3400F9E8246AF582E9ED
:10453C003400F583E06C70D68024EA246EF8EB34FA
:10454C0000F9E0FEEA2EFAEB3400FBEA246AF5826D
:10455C00EB3400F583ECF088828983E004F0E50A03
:10456C00A2E092AF7F03021C3374F6121B61A2AF60
:10457C00E433FDC2AFEA246EF582EB3400F583E040
:10458C0014F07C0060368C08EA2508F8EB3400F94E
:10459C00E8246BF582E93400F583E0C0E0E8246A96
:1045AC00F582E93400F583D0E0F00CEA246EF58254
:1045BC00EB3400F583E0F8ECC39840CAEA246DF5BF
:1045CC0082EB3400F58374FFF0EA2469F582EB3456
:1045DC0000F583E4F0EDA2E092AF024398C082C0F4
:1045EC0083E5A8F8C2AFEA246AF582EB3400F583C0
:1045FC00E9F0EA2469F582EB3400F583E4F0E8A2F3
:10460C00E7A2E792AF022FEB74F3121B61EAFEEB09
:10461C00FFECFAEDFB8A828B83A3A3A3A3E0541FC8
:10462C00F0EE2436F582EF3400F583E4F0F50AEE73
:10463C00FCEFFD8A828B83E0C0E0EC245DF582ED1B
:10464C003400F583D0E0F0750B00E50A33333354B6
:10465C00F8F50C8A828B83E0F508750900E50B7878
:10466C0008121ABAE508A2E0502FEE2436F8EF34FF
:10467C0000F988828983E0F508EE2508F508EF3407
:10468C0000F509E5082438F582E5093400F583E5E1
:10469C000CF088828983E004F0050B050CE50BC354
:1046AC00940840AF050A8A828B83A3AA82AB838CC1
:1046BC00828D83A3AC82AD83E50AC39405500302BB
:1046CC00463F7F05021C3374F7121B619009F3E01F
:1046DC00640370030249B97C0078F37909888289F4
:1046EC0083A3A3A3A3A3A3E060030249A7ECF875DB
:1046FC00F005A4C8AAF02AF974F728FA740939FB52
:10470C008A828B83A3A37401F08A828B83A3A3A3D5
:10471C00E4F0EC8A828B83A3A3A3A3F0EA2462F5D2
:10472C0082EB3400F5837401F0EA2467F582EB34F4
:10473C0000F5837401F08A828B83A3A3A3A3A3E463
:10474C00F0A3F08A828B83A3A3A3A3A3A3A3F0A3B8
:10475C00F0EA240FF582EB3400F5837401F0EA24BF
:10476C0035F582EB3400F583E4F0EA2418F582EB9E
:10477C003400F583E4F0A3F0A3F0A3F0EA241CF5D5
:10478C0082EB3400F583E4F0EA241DF582EB34006F
:10479C00F583E4F0A3F0EA247FF582EB3400F58393
:1047AC00E4F0EA2473F582EB3400F583E4F0EA24B8
:1047BC0068F582EB3400F5837480F0EA2469F582A5
:1047CC00EB3400F583E4F0EA246EF582EB3400F56B
:1047DC0083E4F0EA24ECF582EB3400F583E4F0EAB0
:1047EC0024EDF582EB3400F583E4F0EA24EEF58257
:1047FC00EB3400F583E4F0EA24EFF582EB3400F5BA
:10480C0083E4F0EA24F0F582EB3400F583E4F0A3C2
:10481C00F0EA24F2F582EB3400F583E4F0A3F0EA3D
:10482C0024F5F582EB3400F583E4F0EA2482F5827A
:10483C00EB3400F583E4F0EA24D2F582EB3400F596
:10484C0083E4F0EA24D3F582EB3400F583E4F0EA58
:10485C0024D4F582EB3400F583E4F0A3F0A3F0A3A9
:10486C00F0EA24D8F582EB3400F583E4F0A3F0A34E
:10487C00F0A3F0EA24DEF582EB3400F583E4F0EAF1
:10488C0024E0F582EB3400F583E4F0EA24DCF582D5
:10489C00EB3400F583E4F0EA24E1F582EB3400F527
:1048AC0083E4F0EA24E2F582EB3400F583E4F0EAE9
:1048BC0024F8F582EB3400F583E4F0A3F0EA24FA53
:1048CC00F582EB3400F583E4F0A3F0EA24FCF582E6
:1048DC00EB3400F583E4F0A3F0EA24FEF582EB342C
:1048EC0000F583E4F0A3F0EAF8EBF9E82404FCE922
:1048FC003400FDE8246AF582E93400F58374FFF096
:10490C0088828983A3A882A983EC687002ED697000
:10491C00E2EAF8EBF97C0D7D0D8C828D83E0C0E032
:10492C00E8245DF582E93400F583D0E0F08C828DCB
:10493C0083A3AC82AD8388828983A3A882A983ECEC
:10494C0064127003ED640D70D0EAF8EBF97CDA7D3B
:10495C00098C828D83A3E0C0E0E824E4F582E9347D
:10496C0000F583D0E0F08C828D83A3AC82AD83887C
:10497C00828983A3A882A983EC64E27003ED6409A5
:10498C0070CF9009F3E004F0640170258A828B8368
:10499C00A3A3A3A3E09009F5F080160CE82405F876
:1049AC00E93401F9ECC3940350030246E97A007B25
:1049BC000002411EC082C0838A828B83A3A3A3E022
:1049CC00600F8A828B83A3A3A3E4F09009F4E01414
:1049DC00F09009F3E014F070069009F574FFF08A7A
:1049EC00828B83A3A3E4F0900D12E0700D9009F478
:1049FC00E0640170057900121484022FEBC082C0B0
:104A0C008378F3790988828983A3A3A3A3A3A3A39F
:104A1C00E4F088828983A3A3A3A3A3A3F0E82405CD
:104A2C00F8E93401F9E864027003E9640D70D6907A
:104A3C0009F3E4F0A3F0A374FFF075E1F1022FEB9E
:104A4C0074F5121B61750800750900750A007EF774
:104A5C007F098E828F83A3A3A3E0603DE5084509FF
:104A6C00602F850882850983E0F8A3E0F5838882AE
:104A7C00A3A3121D878E828F83E0F8A3E0F58388B1
:104A8C0082A3A31219DA1228A17404121B02E97072
:104A9C0008EEF8EFF988088909050AEE2405FEEFFF
:104AAC003401FFE50AC3940340A885088285098375
:104ABC00A3A3A3A3E0F902457074F7121B6178FF5E
:104ACC0079FF7E007CF77D098C828D83A3A3A3E004
:104ADC00606274FF68700374FF697011EC2473F5E5
:104AEC0082ED3400F583E06401703A8021EC24738C
:104AFC00F582ED3400F583E064017017EC2479F550
:104B0C0082ED3400F583C3E098A3E0995026EC24A1
:104B1C00798015EC242EF582ED3400F583C3E098F2
:104B2C00A3E099500FEC242EF582ED3400F583E0D0
:104B3C00F8A3E0F90EEC2405FCED3401FDEEC39472
:104B4C00034085C3EA98EB994004E8FAE9FB02417B
:104B5C001E74F6121B61EAFEEBFFEE2463F582EF86
:104B6C003400F583E0F8A3E0F9E8497003024C0245
:104B7C00EE2463F8EF3400F97A007B00A2AFE43343
:104B8C00F508C2AF88828983E0FCA3E0FDEC4D60A0
:104B9C003A88828983E0FAA3E0FB8A828B83E0FC6B
:104BAC00A3E0FD88828983ECF0A3EDF08A828B83ED
:104BBC00E4F0A3F088828983E0FCA3E0FDEC4D7067
:104BCC000A88828983A3A3E4F0A3F0E508A2E0920B
:104BDC00AF12083C900D13E004F0900D14E004F0BB
:104BEC00EE2463F582EF3400F583E0F8A3E0F9E8F6
:104BFC00496003024B7C8E828F83A3A3A3E0600FDA
:104C0C008E828F83A3A3A3E4F09009F4E014F090B8
:104C1C0009F3E014F070069009F574FFF08E828FA2
:104C2C0083A3A3E4F0900D12E0700D9009F4E064FE
:104C3C000170057900121484EEFAEFFB1213BE0218
:104C4C00439874F7121B61EAFEEBFF8E828F83A3ED
:104C5C00A3A3A3E0FA7B00120F92EEFAEFFB121261
:104C6C00B01213A002411EC082C0837A0078F7797B
:104C7C000988828983A3A3A3E0601EE8246EF582D1
:104C8C00E93400F583E06011E8246AF582E9340028
:104C9C00F583E07004790180110AE82405F8E93401
:104CAC0001F9EAC3940340C97900022FEBC082C01A
:104CBC008378DA790988828983A3E4F088828983EE
:104CCC00A3A882A983E864E27003E9640970E69002
:104CDC0009DB7401022BFB74F7121B6174FC121AB2
:104CEC00EC851882851983E4F0A3F0A3F0A3F012ED
:104CFC0012F8E9851882851983F01212F8740112E2
:104D0C001B55E9F01212F87402121B55E9F08518C4
:104D1C00828519831219DA7404121B0202411E7463
:104D2C00F6121B61EAFEEBFFEC2403F8ED3400F9FC
:104D3C0088088909EC2407F8ED3400F9E8FCE9FD52
:104D4C008C828D83E0F8A3E0F9850882850983E0E5
:104D5C00FAA3E0FB121A61EE240DF582EF3400F594
:104D6C0083E8F0A3E9F08C828D83E0F8A3E0F98569
:104D7C000882850983E0FAA3E0FB121A618B09EA29
:104D8C0045096013EE240DF582EF3400F583E02421
:104D9C0001F0A3E03400F002439874F6121B61EAB0
:104DAC00FEEBFFEE242EF582EF3400F583E0FCA33E
:104DBC00E0FD780079FAECFAEDFB121A61EE246F43
:104DCC00F582EF3400F583E8F0A3E9F0780079FA86
:104DDC00ECFAEDFB121A618B09EA45096013EE241B
:104DEC006FF582EF3400F583E02401F0A3E034008A
:104DFC00F002439874EC121B61EAFEEBFF74141280
:104E0C001B5578081219BC1214488A0C8B0D8C0E89
:104E1C008D0F751002751100751200751300780C4A
:104E2C00791012190F7510FF7511FF7512FF780CA0
:104E3C007910121970780C121D708E828F83E0F825
:104E4C00A3E0F5838882A3A31219DA1228A17404B3
:104E5C00121B02E96003024F648E828F83E02402EE
:104E6C00F8A3E03400F9E8FAE9FB8A828B8378082E
:104E7C001219358A828B837508FF7509FF750AFF35
:104E8C00750B007808121996EE240BF582EF34009E
:104E9C00F583C082C0838E828F83A3A3A3A3A3E0D8
:104EAC002401F8A3E03400F9D083D082E0687003C9
:104EBC00A3E06970057901024F668E828F83A3A3EC
:104ECC00A3A3A3A3A3E02401F0A3E03400F0EE24F9
:104EDC0073F582EF3400F583E064017036EE2474D0
:104EEC00F582EF3400F583E0F8A3E0F98E828F832E
:104EFC00A3A3A3A3A3A3A3E0687003A3E069701307
:104F0C00EE2474F582EF3400F583E02401F0A3E085
:104F1C003400F0EE247FF582EF3400F583E0640179
:104F2C007036EE2480F582EF3400F583E0F8A3E0D0
:104F3C00F98E828F83A3A3A3A3A3A3A3E06870031A
:104F4C00A3E0697013EE2480F582EF3400F583E062
:104F5C002401F0A3E03400F07900022F2474F6123F
:104F6C001B61E9FEECFFEA2462F582EB3400F58369
:104F7C00E0640160030250129061D0E0F508EA246D
:104F8C0082F582EB3400F583E060047804800278CB
:104F9C00007480C39508FC95E0FDEF28F8E434001C
:104FAC00F9E82402F8E93400F9EC98ED99A2D265FD
:104FBC00D033404E740A121B55E0F508A3E0F509F6
:104FCC00EA2482F582EB3400F583E0601578081250
:104FDC001D74EFFCEEF912133A7402121B027404E6
:104FEC002FFF74012FF5D98ED9EF600F85088285BC
:104FFC000983F8E0F5D9A318E870F875E195790004
:10500C0080067907800279FF02439874F7121B61BE
:10501C00A2AFE433FEC2AF8A828B83E0F8A3E0F93F
:10502C00E8498A828B83600AA3A3E0F8A3E0F583A6
:10503C008882ECF0A3EDF08A828B83A3A3ECF0A31F
:10504C00EDF08C828D83E4F0A302411674F7121BF1
:10505C0061E96021F88C828D83E08A828B83F08CED
:10506C00828D83A3AC82AD838A828B83A3AA82AB0D
:10507C008318E870E0ECFAEDFB02411E74F4121B8D
:10508C0061E99009C6F0121454907800E0C4540FF2
:10509C00540764037004793F8002797F75080675A4
:1050AC0009007808121D747CB47D097AEA7B07121A
:1050BC0006C87402121B029009B4E0F47049A3E014
:1050CC00F47044A3E0F4703FA3E0F4703AA3E0F46E
:1050DC007035A3E0F4703090780EE09009B4F09045
:1050EC00780FE09009B5F0907810E09009B6F09048
:1050FC007811E09009B7F0907812E09009B8F09030
:10510C007813E09009B9F09009BA74FFF0A3F0A3FA
:10511C00F0A3F0A3F0A3F09009B4E09009C0F090D4
:10512C0009B5E09009C1F09009B6E09009C2F09081
:10513C0009B7E09009C3F09009B8E09009C4F09069
:10514C0009B9E09009C5F09009E47406F0A3740D58
:10515C00F0A3E4F0A37440F0A37401F0900D1C7460
:10516C00FFF0A3F0A3F0A3F0A3F0A3F0900D1BE4C9
:10517C00F0900D22F0A374A0F0A3E4F0A37403F05C
:10518C00A37407F0A3E4F0A37428F0A3E4F0A30441
:10519C00F0A3E4F0900D4BF0900D7174FFF0A3F0C0
:1051AC00A3F0A3F0A3F0A3F0900D70E4F0900D77B2
:1051BC0004F0A3E4F0A3F0A37480F0A37402F0A3B2
:1051CC007480F0A37402F0A3E4F0A304F0A3F0A3A2
:1051DC00E4F0A37425F0A3E4F0A3F0900D8874FF21
:1051EC00F0A3F0A3F0A3F0A3F0A3F0900D87E4F0EC
:1051FC00900D8E04F0A3E4F0A37480F0A37402F07D
:10520C00A37480F0A37402F0A37425F0A3E4F0A3BC
:10521C00F0A37405F0900D9874FFF0A3E4F0900DDA
:10522C009AF0900D9C04F0900D9D7490F0A3740175
:10523C00F01211C01210D612141279017A9F7B0D44
:10524C001212FE900D9FE075F01484E5F004F079D5
:10525C000C7AC07B0D1212FE1213167A009009C63E
:10526C00E0F91204AC907803E064427055900D9F05
:10527C00E014F0704DC2AF12528600782AD0E0F6DE
:10528C0018D0E0F6E59F540770057509FF8003758B
:10529C00097FC4C0E07829E6F50808E65509F50948
:1052AC00740B7808121ACAD0E02508F8906270E0E6
:1052BC00A2E740F8E8C333906272F0906270E0D2DB
:1052CC00E0F09009F1E4F0A3F07A80FB9009C6E0DD
:1052DC00F912044C0258B674F4121B61EAFEEBFF8F
:1052EC00EEA2E050459009C8E0C39480E0500FC393
:1052FC0033F8E433F974A828F5827415800EF4C3DE
:10530C0033F8E433F974B628F582741539F583E073
:10531C00F8A3E0F5838882121B5F7A009009C6E03F
:10532C00F91204ACEE64010255E9540870030253FF
:10533C00D0900D96E0F875F005A4C8AAF02AF9747F
:10534C00F728FA740939FB7508007808121D78EAF9
:10535C002432F582EB3400F583E0F508A3E0F5097F
:10536C0074047808121ACA7808121D74EA2430F5ED
:10537C0082EB3400F583121D8BEA242EF582EB347C
:10538C0000F583E0F508A3E0C313F509E50813F570
:10539C00087808121D7475080775090D7808121D18
:1053AC0074900D06E0FD7C008A828B83A3A3A3A3DB
:1053BC00E0FA7B007900120F8C7409121B02EE6468
:1053CC00080255E9EE541060407508007808121D6B
:1053DC0078E4F5097808121D747808121D747808A1
:1053EC00121D7475080775090D7808121D74900D3F
:1053FC0006E0FD7C007A007B007902120F8C7409A8
:10540C00121B02EE64100255E9EE5402604075085E
:10541C00007808121D78E4F5097808121D747808D4
:10542C00121D747808121D7475080775090D78081B
:10543C00121D74900D06E0FD7C017A007B00793C16
:10544C00120F8C7409121B02EE64020255E9EE5421
:10545C000470030254FF9009F5E0F875F005A4C838
:10546C00AAF02AF974F728FA740939FBEA242AF508
:10547C0082EB3400F583E0F5087808121D78EA24F5
:10548C0032F582EB3400F583E0F508A3E0F50974FE
:10549C00047808121ACA7808121D74EA2420F582BE
:1054AC00EB3400F583121D8BEA242EF582EB3400CD
:1054BC00F583E0F508A3E0C313F509E50813F50837
:1054CC007808121D7475080775090D7808121D747B
:1054DC00900D06E0FD7C018A828B83A3A3A3A3E03D
:1054EC00FA7B007900120F8C7409121B02EE640413
:1054FC000255E9EE544060407508007808121D789A
:10550C00E4F5097808121D747808121D74780812D5
:10551C001D7475080775090D7808121D74900D0619
:10552C00E0FD7C017A007B00793B120F8C74091230
:10553C001B02EE64400255E9EE5480603B900D9DD9
:10554C00E0F8A3E0F9E849602A79001204A6900D6E
:10555C009DE0F508A3E0F509E4F50AF50B780812CF
:10556C001D707A007B019009C6E0F91204CA74041C
:10557C00121B02EE64808065EF5401600C790112FD
:10558C0004A6EEFAEF64018056EF5402600AC2AF33
:10559C0075C9AB75C95B80FEEF5404600A121EB46A
:1055AC00EEFAEF640480389009CDE064017033EEBC
:1055BC005420602E9009C7E024F9600314701B7905
:1055CC003F9009F5E0FA75F005A4CAA8F028FB7421
:1055DC00F72AFA74093BFB1212B6EE6420FAEFFBC1
:1055EC0080047A007B000258B674F6121B61C3EA81
:1055FC009411EB940050047A1080027A20EA24086B
:10560C00FAE43400FB1208368A088B09A808A909A9
:10561C00E849600AE82404FAE93400FB80047A00C3
:10562C007B00025D1974F6121B61EA2405FAEB3457
:10563C0000FB1208368A088B09A808A909E84960FA
:10564C000AE82405FAE93400FB80047A007B0002A6
:10565C005D19C082C083C2AF121436E5E170FC75CF
:10566C00E1011211AE75E1F11214601211A8790763
:10567C00121508790112150E790212148A1214C02F
:10568C001214F0790012150279011215027A557B69
:10569C00557C557D00121472900D06E4F0A3F0A316
:1056AC00F0A3F0A3F0A3F0A3F0900D22F0A3F0A3CD
:1056BC00F0900D267407F0900D257403F0900D2BCF
:1056CC00E4F0900D2AF0900D4BF0900D78F0900DC9
:1056DC008FF012129E12139A1212C2790012151424
:1056EC00900D0D74FFF0A3F0A3F0A3F0A3741FF0C2
:1056FC00906012E4F0A3F0906063F07521009009C3
:10570C00C7F0900D12F0900D13740CF0900D14E482
:10571C00F0900D1504F0900D16E4F0900D1704F0B8
:10572C00900D18E4F09009C9F0A3F09009CCF0901A
:10573C0009CD04F09009E304F0900D9BE4F0D2AF96
:10574C00F902713AC082C0839009B4E08A828B83DB
:10575C00F09009B5E08A828B83A3F09009B6E08AB9
:10576C00828B83A3A3F09009B7E08A828B83A3A3D7
:10577C00A3F09009B8E08A828B83A3A3A3A3F09033
:10578C0009B9E08A828B83A3A3A3A3A3027137C0B8
:10579C0082C0838A828B83E09009BAF08A828B83E1
:1057AC00A3E09009BBF08A828B83A3A3E09009BC91
:1057BC00F08A828B83A3A3A3E09009BDF08A828B2D
:1057CC0083A3A3A3A3E09009BEF08A828B83A3A337
:1057DC00A3A3A3E09009BF027137C082C08312114A
:1057EC00CCE970051214C0790002713A74F7121BDF
:1057FC0061EAFEEBFF89081211CCE9702CE5086018
:10580C000A74016508600A7912801E7C0079008098
:10581C00047C007901EEFAEFFB1214C6E9F874036C
:10582C00687004790780027900025D1474F6121B0B
:10583C0061EA4B6016EC4D6012740A121B55E0F5D0
:10584C0008A3E0F509E508450970047912800F7882
:10585C0008121D741213107402121B027900025DDF
:10586C001974F4121B61EAFEEBFF89089009C7E07A
:10587C0064096014E0640A600FE0640B600AE06481
:10588C000C6005E0640D7004790C801E1213C48B3F
:10589C000BEA450B700BA908EEFAEFFB1212FE8017
:1058AC00099009C9E04440F0790D7F04021C33745F
:1058BC00F6121B61EA4B6003E970047912801CEA52
:1058CC00FEEBFF89081212F8E98E828F83F0A3AEEB
:1058DC0082AF831508E50870EC7900025D19C0826F
:1058EC00C083E9F8740168700B900D9B7401F0791A
:1058FC000002713AE87006900D9BE480F1791280F9
:10590C00F074F7121B619009C7E0640C701290617F
:10591C008EE0F9748069705E8C828D83747F8062F6
:10592C00C3EB940F504CC3EA9403EB94005043EA3E
:10593C00F8EBF9E875F005A4C8AEF02EFE75F0058D
:10594C00E9A42EF974FA28F582740939F583E0700C
:10595C000479028030EA75F005A4CAA8F028F8751D
:10596C00F005EBA428FB745F2AF582740A3BF583DF
:10597C00809F7912800F9009CBE0F8E9C3988C8254
:10598C008D83F07900025D1474F7121B61E9FE74CB
:10599C00056E602374136E601E74146E601974159A
:1059AC006E6014741A6E600F74296E600A743B6E0C
:1059BC0060057912025A79C3EB940F506AC3EA94CA
:1059CC0003EB94005061EAF8EBF9E875F005A4C814
:1059DC00ACF02CFC75F005E9A42CF974FA28F582CE
:1059EC00740939F583E070047902803DEA75F0059D
:1059FC00A4CAA8F028F875F005EBA428FB74F72AC4
:105A0C00FA74093BFBEA2469F582EB3400F583E078
:105A1C0064017038EA246AF582EB3400F583E064A3
:105A2C00027008793A804679128042EA24F6F582AF
:105A3C00EB3400F583EEF0EA241DF582EB3400F52F
:105A4C0083E4F0A3F07902121286801FEA24F6F5A3
:105A5C0082EB3400F583EEF0EA241DF582EB340082
:105A6C00F583E4F0A3F0790212127A7900025D1446
:105A7C0074E8121B618A088B098917EC4D6014E9D4
:105A8C00C3941C500E7418121B55E0FB600A740171
:105A9C006B60057912025D0FC3E509940F5042C388
:105AAC00EA9403E50994005038A808E875F005A4B9
:105ABC00C8AAF02AFA75F005E509A42AF974FA289F
:105ACC00F582740939F583E070047902801574F756
:105ADC0028FE740939FF900D13E0700A7907025DF6
:105AEC000F7912025D0FEC24FEFCED34FFFD8C826D
:105AFC008D83E517F0EB7004740280027401A3F03F
:105B0C00EC24FEFCED34FFFDEE2463FAEF3400FBD5
:105B1C001212E6900D13E014F09009C7E0640860CF
