:020000040000FA
:0600000002011D022603AF
:03002B00021EB8FA
:03003300021E8D1D
:030053000226760C
:03006B00021E6210
:1000830002246FE5C754F84401F5C7790122000043
:100093000080FB120086B90003020107E47921788E
:1000A30008B800028004F709D8FCE479297802B87B
:1000B30000028004F709D8FCE49002817814790FD8
:1000C3008002F0A3D8FCD9FA781A90014D7A01BACC
:1000D30000028007E493A3F608DAF9901094AA8249
:1000E300AB8390014E782D79048015E493A3AC8201
:1000F300AD838A828B83F0A3AA82AB838C828D83A8
:10010300D8E9D9E77582707583D8740412012F7505
:100113008291758300740012012F75D00075813FA1
:10012300751881751902759F00020096C09FF59F8F
:10013300E473D09F22D083D082C09FE493C0E07445
:100143000193C0E0740293F59F2201FFFF020202B4
:10015300020202020202010D000000100102D58119
:10016300010000B68102C981010000961002F781E7
:10017300010000DF0202C981010000971002F38130
:10018300010000178102C981010000981002EF816C
:10019300010000FB8002C981010000991002DF8188
:1001A300010000958002C9810100009A1002C381F9
:1001B300010000A78002C9810100009B1002E981B0
:1001C300010000838002C9810100009C1002EB81C1
:1001D300010000B98002C9810100009D1002ED8178
:1001E300010000098102C9810100009E1002F18112
:1001F3000100009F100A437573746F6D2043617291
:1002030064204E4F2E00000A525353492054687203
:100213006573686F6C642E00000A4E464320436189
:100223007264204E4F2E00000000000A524F4C45CE
:1002330020464C4147532E00000000000002436853
:100243006172616374657269737469632035000256
:10025300D581010000B38102C9810100003E110272
:10026300E581030000E90202C7810100003F11029A
:10027300C981010000501102E381030000EB020277
:10028300C781010000511102C981010000621102FE
:10029300E181030000EC0202C78101000063110247
:1002A300C981010000741102DD81030000F0020224
:1002B300F981030000F10202C781010000751102F8
:1002C300C981010000861102DB81040000FD0202E6
:1002D300C781010000871101E803053F10020A03EB
:1002E3005564646464646464640509434152440569
:1002F3001240064006020A000201061AFF4C0002E1
:100303001547A9306E88E89678CA74DE07198AB350
:100313009B00050000CD4341524400000000000053
:10032300000000000000000000000001FFFFFEFFCE
:10033300040800000A084C085208FF000130750346
:1003430002010600000000000000000000000000A1
:10035300000000000000000000000000000000FF9B
:10036300FF0600800CE803B00AC20AE60AB60AFFD9
:100373000000B4000028002800283075A000A00069
:10038300A000A00000080008E001F0001000100029
:10039300100010001000100050005000500010001A
:1003A3001000D0070000000000000F00010005004E
:1003B300307507001000010081FF00000000FF24DA
:1003C3000C420C2A0CFF02020208025000A000009B
:1003D30000E80302D581010000B08102C981010058
:1003E300000F1302F581010000700502C9810100AD
:1003F30000101302C181010000860502C9810100BA
:1004030000111302BF81010000880502C9810100A8
:1004130000121302BD81080000890502C981010091
:1004230000131302BB810100001413FFFF0100FF3F
:100433002002D581010000AD8102C981010000794C
:100443001302B981000000000002F9810300006A71
:10045300062C132C132C132C132C132C132C132CAE
:10046300132C132C132C132C132C13481566154221
:100473001586169E16801612013858CD03120138C0
:100483006DCD03120138C5CD031201382CCE0312F2
:10049300013874CE03120138EACE0312013819CFA2
:1004A3000312013827CF031201388BCF031201380F
:1004B300C9CF03120138E4CF031201387CD00312F1
:1004C300013825D103120138A8D103120138E1D133
:1004D300031201386CD203120138C3D2031201385C
:1004E30022D30312013834D3031201385AD303122F
:1004F300013863D303120138C2D40312013809D07F
:1005030004120138E8D00412013863D70412013809
:10051300B8C304120138FDC30412013843C40412E2
:100523000138D6C50412013827D50412013842D543
:100533000412013852D504120138A9D50412013826
:10054300008004120138208004120138248104122F
:100553000138708104120138908104120138E3815B
:1005630004120138508204120138968204120138B1
:10057300FA8204120138AC85041201382D86041264
:1005830001380CD80412013820D80412013850D88D
:100593000412013892EA03120138DAEA031201382D
:1005A300A4EB03120138C0EB0312013812EC03125F
:1005B300013825EC0312013867EC0312013802ED10
:1005C300031201387EED03120138DBEE031201380A
:1005D30010F0031201387CF003120138EAF0031221
:1005E30001388D9B04120138B29B04120138ED9B34
:1005F300041201383DF10312013890F1031201385E
:10060300ADF103120138A4F2031201385AF30312B5
:1006130001381EF50312013877F703120138F5D5B7
:1006230004120138FC81011201382B8501120138B3
:10063300528701120138FD8701120138A188011286
:1006430001383A8901120138698901120138D589C3
:10065300011201382A9001120138D5900112013894
:10066300459201120138AD920112013861930112D2
:100673000138239601120138629601120138D69689
:10068300011201383597011201389497011201388C
:10069300039801120138F698011201383C990112AE
:1006A3000138819901120138A499011201381F9B65
:1006B30001120138329B011201383B9C01120138AF
:1006C3007A9C01120138A69C01120138F99C01128F
:1006D30001381A9D011201385E9D01120138B09F45
:1006E30001120138F19F011201389CA00112013857
:1006F30007A10112013844A20112013861D3041287
:10070300013872D3041201380FC104120138AAC38D
:1007130004120138E8D804120138CECE041201388D
:10072300DECE04120138FBCE0412013803D00412CA
:100733000138A9B8041201384FB9041201386BBB50
:100743000412013855CD0412013885CD0412013845
:10075300A9CD0412013805CE0412013880CE04124B
:100763000138BDCE04120138C0CE041201381AC6B6
:100773000412013863C6041201387BC6041201381F
:1007830086C604120138A6C60412013856C70412DD
:10079300013880C704120138AAC70412013800C8FF
:1007A3000412013883A004120138A5A004120138F1
:1007B3003AA1041201382AA20412013887A40412B0
:1007C3000138E7A40412013850A504120138F87F58
:1007D3000012013862BE0412013859C004120138F4
:1007E300C5C0041201380CC1041201380080021282
:1007F30001382F8002120138068402120138EE8577
:10080300021201380C8602120138418702120138A4
:10081300E889021201385F8A02120138428B021200
:100823000138A78C02120138AA8C021201380C8FEE
:1008330002120138E48F0212013885900212013846
:10084300079102120138FF91021201381D92021220
:1008530001385C9202120138AC9202120138CA923A
:100863000212013835C8041201389EC80412013837
:100873005CC904120138DBC904120138DBA9041274
:1008830001380DAA0412013815AB041201383AAC31
:1008930004120138F6AC0412013817A6031201380A
:1008A300FDA6031201384AA7031201388DA70312CC
:1008B300013802A80312013863A803120138D8A82B
:1008C30003120138B4A903120138BFAA0312013875
:1008D30040AB03120138E7AC031201387DAD0312BC
:1008E3000138F0AD031201386CAE0312013883AE48
:1008F30003120138BAAF0312013814B003120138DE
:100903004BEC01120138E3F001120138B7F3011285
:100913000138F6F3011201381FF401120138D1F442
:1009230001120138B7F601120138F2F7011201384A
:1009330028FD0112013861FD01120138A5FD0112E4
:100943000138B7FE011201386AD20412013880D28D
:1009530004120138AFD204120138E5D2041201386F
:10096300FCD20412013833D3041201384AD30412DF
:10097300013825FE031201383CFE031201386DFED7
:1009830003120138A8FE03120138D2FE0312013804
:10099300FCFE0312013813FF031201382AFF03126E
:1009A300013841FF031201386AFF031201387DFF4A
:1009B3000312013893FF03120138BDFF03120138FC
:1009C3000773001201380B740012013838740012D7
:1009D30001388E7400120138B17400120138C574E5
:1009E30000120138C77400120138EA74001201388A
:1009F300F97500120138BD760012013892770012A2
:100A030001380378001201388F7800120138927888
:100A1300001201381A790012013855790012013891
:100A2300BC7900120138F37900120138817A00127F
:100A330001385A7B001201385D7B00120138BD7BFF
:100A430000120138C87B00120138477C00120138BC
:100A53004A7C001201385D7C00120138607C001270
:100A63000138EF7C00120138097D00120138197D2D
:100A730000120138497D00120138567D00120138F9
:100A8300597D00120138DA7D00120138C87E001248
:100A930001387A7F00120138D6BA03120138CEBB6F
:100AA3000312013802BC0312013884BC031201385B
:100AB300A4BC03120138ECBC031201383FBD03127E
:100AC3000138A3BD0312013830BE03120138EABE58
:100AD30003120138F9C10312013884C30312013828
:100AE300A7C303120138E5FD0212013849FE0212C1
:100AF3000138A8FE02120138B6FE02120138DFFEE9
:100B030002120138108C04120138388C0412013897
:100B1300668C041201389D8C04120138FB8C04127C
:100B23000138468D04120138918D04120138D18D9C
:100B330004120138178E04120138458E041201384D
:100B4300028F041201380C8F04120138198F04121A
:100B530001384C8F04120138189004120138249084
:100B6300041201383C9004120138469004120138F3
:100B7300C4900412013850D4041201385ED4041214
:100B8300013876D4041201388ED404120138DEC33E
:100B9300021201388AC40212013805C50212013853
:100BA30026C60212013862C6021201380BC70212AE
:100BB3000138F2C70212013856C902120138ADC911
:100BC300021201382ECA021201381ECB021201385A
:100BD3006BCB02120138F1CB0212013823CC021283
:100BE300013837CE0212013879CE0212013897CE7E
:100BF300021201381ACF02120138EECF0212013865
:100C0300B6D002120138C3D20212013873DC0312C8
:100C1300013846DD03120138EFDD0312013842DEED
:100C230003120138F2DE031201387EDF03120138AA
:100C33006AE00312013899E003120138ACE10312B0
:100C43000138F4E103120138C9E20312013805E364
:100C53000312013821E30312013877FF011201382F
:100C63008BB104120138A1B104120138C7B10412C7
:100C73000138E3B204120138EDB20412013822B490
:100C8300041201381AB50412013824B504120138CC
:100C93004C91041201387C9204120138AF92041271
:100CA3000138F99204120138C09404120138E29217
:100CB3000212013862930212013850940212013871
:100CC3006F94021201388D95021201387497021243
:100CD30001382D9902120138099A02120138BD9A7E
:100CE30002120138FA9D02120138A89E021201383D
:100CF30017A00212013897A1021201383EA2021274
:100D0300013887A202120138BEA2021201385BA386
:100D130002120138E6A302120138C3A402120138F9
:100D230018A50212013877A60212013887A602120B
:100D33000138B4A6021201380BA702120138B4A776
:100D430002120138BBA80212013885A90212013828
:100D5300E5AA0212013828AB02120138CDAB021208
:100D63000138F3AB0212013801AE0212013806AEAC
:100D7300021201380BB00212013858B002120138C6
:100D8300CBB002120138FEB002120138A0B1021238
:100D9300013849B20212013881B20212013884B219
:100DA30002120138CCB2021201380EB3021201381A
:100DB30065B30212013886BB0412013899BB0412D1
:100DC3000138A7BB04120138EFBB0412013805BC7C
:100DD300041201384CBC0412013860BD04120138FE
:100DE300EDBD0412013838BE0412013812BE0112DF
:100DF300013822BE0112013885BE01120138CABE74
:100E03000112013880BF011201385BC001120138A1
:100E130084C001120138B4C001120138F4C20112B6
:100E23000138DBC401120138B3C601120138F7C718
:100E3300011201385ECA011201386CCB011201386C
:100E4300BECC01120138C8CD011201380ACE0112FD
:100E5300013842CE0112013864CE01120138C7CEE7
:100E63000112013889D3011201381ED4011201384D
:100E730072D40112013899D401120138D7D4011266
:100E83000138F6D40112013850D50112013850D679
:100E930001120138D5D60112013896E30312013845
:100EA300A0E30312013844E40312013887E4031278
:100EB3000138A2E40312013832E5031201385AE57E
:100EC3000312013892E503120138C9E50312013810
:100ED300F2E5031201386BE60312013880E60312D0
:100EE300013895E603120138B7E603120138F1E63B
:100EF3000312013815E7031201382BE703120138F7
:100F03003EE70312013853E703120138D9E703120E
:100F1300013813E80312013848E80312013874E872
:100F230003120138A2E8031201380BE90312013856
:100F33008AE903120138CCE90312013815EA0312D6
:100F430001383FEA031201386AEA0312013844D137
:100F53000412013852B40212013880B4021201386B
:100F6300DBB502120138BBB602120138DAB602123F
:100F7300013857B7021201389AB70212013815B96E
:100F83000212013884B902120138AFBB02120138D0
:100F930033BE02120138E4BE02120138DABF021274
:100FA30001387AC00212013878C102120138D2C264
:100FB300021201385DC302120138D9CB0412013881
:100FC30042CC0412013896CC04120138BDCC041271
:100FD3000138EECC041201380FCD041201386EA58E
:100FE30004120138DBA50412013822A604120138C9
:100FF3003AA70412013836A80412013819A90412B9
:101003000138D2C40312013814C503120138E6C5EE
:1010130003120138BFC603120138B9C703120138DE
:101023009BC80312013804C903120138D4C903123F
:10103300013848CA03120138B4CA03120138B7CAC7
:1010430003120138E0CA031201385ACB03120138E4
:10105300F3CB0312013858CC031201386DCC0312C1
:101063000138B3CC03120138CCCC0312013831CD93
:101073000312013834CD031201382EB5041201389E
:101083006AB504120138A8B50412013872B6041205
:101093000138E1B6041201381CB7041201385AB7FB
:1010A300041201388AB704120138B1B704120138A7
:1010B3001FB80412013861B80412013878A2011272
:1010C3000138D3A401120138E5A70112013821A880
:1010D300011201384EA80112013840A9011201384A
:1010E3008BA901120138D6A901120138E8A901120E
:1010F300013828AA011201385DAA01120138ABAAEE
:1011030001120138DAAA01120138FDAA01120138CD
:1011130084AB011201386CAC011201380EAF01121D
:1011230001384DB1011201388EB10112013832B3C9
:101133000112013873B3011201386CB40112013882
:1011430079B60112013836B701120138D0B701124E
:10115300013820B80112013892BA01120138A1BC3A
:101163000112013859BD0112013883BD0112013842
:10117300D48D03120138D28E031201386B950312FA
:1011830001388C9703120138579903120138BF9A1B
:10119300031201383C2D00120138EB2D00120138E7
:1011A300182E00120138642E001201389A2F0012F3
:1011B3000138F82F001201388E310012013808323D
:1011C30000120138573200120138D13200120138AF
:1011D3002B34001201388B3500120138913600127E
:1011E3000138F23700120138443800120138B5399A
:1011F30000120138FA3B00120138F43C00120138A6
:101203000D3D001201386B3D001201388A3D00127A
:101213000138A93D00120138AC3D00120138DD3E12
:1012230000120138D53F00120138C14000120138C5
:10123300A34100120138D641001201384642001280
:101243000138B84200120138324300120138884392
:10125300001201386344001201382D450012013891
:10126300024600120138E146001201386C470012B1
:101273000138DA47001201384E4800120138794824
:1012830000120138384900120138254C0012013888
:101293006E4C00120138B14C001201382A4D001275
:1012A3000138C24D00120138B34E00120138D84E36
:1012B30000120138024F001201387D4F001201382D
:1012C300D74F00120138405100120138EE5100127D
:1012D30001382F52001201380080031201384E806A
:1012E300031201385A80031201383881031201387E
:1012F3006981031201389A81031201381A82031299
:101303000138528203120138A48203120138E182A8
:1013130003120138FE8403120138248703120138B3
:101323000F8903120138F98A03120138312D001293
:1013330001383E8604120138898A04120138CD8BA4
:101343000412013852E1021201380AE40212013890
:1013530010E402120138CAE60212013897E90212B8
:101363000138739604120138179704120138E9976C
:1013730004120138139804120138619A04120138D7
:101383005F5200120138A952001201387263001231
:101393000138F764001201381A66001201388B6CA9
:1013A30000120138866D00120138C36D0012013836
:1013B300E66D00120138286E00120138316E0012FA
:1013C30001383B6E00120138296F001201381F707B
:1013D30000120138B870001201383CD701120138ED
:1013E3003BDB0112013841DB011201387CE20112BF
:1013F300013895E701120138BDAD0412013853AE2F
:101403000412013869AE04120138DFAE0412013848
:1014130053AF0412013891AF0412013805B004121E
:1014230001387EB00412013887B00412013893B03A
:1014330004120138A8B004120138E6B004120138CE
:10144300FCB0041201385BB104120138B4F7031283
:101453000138C1F703120138DBF7031201381AF818
:101463000312013858F803120138BDF8031201388A
:10147300D2F803120138DDF803120138EAF8031237
:10148300013801F9031201380FF9031201381EF96B
:101493000312013833F90312013848F903120138F2
:1014A30053F9031201385FF9031201386CF903127F
:1014B30001387BF90312013886F903120138ABF9BD
:1014C3000312013852FA0312013862FA0312013887
:1014D30077FA031201388CFA03120138A6FA0312C1
:1014E3000138C1FA03120138DEFA03120138E9FAAE
:1014F30003120138A5FB0312013891FC03120138D2
:10150300B6FC03120138C1FC03120138D6FC0312E6
:101513000138EAFC031201384BFD0312013851FD77
:101523000312013857FD031201385DFD0312013820
:1015330075FD03120138A8FD0312013880B00312B0
:101543000138A2B00312013882B10312013859B431
:101553000312013885B503120138A9B60312013805
:101563005BB703120138FCB703120138ABEF021269
:1015730001382FF002120138DEF0021201383DF279
:10158300021201385EF4021201384AF502120138E0
:101593007FF502120138A1F50212013850F602124A
:1015A300013848F80212013871F80212013803F9C0
:1015B3000212013835F90212013842F902120138D8
:1015C30099F902120138BFF9021201382CFC0212F8
:1015D30001382FFD0212013887FD02120138DCD2D7
:1015E30002120138E6D302120138CDD402120138B7
:1015F300D7D402120138E1D40212013803D5021202
:1016030001380FD502120138A8D602120138D7D6F5
:1016130002120138F3D7021201384CD802120138F2
:10162300B2D90212013891DA02120138EDDA02124C
:1016330001385ADB0212013895DB02120138D4DB80
:10164300021201388DDE02120138A7DE02120138C0
:1016530033DF0212013841DF021201389ADF02122E
:101663000138A8DF021201381BE0021201387FE0C3
:1016730002120138C9E002120138E99A0312013853
:101683000B9B03120138319D0312013846A003124C
:1016930001385EA10312013811A203120138F3A22B
:1016A3000312013834CA0412013859CA041201382A
:1016B300CBCA04120138F9D40312013802D503123C
:1016C30001380BD503120138E2D50312013893D741
:1016D30003120138C9D70312013803D803120138A2
:1016E30039D80312013873D803120138A7D803126B
:1016F3000138D3D8031201381CD90312013856D943
:10170300031201389FD903120138F7D903120138A4
:101713002CDA0312013887DA03120138C1DA031213
:10172300013812DB0312013848DB0312013882DB74
:1017330003120138B0DB03120138D3DB0312013883
:10174300B8D604120138E4D6041201383FD7041284
:10175300013849D70412013859D704120138CFFF91
:1017630003120138CAD804E066701008A3E066705B
:101773000A08A3E066700408A3E06622C3E796089C
:1017830009E7960809E7960809E79622C3E0960851
:10179300A3E09608A3E09608A3E09622C008C3E05E
:1017A30096F50808A3E096420808A3E096420808C5
:1017B300A3E09645087001D3D00822080808EAC0C0
:1017C300E0EBC0E086F0E7A4FA180986F0E7A42A64
:1017D300FA180986F0E7A42AFA180986F0E7A42A7A
:1017E300FA1986F0E7A4FBE5F02AFA190886F0E770
:1017F300A42BFBE5F03AFA190886F0E7A42BFBE5E6
:10180300F03AFA18180986F0E7A4C5F02BFBE43A7E
:10181300FA1908E7C5F0C6A426F6E5F03BFBE43A5F
:10182300FA1886F0E7A4F6E5F00826F6E43B08F696
:10183300E43A08F6D0E0FBD0E0FA22E4CFC0E0E4DB
:10184300CEC0E0E4CDC0E0E4CCC0E075F020C3E658
:1018530033F608E633F608E633F608E633F61818E7
:1018630018EC33FCED33FDEE33FEEF33FFC3EC979F
:1018730009ED9709EE9709EF97191919400FFFEC36
:1018830097FC09ED97FD09EE97FE191906D5F0BEF1
:10189300ECF709EDF709EEF709EFF7191919D0E09D
:1018A300FCD0E0FDD0E0FED0E0FF2260160808087F
:1018B300C6C313C618C613C618C613C618C613C69E
:1018C300D5E0EA227009080808226016181818C61D
:1018D300C333C608C633C608C633C608C633C6D51F
:1018E300E0EA22E627F60809E637F60809E637F6BE
:1018F3000809E637F622E026F608A3E036F608A341
:10190300E036F608A3E036F622E026F008A3E03638
:10191300F008A3E036F008A3E036F022C3E697F61A
:101923000809E697F60809E697F60809E697F62206
:10193300C3E096F008A3E096F008A3E096F008A3AE
:10194300E096F022E657F60809E657F60809E65747
:10195300F60809E657F622E056F608A3E056F6081D
:10196300A3E056F608A3E056F622E056F008A3E0FB
:1019730056F008A3E056F008A3E056F022E0F6087C
:10198300A3E0F608A3E0F608A3E0F622E6F008A336
:10199300E6F008A3E6F008A3E6F022E0FAA3E0FBF2
:1019A300A3E0FCA3E0FD22EAF0A3EBF0A3ECF0A399
:1019B300EDF022CAC0E0E6F0A308DAFAD0E0FA229A
:1019C300CAC0E0E0A3C582CCC582C583CDC583F080
:1019D300A3C582CCC582C583CDC583DAE6D0E0CA70
:1019E30022C3E498F8E499F9121A258026C3E49AED
:1019F300FAE49BFBE920E7E9121A25E498F8E49955
:101A0300F922C3E498F8E499F9121A25E498F8E462
:101A130099F9C3E49AFAE49BFB22EB20E7CFE92090
:101A2300E7E0B90010BB0008E88AF084F8AAF022C6
:101A3300E4FBC8FA22EB70227B10C833C8C933C950
:101A4300335007C39AC3DBF280069A50012ADBEABC
:101A5300C833F4C8C933F4C9FA2275F008E4C833AB
:101A6300C8C933C933C99AC99B5004C92AC93BD5CC
:101A7300F0ECFBC833F4C8E4C9FA22600D08C6A22F
:101A8300E713C618C613C6D5E0F322600C08C6C315
:101A930013C618C613C6D5E0F422700422600D18CD
:101AA300C6C333C608C633C6D5E0F41822251810BA
:101AB300AF08F518400215198008F51840021519EA
:101AC300D2AF22C0D0251810AF08F518500205195F
:101AD3008008F51850020519D2AFD0D0222518F589
:101AE3008210AF08F518400215198008F518400256
:101AF3001519D2AF851983222518F582E43519F516
:101B03008322E4732518C582C0E0E51934FFC58339
:101B1300C0E0E518C3958224F810AF0885831985C2
:101B230082188008858319858218D2AFCEF0A3E589
:101B330020F0A37808E608F0A3DEFAEFF0A3E5812E
:101B430024FAF8E608F0A3E608F0A3E608F0A308F1
:101B530008E608F0A3E608F0A315811581D0E0FE9E
:101B6300D0E0F8158115811581E8C0E0EEC0E022D0
:101B73002518C582C0E0E51934FFC583C0E0E51828
:101B8300C3958224F910AF088583198582188008CC
:101B9300858319858218D2AFCEF0A3E520F0A37810
:101BA30008E608F0A3DEFAEFF0A3E58124FBF8E6EC
:101BB30008F0A3E608F0A30808E608F0A3E608F097
:101BC300A315811581D0E0FED0E0F815811581E8D9
:101BD300C0E0EEC0E022851983851882E0A3FEE011
:101BE300A3F5207808E0A3F608DFFAE0A3FFE0A35B
:101BF300C0E0E0A3C0E0E0A3C0E0E0A3C0E0E0A356
:101C0300C0E010AF08858218858319800885821883
:101C1300858319D2AFD083D082020135851983859C
:101C23001882E0A3FEE0A3F5207808E0A3F608DF1E
:101C3300FAE0A3FFE0A3C0E0E0A3C0E0E0A3C0E0BC
:101C4300E0A3C0E010AF088582188583198008855A
:101C53008218858319D2AFD083D08222C0D02518B1
:101C6300C582C0E0E51934FFC583C0E0E518C3951C
:101C73008224F310AF088583198582188008858331
:101C830019858218D2AFC8F0A3E9F0A3EAF0A3EB59
:101C9300F0A37908E709F0A3D8FAECF0A3EDF0A3D9
:101CA300EEF0A3EFF0A3D0E0F0A3D0E0F0A3D0E0F8
:101CB300F0A3E520F0A3E5F0F0A3228519838518AE
:101CC30082E0C0E0A3E0F9A3E0FAA3E0FBA3780875
:101CD300E0F608A3DFFAE0FCA3E0FDA3E0FEA3E047
:101CE300FFA3E0C0E0A3E0C0E0A3E0F5D0A3E0F5EC
:101CF30020A3E0A3F5F010AF08858319858218802F
:101D030008858319858218D2AFD082D083D0E0F8BA
:101D1300D0E03274048006740280027401C0E0F4DF
:101D230004121AE0D0E01219B6227404800474027B
:101D33008000CCC0E0EDC0E0E518C39CCCAD1950E9
:101D4300011D10AF068C188D1980068C188D19D2C1
:101D5300AF1219C3D0E0FDD0E0FC22D083D082E9DA
:101D6300C0E0E493A3C386F0C5F095F0F908E493CB
:101D7300A386F0C5F095F0700BE493A3C3994005D7
:101D8300E9048002A3E475F002A42582F582E5F05C
:101D93003583F583D0E0F9E493A3C0E0E493C0E096
:101DA30022D083D082ECC0E0EDC0E0E493A3FCE456
:101DB30093A3FDED4C600D121DF0EC24FFFCED34FC
:101DC300FFFD80EFE493A3FCE493A3FDED4C600DD2
:101DD300121E2FEC24FFFCED34FFFD80EFD0E0FD5D
:101DE300D0E0FCE493A3C0E0E493C0E022C0E0C3EE
:101DF300E49396087401939618400FE49366700871
:101E030008740193661870007019A3A3C3E4939632
:101E1300087401939618A3A3400DD0E0D0E0D0E05E
:101E2300021DE0A3A3A3A3A3A3D0E022C0E0C0F0BC
:101E330088F0E4936670080874019366187000A82C
:101E4300F0A3A3700BD0F0D0E0D0E0D0E0021DE00F
:071E5300A3A3D0F0D0E022B0
:101E5C00C2AF02000022C0E074F2121C5FA2AFE419
:101E6C0033FED2AFE589A2E1500312075C758900FD
:101E7C00C2C5751A00EEF8EEA2E092AF7F01021C0B
:101E8C00BEC0E074F2121C5FA2AFE433FED2AFE529
:101E9C008BA2E0500312075C758B00C2E8751A0028
:101EAC00EEF8EEA2E092AF7F01021CBEC0E0C0D003
:101EBC00E8C0E0E9C0E0A2AFE433F8D2AFC2C77526
:101ECC001A00E8F9E8A2E092AFD0E0F9D0E0F8D03F
:101EDC00D0D0E03274F5121B73EAFEEBFFEE243423
:101EEC00F8EF3400F988088909EE2435F582EF34CF
:101EFC0000F583E0F8EE2437F582EF3400F583E04B
:101F0C00F50AEC850AF0A4FCAAF0850AF0EDA42AE7
:101F1C00FDE82CF8E43DF97A257B00121A25EA85B8
:101F2C000882850983F0F8740758F97401B9000226
:101F3C008004C333D9FCFAE8131313541FF8EE28AA
:101F4C00F8EF3400F9E8245DF582E93400F583E01C
:101F5C005A6008EE2434F582EF802CEE2434F5829E
:101F6C00EF3400F583E0C0E0EE2436F582EF340068
:101F7C00F583E0F5F0D0E084A8F0EE28F8EF34001B
:101F8C00F9E82438F582E93400F583E0F97F04029E
:101F9C001C1F74F5121B73EAFEEBFFEE2434F58262
:101FAC00EF3400F583E0C0E0EE2435F582EF340029
:101FBC00F583D0E0F08E828F83A3A3A3A3A3A3A366
:101FCC00C082C0838E828F83A3A3A3A3A3E0F8A3B4
:101FDC00E0F9D083D082E0C398F508A3E099F50925
:101FEC00EE247FF582EF3400F583E064017069EE36
:101FFC002480F582EF3400F583E0F8A3E0F98E82BB
:10200C008F83A3A3A3A3A3A3A3E0FCA3E0FD8E82D1
:10201C008F83A3A3A3A3A3E0FAA3E0FBC3EA9CEBE7
:10202C009D5010C3EC98ED99402EC3EA98EB995053
:10203C0027800EC3EA98EB994007C3EC98ED9940C2
:10204C00177C857D0AEEFAEFFB12127EEE247FF5EB
:10205C0082EF3400F583E4F0EE2434F8EF3400F929
:10206C00E8FCE9FDEE2435F582EF3400F583E0F869
:10207C00EE2437F582EF3400F583E0F50AE50885A8
:10208C000AF0A4F508AAF0850AF0E509A42AF509D6
:10209C00E82508F8E43509F97A257B00121A25EAB7
:1020AC008C828D83F0F8740758F97401B9000280A2
:1020BC0004C333D9FCFAE8131313541FF8EE28F8B1
:1020CC00EF3400F9E8245DF582E93400F583E05A39
:1020DC006008EE2434F582EF802CEE2434F582EF88
:1020EC003400F583E0C0E0EE2436F582EF3400F5E1
:1020FC0083E0F5F0D0E084A8F0EE28F8EF3400F996
:10210C00E82438F582E93400F583E0F9122D230236
:10211C001F99C082C083851882851983E0F8A3E0DB
:10212C00F9C3EA9CEB9D5010C3EC98ED99401BC38E
:10213C00EA98EB995014800EC3EA98EB994007C3C8
:10214C00EC98ED994004790180027900D083D0821B
:10215C0022EAC39CFAEB9DFB2274EF121B739007CF
:10216C003FE064086005E06407702A9061C8E06095
:10217C002490076DE0F4601DE0F875F005A4C8AA82
:10218C00F02AF9746F28FE740739FF8E828F83A3AF
:10219C00A3A3E07003022295906060E0C0E0EE24FF
:1021AC0068F582EF3400F583D0E0F0750C18750DEE
:1021BC000B750800750900E5D914F50AE5D9540327
:1021CC00F50E60177403650E605CE50A6010EE2472
:1021DC0067F582EF3400F583E0700302227A900BEE
:1021EC0013E06401602AEE2482F582EF3400F5835B
:1021FC00E06004780480027800850A08E508C3983A
:10220C00FA95E0FB1210CE8A088B09EA4509700595
:10221C0012151E8074EE2482F582EF3400F583E0F3
:10222C0070048A0C8B0DE50A6012850C82850D8377
:10223C00F50BE5D9F0A3150BE50B70F6EE2482F542
:10224C0082EF3400F583E0604474FC250AF50A78CB
:10225C000C121D1AAC0AA90EEEFAEFFB121326741F
:10226C0002121AC6E97026AA08AB0912086A793D4F
:10227C008E828F83A3A3A3A3E0FA7B00120F90EEB0
:10228C00FAEFFB1212A21213867900807D7403659B
:10229C000E6056850A107511007810121D1AAC0CC0
:1022AC00AD0DAA08AB091213027402121AC6EE2461
:1022BC0068F582EF3400F583E064807004747F80ED
:1022CC0001E0F50C780C121D1EE50EF50C780C12C5
:1022DC001D1EA90AAC08AD0990076DE0FA7B00122F
:1022EC000F4E7402121AC6801C90073FE06408ACB3
:1022FC000CAD0D7009EEFAEFFB1213568007EEFAD7
:10230C00EFFB1213EC12152A79017F0A021C1F74C1
:10231C00F5121B7374FC121AB0EAFEEBFF8908A2CB
:10232C00AFE433F509C2AF806AEE2463F8EF3400F2
:10233C00F97A007B00A2AFE433F50AC2AF88828938
:10234C0083E0FCA3E0FDEC4D603A88828983E0FADF
:10235C00A3E0FB8A828B83E0FCA3E0FD8882898367
:10236C00ECF0A3EDF08A828B83E4F0A3F0888289F1
:10237C0083E0FCA3E0FDEC4D700A88828983A3A363
:10238C00E4F0A3F0E50AA2E092AF12086A900A8C7E
:10239C00E004F0EE2463F582EF3400F583E0F8A35B
:1023AC00E0F9E849603DEE2463F582EF3400F583F3
:1023BC00E02402FAA3E03400FBEA2402F50AEB3431
:1023CC0000F50B780A121D1A8A828B83E0FCA3E0BD
:1023DC00F9EEFAEFFB1212C67402121AC6E9700378
:1023EC00022335900A8CE06063900A8DE0F8900A25
:1023FC008CE0C398500C740265087050900A8EE003
:10240C00604A8E828F83A3A3A3A3E08518828519CB
:10241C0083F0A3E4F0900A8CE0F87402121AFBE843
:10242C00F0A3E4F0900A8CE0F8900A8BE028F074AA
:10243C0002121AFBAC82AD83851882851983AA829D
:10244C00AB837901120F5A900A8CE4F0E509A2E0F3
:10245C0092AF7404121AC6021F9900008521878559
:10246C0022C622C0E0C0D0E8C0E0E9C0E0EAC0E08B
:10247C00EBC0E0ECC0E0EDC0E0EEC0E0C008C0098D
:10248C00C00AC00BC082C083C0F0A2AFE433FEC24E
:10249C00AF759B00906182E0A2E05012E591A2E042
:1024AC00500C7591FE740165217003122165E0A238
:1024BC00E55051E591A2E5504B7591DF90073FE057
:1024CC0064076005E0640870237401652170357938
:1024DC000190076DE0FA75F005A4CAA8F028FB740A
:1024EC006F2AFA74073BFB12231B8018E0640D70F3
:1024FC0013900761E004F064287002E4F07A00E0C5
:10250C00F9121530906182E0A2E640030225B6E58F
:10251C0091A2E640030225B67591BF90073FE06497
:10252C0005700812142212142E800312142875211F
:10253C000012149AE9900740F0790012147C1211E1
:10254C00A67A017B0090073EE0F91204D490780340
:10255C00E064427055900B17E014F0704DC2AF124E
:10256C00256E00782AD0E0F618D0E0F6E59F5407E7
:10257C0070057509FF800375097FC4C0E07829E6F2
:10258C00F50808E65509F509740B7808121A8ED06F
:10259C00E02508F8906270E0A2E740F8E8C33390B9
:1025AC006272F0906270E0D2E0F0906181E0A2E3A0
:1025BC005009E5E9A2E3500375E9F7A3E0A2E7505F
:1025CC0009E591A2E7500375917FEEA2E092AFD09E
:1025DC00F0D083D082D00BD00AD009D008D0E0FE46
:1025EC00D0E0FDD0E0FCD0E0FBD0E0FAD0E0F9D0B8
:1025FC00E0F8D0D0D0E032C0E0C0D0C082C0839030
:10260C006183E0A2E05009E5BFA2E0500375BFFE74
:10261C00E0A2E15009E5BFA2E1500375BFFDE0A2C5
:10262C00E25009E5BFA2E2500375BFFBE0A2E35004
:10263C0009E5BFA2E3500375BFF7E0A2E45009E53A
:10264C00BFA2E4500375BFEFE0A2E55009E5BFA2BD
:10265C00E5500375BFDFE0A2E65009E5BFA2E650E6
:10266C000375BFBFD083D0828088C0E0C0D0E8C0E3
:10267C00E0E9C0E0EAC0E0EBC0E0ECC0E0EDC0E0B7
:10268C00C0F0E5A7A2E6500FE5A1A2E6500953A7BA
:10269C00BF75A1BF1226DBE5A7A2E5500CE5A1A2F0
:1026AC00E5500653A7DF75A1DFE5A7A2E15009E5C8
:1026BC00A1A2E1500375A1FDE5A7A2E2500CE5A192
:1026CC00A2E2500653A7FB75A1FBD0F00225EC74D7
:1026DC00F8121B7375210190073FE0640670151208
:1026EC0013AA8A828B83A3A3A3A3A3A3E0FAA3E0D8
:1026FC00FB121410A2AFE433FED2AF900745E06496
:10270C000170187A207B0090073EE0F91205647A7C
:10271C00207B0090073EE0F91204DA906182E0D24F
:10272C00E6F0900B14E0602185C6228016900744D9
:10273C00E064017008E5C654F84405F5C653BEFCC8
:10274C001224687401652160E4EEA2E092AF7F016F
:10275C00021C1F008E238F248582288583278518D1
:10276C0082851983E0CEA3E0CF852882852783EB71
:10277C00C9EAC8EDCBECCA75F010C3E833C8E9332D
:10278C00C9EA33CAEB33CBC3EA9EF526EB9FF5259A
:10279C00B35004AB25AA26EC33CCED33CDD5F0DA0F
:1027AC00AE23AF242274E9121B7374F8121AB0858D
:1027BC001882851983ECF0A3EDF08A088B09900739
:1027CC003FE024F7C394055006750801022948120E
:1027DC0013AA8A0A8B0BAE0AAF0BEE4F70030229B9
:1027EC0045AC08AD097402121AFBAA82AB83121411
:1027FC00408E828F83A3A3750CFF750DFF750EFFA2
:10280C00750F00780C12195A7402121AFB7510FF0E
:10281C007511FF7512FF751300781012195A780C88
:10282C00791012177F502A780C791012191F75081D
:10283C00017509C8750A00750B007808790C121718
:10284C007F5052850C08850D09850E0A850F0B806B
:10285C00507514017515C87516007517008510088C
:10286C0085110985120A85130B7808790C12191F2A
:10287C007814790812177F401C75080075090075CB
:10288C000A00750B017808791012191F7808790C59
:10289C001218E6800C750801750900750A00750B95
:1028AC0000740978081218C7750C19F50DF50EF59A
:1028BC000F7808790C12183E8E828F83A3A3A3A3E2
:1028CC00A3A3E0F8A3E0F97AD07B03121A25880CB5
:1028DC00890DE4F50EF50F7808790C1218E67406DC
:1028EC00121AFBE0F8A3E0F97AD07B03121A25E860
:1028FC00FA8A0CE4F50D7808790C12177F500778DA
:10290C0008790C12191F90073FE06408600AE06414
:10291C00066005E06405702D750C0D780C790812B5
:10292C00177F4021750CF4750DFF750EFF750FFFA9
:10293C007808790C1218E6800C750800750900757A
:10294C000A00750B00851882851983E0F8A3E0F561
:10295C00838882780812198F7408121AC67F1002A5
:10296C001C1F74F7121B73121452900B12E06401AB
:10297C007010906245E4F0A3F053F4F343FE0C5353
:10298C0090F31213FEE5C654804449F5C6E59E54F7
:10299C007F644970F8906185740FF0900B10E0F42F
:1029AC007002A3E0604E900B11E0600814601B14E1
:1029BC00602E8040750801750900900B10E07808B6
:1029CC00121A9DE508F45280802A750801750900D9
:1029DC00900B10E07808121A9DE508F452908014C0
:1029EC00750801750900900B10E07808121A9DE526
:1029FC0008F452A079007F02021C1F74F7121B739B
:102A0C00E9FEEAFF74016E700C7A807B0090073E41
:102A1C00E0F91204D4902D34E493F46008E493F9B3
:102A2C0012119A800953C680E59E547F70FA1214D5
:102A3C0004900B12E0640170031211B8900B10E0BB
:102A4C00F47002A3E0604B900B11E0600814601A64
:102A5C0014602C803D750801750900900B10E0780E
:102A6C0008121A9DE5084280802875080175090036
:102A7C00900B10E07808121A9DE5084290801375AF
:102A8C000801750900900B10E07808121A9DE508F2
:102A9C0042A01214521213AA8A088B09A808A90979
:102AAC00E8496015E5E170FCE82414F582E934008E
:102ABC00F583E0F46003E0F5E174016F700A7A01CC
:102ACC0090073EE0F9120534022A0274ED121B73D2
:102ADC008A088B098C0A8D0B7413121AFB780C1252
:102AEC0019807808790C12177F7510017511C8754B
:102AFC00120075130050127808790C12191F7810F7
:102B0C00790812177F50168010780C790812191F4B
:102B1C007810790C12177F40047901800279007FBC
:102B2C000C021C1F74ED121B738A088B098C0A8D06
:102B3C000B7413121AFB780C121980780C7908128A
:102B4C00177F40117808790C12191FAA08AB09AC31
:102B5C000AAD0B80227510007511007512007513EB
:102B6C00017810790C12191F781079081218E6AA3E
:102B7C0010AB11AC12AD1380A68A828B837508FF43
:102B8C007509FF750AFF750B00780812196D7F0423
:102B9C00021C1F74F5121B738C828D83780812191A
:102BAC00808A828B837808121933EA2404F8EB3478
:102BBC0000F98C828D83A3A3A3A3E0FCA3E0FD8882
:102BCC00828983C3E09CF0A3E09DF088828983C353
:102BDC00E09420A3E0944E40268A828B837508FFF4
:102BEC007509FF750AFF750BFF780812190C8A829C
:102BFC008B83A3A3A3A3E02420F0A3E0344EF00224
:102C0C002B8574F5121B73E9FE900AA0E0FAA3E081
:102C1C00FBEEC333F8E433F974EB28F58274803996
:102C2C00F583E02AF508A3E03BF5097808121D1A94
:102C3C007A407B427C0F7D001227607402121AC608
:102C4C008A088B098C0A8D0B741078081218AEAA9E
:102C5C0008AB097F04021C1F74F1121B738A0C8BC6
:102C6C000D8C0E8D0F740F121AFBE0FAA3E0FB749F
:102C7C0011121AFBE0F508A3E0F5097808121D1AE9
:102C8C00EA2401F508EB3400F509E4F50AF50B78B4
:102C9C000C79081217BE750871750902780C790841
:102CAC001217BEAA0CAB0DAC0EAD0F12276074023E
:102CBC00121AC68B09EA450960047A0180027A006F
:102CCC00EC2AFCED3400FD7413121AFBE0F8A3E0BF
:102CDC00F9E8FEE9FFECF8EDF97A717B02121A259E
:102CEC00880889098E828F83780812198FECF8ED89
:102CFC00F97A717B02121A258A088B0974057808F7
:102D0C00121A9D8E828F83A3A3A3A3E508F0A3E5DB
:102D1C0009F07F08021C1FC082C083E9906000F09C
:102D2C00D083D08222020135FFFFFFFFFFFFFFFFA0
:102D3C00C082C0839061907404F0A37448F0A374B3
:102D4C0002F09061807440F09061BC7403F090616B
:102D5C00877419F0906265741BF0906249E0C3941B
:102D6C001390619C400A7409F090606674018007AE
:102D7C00740DF0906066E4F090619A7433F0A37473
:102D8C0055F09061A0743AF0900B12E06401700958
:102D9C00C291900743746780059007437461F0906B
:102DAC002D3AE493906186F0902D34E493F46027EF
:102DBC00E493540FF8906185E0686012E5C6548086
:102DCC004449F5C6E59E547F644970F8E8F053C653
:102DDC0080E59E547F70FA7905121512023250C0AC
:102DEC0082C083E9540FF9906185E0696012E5C6F1
:102DFC0054804449F5C6E59E547F644970F8E9F067
:102E0C0053C680E59E547F70FA023250C082C08354
:102E1C00E5A8F853A87E906181E4F0A3F0A3F0C27A
:102E2C00BA539AFEC289759B00C2C275E9007591AE
:102E3C000075BF0075A91175B905906181F0A37477
:102E4C00C0F0A3E4F0D2BA439A0174805842A802AD
:102E5C003250F0A3F0023250C082C08374F8121AC0
:102E6C00B0900741E0F8A3E0F9E8497003022F9213
:102E7C00900741E0544060237908851882851983B6
:102E8C00AA82AB831212E4851882851983AA82ABBD
:102E9C0083120F36900741E054BFF0E0548060106D
:102EAC00790C7A387B0B1212E4900741E0547FF0D6
:102EBC00E0A2E0503190619A7433F0A37455F09015
:102ECC0061A0743AF0900B12E064017009C2919009
:102EDC000743746780059007437461F0120F3C90B0
:102EEC000741E054FEF0E05402603190619A743F67
:102EFC00F0A3745AF09061A0747FF0900B12E06410
:102F0C00017009D291900743747180059007437446
:102F1C006AF0120F3C900741E054FDF0E05404605D
:102F2C0013902D38E493906186F0120F4290074174
:102F3C00E054FBF0E054086013902D39E493906159
:102F4C0086F0120F42900741E054F7F0E054106005
:102F5C0013902D3AE493906186F0120F4290074142
:102F6C00E054EFF0E05420600A120F42900741E069
:102F7C0054DFF0A3E05401600D1211B8120F489009
:102F8C000742E054FEF07408121AC6023250C08296
:102F9C00C083E9600514602A804F90619A7433F005
:102FAC00A37455F09061A0743AF0900B12E0640198
:102FBC007009C2919007437467802D900743746128
:102FCC00802690619A743FF0A3745AF09061A074BB
:102FDC007FF0900B12E064017009D291900743745A
:102FEC00718005900743746AF002325074EC121B26
:102FFC000774F4121AB0851882851983AC82AD83DC
:10300C0075838175827974041219C3902D3893F4E9
:10301C006003023184907808E0C3940250030231BB
:10302C00647404121AFBAC82AD837583817582249F
:10303C0074081219C38518828519838582128583B9
:10304C00137404121AFBAC82AD83750EFF750FFF5F
:10305C007FFF7E00750C48750D78801574086E70B6
:10306C00030230F874096E70030230F8740A6E6053
:10307C007B850C82850D8378081219808C828D8358
:10308C00A909E50AC9F88810741878081218AEE571
:10309C00104508F8C3E098A3E099850C82850D8350
:1030AC00780812198040188C828D83741878081255
:1030BC0018AEE5104508F8E0C398F8A3E0801C743E
:1030CC001878081218AEE5104508FAE9FB8C828DC9
:1030DC0083E0F8A3E0F9EAC398F8EB99F9C3E89513
:1030EC000EE9950F5006880E890FEEFF0EE50C24A5
:1030FC0004F50CE50D3400F50DEEC39413500302EA
:10310C00306874FF650E700474FF650F60238F08C0
:10311C0074027808121A9D74482508F58274783563
:10312C0009F5837808121980851282851383E508C6
:10313C00F0EC2402FCED3400FD851282851383A390
:10314C00858212858313740C121AFBE5826C700352
:10315C00E5836D6003023056750801750900780827
:10316C00121D1A7402121AFBAC82AD837A4E7B0BC1
:10317C001207387402121AC6740C121AC67F0C028B
:10318C001BD9C082C0839061AE7468F0A3746AF0DE
:10319C0090624574FBF0A304F053F4FD43FE0290DF
:1031AC000B127401F09061A0E0643A90619A702364
:1031BC007433F0A37455F09061A0743AF074016408
:1031CC00017009C29190074374678028900743747B
:1031DC00618021743FF0A3745AF09061A0747FF069
:1031EC00740164017009D291900743747180059049
:1031FC000743746A022E607F08021BD9C082C08309
:10320C00900AF0E064017011900AF6E06401602706
:10321C00E07006A3E06401601E900B07E06401708F
:10322C0008900B0DE06401600E900A9AE064017046
:10323C000A900A9FE06004790C800279008005E016
:10324C00F9122D23D083D082020135C082C0837540
:10325C00E1F1900A9DE0605A14600914605E1460FC
:10326C005614705D1211CA900A93E0F97A947B0A95
:10327C0012145E7AD67BBE7C897D8E1214AC7A5584
:10328C007B557C557D0012146A900A9EE0F912144D
:10329C00767901121506900A91E0F8A3E0C824167D
:1032AC00F582E83400F58374FAF0A37411F0790018
:1032BC0080921211D080B01211D680AB1211DC802A
:1032CC00A6791280EB74F0121B0775D90D900A7E4B
:1032DC00E0A2E0E4331313F8900A93E0C4333354C0
:1032EC00C0484401F5D97891790A88828983A3A3CF
:1032FC00A3E0F5D988828983A3A882A983E864977F
:10330C007003E9640A70E3787E790A88828983A362
:10331C00E0F5D988828983A3A882A983E8648470A4
:10332C0003E9640A70E575E195900A7EE0F97A7F0D
:10333C007B0A12146490139A7470F0A37411F0A3A6
:10334C00742CF0A37413F0A3742CF0A37413F0A3D7
:10335C00742CF0A37413F0A37476F0A37411F0A37F
:10336C00742CF0A37413F0A3748EF0A37411F0906A
:10337C0013A8742CF0A37413F0A3742CF0A374137F
:10338C00F0A3742CF0A37413F0A3742CF0A3741397
:10339C00F0A3742CF0A37413F0A3742CF0A3741387
:1033AC00F0900A9DE06401900A917012E0F8A3E09D
:1033BC00F5838882A3A37508007509088010E0F8CE
:1033CC00A3E0F5838882A3A3750804750900750A28
:1033DC0000750B0078081218F9750CFF750DFF7548
:1033EC000EFF750F007808790C121947900A91E0BE
:1033FC00F8A3E0C8240EF582E83400F583780812AF
:10340C00198F900A91E0F8A3E0C82414F582E834EF
:10341C0000F5837413F090073F7402F002320374CA
:10342C00F7121B07900AA3E02407F5D9900A93E042
:10343C00C4333354C0F5D97891790A88828983A32F
:10344C00A3A3E0F5D988828983A3A882A983E86421
:10345C00977003E9640A70E3900AA3E0601F789107
:10346C00790AFAE82413F582E93400F583E0F5D9FA
:10347C0088828983A3A882A9831AEA70E6900AC37A
:10348C00E02407F5D9900A93E0C4333354C04404C4
:10349C00F5D97891790A88828983A3A3A3E0F5D919
:1034AC0088828983A3A882A983E864977003E9645E
:1034BC000A70E3900AC3E0601F7891790AFAE82455
:1034CC0033F582E93400F583E0F5D988828983A34A
:1034DC00A882A9831AEA70E675E19590139A747C18
:1034EC00F0A37411F0A3742CF0A37413F0A3742C38
:1034FC00F0A37413F0A3742CF0A37413F0A37476DC
:10350C00F0A37411F0A3742CF0A37413F0A3748EB5
:10351C00F0A37411F09013A8742CF0A37413F0A3FF
:10352C00742CF0A37413F0A3742CF0A37413F0A3F5
:10353C00742CF0A37413F0A3742CF0A37413F0A3E5
:10354C00742CF0A37413F0900A91E0F8A3E0C82453
:10355C000EF582E83400F58374FFF0A3F0A3F0A31A
:10356C00F0900A91E0F8A3E0C82414F582E8340046
:10357C00F5837412F090073F7401F0FF021BD974AD
:10358C00F7121B07900AA3E02407F5D9900A93E0E1
:10359C00C4333354C04402F5D97891790A888289AE
:1035AC0083A3A3A3E0F5D988828983A3A882A983E6
:1035BC00E864977003E9640A70E3900AA3E0601F63
:1035CC007891790AFAE82413F582E93400F583E05E
:1035DC00F5D988828983A3A882A9831AEA70E67533
:1035EC00E19590139A7488F0A37411F0A37488F089
:1035FC00A37411F0A37488F0A37411F0A37488F071
:10360C00A37411F0A37488F0A37411F0A37488F060
:10361C00A37411F0A3748EF0A37411F09013A8741A
:10362C002CF0A37413F0A3742CF0A37413F0A374F4
:10363C002CF0A37413F0A3742CF0A37413F0A374E4
:10364C002CF0A37413F0A3742CF0A37413F0900A51
:10365C0091E0F8A3E0C8240EF582E83400F58374F9
:10366C00FFF0A3F0A3F0A3F0900A91E0F8A3E0C858
:10367C002414F582E83400F5837414F090073F7439
:10368C0004F002438374F7121B07900AA3E024078B
:10369C00F5D9900A93E0C4333354C04406F5D97875
:1036AC0091790A88828983A3A3A3E0F5D9888289BA
:1036BC0083A3A882A983E864977003E9640A70E382
:1036CC00900AA3E0601F7891790AFAE82413F58236
:1036DC00E93400F583E0F5D988828983A3A882A90F
:1036EC00831AEA70E6900AC3E02407F5D9900A938E
:1036FC00E0C4333354C04404F5D97891790A8882F4
:10370C008983A3A3A3E0F5D988828983A3A882A97E
:10371C0083E864977003E9640A70E3900AC3E0607D
:10372C001F7891790AFAE82433F582E93400F5839D
:10373C00E0F5D988828983A3A882A9831AEA70E666
:10374C0075E19590139A7482F0A37411F0A3742C04
:10375C00F0A37413F0A3742CF0A37413F0A3742CC3
:10376C00F0A37413F0A3742CF0A37413F0A3742CB3
:10377C00F0A37413F0A3748EF0A37411F09013A83B
:10378C00742CF0A37413F0A3742CF0A37413F0A393
:10379C00742CF0A37413F0A3742CF0A37413F0A383
:1037AC00742CF0A37413F0A3742CF0A37413F09086
:1037BC000A91E0F8A3E0C8240EF582E83400F58302
:1037CC0074FFF0A3F0A3F0A3F0900A91E0F8A3E04B
:1037DC00C82414F582E83400F5837415F090073F83
:1037EC007403F0024383C082C083900AFA7425F0FC
:1037FC00900AF87401F0A3E4F07A01FB121488909B
:10380C000AE6E0F8A3E0C82416F582E83400F58354
:10381C007406F0A37412F0900AF7E064017016902D
:10382C000AF6E0701079011214EE1214B81214E8B2
:10383C0079001214FA023250C082C08374FA121A40
:10384C00B0900AEFE0640170081211E2900AEFE404
:10385C00F075E1F1900AE6E0F8A3E0C82415F582D2
:10386C00E83400F5837401F0900AF1E0640170769D
:10387C00908132C082851882851983AC82AD8375A4
:10388C008381D08274061219C375D90D900AE8E0B1
:10389C00C4333354C04403F5D978E6790A88828955
:1038AC0083A3A3A3E0F5D988828983A3A882A983E3
:1038BC00E864EC7003E9640A70E385188285198367
:1038CC00A882A98388828983E0F5D9A3A882A983D9
:1038DC007406121AFBE582687003E5836970E5755E
:1038EC00E19579018002790012148E90139A74621A
:1038FC00F0A37413F0A37468F0A37413F0A37462B0
:10390C00F0A37413F0A37462F0A37413F0A3742CDB
:10391C00F0A37413F0A3742CF0A37413F0A3746EBF
:10392C00F0A37413F09013A8742CF0A37413F0A3E9
:10393C00742CF0A37413F0A3742CF0A37413F0A3E1
:10394C00742CF0A37413F0A3742CF0A37413F0A3D1
:10395C00742CF0A37413F0900AE8E0F97AE97B0A6E
:10396C0012145E900AFAE0F9122D237901121494C4
:10397C007AD67BBE7C897D8E1214AC7A557B557CB5
:10398C00557D0012146A7900121506900AE6E0F8CB
:10399C00A3E0C82414F582E83400F5837416F09083
:1039AC00073F7405F004022F9474F7121B07890863
:1039BC00A808E875F005A4C8AAF02AF9746F28FEC7
:1039CC00740739FF900AFFE0F97A007B0B12145E42
:1039DC00900B0DE0701A79001214D0900A7EE070F2
:1039EC00047900800279017A7F7B0A1214648005C5
:1039FC0079011214D075E1F175D923900AFFE0C456
:103A0C00333354C04405F5D978FD790A888289830B
:103A1C00A3A3A3E0F5D988828983A3A882A983E80C
:103A2C0064037003E9640B70E375D90075D90075F4
:103A3C00D90075D90075D90075D900EEF8EFF9E801
:103A4C002404FAE93400FBE82422F582E93400F579
:103A5C0083E0F5D988828983A3A882A983EA687058
:103A6C0002EB6970E2EEF8EFF9E824031AE934008E
:103A7C00FBE82426F582E93400F583E0F5D9888249
:103A8C008983A3A882A983EA687002EB6970E2EECD
:103A9C00242BF582EF3400F583E0F5D9EE242CF5D8
:103AAC0082EF3400F583E0F5D9EE242DF582EF3466
:103ABC0000F583E0F5D9EE242EF582EF3400F58382
:103ACC00E0F5D9EE242FF582EF3400F583E0F5D93B
:103ADC00EE2430F582EF3400F583E0F5D9EE243195
:103AEC00F582EF3400F583E0F5D9EE2432F582EF60
:103AFC003400F583E0F5D9EE2433F582EF3400F58C
:103B0C0083E0F5D9EEF8EFF9E82405FAE93400FB87
:103B1C00E8245DF582E93400F583E0F5D9888289E3
:103B2C0083A3A882A983EA687002EB6970E2EE2491
:103B3C0037F582EF3400F583E0541FF8EE242AF5B4
:103B4C0082EF3400F583E0C43354E048F5D975E1D5
:103B5C009590139A7432F0A37413F0A37438F0A3F5
:103B6C007413F0A3742CF0A37413F0A3742CF0A3AF
:103B7C007413F0A3742CF0A37413F0A3742CF0A39F
:103B8C007413F0A3743EF0A37413F09013A8742C68
:103B9C00F0A37413F0A3742CF0A37413F0A3742C7F
:103BAC00F0A37413F0A3742CF0A37413F0A3742C6F
:103BBC00F0A37413F0A3742CF0A37413F0900B0CFB
:103BCC00E0F9122D237AD67BBE7C897D8E1214AC43
:103BDC007A557B557C557D0012146A90600DE4F08B
:103BEC00790112150690073F7406F002438374E8BE
:103BFC00121B07900AFDE0F8A3E0F5838882A3A3CB
:103C0C00780C121980900B0EE0FAF875F005A4C828
:103C1C00ACF02CF9749D28F582740739F583E0FE1D
:103C2C00A3E0FFEEC333FEEF33FF8E14F5157516CC
:103C3C0000751700850C08850D09850E0A850F0B7C
:103C4C007510047511007512007513007808791041
:103C5C001218E67808121D16850C08850D09850EBC
:103C6C000A850F0B780879141218E6780C7914125F
:103C7C00183EE4F516F5177808791412191F8A0CFA
:103C8C00750D007403780C121A9DE50D3395E0F553
:103C9C000EF50F7808790C1218E6750CFF750DFFF0
:103CAC00750EFF7808790C121947AA08AB09AC0AF3
:103CBC007D00122B307404121AC68A088B09A808CE
:103CCC00A909C3EE98EF995006E82EF8E93FF9E8F8
:103CDC0090600EF0E9A3F0EEA3F0EFA3F090600D6E
:103CEC0074C1F07F10021BD9C082C083900A91E08E
:103CFC00F8A3E0C82406F582E83400F583E4022E2C
:103D0C005E74F7121B0790076DE0F875F005A4C8F8
:103D1C00AAF02AF9746F28F8740739F9E82405FA1F
:103D2C00E93400FB8A828B83E0FCA3E0FD88828966
:103D3C0083A3A3A3A3A3A3A3A3A3ECF0A3EDF08855
:103D4C00828983A3A3A3A3A3A3A3E024FFF8A3E0E6
:103D5C0034FFF98A828B83E8F0A3E9F0024383C035
:103D6C0082C083900AE6E0F8A3E0C82406F582E856
:103D7C003400F583E4F0A3F0900AFA02324BC082CF
:103D8C00C083900AFDE0F8A3E0C82406F582E8346D
:103D9C0000F583E4F0A3F0900B0C02324B020135DA
:103DAC0074F6121B079061D0E0F87480C398FCEA9B
:103DBC002482F582EB3400F583E060047804800201
:103DCC007800E8240EF8ECC3985003023ED87C0C23
:103DDC00900B18E4F0EA2476F582EB3400F583E0DE
:103DEC00900B19F0EA2477F8EB3400F98882898378
:103DFC00E0900B1AF088828983A3E0900B1BF0EA09
:103E0C002479F8EB3400F988828983E0900B1CF05C
:103E1C0088828983A3E0900B1DF0EA247BF8EB34B5
:103E2C0000F988828983E0900B1EF088828983A335
:103E3C00E0900B1FF0EA247DF8EB3400F9888289BE
:103E4C0083E0900B20F088828983A3E0900B21F013
:103E5C00EA2474F8EB3400F98A828B83A3A3A3A31E
:103E6C00A3E0FEA3E0FF88828983E02EF0A3E03F6D
:103E7C00F088828983E0900B22F088828983A3E00A
:103E8C00900B23F0EA2482F582EB3400F583E0609A
:103E9C001775081875090B7808121D1A7903121377
:103EAC00207402121AC67C1074012CF5D975D90332
:103EBC0075821875830BECFEE0F5D9A31EEE70F835
:103ECC0075E19579041214B27901800279000245EA
:103EDC00FD74F6121B079061D0E0F87480C398FC57
:103EEC00EA2482F582EB3400F583E06004780480E8
:103EFC00027800E8240AF8ECC3985003023FD0750E
:103F0C000808900B187401F07C857D0A7819790BE0
:103F1C007E058C828D83E088828983F08C828D83F0
:103F2C00A3AC82AD8388828983A3A882A9831EEE69
:103F3C0070E0EA2480FCEB3400FD8A828B83A3A31F
:103F4C00A3A3A3E0FEA3E0FF8C828D83E02EF0A35D
:103F5C00E03FF08C828D83E088828983F08C828DA7
:103F6C0083A3AC82AD8388828983A308A9838C82C6
:103F7C008D83E088828983F0EA2482F582EB340019
:103F8C00F583E0601A75081875090B7808121D1A6C
:103F9C007C0879031213207402121AC675080C746B
:103FAC00012508F5D975D90375821875830BAE08F0
:103FBC00E0F5D9A31EEE70F875E19579041214B2F0
:103FCC007901800279000245FD74F7121B07EAFEA5
:103FDC00EBFF9061D0E060030240BC75D91875D935
:103FEC000375D903EEF8EFF9E82408FAE93400FB7D
:103FFC00E8249BF582E93400F583E0F5D9888289C1
:10400C0083A3A882A983EA687002EB6970E2EE24AC
:10401C00A3F582EF3400F583E0F5D9EE24A4F58204
:10402C00EF3400F583E0F5D9EE2493F582EF3400FC
:10403C00F583E5822408F8E5833400F9E0F5D9A38B
:10404C00E865827003E9658370F2EE2487F582EFF0
:10405C003400F583E5822404F8E5833400F9E0F5B7
:10406C00D9A3E865827003E9658370F275E19579EF
:10407C0008EE2493FAEF3400FB1212D87904EE24E4
:10408C0087FAEF3400FB1212D879041214B2EE2422
:10409C006FF582EF3400F583E0F8A3E0F9EE2471BC
:1040AC00F582EF3400F583E8F0A3E9F079018002A2
:1040BC00790002438374F7121B07EAFEEBFF906151
:1040CC00D0E0600302419E75D90E75D90375D904F1
:1040DC00EE248BF582EF3400F583E5822408F8E5B5
:1040EC00833400F9E0F5D9A3E865827003E96583B0
:1040FC0070F2EE2483F582EF3400F583E58224041C
:10410C00F8E5833400F9E0F5D9A3E865827003E99A
:10411C00658370F275E1957908EE248BFAEF340023
:10412C00FB1212D87904EE2483FAEF3400FB12123E
:10413C00D87C00EEF8EFF9ECFAC3E49AFA95E0FBC0
:10414C00EE2AFAEF3BFBEA248AF582EB3400F58386
:10415C00E0C0E0E824AAF582E93400F583D0E0F071
:10416C000C88828983A3A882A983ECC3940840C7D6
:10417C00EE246FF582EF3400F583E0F8A3E0F9EE5E
:10418C002471F582EF3400F583E8F0A3E9F07901AE
:10419C0080027900024383C082C08375D90275D92D
:1041AC000375D90575E195EA246FF582EB3400F5BA
:1041BC0083E0F8A3E0F9EA2471F582EB3400F5838F
:1041CC00E8F0A3E9F0790102325074F6121B07EA09
:1041DC00FEEBFF900B187406F075081875090B7838
:1041EC0008121D1A7C0179031213207402121AC6CC
:1041FC0075D90675D90375821875830BE0F5D9A3AB
:10420C00E582641D7004E583640B70F075E1959094
:10421C00073FE06408701EEE246FF582EF3400F562
:10422C0083E0F8A3E0F9EE2471F582EF3400F58316
:10423C00E8F0A3E9F079010245FD74F6121B07EAD8
:10424C00FEEBFF9061D0E0705E900B18740AF07575
:10425C00081875090B7808121D1A7C0179031213C2
:10426C00207402121AC675D90675D9037582187591
:10427C00830BE0F5D9A3E582641D7004E583640B20
:10428C0070F075E195EE246FF582EF3400F583E064
:10429C00F8A3E0F9EE2471F582EF3400F583E8F031
:1042AC00A3E9F07901800279000245FD74F6121B36
:1042BC0007EAFEEBFF9061D0E070667801900B1876
:1042CC00740BF090073FE0640770197508187509B6
:1042DC000B7808121D1A7C01790312132074021238
:1042EC001AC67805740128F5D975D9037582187525
:1042FC00830BE8FAE0F5D9A31AEA70F875E195EEAC
:10430C00246FF582EF3400F583E0F8A3E0F9EE2496
:10431C0071F582EF3400F583E8F0A3E9F0790180C0
:10432C000279000245FD74F7121B07EAFEEBFF75DC
:10433C00D90375D90375D90DEE24DDF582EF340060
:10434C00F583E0F5D975E19579041214B2EE246F7A
:10435C00F582EF3400F583E0F8A3E0F9EE2471F573
:10436C0082EF3400F583E8F0A3E9F079018008F0DE
:10437C00EEA2E092AF79007F01021BD974F6121BFA
:10438C0007EAFEEBFF9061D0E0F87480C398FAEE78
:10439C002482F582EF3400F583E060047804800217
:1043AC007800E8240BF8EAC398500302445E7D09B8
:1043BC00900B187408F0EE24E4F8EF3400F97A1935
:1043CC007B0B7C0888828983E08A828B83F08882CD
:1043DC008983A3A882A9838A828B83A3AA82AB83B5
:1043EC001CEC70E0EE2482F582EF3400F583E06083
:1043FC001D75081875090B7808121D1A7C097903AC
:10440C00EEFAEFFB1213207402121AC67D0D740122
:10441C002DF5D975D90375821875830B8D08E0F5C8
:10442C00D9A31508E50870F675E19579041214B254
:10443C00EE246FF582EF3400F583E0F8A3E0F9EE9B
:10444C002471F582EF3400F583E8F0A3E9F07901EB
:10445C00800279000245FD74F6121B07EAFEEBFFA1
:10446C009061D0E0F87480C398FAEE2482F582EF64
:10447C003400F583E06004780480027800E8240BB3
:10448C00F8EAC39850030245287D09900B18EDF00B
:10449C00EE24E4F8EF3400F97A197B0B7C0888825F
:1044AC008983E08A828B83F088828983A3A882A97E
:1044BC00838A828B83A3AA82AB831CEC70E0EE24EC
:1044CC0082F582EF3400F583E0601D7508187509DC
:1044DC000B7808121D1A7C097903EEFAEFFB121304
:1044EC00207402121AC67D0D74012DF5D975D903ED
:1044FC0075821875830B8D08E0F5D9A31508E508AE
:10450C0070F675E19579041214B2EE241DF582EF64
:10451C003400F583E4F0A3F07901800279000245C0
:10452C00FD74F6121B07EAFEEBFF9061D0E0F87405
:10453C0080C398FAEE2482F582EF3400F583E060B4
:10454C0004780480027800E82408F8EAC398500341
:10455C000245FB7806900B18740CF090075CE09009
:10456C000B19F090075DE0900B1AF090075EE0904D
:10457C000B1BF090075FE0900B1CF0900760E09035
:10458C000B1DF0EE2482F582EF3400F583E0601B06
:10459C0075081875090B7808121D1A7C067903EE3C
:1045AC00FA1213207402121AC6780A740128F5D96B
:1045BC0075D90375821875830B8808E0F5D9A31596
:1045CC0008E50870F675E19579041214B2EE246FC3
:1045DC00F582EF3400F583E0F8A3E0F9EE2471F5F1
:1045EC0082EF3400F583E8F0A3E9F07901800279D9
:1045FC00007F02021BD974F6121B07EAFEEBFF9038
:10460C0061D0E0F87480C398FAEE2482F582EF341E
:10461C0000F583E06004780480027800E82404F854
:10462C00EAC39850030246DC7802900B18E8F0EECF
:10463C0024F6F582EF3400F583E0900B19F0EE24AC
:10464C0082F582EF3400F583E0601B75081875095C
:10465C000B7808121D1A7C027903EEFA12132074DF
:10466C0002121AC67806740128F5D975D903758219
:10467C001875830B8808E0F5D9A31508E50870F6C2
:10468C0075E195EE2473F582EF3400F583E4F0EEDA
:10469C00247FF582EF3400F583E4F0EE241DF582DF
:1046AC00EF3400F583E4F0A3F079041214B2EE2495
:1046BC000DF582EF3400F583E0F8A3E0F9EE2471F8
:1046CC00F582EF3400F583E8F0A3E9F0790180027C
:1046DC0079000245FD74F6121B079061D0E0F87466
:1046EC0080C398FCEA2482F582EB3400F583E06009
:1046FC0004780480027800E82404F8ECC398405B4A
:10470C007902900B187407F0EA24F7F582EB340069
:10471C00F583E0900B19F0EA2482F582EB3400F576
:10472C0083E0601875081875090B7808121D1A7C3F
:10473C0002091213207402121AC67906740129F5A3
:10474C00D975D90375821875830BE9F8E0F5D9A3EF
:10475C0018E870F875E1957901800279000245FD41
:10476C0074F5121B07E9FCA2AFE433F50AC2AF7D66
:10477C000080010DEA246EF582EB3400F583E0F83D
:10478C00EDC398501A8D08EA2508F8EB3400F9E8C7
:10479C00246AF582E93400F583E06C70D68024EA53
:1047AC00246EF8EB3400F9E0FEEA2EFAEB3400FB51
:1047BC00EA246AF582EB3400F583ECF08882898375
:1047CC00E004F0E50AA2E092AF7F03021BD974F675
:1047DC00121B07A2AFE433FDC2AFEA246EF582EBE5
:1047EC003400F583E014F07C0060368C08EA250870
:1047FC00F8EB3400F9E8246BF582E93400F583E03A
:10480C00C0E0E8246AF582E93400F583D0E0F00CCE
:10481C00EA246EF582EB3400F583E0F8ECC39840A3
:10482C00CAEA246DF582EB3400F58374FFF0EA24B8
:10483C0069F582EB3400F583E4F0EDA2E092AF026F
:10484C0045FDC082C083E5A8F8C2AFEA246AF582B0
:10485C00EB3400F583E9F0EA2469F582EB3400F5DA
:10486C0083E4F0E8A2E7A2E792AF02325074F312AD
:10487C001B07EAFEEBFFECFAEDFB8A828B83A3A30A
:10488C00A3A3E0541FF0EE2436F582EF3400F58339
:10489C00E4F0F50AEEFCEFFD8A828B83E0C0E0ECDD
:1048AC00245DF582ED3400F583D0E0F0750B00E566
:1048BC000A33333354F8F50C8A828B83E0F5087590
:1048CC000900E50B7808121A7EE508A2E0502FEEDD
:1048DC002436F8EF3400F988828983E0F508EE2558
:1048EC0008F508EF3400F509E5082438F582E509E8
:1048FC003400F583E50CF088828983E004F0050B25
:10490C00050CE50BC3940840AF050A8A828B83A380
:10491C00AA82AB838C828D83A3AC82AD83E50AC360
:10492C00940550030248A47F05021BD974F7121B8F
:10493C000790076BE064037003024C1E7C00786BDD
:10494C00790788828983A3A3A3A3A3A3E0600302AE
:10495C004C0CECF875F005A4C8AAF02AF9746F2871
:10496C00FA740739FB8A828B83A3A37401F08A82C1
:10497C008B83A3A3A3E4F0EC8A828B83A3A3A3A3CE
:10498C00F0EA2462F582EB3400F5837401F0EA243A
:10499C0067F582EB3400F5837401F08A828B83A374
:1049AC00A3A3A3A3E4F0A3F08A828B83A3A3A3A362
:1049BC00A3A3A3F0A3F0EA240FF582EB3400F58354
:1049CC007401F0EA2435F582EB3400F583E4F0EA67
:1049DC002418F582EB3400F583E4F0A3F0A3F0A3E4
:1049EC00F0EA241CF582EB3400F583E4F0EA241D94
:1049FC00F582EB3400F583E4F0A3F0EA247FF58232
:104A0C00EB3400F583E4F0EA2473F582EB3400F523
:104A1C0083E4F0EA2468F582EB3400F5837480F0CB
:104A2C00EA2469F582EB3400F583E4F0EA246EF5B0
:104A3C0082EB3400F583E4F0EA24ECF582EB3400ED
:104A4C00F583E4F0EA24EDF582EB3400F583E4F031
:104A5C00EA24EEF582EB3400F583E4F0EA24EFF57A
:104A6C0082EB3400F583E4F0EA24F0F582EB3400B9
:104A7C00F583E4F0A3F0EA24F2F582EB3400F5833D
:104A8C00E4F0A3F0EA24F5F582EB3400F583E4F0CE
:104A9C00EA2482F582EB3400F583E4F0EA24D2F5C3
:104AAC0082EB3400F583E4F0EA24D3F582EB340096
:104ABC00F583E4F0EA24D4F582EB3400F583E4F0DA
:104ACC00A3F0A3F0A3F0EA24D8F582EB3400F5832D
:104ADC00E4F0A3F0A3F0A3F0EA24DEF582EB3400BB
:104AEC00F583E4F0EA24E0F582EB3400F583E4F09E
:104AFC00EA24DCF582EB3400F583E4F0EA24E1F5FA
:104B0C0082EB3400F583E4F0EA24E2F582EB340026
:104B1C00F583E4F0EA24F8F582EB3400F583E4F055
:104B2C00A3F0EA24FAF582EB3400F583E4F0A3F069
:104B3C00EA24FCF582EB3400F583E4F0A3F0EA24DC
:104B4C00FEF582EB3400F583E4F0A3F0EAF8EBF920
:104B5C00E82404FCE93400FDE8246AF582E9340019
:104B6C00F58374FFF088828983A3A882A983EC68FB
:104B7C007002ED6970E2EAF8EBF97C857D0A8C82B3
:104B8C008D83E0C0E0E8245DF582E93400F583D044
:104B9C00E0F08C828D83A3AC82AD8388828983A361
:104BAC00A882A983EC648A7003ED640A70D0EAF8D9
:104BBC00EBF97C527D078C828D83A3E0C0E0E82466
:104BCC00E4F582E93400F583D0E0F08C828D83A388
:104BDC00AC82AD8388828983A3A882A983EC645AB2
:104BEC007003ED640770CF90076BE004F064017004
:104BFC00258A828B83A3A3A3A3E090076DF0801674
:104C0C000CE82405F8E93401F9ECC39403500302D1
:104C1C00494E7A007B00024383C082C0838A828B18
:104C2C0083A3A3A3E0600F8A828B83A3A3A3E4F0E6
:104C3C0090076CE014F090076BE014F0700690078E
:104C4C006D74FFF08A828B83A3A3E4F0900A8AE050
:104C5C00700D90076CE064017005790012147C02F1
:104C6C003250C082C083786B790788828983A3A372
:104C7C00A3A3A3A3A3E4F088828983A3A3A3A3A3E0
:104C8C00A3F0E82405F8E93401F9E8647A7003E943
:104C9C00640A70D690076BE4F0A3F0A374FFF07570
:104CAC00E1F102325074F5121B077508007509000A
:104CBC00750A007E6F7F078E828F83A3A3A3E060AB
:104CCC003DE5084509602F850882850983E0F8A336
:104CDC00E0F5838882A3A3121D2D8E828F83E0F8CA
:104CEC00A3E0F5838882A3A312199E122AD7740419
:104CFC00121AC6E97008EEF8EFF988088909050A56
:104D0C00EE2405FEEF3401FFE50AC3940340A885A9
:104D1C000882850983A3A3A3A3E0F90247D574F7FE
:104D2C00121B0778FF79FF7E007C6F7D078C828DCC
:104D3C0083A3A3A3E0606274FF68700374FF6970BF
:104D4C0011EC2473F582ED3400F583E06401703AC4
:104D5C008021EC2473F582ED3400F583E06401705E
:104D6C0017EC2479F582ED3400F583C3E098A3E0C9
:104D7C00995026EC24798015EC242EF582ED340024
:104D8C00F583C3E098A3E099500FEC242EF582ED47
:104D9C003400F583E0F8A3E0F90EEC2405FCED34C7
:104DAC0001FDEEC394034085C3EA98EB994004E8F7
:104DBC00FAE9FB02438374F6121B07EAFEEBFFEEE3
:104DCC002463F582EF3400F583E0F8A3E0F9E849B9
:104DDC007003024E67EE2463F8EF3400F97A007B1F
:104DEC0000A2AFE433F508C2AF88828983E0FCA34C
:104DFC00E0FDEC4D603A88828983E0FAA3E0FB8AFF
:104E0C00828B83E0FCA3E0FD88828983ECF0A3ED28
:104E1C00F08A828B83E4F0A3F088828983E0FCA380
:104E2C00E0FDEC4D700A88828983A3A3E4F0A3F023
:104E3C00E508A2E092AF12086A900A8BE004F090A9
:104E4C000A8CE004F0EE2463F582EF3400F583E085
:104E5C00F8A3E0F9E8496003024DE18E828F83A349
:104E6C00A3A3E0600F8E828F83A3A3A3E4F090072B
:104E7C006CE014F090076BE014F0700690076D7402
:104E8C00FFF08E828F83A3A3E4F0900A8AE0700D6A
:104E9C0090076CE064017005790012147CEEFAEF57
:104EAC00FB1213A40245FD74F7121B07EAFEEBFF7D
:104EBC008E828F83A3A3A3A3E0FA7B00120F90EE44
:104ECC00FAEFFB1212A2121386024383C082C08334
:104EDC007852790788828983A3E4F088828983A336
:104EEC00A882A983E8645A7003E9640770E6900706
:104EFC00537401022E6074F6121B07EAFEEBFFECF2
:104F0C002403F8ED3400F988088909EC2407F8ED3E
:104F1C003400F9E8FCE9FD8C828D83E0F8A3E0F91C
:104F2C00850882850983E0FAA3E0FB121A25EE249A
:104F3C000DF582EF3400F583E8F0A3E9F08C828D57
:104F4C0083E0F8A3E0F9850882850983E0FAA3E001
:104F5C00FB121A258B09EA45096013EE240DF58224
:104F6C00EF3400F583E02401F0A3E03400F00245B7
:104F7C00FD74F6121B07EAFEEBFFEE242EF582EF12
:104F8C003400F583E0FCA3E0FD780079FAECFAED4F
:104F9C00FB121A25EE246FF582EF3400F583E8F04E
:104FAC00A3E9F0780079FAECFAEDFB121A258B09DB
:104FBC00EA45096013EE246FF582EF3400F583E0C7
:104FCC002401F0A3E03400F00245FD74EC121B0741
:104FDC00EAFEEBFF7414121AFB78081219801214F3
:104FEC003A8A0C8B0D8C0E8D0F7510027511007595
:104FFC001200751300780C79101218E67510FF75F5
:10500C0011FF7512FF780C7910121947780C121DCC
:10501C00168E828F83E0F8A3E0F5838882A3A31217
:10502C00199E122AD77404121AC6E9600302513B66
:10503C008E828F83E02402F8A3E03400F9E8FAE9C9
:10504C00FB8A828B83780812190C8A828B837508F1
:10505C00FF7509FF750AFF750B00780812196DEEC4
:10506C00240BF582EF3400F583C082C0838E828FCF
:10507C0083A3A3A3A3A3E02401F8A3E03400F9D0F5
:10508C0083D082E0687003A3E06970057901025156
:10509C003D8E828F83A3A3A3A3A3A3A3E02401F03B
:1050AC00A3E03400F0EE2473F582EF3400F583E0D6
:1050BC0064017036EE2474F582EF3400F583E0F869
:1050CC00A3E0F98E828F83A3A3A3A3A3A3A3E06879
:1050DC007003A3E0697013EE2474F582EF3400F5CD
:1050EC0083E02401F0A3E03400F0EE247FF582EF9E
:1050FC003400F583E064017036EE2480F582EF34E1
:10510C0000F583E0F8A3E0F98E828F83A3A3A3A319
:10511C00A3A3A3E0687003A3E0697013EE2480F5E9
:10512C0082EF3400F583E02401F0A3E03400F07941
:10513C000002318974F6121B07E9FEECFFEA2462C7
:10514C00F582EB3400F583E0640160030251E990D1
:10515C0061D0E0F508EA2482F582EB3400F583E0B7
:10516C0060047804800278007480C39508FC95E094
:10517C00FDEF28F8E43400F9E82402F8E93400F9EA
:10518C00EC98ED99A2D265D033404E740A121AFBFA
:10519C00E0F508A3E0F509EA2482F582EB3400F58A
:1051AC0083E060157808121D1AEFFCEEF91213203B
:1051BC007402121AC674042FFF74012FF5D98ED9FC
:1051CC00EF600F850882850983F8E0F5D9A318E80C
:1051DC0070F875E195790080067907800279FF02F5
:1051EC0045FD74F7121B07A2AFE433FEC2AF8A82EF
:1051FC008B83E0F8A3E0F9E8498A828B83600AA3E9
:10520C00A3E0F8A3E0F5838882ECF0A3EDF08A82AA
:10521C008B83A3A3ECF0A3EDF08C828D83E4F0A33D
:10522C0002437B74F7121B07E96021F88C828D8393
:10523C00E08A828B83F08C828D83A3AC82AD838ACF
:10524C00828B83A3AA82AB8318E870E0ECFAEDFBA7
:10525C00024383C082C0837869790B88828983A3D7
:10526C00A3A3A3A3A3E4F088828983A3A3A3A3A3EA
:10527C0074FFF0E82418F8E93400F9E864E17003ED
:10528C00E9640B70D6900B6B74FFF0900B6AE4F032
:10529C00900B69F0900B6CF0A3F0026DDF74EC12C4
:1052AC001B07900B6CE0F508A3E0F509E508450930
:1052BC0070061211A602636D850882850983E014BD
:1052CC00601814601524FE601124C47003025C4E37
:1052DC0024C07003025C4E02636DE0F91213988ACD
:1052EC000A8B0BAE0AAF0B90076CE0700302576A87
:1052FC00121296E9F875F005A4C8AAF02AF9746F91
:10530C0028F50C740739F50D850C82F583E0F50A48
:10531C00A3E0F50BAC0AFDEEFAEFFB121392E9F5E4
:10532C000E7402650E70030257128E828F83E01486
:10533C0060101470030253CA24FE70030255FC0261
:10534C00636DEE65087003EF6509602C1211C4855E
:10535C000882850983E06402701E900AF7E06401FC
:10536C007016900AF6E0701079001214EE1214B850
:10537C001214E879011214F4E50E703912143A8AF9
:10538C000C8B0D8C0E8D0F751003751100751200A2
:10539C00751300780C79101218E67510FF7511FF53
:1053AC007512FF780C79101219478E828F83A3A384
:1053BC00780C12198F850A82850B83025DB4EE6519
:1053CC00087003EF650960211211E8900AF7E06498
:1053DC00017016900AF6E0701079011214EE121496
:1053EC00B81214E879001214F4E50E6021E50824D3
:1053FC0015F582E5093400F583E06012900AF2E0BD
:10540C00F8A3E0F9A3E0687003A3E06970421214FA
:10541C003A8A0C8B0D8C0E8D0F751003751100755F
:10542C001200751300780C79101218E67510FF75C0
:10543C0011FF7512FF780C79101219478E828F8329
:10544C00A3A3E50CF0A3E50DF0A3E50EF0A3E4F0A7
:10545C00E5082415F582E5093400F583E064016064
:10546C0003025514850A82850B83A3A3750CF17571
:10547C000DFF750EFF750FFF780C1218F9780C12D2
:10548C001D168E828F83A3A3C082C083900AF4E082
:10549C00F508A3E085080CF50DE4F50EF50FD083A7
:1054AC00D082780C1218F9AA0CAB0DAC0EAD0F1201
:1054BC002AD77404121AC6E9701F8E828F83A3A395
:1054CC00C082C083900AF4E0F508A3E0F509E4F586
:1054DC000AF50BD083D0828014850A82850B83A3B6
:1054EC00A37508F17509FF750AFF750BFF78081293
:1054FC0018F9750CFF750DFF750EFF750F00780808
:10550C00790C121947025B46EE240EF582EF34003B
:10551C00F583121D2D8E828F83A3A312199E122A3E
:10552C00D77404121AC6E96401600302628E850AFC
:10553C0082850B83A3A3750CF1750DFF750EFF759A
:10554C000FFF780C1218F9780C121D168E828F83AF
:10555C00A3A3C082C083900AF4E0F508A3E08508F9
:10556C000CF50DE4F50EF50FD083D082780C1218E3
:10557C00F9AA0CAB0DAC0EAD0F122AD77404121A8B
:10558C00C6E9701F8E828F83A3A3C082C083900A4A
:10559C00F4E0F508A3E0F509E4F50AF50BD083D0A7
:1055AC00828014850A82850B83A3A37508F1750983
:1055BC00FF750AFF750BFF78081218F9750CFF754B
:1055CC000DFF750EFF750F007808790C121947EE58
:1055DC00240EF582EF3400F583780812198F900AA7
:1055EC00FAE06427700474258002E004F002628EF5
:1055FC00EE65087003EF65096031900B0EE0F9124F
:10560C0011EE850882850983E06402701E900AF70A
:10561C00E064017016900AF6E0701079001214EE36
:10562C001214B81214E879011214F4E50E601290F9
:10563C000B08E0F8A3E0F9A3E0687003A3E069703D
:10564C003912143A8A0C8B0D8C0E8D0F7510037554
:10565C001100751200751300780C79101218E6758C
:10566C0010FF7511FF7512FF780C79101219478E07
:10567C00828F83A3A3780C12198F850A82850B83E2
:10568C00A3A3750CF1750DFF750EFF750FFF780C4C
:10569C001218F9780C121D168E828F83A3A3C08268
:1056AC00C083900B0AE0F508A3E085080CF50DE427
:1056BC00F50EF50FD083D082780C1218F9AA0CAB2A
:1056CC000DAC0EAD0F122AD77404121AC6E9701F56
:1056DC008E828F83A3A3C082C083900B0AE0F5084F
:1056EC00A3E0F509E4F50AF50BD083D0828014858C
:1056FC000A82850B83A3A37508F17509FF750AFF50
:10570C00750BFF025FB9850882850983E06402701E
:10571C0013900AF7E06401700B900AF6E0700579BB
:10572C00001214EEE50C2404FEE50D3400FF8E820D
:10573C008F83E0F91213D48E828F83E090076DF083
:10574C007902FA75F005A4CAA8F028FB746F2AFA3E
:10575C0074073BFB12231BAA0AAB0B02636AEE65B0
:10576C00087003EF65098E828F836003025986E00F
:10577C0024FE600A24FE70030258C3026366EE2402
:10578C0015F582EF3400F583E0604C900AF2E0F8F6
:10579C00A3E0F9A3E0687003A3E069603A12143A3D
:1057AC008A088B098C0A8D0B750C0A750D00750E09
:1057BC0000750F007808790C1218E67808121D167F
:1057CC008E828F83A3A312199E122AD77404121AE5
:1057DC00C6E9600302636612143A8A088B098C0AC4
:1057EC008D0B750C03750D00750E00750F00780888
:1057FC00790C1218E6750CFF750DFF750EFF780805
:10580C00790C1219478E828F83A3A3780812198FF3
:10581C00EE2415F582EF3400F583E0640170328ECE
:10582C00828F83A3A3C082C083900AF4E0F508A3FF
:10583C00E0F509E4F50AD083D08278081218F9EE65
:10584C00240EF582EF3400F583780812198F026369
:10585C0066EE240EF582EF3400F583121D2D8E8238
:10586C008F83A3A312199E122AD77404121AC6E9A5
:10587C00640160030263668E828F83A3A3C082C01F
:10588C0083900AF4E0F508A3E0F509E4F50AD08367
:10589C00D08278081218F9EE240EF582EF3400F558
:1058AC0083780812198F900AFAE064277004742523
:1058BC008002E004026365900B08E0F8A3E0F9A312
:1058CC00E0687003A3E069603712143A8A088B0908
:1058DC008C0A8D0B750C0A750D00750E00750F007A
:1058EC007808790C1218E67808121D168E828F83B0
:1058FC00A3A312199E122AD77404121AC6E9707740
:10590C00EE2402F508EF3400F50912143A8A0C8BD8
:10591C000D8C0E8D0F75100375110075120075131B
:10592C0000780C79101218E67510FF7511FF7512BE
:10593C00FF780C7910121947850882850983780C39
:10594C0012198F850882850983C082C083900B0A47
:10595C00E0F508A3E0F509E4F50AF50BD083D08255
:10596C0078081218F9EE240EF582EF3400F58378DE
:10597C000812198F1211F4026366E014601014708F
:10598C0003025A7724FE7003025B5802636D1211F6
:10599C00C4850882850983E06402701E900AF7E0D2
:1059AC0064017016900AF6E0701079001214EE1271
:1059BC0014B81214E879011214F412143A8A088BF0
:1059CC00098C0A8D0B750C0A750D00750E00750F80
:1059DC00007808790C1218E67808121D168E828F42
:1059EC0083A3A312199E122AD77404121AC6E97043
:1059FC007712143A8A088B098C0A8D0B750C037874
:105A0C0008790C1218E6750CFF750DFF750EFF78F2
:105A1C0008790C1219478E828F83A3A37808121968
:105A2C008F90073FE06402702C8E828F83A3A37546
:105A3C000800750908750A0078081218F9780879B1
:105A4C000C121947EE240EF582EF3400F58378081A
:105A5C0012198F8013EE240EF582EF3400F5837447
:105A6C00FFF0A3F0A3F0A3F00261A81211E8900AD2
:105A7C00F7E064017016900AF6E0701079011214C8
:105A8C00EE1214B81214E879001214F4900AF2E031
:105A9C00F8A3E0F9A3E0687003A3E069603712147F
:105AAC003A8A088B098C0A8D0B750C0A750D0075DA
:105ABC000E00750F007808790C1218E67808121D84
:105ACC00168E828F83A3A312199E122AD7740412E6
:105ADC001AC6E97074EE2402F508EF3400F50912C9
:105AEC00143A8A0C8B0D8C0E8D0F751003751100EA
:105AFC00751200751300780C79101218E67510FFEA
:105B0C007511FF7512FF780C7910121947850882F0
:105B1C00850983780C12198F850882850983C082C8
:105B2C00C083900AF4E0F508A3E0F509E4F50AF562
