:020000040000FA
:0600000002010A02258C3A
:03002B00021F941D
:03003300021F7633
:03003B00021FB5EC
:03004300021F2A6F
:0300530002260280
:03006B00021F5021
:1000830002243BE5C754F84401F5C7790122000077
:100093000080FB120086B900030200F4E4792178A2
:1000A30008B800028004F709D8FCE479297802B87B
:1000B30000028004F709D8FCE4900281789E79114C
:1000C3008002F0A3D8FCD9FA90131EAA82AB8390C6
:1000D300013A78BD79038015E493A3AC82AD838A9A
:1000E300828B83F0A3AA82AB838C828D83D8E9D9D8
:1000F300E775828C7583BA740412011C758291753D
:100103008300740012011C75D00075813F7518813E
:10011300751902759F00020096C09FF59FE473D086
:100123009F22D083D082C09FE493C0E0740193C028
:10013300E0740293F59F22FFFF0202020202020211
:100143000202010D000000100102D0950100009190
:100153009502BC95010000201302A895010000E25E
:100163000202BC950100002113029E950100008B41
:100173009302BC95010000221302AA9501000055C9
:100183009302BC95010000231302AC950100007794
:100193009102BC95010000241302B095010000896F
:1001A3009102BC95010000251302B295010000AD38
:1001B3009102BC95010000261302B4950100009B37
:1001C3009102BC95010000271302B695010000635C
:1001D3009302BC95010000281302B8950100002981
:1001E300130A484F535400000A504F525400000A58
:1001F3005353494400000A50415353574F5244004C
:100203000002D0950100008B9502BC95010000C847
:100213001302C295030000EC0202AE95010000C96F
:100223001302BC95010000CF1302C495030000F034
:100233000202AE95010000D01302BC95010000D666
:100243001302C695030000F20202AE95010000D727
:100253001302BC95010000DD1302C89503000006DC
:100263000302AE95010000DE1301E803053F10020F
:100273000A010809474154455741590512500020C6
:1002830003020A000201060302F0FF4741544557E7
:1002930041590000000000000000000000000000C1
:1002A300FEFF3030303030303030303098070000CF
:1002B3009E07C207C807FF0001307503020106004D
:1002C300000000000000000000000000000000002B
:1002D3000000000000000000000000FFFF06008097
:1002E3000CE803500A620A8C0A560AFF0000B400A5
:1002F3000028002800283075A000A000A000A0005E
:1003030000080008E001F0001000100010001000C9
:100313001000100050005000500010001000D007D3
:100323000000000000000F00010005003075070009
:100333001000010081FF00000000FFD00BEE0BD680
:100343000BFF02020208025000A0000000E80302B3
:10035300D095010000979502BC9501000029150274
:10036300A495010000FA0702BC950100002A1502BA
:10037300A095010000100802BC950100002B150296
:100383009C95010000120802BC950100002C150287
:100393009A95080000130802BC950100002D150270
:1003A300A2950100002E15FFFF0100FF2002D0954A
:1003B3000100008E9502BC95010000931502A695DD
:1003C300000000000002BA95030000F4087A137AD3
:1003D300137A137A137A137A137A137A137A137AB2
:1003E300137A137A137A13D215F015CC1510172834
:1003F300170A171201251BB00312012525B003129A
:10040300012563B003120125ACB003120125E6B048
:100413000312012540B10312012561B10312012525
:1004230039B40312012542B4031201258FB4031218
:100433000125B8B403120125C2B4031201252EB558
:1004430003120125C0B5031201250AB603120125C3
:1004530040B603120125CCB6031201250DB70312D2
:10046300012544B70312012556B70312012575B7B9
:10047300031201257EB70312012546B80312012595
:10048300F2B50412012528BA04120125C87D001211
:100493000125FE7D00120125347E001201257F7F98
:1004A3000012012582FF0312012598FF0312012583
:1004B300A2FF031201254E84041201256384041252
:1004C30001251685041201255685041201256F8521
:1004D30004120125AA8504120125F78504120125BA
:1004E3002986041201256B860412012576880412DD
:1004F300012566AD041201258FAD04120125BEADA1
:100503000412012556AE041201256EAE0412012514
:10051300B0AE04120125F5AE0412012503AF041297
:10052300012574AF04120125CDAF04120125EBAFF1
:10053300041201255EDD03120125A0DD031201254E
:1005430022DE0312012537DE0312012588DE0312A2
:100553000125DCDE0312012521DF0312012530DF33
:1005630003120125E4DF031201253FE003120125F5
:100573008EE003120125E4E003120125D9E1031201
:100583000125D0E2031201250DE30312012503A384
:100593000412012528A30412012552A304120125E4
:1005A3000A9A04120125369A04120125539A041259
:1005B3000125B99A041201251A9B04120125D19B26
:1005C3000412012520B90412012506AF01120125E9
:1005D30087B1011201254EB30112012502B40112A4
:1005E300012595B4011201251AB5011201253FB564
:1005F3000112012591B501120125E1B9011201256D
:1006030078BA01120125ABBB01120125E5BB01122A
:1006130001251ABC01120125DFBD0112012513BEFC
:100623000112012570BE01120125B9BE0112012577
:1006330020BF0112012599BF01120125C8BF011274
:100643000125E0BF0112012529C10112012539C18C
:10065300011201254FC20112012571C201120125A8
:10066300A7C20112012556C401120125E3C40112D8
:10067300012522C50112012543C60112012514FFDC
:100683000212012525FF02120125DFBA04120125FA
:100693001EBB04120125ECFF0312012583B80412CB
:1006A300012593B804120125AEB80412012516B929
:1006B30004120125F9FE011201257EFF0112012515
:1006C300E4FF01120125F1B1041201251AB204124B
:1006D300012585B204120125D6B20412012531B3D6
:1006E300041201250080041201253980041201251A
:1006F300AB8004120125C08004120125EB81041292
:1007030001256782041201252D83041201254C83E0
:1007130004120125738304120125B08304120125F9
:10072300C88304120125198404120125D1FB031285
:100733000125E8FB0312012562FC0312012546FD96
:10074300031201251DFF031201254C9304120125F9
:10075300DC93041201256894041201250195041207
:1007630001259295041201259B95041201251996E2
:10077300041201252C960412012542960412012528
:10078300A29604120125B59604120125EA6200120D
:100793000125676700120125606800120125A06921
:1007A30000120125296C00120125926E0012012509
:1007B300706F0012012591700012012594700012D0
:1007C3000125A37400120125C27400120125F474DB
:1007D30000120125467500120125E475001201255A
:1007E3006A7600120125C5760012012500770012F2
:1007F3000125E27C00120125C4AB0412012516ACCD
:1008030004120125A0AC0412012507AD0412012531
:1008130037A00412012561A0041201252FA104129F
:1008230001250AA20412012591A20412012574B81C
:10083300031201253BB90312012572B903120125E5
:100843009CB903120125FCB90312012552BA031204
:100853000125B7BA031201254FBB031201255EBC64
:1008630003120125F5BD0312012582BE03120125E2
:10087300E9BE0312012500BF031201251AC00312AA
:10088300012558C003120125C5CC0212012546D00B
:1008930002120125CED10212012538D202120125FE
:1008A30057D202120125D5D2021201256BD40212AE
:1008B300012550D5021201255ED90212012534DA31
:1008C3000212012578B3041201258EB30412012507
:1008D300BDB304120125F3B3041201250AB40412B3
:1008E300012521B40412012558B404120125ABB427
:1008F30004120125C2B40412012575A804120125AE
:100903008CA804120125BDA804120125F8A804121D
:10091300012522A9041201254CA90412012563A96A
:10092300041201257AA90412012591A904120125B3
:10093300BAA904120125CDA904120125E3A90412C1
:1009430001250DAA04120125D7DA02120125DBDBEA
:100953000212012508DC021201255EDC02120125C8
:1009630081DC0212012595DC0212012597DC0212BB
:100973000125BADC02120125C9DD021201258DDE33
:100983000212012562DF02120125D3DF02120125C3
:100993005FE00212012562E002120125EAE0021281
:1009A300012525E1021201258CE1021201258FE1C7
:1009B30002120125C6E102120125EFE1021201250F
:1009C3009AE20212012524E30212012573E30212C3
:1009D300012580E30212012583E302120125E3E3EB
:1009E30002120125EEE3021201256DE40212012534
:1009F30070E40212012583E40212012586E4021247
:100A0300012515E5021201252FE5021201253FE517
:100A1300021201256FE5021201257CE50212012570
:100A23007FE50212012500E602120125EEE602121D
:100A33000125A0E702120125568A031201254E8BD8
:100A430003120125828B03120125048C0312012555
:100A5300248C031201256C8C03120125BF8C031215
:100A63000125238D03120125B08D031201256A8E02
:100A73000312012579910312012504930312012521
:100A8300279303120125838804120125208A041267
:100A93000125848A04120125E38A04120125F18ABF
:100AA300041201251A8B0412012545E303120125C3
:100AB3006DE3031201259BE303120125D2E3031225
:100AC300012530E4031201257BE403120125C6E46A
:100AD3000312012506E5031201254CE50312012546
:100AE3007AE50312012537E60312012541E60312D5
:100AF30001254EE60312012581E6031201254DE788
:100B03000312012559E70312012571E70312012599
:100B13007BE703120125F9E703120125E9B6041265
:100B23000125F7B6041201250FB70412012527B7D3
:100B3300041201253FB70412012522A10212012547
:100B4300CEA10212012549A2021201256AA30212B3
:100B53000125A6A3021201254FA40212012536A5E1
:100B6300021201259AA602120125F1A602120125FD
:100B730072A70212012562A802120125AFA8021270
:100B8300012535A90212012567A9021201257BABB4
:100B930002120125BDAB02120125DBAB02120125B6
:100BA3005EAC0212012532AD02120125FAAD02122A
:100BB300012507B00212012554CF0312012527D0C6
:100BC30003120125D0D00312012523D103120125DD
:100BD300D3D1031201255FD2031201254BD3031294
:100BE30001257AD3031201258DD403120125D5D40F
:100BF30003120125AAD503120125E6D50312012507
:100C030002D603120125A4B9041201252E8C041265
:100C13000125448C041201256A8C04120125868D5A
:100C230004120125908D04120125C58E041201259D
:100C3300BD8F04120125C78F0412012581E8031219
:100C43000125B1E903120125E4E9031201252EEA86
:100C530003120125F5EB0312012580DC01120125A6
:100C6300F9DC0112012509DD01120125F7DD01126D
:100C7300012501DE0112012526DE0112012531DEE7
:100C8300011201251BDF011201257EDF011201255F
:100C930034E0011201251BE201120125D4E3011204
:100CA3000125B0E40112012564E501120125A1E843
:100CB300011201254FE901120125BEEA01120125A6
:100CC3003EEC01120125E5EC011201252EED011286
:100CD300012565ED0112012502EE011201258DEEBC
:100CE300011201256AEF01120125BFEF011201254F
:100CF3001EF1011201252EF1011201255BF10112F2
:100D03000125B2F1011201255BF20112012562F303
:100D1300011201252CF4011201258CF50112012584
:100D2300CFF50112012574F6011201259AF601127D
:100D33000125A8F801120125ADF801120125B2FA27
:100D430001120125FFFA0112012572FB011201258F
:100D5300A5FB0112012547FC01120125F0FC01123C
:100D6300012528FD011201252BFD0112012573FD2B
:100D730001120125B5FD011201250CFE0112012509
:100D83005B9D041201256E9D041201257C9D0412B6
:100D93000125C49D04120125DA9D04120125219E1B
:100DA30004120125359F04120125C29F0412012557
:100DB3000DA004120125DC9501120125EC95011209
:100DC30001254F96011201259496011201254A9798
:100DD300011201252598011201254E9801120125C2
:100DE3007E9801120125BE9A01120125A59C0112CC
:100DF30001257D9E01120125C19F0112012528A213
:100E03000112012536A30112012588A4011201252F
:100E130092A501120125D4A5011201250CA60112E8
:100E230001252EA60112012591A60112012553AB1E
:100E330001120125E8AB011201253CAC0112012589
:100E430063AC01120125A1AC01120125C0AC011252
:100E530001251AAD011201251AAE011201259FAE1B
:100E63000112012530C8031201253AC803120125D6
:100E7300DEC80312012521C9031201253CC903124F
:100E83000125CCC903120125F4C9031201252CCA7B
:100E93000312012563CA031201258CCA031201251B
:100EA30005CB031201251ACB031201252FCB031205
:100EB300012551CB031201258BCB03120125AFCBA7
:100EC3000312012578CC031201258ECC03120125D0
:100ED300A1CC03120125B6CC031201253CCD03128C
:100EE300012576CD03120125ABCD03120125D7CD04
:100EF300031201250FCE031201258ECE0312012505
:100F0300D7CE0312012501CF031201252CCF0312E3
:100F13000125D9B404120125969102120125C49129
:100F2300021201251F9302120125FF9302120125CC
:100F33001E94021201259B9402120125DE940212D3
:100F43000125599602120125C89602120125F3982C
:100F530002120125779B02120125289C021201250A
:100F63001E9D02120125BE9D02120125BC9E021286
:100F7300012516A002120125A1A00212012575B0B8
:100F830004120125DEB00412012532B10412012539
:100F930059B1041201258AB104120125ABB104121F
:100FA300012564F703120125D1F70312012518F86F
:100FB3000312012530F9031201252CFA031201252E
:100FC3000FFB0312012595A703120125D7A70312CF
:100FD3000125A9A80312012582A9031201257CAAD0
:100FE300031201255EAB03120125C7AB03120125D2
:100FF30097AC031201250BAD0312012577AD031244
:1010030001257AAD03120125A3AD031201251DAEFF
:1010130003120125B6AE031201251BAF03120125EE
:1010230030AF0312012576AF031201258FAF0312F0
:101033000125F4AF03120125F7AF03120125D18F68
:10104300041201250D90041201254B900412012571
:10105300159104120125849104120125BF910412F4
:101063000125FD91041201252D92041201255492AC
:1010730004120125C29204120125049304120125CE
:101083009C29001201258B2B001201254E2E0012E4
:1010930001258A2E00120125B72E00120125A42F47
:1010A30000120125E72F001201252E300012012521
:1010B300403000120125803000120125AD300012AE
:1010C3000125F830001201252F31001201255B3173
:1010D30000120125AD31001201253A32001201251B
:1010E300BE3400120125D436001201251237001236
:1010F3000125803800120125C53800120125BD39AC
:1011030000120125A33B001201250E3C001201250C
:101113005E3C001201258F4100120125DF410012C0
:1011230001251D4200120125414400120125F2450B
:1011330000120125CFA50412012541A604120125A1
:1011430097A604120125DBA604120125FBA60412AF
:10115300012548A70412012590A704120125E3A73E
:101163000412012534A8041201251C9E0312012533
:101173009B9E031201255DA4031201256CA5031296
:101183000125D4A6031201256BA703120125874667
:1011930000120125D04600120125FD46001201254B
:1011A3003047001201254047001201254C47001229
:1011B30001255D4700120125444800120125A2487C
:1011C30000120125D748001201251A4A00120125F1
:1011D3006D4A00120125BE4A00120125294B001257
:1011E3000125CD4B001201257F4C00120125DD4C5A
:1011F300001201254D4D00120125A04D00120125BD
:10120300E34E00120125495000120125205100121E
:1012130001253151001201256D51001201257D5127
:10122300001201259D5100120125A0510012012534
:101233006E52001201253F5300120125E0530012A4
:101243000125965400120125C35400120125165599
:10125300001201257E5500120125D25500120125E9
:101263000B56001201258756001201252F57001235
:101273000125FA57001201259C5800120125115926
:1012830000120125745900120125D25900120125BB
:10129300035A00120125AA5A00120125915C00127B
:1012A3000125E05C00120125275D00120125AD5DDB
:1012B30000120125355E001201257C5E0012012516
:1012C300A15E00120125EC5E001201251C5F0012D5
:1012D3000125645F00120125DE5F001201252260F3
:1012E30000120125336100120125E261001201257C
:1012F3004362001201259F6200120125B8620012A9
:101303000125529403120125A59403120125B194DA
:1013130003120125869503120125AD9503120125BC
:10132300E8950312012554960312012590960312A2
:101333000125C99603120125E1960312012536976B
:10134300031201254F9703120125989703120125D4
:10135300AB9703120125C59703120125DB970312EF
:1013630001250E9903120125559A03120125579B56
:1013730003120125519C0312012591290012012515
:10138300A8ED0312012517F10312012550F20312F0
:10139300012511E80212012587EA021201258DEACF
:1013A30002120125F5EC021201255CEF0212012560
:1013B3009BF20312012531F303120125E8F3031213
:1013C300012512F40312012505F6031201252DF759
:1013D3000312012573C601120125A7C601120125B7
:1013E300CCD20112012520D4011201252BD50112E3
:1013F3000125ABD6011201258DD701120125C7D7CF
:1014030001120125EAD7011201252CD80112012569
:1014130035D8011201257FD80112012589D801127F
:10142300012533D9011201250CDA0112012560DAF5
:1014330001120125C2DA0112012515DB0112012572
:1014430044DB0112012581DB011201250080021218
:1014530001256C8302120125728302120125F8888B
:1014630002120125718D02120125479102120125F5
:10147300B896041201252E970412012544970412ED
:101483000125859704120125BF9704120125389879
:1014930004120125739804120125E698041201250C
:1014A3002499041201252D99041201253999041256
:1014B3000125559904120125809904120125969955
:1014C30004120125DA990412012577D603120125A6
:1014D3008AD603120125A4D603120125CDD6031201
:1014E300012510D7031201254FD7031201258DD7EC
:1014F30003120125F2D70312012507D80312012590
:1015030012D8031201251FD80312012536D803125E
:10151300012544D80312012553D80312012568D8A5
:10152300031201257DD80312012588D80312012552
:1015330094D803120125A1D803120125B4D80312AC
:101543000125BFD803120125E4D8031201258BD945
:10155300031201259BD903120125B0D903120125DA
:10156300C5D903120125DFD903120125FAD90312C4
:10157300012517DA0312012522DA03120125DEDA27
:1015830003120125CADB03120125EFDB0312012538
:10159300FADB031201250FDC0312012523DC0312FE
:1015A300012584DC031201258ADC0312012590DC6A
:1015B3000312012596DC03120125AEDC031201257B
:1015C300E1DC0312012500800312012522800312AE
:1015D3000125028103120125D98303120125058503
:1015E30003120125298603120125DB860312012537
:1015F3007C87031201259BBE021201251FBF021225
:101603000125CEBF021201252DC1021201254EC3B1
:10161300021201253AC4021201256FC402120125E8
:1016230091C40212012540C50212012538C70212D6
:10163300012561C702120125F3C70212012525C83E
:101643000212012532C80212012589C8021201259E
:10165300AFC8021201251CCB021201251FCC0212B6
:10166300012577CC0212012520B0021201252AB1EF
:101673000212012511B2021201251BB20212012529
:1016830025B20212012547B20212012553B20212FA
:101693000125ECB3021201251BB40212012537B553
:1016A3000212012590B502120125F6B60212012598
:1016B300D5B70212012531B8021201259EB80212D4
:1016C3000125D9B80212012518B902120125D1BB8F
:1016D30002120125EBBB0212012577BC0212012580
:1016E30085BC02120125DEBC02120125ECBC0212EC
:1016F30001255FBD02120125C3BD021201250DBEE6
:1017030002120125E6F30212012508F40212012553
:101713002EF60212012543F9021201255BFA021289
:1017230001250EFB02120125F0FB021201251FAA5F
:101733000412012544AA04120125B6AA04120125A4
:10174300B6C003120125BFC003120125C8C003128E
:1017530001259FC10312012550C30312012586C32E
:1017630003120125C0C303120125F6C30312012589
:1017730030C40312012564C40312012590C403126B
:101783000125D9C40312012513C5031201255CC524
:1017930003120125B4C503120125E9C5031201256E
:1017A30044C6031201257EC603120125CFC60312C8
:1017B300012505C7031201253FC7031201256DC784
:1017C3000312012590C703120125D8B7041201257E
:1017D30004B8041201255FB80412012569B8041284
:1017E300012579B804120125CAFF02120125B97F28
:1017F3000012012528BB0412012550BB04E06670CA
:101803001008A3E066700A08A3E066700408A3E06A
:101813006622C3E7960809E7960809E7960809E7E9
:101823009622C3E09608A3E09608A3E09608A3E0F7
:101833009622C008C3E096F50808A3E0964208087C
:10184300A3E096420808A3E09645087001D3D008A8
:1018530022080808EAC0E0EBC0E086F0E7A4FA1823
:101863000986F0E7A42AFA180986F0E7A42AFA18E9
:101873000986F0E7A42AFA1986F0E7A4FBE5F02A23
:10188300FA190886F0E7A42BFBE5F03AFA19088663
:10189300F0E7A42BFBE5F03AFA18180986F0E7A461
:1018A300C5F02BFBE43AFA1908E7C5F0C6A426F6FF
:1018B300E5F03BFBE43AFA1886F0E7A4F6E5F00816
:1018C30026F6E43B08F6E43A08F6D0E0FBD0E0FA6B
:1018D30022E4CFC0E0E4CEC0E0E4CDC0E0E4CCC07D
:1018E300E075F020C3E633F608E633F608E633F690
:1018F30008E633F6181818EC33FCED33FDEE33FE2F
:10190300EF33FFC3EC9709ED9709EE9709EF9719AA
:101913001919400FFFEC97FC09ED97FD09EE97FEAF
:10192300191906D5F0BEECF709EDF709EEF709EF43
:10193300F7191919D0E0FCD0E0FDD0E0FED0E0FFAC
:10194300226016080808C6C313C618C613C618C6ED
:1019530013C618C613C6D5E0EA2270090808082280
:101963006016181818C6C333C608C633C608C6336C
:10197300C608C633C6D5E0EA22E627F60809E637E5
:10198300F60809E637F60809E637F622E026F608F0
:10199300A3E036F608A3E036F608A3E036F622E025
:1019A30026F008A3E036F008A3E036F008A3E036FB
:1019B300F022C3E697F60809E697F60809E697F6D4
:1019C3000809E697F622C3E096F008A3E096F0082C
:1019D300A3E096F008A3E096F022E657F60809E69E
:1019E30057F60809E657F60809E657F622E056F6D1
:1019F30008A3E056F608A3E056F608A3E056F6223D
:101A0300E056F008A3E056F008A3E056F008A3E080
:101A130056F022E066F608A3E066F608A3E066F651
:101A230008A3E066F622E0F608A3E0F608A3E0F6D2
:101A330008A3E0F622E6F008A3E6F008A3E6F00820
:101A4300A3E6F022E0FAA3E0FBA3E0FCA3E0FD227F
:101A5300EAF0A3EBF0A3ECF0A3EDF022CAC0E0E6BA
:101A6300F0A308DAFAD0E0FA22CAC0E0E0A3C58204
:101A7300CCC582C583CDC583F0A3C582CCC582C541
:101A830083CDC583DAE6D0E0CA22C3E498F8E499AB
:101A9300F9121ACE8026C3E49AFAE49BFBE920E705
:101AA300E9121ACEE498F8E499F922C3E498F8E429
:101AB30099F9121ACEE498F8E499F9C3E49AFAE48E
:101AC3009BFB22EB20E7CFE920E7E0B90010BB0046
:101AD30008E88AF084F8AAF022E4FBC8FA22EB7043
:101AE300227B10C833C8C933C9335007C39AC3DB39
:101AF300F280069A50012ADBEAC833F4C8C933F4EA
:101B0300C9FA2275F008E4C833C8C933C933C99A7E
:101B1300C99B5004C92AC93BD5F0ECFBC833F4C8B0
:101B2300E4C9FA22600D08C6A2E713C618C613C695
:101B3300D5E0F322600C08C6C313C618C613C6D576
:101B4300E0F422700422600D18C6C333C608C633FE
:101B5300C6D5E0F41822251810AF08F51840021571
:101B6300198008F51840021519D2AF22C0D02518E4
:101B730010AF08F518500205198008F51850020532
:101B830019D2AFD0D0222518F58210AF08F518402E
:101B93000215198008F51840021519D2AF8519836B
:101BA30022C5822518C582C583351910AF07F519DB
:101BB3008582188007F519858218D2AFC58322253F
:101BC30018F582E43519F58322E4732518C582C01C
:101BD300E0E51934FFC583C0E0E518C3958224F816
:101BE30010AF08858319858218800885831985823B
:101BF30018D2AFCEF0A3E520F0A37808E608F0A34F
:101C0300DEFAEFF0A3E58124FAF8E608F0A3E6088C
:101C1300F0A3E608F0A30808E608F0A3E608F0A39B
:101C230015811581D0E0FED0E0F81581158115816D
:101C3300E8C0E0EEC0E0222518C582C0E0E5193413
:101C4300FFC583C0E0E518C3958224F910AF08856A
:101C530083198582188008858319858218D2AFCEAF
:101C6300F0A3E520F0A37808E608F0A3DEFAEFF08E
:101C7300A3E58124FBF8E608F0A3E608F0A308082F
:101C8300E608F0A3E608F0A315811581D0E0FED0A5
:101C9300E0F815811581E8C0E0EEC0E022851983E4
:101CA300851882E0A3FEE0A3F5207808E0A3F608F8
:101CB300DFFAE0A3FFE0A3C0E0E0A3C0E0E0A3C03D
:101CC300E0E0A3C0E0E0A3C0E010AF088582188580
:101CD30083198008858218858319D2AFD083D08277
:101CE300020122851983851882E0A3FEE0A3F52073
:101CF3007808E0A3F608DFFAE0A3FFE0A3C0E0E082
:101D0300A3C0E0E0A3C0E0E0A3C0E010AF08858279
:101D1300188583198008858218858319D2AFD083EB
:101D2300D08222C0D02518C582C0E0E51934FFC592
:101D330083C0E0E518C3958224F310AF08858319A7
:101D43008582188008858319858218D2AFC8F0A3CD
:101D5300E9F0A3EAF0A3EBF0A37908E709F0A3D82D
:101D6300FAECF0A3EDF0A3EEF0A3EFF0A3D0E0F0D4
:101D7300A3D0E0F0A3D0E0F0A3E520F0A3E5F0F0DA
:101D8300A322851983851882E0C0E0A3E0F9A3E0CC
:101D9300FAA3E0FBA37808E0F608A3DFFAE0FCA3CC
:101DA300E0FDA3E0FEA3E0FFA3E0C0E0A3E0C0E00A
:101DB300A3E0F5D0A3E0F520A3E0A3F5F010AF086E
:101DC3008583198582188008858319858218D2AF87
:101DD300D082D083D0E0F8D0E0327404800674025D
:101DE30080027401C0E0F404121B89D0E0121A5F70
:101DF300227404800474028000CCC0E0EDC0E0E5EE
:101E030018C39CCCAD1950011D10AF068C188D1949
:101E130080068C188D19D2AF121A6CD0E0FDD0E079
:101E2300FC22D083D082E9C0E0E493A3C386F0C54B
:101E3300F095F0F908E493A386F0C5F095F0700BE4
:101E4300E493A3C3994005E9048002A3E475F00277
:101E5300A42582F582E5F03583F583D0E0F9E49398
:101E6300A3C0E0E493C0E022D083D082ECC0E0EDD5
:101E7300C0E0E493A3FCE493A3FDED4C600D121EBC
:101E8300B7EC24FFFCED34FFFD80EFE493A3FCE407
:101E930093A3FDED4C600D121EF6EC24FFFCED3414
:101EA300FFFD80EFD0E0FDD0E0FCE493A3C0E0E4CD
:101EB30093C0E022C0E0C3E493960874019396189C
:101EC300400FE493667008087401936618700070FD
:101ED30019A3A3C3E49396087401939618A3A3408C
:101EE3000DD0E0D0E0D0E0021EA7A3A3A3A3A3A339
:101EF300D0E022C0E0C0F088F0E493667008087474
:101F0300019366187000A8F0A3A3700BD0F0D0E083
:0E1F1300D0E0D0E0021EA7A3A3D0F0D0E022C1
:101F2400C2AF02000022C0E074F2121D26A2AFE488
:101F340033FED2AFC2C0E5D1A2E4500653D1EF12B2
:101F44000786EEA2E092AF7F01021D85C0E074F225
:101F5400121D26A2AFE433FED2AFE589A2E15003FD
:101F64001206DE758900C2C5EEA2E092AF7F0102BF
:101F74001D85C0E074F2121D26A2AFE433FED2AF79
:101F8400E58BA2E050031206DE758B00C2E880D810
:101F9400C0E0C0D0E8C0E0E9C0E0E5A8D2AFC2C765
:101FA400A2E7A2E792AFD0E0F9D0E0F8D0D0D0E039
:101FB40032C0E0C0D0E8C0E0E9C0E0C008C009C059
:101FC40082C083A2AFE433F9D2AF9005AEE0F8A3A8
:101FD400E0687008539AFBA374018026C2E9900557
:101FE400AEE0F50874012508F0742E2508F5827416
:101FF400053400F583E0F5C19005AEE0C39480405C
:1020040002E4F0E9A2E092AFD083D082D009D008F4
:10201400D0E0F9D0E0F8D0D0D0E03274F5121C3A18
:10202400EAFEEBFFEE2434F8EF3400F9880889095E
:10203400EE243512214BF8EE243712214BF50AEC2D
:10204400850AF0A4FCAAF0850AF0EDA42AFDE82C88
:10205400F8E43DF97A257B00121ACEEA85088285D8
:102064000983F074075AF87401B800028004C3337A
:10207400D8FCFBEA131313541FF8EE28F8EF3400CE
:10208400F9E8245DF582E912214E5B6003EA801CC5
:10209400EE243612214BF5F0EA84A8F0EE28F8EF8E
:1020A4003400F9E82438F582E912214EF97F04025C
:1020B4001CE674F5121C3AEAFEEBFFEE24341221FE
:1020C4004BC0E0EE2435F582EF3400F583D0E0F028
:1020D4008E828F83A3A3A3A3A3E0FAA3E0FB8E8243
:1020E4008F83A3A3A3A3A3A3A3E0FCA3E0FDECC35A
:1020F4009AF50AED9BF50BEE247FF508EF3400F515
:1021040009850882F583E06401702BEE2480F58252
:10211400EF3400F583121DF81221547402121B6F60
:10212400E960137C0F7D0DEEFAEFFB121290850827
:1021340082850983E4F0AC0AAD0BEEFAEFFB1220C2
:102144001F1229830220B1F582EF3400F583E022C7
:10215400C082C083851882851983E0F8A3E0F9C39F
:10216400EA9CEB9D5010C3EC98ED99401BC3EA9890
:10217400EB995014800EC3EA98EB994007C3EC988E
:10218400ED994004790180027900D083D08222EA5B
:10219400C39CFAEB9DFB2274ED121C3A9009C9E032
:1021A40064086005E06407702C9061C8E0602690C4
:1021B40009F7E0F874FF68601CE875F005A4C8AA84
:1021C400F02AF974F928FE740939FF8E828F83A3EB
:1021D400A3A3E070057900022344EE2468F510EF10
:1021E4003400F511906060E0851082851183F075EC
:1021F40008A275090D750A00750B00E5D914F50ED2
:10220400E5D95403F50F601CEE2482F50CEF34007D
:10221400F50D7403650F6058E50E6013EE24671224
:10222400214B700B793DEEFAEFFB1212BA80A690A7
:102234000D9DE064016026850C82850D83E06004B9
:10224400780480027800850E0AE50AC398FA95E0BE
:10225400FB1210928A0A8B0BEA450B70061215A822
:102264000221D9850C82850D83E070048A088B09CC
:1022740078008016E5D9C0E08812E5082512F582B9
:10228400E5093400F583D0E0F008E8C3950E40E496
:10229400850C82850D83E0602874FC250EF50E788C
:1022A40008121DE1AC0EA90FEEFAEFFB12137474C1
:1022B40002121B6FE9700AAA0AAB0B1207FE022274
:1022C400287403650F6058850E0C750D00780C1288
:1022D4001DE1AC08AD09AA0AAB0B12133874021243
:1022E4001B6F851082851183E0F874806870057512
:1022F4000C7F8002880CE50CF5087808121DE5E5D2
:102304000FF5087808121DE5A90EAC0AAD0B90096B
:10231400F7E0FA7B00120F127402121B6F801C90FC
:1023240009C9E06408AC08AD097009EEFAEFFB12C4
:1023340013A48007EEFAEFFB12145E1215B47901B0
:102344007F0C021CE674F3121C3A74FC121B59EA4B
:10235400FEEBFF8908A2AFE433F509C2AFEE2463B4
:10236400F50AEF3400F50B8010AA0AAB0B1212F039
:102374001207FE900D16E004F0850A82850B83E0B7
:10238400F8A3E0F9E849602FE82402FAE93400FBF5
:10239400EA2402F50CEB3400F50D780C121DE18AE9
:1023A400828B83E0FCA3E0F9EEFAEFFB1212E474F3
:1023B40002121B6FE960B2900D16E06057900D1782
:1023C400E0F8900D16E0C398500C74026508704450
:1023D400900D18E0603E8E828F83A3A3A3A3E085B3
:1023E40018828519831224287402121BC2E812244D
:1023F40028900D15E028F07402121BC2AC82AD8344
:10240400851882851983AA82AB837901120F1E90E5
:102414000D16E4F0E509A2E092AF7404121B6F7F7D
:1024240006021CE6F0A3E4F0900D16E0F82200008A
:102434008521878522C622C0E074EF121D26A2AF33
:10244400E433FEC2AF759B00906182E0A2E05012BB
:10245400E591A2E0500C7591FE74016521700312A0
:10246400219BE0A2E55051E591A2E5504B7591DF27
:102474009009C9E064076005E0640870237401658D
:1024840021703579019009F7E0FA75F005A4CAA81E
:10249400F028FB74F92AFA74093BFB1223498018CB
:1024A400E0640D70139009EBE004F064287002E41A
:1024B400F07A00E0F91215BA906182E0A2E64003D6
:1024C400022562E591A2E640030225627591BF9060
:1024D40009C9E0640570081214A01214AC80031238
:1024E40014A6752100121524E99009CAF079001286
:1024F40015061211B27A017B009009C8E0F91204A2
:1025040056907803E064427055900DA1E014F07089
:102514004DC2AF12251A00782AD0E0F618D0E0F6A2
:10252400E59F540770057509FF800375097FC4C0D2
:10253400E07829E6F50808E65509F509740B7808EA
:10254400121B37D0E02508F8906270E0A2E740F84B
:10255400E8C333906272F0906270E0D2E0F0906170
:1025640081E0A2E35009E5E9A2E3500375E9F7A38A
:10257400E0A2E75009E591A2E7500375917FEEA22E
:10258400E092AF7F04021D85C0E0C0D0C082C0834A
:10259400906183E0A2E05009E5BFA2E0500375BF5B
:1025A400FEE0A2E15009E5BFA2E1500375BFFDE0E2
:1025B400A2E25009E5BFA2E2500375BFFBE0A2E32B
:1025C4005009E5BFA2E3500375BFF7E0A2E4500948
:1025D400E5BFA2E4500375BFEFE0A2E55009E5BFF3
:1025E400A2E5500375BFDFE0A2E65009E5BFA2E60D
:1025F400500375BFBFD083D082D0D0D0E032C0E0CA
:1026040074F2121D26E5A7A2E4500FE5A1A2E4503E
:102614000953A7EF75A1EF122656E5A7A2E5500CC2
:10262400E5A1A2E5500653A7DF75A1DFE5A7A2E166
:102634005009E5A1A2E1500375A1FDE5A7A2E2506E
:102644000CE5A1A2E2500653A7FB75A1FB7F010292
:102654001D8574F8121C3A7521019009C9E06406BD
:1026640070077A007B00121488A2AFE433FED2AF65
:102674009009CFE0640170187A207B009009C8E0CB
:10268400F91204DA7A207B009009C8E0F912045C9C
:10269400906182E0D2E6F0900D9EE0602185C62232
:1026A40080169009CEE064017008E5C654F844052C
:1026B400F5C653BEFC1224347401652160E4EEA215
:1026C400E092AF7F01021CE68E238F248582288549
:1026D4008327851882851983E0CEA3E0CF852882DD
:1026E400852783EBC9EAC8EDCBECCA75F010C3E8C3
:1026F40033C8E933C9EA33CAEB33CBC3EA9EF526C0
:10270400EB9FF525B35004AB25AA26EC33CCED336F
:10271400CDD5F0DAAE23AF242274F1121C3A8A0824
:102724008B098C0A8D0B90958378081219F0740F1D
:10273400121BC2780C121A29909583780C1219F086
:102744007808790C12181590957F50107808790C38
:102754001219B578081218354014800E780C7908CF
:102764001219B5780C1218355004790180027900D9
:102774007F08021CE674ED121C3A8A088B098C0A45
:102784008D0B90958378081219F07413121BC2787C
:102794000C121A29909583780C1219F0780C790888
:1027A40012181540117808790C1219B5AA08AB094A
:1027B400AC0AAD0B802275100075110075120075FE
:1027C40013017810790C1219B57810790812197C54
:1027D400AA10AB11AC12AD137F0C021CE6909583CA
:1027E4007808121A298A828B837808121A037F04C4
:1027F400021CE674F5121C3A8C828D837808121A36
:10280400298A828B8378081219C912284BC3E0984D
:10281400F0A3E09912283D401E9095777808121A8B
:10282400298A828B8378081219A28E828F83E024EE
:1028340020F0A3E0344EF080A4F08E828F83C3E0B6
:102844009420A3E0944E22EA2404F8EB3400F9E83F
:10285400FEE9FF8C828D83A3A3A3A3E0F8A3E0F990
:102864008E828F832274F5121C3AE9FE900D2AE0C1
:10287400FAA3E0FBEEC333F8E433F9747628F58267
:10288400749239F583E02AF508A3E03BF50978084A
:10289400121DE190957B121A471226CC7402121B6A
:1028A4006F8A088B098C0A8D0B74107808121944EE
:1028B400AA08AB097F04021CE674F1121C3A8A0CC4
:1028C4008B0D8C0E8D0F740F121BC2E0FAA3E0FB6C
:1028D4007411121BC2E0F508A3E0F5097808121D73
:1028E400E1EA2401F508EB3400F509E4F50AF50BF7
:1028F400780C79081218549095877808121A297858
:102904000C7908121854AA0CAB0DAC0EAD0F12269C
:10291400CC7402121B6F8B09EA450960047A0180AA
:10292400027A00EC2AFCED3400FD7413121BC2E0A1
:10293400F8A3E0F9E8FEE9FFECF8EDF97A717B021F
:10294400121ACE88088909E4F50AF50B8E828F8362
:102954007808121A38ECF8EDF97A717B02121ACE63
:102964008A088B0974057808121B468E828F83A30C
:10297400A3A3A3E508F0A3E509F07F08021CE6C0C1
:1029840082C083E9906000F0D083D08222020122C9
:10299400FFFFFFFFFFFFFFFF74F4121BCEE9900956
:1029A400C8F01214CA907800E0C4540F54076403AA
:1029B4007004793F8002797F7508067509007808EC
:1029C400121DE17CB67D097AEA7B071206B4740213
:1029D400121B6F9009B6E0F47049A3E0F47044A3AD
:1029E400E0F4703FA3E0F4703AA3E0F47035A3E0A0
:1029F400F4703090780EE09009B6F090780FE09083
:102A040009B7F0907810E09009B8F0907811E09050
:102A140009B9F0907812E09009BAF0907813E09038
:102A240009BBF09009BC122B8212462D9009E67462
:102A340006F0A3740D1234B87440F0A37401F0903E
:102A44000D1E122B82900D1DE4F0900D24F0A37442
:102A5400A01234B87403F0A374071234B8742812A3
:102A640034B804F0A3E4F0900D4DF0900D73122BE4
:102A740082900D72E4F0900D79041234B8122B7028
:102A8400E4F0A304F0A31234B81234B6F0900D8A23
:102A9400122B82900D89E4F0900D9004F0A3E412BF
:102AA4002B701234B6F0A37405F0900D9A74FFF0F5
:102AB400A3E4F0900D9CF0900D9E04F0900D9F7493
:102AC40090F0A37401F01211C412109812147079CA
:102AD400017AA17B0D12130E900DA1E075F0148400
:102AE400E5F004F0790C7AC27B0D12130E12132C4C
:102AF4007A009009C8E0F91204B0907803E06442C7
:102B04007055900DA1E014F0704DC2AF122B13005C
:102B1400782AD0E0F618D0E0F6E59F5407700575E2
:102B240009FF800375097FC4C0E07829E6F5080829
:102B3400E65509F509740B7808121B37D0E025080F
:102B4400F8906270E0A2E740F8E8C333906272F054
:102B5400906270E0D2E0F09009F3E4F0A3F07A80A0
:102B6400FB9009C8E0F912045602312A122B79129B
:102B74002B79F0A322F0A37480F0A374022274FFD3
:102B8400122F9BF0A3F02274F4121BCEEAFEEBFF8B
:102B9400EEA2E050409009CAE0C39480E0500FC315
:102BA40033F8E433F974B428F5827415800EF4C351
:102BB40033F8E433F974C228F582741539F58312B5
:102BC4003B87121BCC7A009009C8E0F91204B0EEDE
:102BD4006401022DF454086059900D98122E367534
:102BE40008007808121DE5122E0C121B3778081203
:102BF4001DE1EA2430F582EB12411D121DF8122E5C
:102C04001D121DE175080975090D7808121DE19062
:102C14000D08E0FD7C008A828B83A3A3A3A3E0FAC2
:102C24007B007900120F4E7409121B6FEE640802C8
:102C34002DF4EE541060407508007808121DE5E488
:102C4400F5097808121DE17808121DE17808121DB3
:102C5400E175080975090D7808121DE1900D08E069
:102C6400FD7C007A007B007902120F4E7409121B5E
:102C74006FEE6410022DF4EE54026038750800788B
:102C840008121DE5E4F5097808121DE17808121D03
:102C9400E17808121DE175080975090D7808121DFF
:102CA400E1122E00793C120F4E7409121B6FEE6470
:102CB40002022DF4EE540460619009F7122E36EAF4
:102CC400242AF582EB124401F5087808121DE51256
:102CD4002E0C121B377808121DE1EA2420F582EB32
:102CE40012411D121DF8122E1D121DE175080975E1
:102CF400090D7808121DE1900D08E0FD7C018A821F
:102D04008B83A3A3A3A3E0FA7B007900120F4E7474
:102D140009121B6FEE6404022DF4EE544060387502
:102D240008007808121DE5E4F5097808121DE17819
:102D340008121DE17808121DE175080975090D785E
:102D440008121DE1122E00793B120F4E7409121B5A
:102D54006FEE6440022DF4EE5480602F900D9F12AC
:102D640034B049602179001204AA900D9F123B727D
:102D74007808121DDD7A007B019009C8E0F912047D
:102D8400CE7404121B6FEE64808065EF5401600CF6
:102D940079011204AAEEFAEF64018056EF5402603E
:102DA4000AC2AF75C9AB75C95B80FEEF5404600AF3
:102DB400121F24EEFAEF640480389009CFE0640116
:102DC4007033EE5420602E9009C9E024F960031496
:102DD400701B793F9009F7E0FA75F005A4CAA8F0D2
:102DE40028FB74F92AFA74093BFB1212BAEE642028
:102DF400FAEFFB80047A007B0002312A900D08E090
:102E0400FD7C017A007B0022EA2432F582EB124138
:102E1400381241127404780822EA242EF582EB1247
:102E240045B8F508A3E0C313F509E50813F50878D8
:102E34000822E0F875F005A4C8AAF0122E43222A4D
:102E4400F974F928FA740939FB2274F6121BCEC3FB
:102E5400EA9411EB940050047A1080027A20EA2458
:102E640008FAE43400FB1207F88A088B09A808A9B9
:102E740009E849600AE82404FAE93400FB80047A8A
:102E8400007B0002370D74F6121BCEEA2405FAEB20
:102E94003400FB1207F88A088B09A808A909E84935
:102EA400600AE82405FAE93400FB80047A007B0018
:102EB40002370DC082C083C2AF1214A6E5E170FCD4
:102EC40075E10112119A75E1F11214E212118E7971
:102ED4000712158A7901121590790212150C121530
:102EE4004212157279001215847901121584909595
:102EF4003B121A471214F4900D08E4122B84A3F029
:102F0400900D24F0A3F0A3F0900D287407F0900D19
:102F1400277403F0900D2DE4F0900D2CF0900D4DDE
:102F2400F0900D7AF0900D91F01212A21213D412B7
:102F340012C67900121596900D0F74FF122F9B7410
:102F44001FF0906012E4F0A3F0906063F07521002C
:102F54009009C9F0900D14F0900D15740CF0900DBB
:102F640016E4F0900D1704F0900D18E4F0900D198C
:102F740004F0900D1AE4F09009CBF0A3F09009CE80
:102F8400F09009CF04F09009E57403F0900D9DE4EE
:102F9400F0D2AFF90245EBF0A3F0A3F0A3F0A32223
:102FA400C082C0839009B6E08A828B831239B28AC8
:102FB400828B83A31239AC8A828B83A3A31239A692
:102FC4008A828B83A3A3A31239A08A828B83A3A3AF
:102FD400A3A3F09009BBE08A828B83A3A3A3A3A33A
:102FE4000245E8C082C0838A828B83E09009BC12C8
:102FF400301DE09009BD12301DA3E09009BE1230CF
:103004001DA3A3E09009BF123024E09009C0123040
:1030140024A3E09009C10245E8F08A828B83A322AD
:10302400F08A828B83A3A3A3A322C082C08312113C
:10303400D0E9700512154279000245EB74F7121BB2
:10304400CEEAFEEBFF89081211D0E9702CE5086086
:103054000A74016508600A7912801E7C0079008078
:10306400047C007901EEFAEFFB121548E9F87403C9
:103074006870047907800279000239B874F6121B6B
:10308400CEEA4B600EEC4D600A740A121BC2124663
:103094001C70047912800F7808121DE11213267433
:1030A40002121B6F790002370D74F4121BCEEAFE74
:1030B400EBFF89089009C9E064096014E0640A60C0
:1030C4000FE0640B600AE0640C6005E0640D7004BA
:1030D400790C801E1213FE8B0BEA450B700BA908AA
:1030E400EEFAEFFB12130E80099009CBE04440F096
:1030F400790D803274F4121BCEEAFEEBFF890BEEDD
:103104004F6003E970047912801C750A00121308D9
:10311400850A08EE250812411AE9F0050AE50AC3F2
:10312400950B40E979007F04021CA0C082C083E9AA
:10313400F8740168700B900D9D7401F079000245DC
:10314400EBE87006900D9DE480F1791280F0F58231
:10315400EB1245B864012274F6121BCEEAFEEBFFB3
:103164008C088D099009C9E0640C700590618E800B
:103174001312111CE9702F12466B74612EF58274C0
:103184000A3FF583E0F9748069700A85088285092D
:1031940083747F800E9009CDE0F8E9C39885088296
:1031A400850983F0790002370D74F7121BCEEAFE0D
:1031B400EBFF8908740565086028741365086022AC
:1031C40074146508601C741565086016741A650823
:1031D400601074296508600A743B650860047912FC
:1031E400804112111CE9703B123C59241DF8EB3448
:1031F40000F9EA24F6FCEB3400FDEA2469123152AA
:103204007019EA246AF582EB1244016402700479AD
:103214003A801012322A12128A800612322A1212AC
:103224007E79000239B88C828D83E5081236CEE4AB
:10323400F0A3F079022274E8121BCE8A088B098C61
:103244000A8D0B8917EC450B6016E9C3941C5010CA
:103254007418121BC2E0F50C600B7401650C600558
:1032640079120234AB12111CE960030234ABA808D2
:10327400E875F005A4C8AAF02AFA75F005E509A4D2
:103284002AF974F928FE740939FF900D15E07005C8
:1032940079070234ABE50A24FEF50AE50B34FFF5A1
:1032A4000B850A82F583E517F0E50C70047402803F
:1032B400027401A3F0E50A24FEFCE50B34FFFDEEE5
:1032C4002463FAEF3400FB1212EA900D15E0141295
:1032D4003B9D64086008E0640760030234A9900918
:1032E400F7E065087002E50960030234A97900EE8D
:1032F400FAEFFB1223499061D0E070030234A990E5
:103304000D19E0640160030234A9EE241D12411A70
:103314001234B04970030234A9A2AFE433F516C2E3
:10332400AF1214BE8A088B091214BEEA6508700332
:10333400EB650970030234A31213FE8A088B091289
:1033440014B88A0C8B0D8C0E8D0FE5082402F5142D
:10335400E5093400F5158A108B118C128D139095A4
:1033640057781012198F7810121DDD851482851577
:1033740083121A4712271D7404121B6FE96401603B
:10338400030234A3EE242EF50AEF3400F50B850A6C
:1033940082F583E02406124155780C791012197CC9
:1033A400780C121DDD851482851583121A471227A5
:1033B4001D7404121B6FE9640160030234A3E50861
:1033C4002408F510E5093400F511851082F58312FF
:1033D4001DF4AA0CAB0DAC0EAD0F122779740412B8
:1033E4001B6F850A82850B83121DF81226CC74028A
:1033F400121B6F8A0C8B0D8C0E8D0F7410780C12AF
:103404001944A80CA90D8E828F83A3A3A3A3A3A3FD
:10341400A3A3A3123B7B8E828F83124184EA28FAF2
:10342400EB39FB8E828F83A3A3124184851082859E
:103434001183C082C083850A82850B83E0F510A3C3
:10344400E0F511780C7910121854D083D082780CDE
:1034540012198F909583780C1219F08514828515B2
:1034640083E50CF0A3E50DF0A3E50EF0A3E50FF062
:10347400850882850983A3A3A3A3A3A3E4F0A3F0EF
:10348400EE24351243FEC0E0EE243412411AD0E09B
:10349400F0EEFAEFFB1220B6AA08AB091213E0E52E
:1034A40016A2E092AF79007F10021CA0124126F907
:1034B400E8227425F0A3E4F0A32274EE121BCEEAF2
:1034C400FEEBFF89087413121BC2E0F50974141291
:1034D4001BC2124121E508604B7401650860157434
:1034E4000365086029740265086023740465086034
:1034F4000302357AE849607EE509600674016509CE
:10350400707474036508600674026508702AEE24FA
:1035140060FAEF123685505EEC2460FAED123685BF
:1035240040168052EE24E0FAEF12367A5048EC242A
:10353400E0FAED12367A503EC3EC9EED9F403774AC
:1035440012121BC2E0FA600574016A702974171222
:103554001BC2E0F50E60127401650E600C74026506
:103564000E60067403650E700D7416121BC2E0FB28
:1035740074075BFB70057912023675900D24E064C4
:10358400017005790C023675E508900D27F0EBA360
:10359400F0E50EA3F0EA900D1D7027E4F09009B653
:1035A400E0900D1E1239B2900D1F1239AC900D200F
:1035B4001239A6900D211239A0900D22F09009BB6A
:1035C400802E7401F09009BCE0900D1EF09009BDAE
:1035D400E0900D1FF09009BEE0900D20F09009BF1F
:1035E400E0900D21F09009C0E0900D22F09009C107
:1035F400E0900D23F0E82405FAE93400FBE8240404
:10360400FCE93400FDE82403F50AE93400F50BE88D
:103614002402F50CE93400F50D88828983A38582A0
:103624001085831174016508700B123690900D2576
:10363400E4F0A3803974046508700512369080277D
:10364400E50E70047900801C7401650E7004790124
:1036540080127402650E7004790280087403650E8A
:103664007005790312154E900D25EEF0A3EFF07955
:10367400007F0A021CA034FFFBC3EA94E1EB943FF1
:103684002234FFFBC3EA9461EB943F22E509900DD9
:10369400081236CEE0900D09F0851082851183E082
:1036A400900D0AF0850C82850D83E0900D0B124677
:1036B40024900D0C124681E0900D0D1236C7900D2A
:1036C4000EF022F08A828B83E022F08882898322A2
:1036D40074F6121BCEE9FEC39420500BEE900D2D10
:1036E400F0601EEA4B70047912801E1238BC121D61
:1036F400E1EAFCEBFD7A2E7B0D1203FC7402121B33
:103704006F900D2C7401F079007F02021CA074F4F8
:10371400121BCEE9FE9009C9E06409700302381750
:10372400E0640A7003023817E0640B700302381770
:10373400E0640C7003023817E0640D70030238175C
:10374400900D27E0F86017740168601274036860D4
:103754000D7402686008740468600302387C900D7C
:103764001DE0F96008740169600302387C74036821
:1037740060057402687010900D25C3E094A0A3E066
:103784009400500302387CEE700302381114600375
:1037940002387C900D24E064016078E8600A7401CA
:1037A400686005740468700812140AE954FD7063B3
:1037B40079011213F2900D1B124189900D247401AA
:1037C400123B9D70431214B88A088B098C0A8D0B26
:1037D400909533780812198F90958378081219F010
:1037E400900D1B123B817808121A38900D1B123B66
:1037F4008F1211D6E9600E7A1B7B0D1213F8900D0F
:1038040024E4F0800E1213DA790002312A900D2498
:10381400E07004792180F3A2AFE433FFC2AF7A1BD6
:103824007B0D1213F8900D24E4F0121416E9704184
:103834001214A6906182E0C2E6F0E5E170FC75E145
:10384400017591BF75E1F19009CFE0640170187AB8
:10385400207B009009C8E0F91204DA7A207B0090FA
:1038640009C8E0F912045C7A009009C8E0F912046E
:10387400B0EFA2E092AF80907912808E74F6121BA2
:10388400CEE9FEC39420500BEE900D4DF0601EEA7D
:103894004B70047912801E1238BC121DE1EAFCEB55
:1038A400FD7A4E7B0D1203FC7402121B6F900D2CDB
:1038B4007401F0790002370DE0F508750900780805
:1038C4002274F7121BCEE9FE600574016E70327427
:1038D40009121BC2E0FF600574016F7024123B697A
:1038E400501FEC24FCF8ED123B6E5015C3EA9CEB20
:1038F4009D400E740A121BC2E0F8600A74016860ED
:1039040005791202399E900D7AE064017005790CF4
:1039140002399EEEA3F0E8900D80F0EF900D7270E6
:1039240027E4F09009B6E0900D731239B2900D744B
:103934001239AC900D751239A6900D761239A090FB
:103944000D77F09009BB802E7401F09009BCE090D3
:103954000D73F09009BDE0900D74F09009BEE090F5
:103964000D75F09009BFE0900D76F09009C0E090DD
:103974000D77F09009C1E0900D78F0900D7C124124
:1039840089A3ECF0A3EDF0E87004790080077401DA
:10399400687005790112155479008018F09009BAFD
:1039A400E022F09009B9E022F09009B8E022F0900A
:1039B40009B7E0227F01021CA074F0121BCEE9FEBD
:1039C400EAFF9009C9E064097003023ACDE0640A91
:1039D4007003023ACDE0640B7003023ACDE0640C4C
:1039E4007003023ACDE0640D7003023ACD900D7B72
:1039F400E0F860087401686003023B64900D72E0B3
:103A0400F860087401686003023B64900D7C123B0B
:103A14007B123B694003023B64A31234B024FCFCD8
:103A2400E934FFFDC3EC94FDED943F4003023B6495
:103A3400C3EA98EB995003023B64EF600874016F8A
:103A44006003023B64EE607B146003023B64900DF0
:103A54007AE06401607379021213F2900D701241DE
:103A640089900D7A7401F0900D79F0EF900D811228
:103A74003B9D704A1211FA1214B88A0C8B0D8C0EED
:103A84008D0F90952F780C12198F909583780C12C6
:103A940019F0900D70123B81780C121A38900D7049
:103AA400123B8F900D7E123B72780C790812197CB0
:103AB400900D7012412B780C121A381213DA790017
:103AC4000245E3900D7AE07004792180F3A2AFE41B
:103AD40033F508C2AF7A707B0D1213F8900D7AE4B7
:103AE400F0121416E970461214A6906182E0C2E640
:103AF400F0E5E170FC75E1017591BF790112159053
:103B040075E1F19009CFE0640170187A207B009090
:103B140009C8E0F91204DA7A207B009009C8E0F9B8
:103B240012045C7A009009C8E0F91204B0E508A216
:103B3400E092AF900D80E0F874016870061215727F
:103B4400023AC2A3E064016003023AC2E8600302DD
:103B54003AC2121542121572790112157E023AC246
:103B64007912023AC4EA24FCF8EB124147221241CA
:103B740012E4F50AF50B22E0FAA3E0FB22123B87DC
:103B8400A3A322124126F583888222124126C82447
:103B940006124135E4F0A3F022F09009C9E0227442
:103BA400F6121BCEEAFEEBFF8C088D099009C9E0E2
:103BB40064076004790C804FEC4509700479128025
:103BC4004612111CE970401245D37E008E82AC82ED
:103BD400E5082CF582E509124401C0E0C3E49CF831
:103BE40095E0F9EA28F8EB1245C7D0E0F00EEEC3F1
:103BF400941040D8EA24D3F582EB12411D7401F0ED
:103C0400790512127E790002370D74F7121BCEEA81
:103C1400FEEBFF9009C9E064076004790C8033125D
:103C2400111CE9702D123C5924DC1231527010EA37
:103C340024F6F582EB12411D7406F07902800EEA37
:103C440024DDF582EB12411D7406F0790D12127E0B
:103C540079000239B81245D7EA2274E8121BCE74EF
:103C6400FB121B597403121BC21241897401121BEB
:103C7400C2ECF0A3EDF0E9851882851983F074296C
:103C8400121BC2E0FEA3E0FF742B121BC2124112EE
:103C9400900D91E064017003023E0C790412140447
:103CA400E964017003023E0C9009C9E064097003E1
:103CB400023E0CE0640A7003023E0CE0640B7003E5
:103CC400023E0CE0640C7003023E0CE0640D7003D1
:103CD400023E0C7403121BC212413D4003023EA378
:103CE4007401121BC212413D4003023EA37403122D
:103CF4001BC2C082C0837401121BC2124121D08333
:103D0400D082C3E098A3E0995003023EA3741E122C
:103D14001BC2E0F516A3E0F517851882851983E028
:103D2400600964016003023EA38009E5164517702B
:103D340003023EA3741D121BC2E06007640160030A
:103D4400023EA37420121BC2E060076401600302F8
:103D54003EA3C3E5089EE5099F5003023EA37421D8
:103D6400121BC2123B7BEA24FAF8EB1243F5400320
:103D7400023EA37423121BC21241217423121BC2DC
:103D84001244247423121BC2E024FAF8A3E0124361
:103D9400F54003023EA37423121BC2C3E09AA3E0BE
:103DA4009B5003023EA37425121BC21241217425A9
:103DB400121BC21244247425121BC2C3E094F4A340
:103DC400E094014003023EA37427121BC2E0F514E1
:103DD400A3E0F515E51424F6F8E5151243EC4003C9
:103DE400023EA37901121404E964017011900D27B5
:103DF400E0F86014740168600F740468600A794024
:103E0400121404E964017005792102410A74231231
:103E14001BC2E0FEA3E0FFEEC333FEEF33FF8514C5
:103E24000C85150D7403780C121B46F50EF50F74F2
:103E340025121BC21241528E088F09F50AF50B7820
:103E4400107908121854780C791012181550501261
:103E540012C0E964017005793A02410A9009F6E05A
:103E6400602E7AFF7BFF1212AE8A0A8B0B740378E2
:103E74000A121B37124405403DC3EA9508EB950925
:103E84005022A808A909121ACE8B09EA45097026FE
:103E9400851882851983E07022E5164517701C7910
:103EA4001202410AEAF8EBF9AA08AB09121ACE8BFE
:103EB40009EA450960DA793B02410A1212968A0836
:103EC4008B09AE08AF09EE4F7005790902410AEE7D
:103ED4002404F508EF3400F509850882F583E090A1
:103EE4000D98F07403121BC2124121900D921244DA
:103EF400247401121BC2124121900D941244248592
:103F04001882851983E0900D97F07A008A82A8823E
:103F140012442AE0C0E01245BE245DF582E9124154
:103F24001DD0E0F00AEAC3940540E1EE245DFCEF05
:103F34003400FDEEFA121290EE24361243FEC394BE
:103F440002500AEEFAEFFB12129C023EA38516827F
:103F5400851783E0900D09124175E0900D0A124116
:103F64006CE0900D0B12416CA3E0900D0C12417E9D
:103F7400E0900D0D12417EA3E0900D0EF07420121E
:103F84001BC2E0900D89F07420121BC2E0702590D2
:103F940009B6E0900D8A1239B2900D8B1239AC90AB
:103FA4000D8C1239A6900D8D1239A0900D8EF090C3
:103FB40009BB802B9009BCE0900D8AF09009BDE00C
:103FC400900D8BF09009BEE0900D8CF09009BFE04D
:103FD400900D8DF09009C0E0900D8EF09009C1E035
:103FE400900D8FF0741D121BC2E0900D08F0121298
:103FF400CCEE242612411A121A5312113AEE24223C
:1040040012411A121A537423121BC2124121EE24B4
:104014002EF582EF124421EE243212411AE514F0F7
:10402400A3E515F07425121BC2124121EE2430F5CC
:1040340082EF124421900D99E0C0E0EE242A12414F
:104044001AD0E0F0EE242B12411A7402F012130875
:10405400E975F00C84E5F02405C0E0EE2437124144
:104064001AD0E0F0900D967425F09009F6E0C39410
:10407400024005790112150679041213F2900D8796
:10408400124189900D9174011241632416F582E85E
:1040940012411D741EF0A374121241632414F5829C
:1040A400E812411D7417123B9D70591214B88A10FE
:1040B4008B118C128D1390952B781012198F90956B
:1040C4008378101219F0900D87123B817810121A20
:1040D40038900D87123B8F900D94E0F50CA3E0F51A
:1040E4000D7810790C12197C900D8712412B7810E1
:1040F400121A38850882850983E0F9121200121217
:10410400061213DA79007405121B6F0234ABE0F562
:1041140008A3E0F50922F582EF1241382212412664
:10412400F922E0F8A3E022124126C8240E124135F8
:1041340022F582E83400F58322E024FCF8A3E0129F
:1041440041472234FFF9C3E894FDE9943F22E02477
:1041540001F510A3E03400F511E4F512F51322F093
:10416400900D87124126C82212417022124175A374
:1041740022F0851682851783A322124170A3A322FD
:10418400A3A3A3A3A3EAF0A3EBF022C082C083906D
:104194000D91E060087904121404E97004790C802C
:1041A40037900D91E4F0121416E9702A9009CFE0CB
:1041B400640170187A207B009009C8E0F91204DACF
:1041C4007A207B009009C8E0F912045C7A00900917
:1041D400C8E0F91204B079000245EBC082C083C381
:1041E400EB940F5009C3EA9403EB94004004791252
:1041F4008024EA75F005A4CAA8F028F875F005EB48
:10420400A428FB74FC2AF58274093BF583E070044E
:104214007902800279000245EB74E8121BCE8A0809
:104224008B099009C9E064086005790C0243D3EC5A
:1042340024FAF8ED1243F5400302432E7418121BBE
:10424400C2E0F516A3E0F517E51624FAF8E517120F
:1042540043F5400302432EC3E5169CE5179D500326
:1042640002432E741A121BC2124121741A121BC269
:10427400124424741A121BC2C3E094F4A3E0940100
:10428400400302432E741C121BC2E0FEA3E0FFEEA7
:1042940024F6F8EF1243EC400302432E12111CE9FA
:1042A40060030243D3E50875F005A4C508A8F02807
:1042B400F875F005E509A428F50974F92508F5143D
:1042C40074093509F515E514246EF582E5151244D3
:1042D40001600DE514246AF582E515124401600DB0
:1042E400E5142473F582E5151231557005793A0207
:1042F40043D3E516C333FAE51733FB8E0C8F0D74E5
:1043040003780C121B46F50EF50F741A121BC21219
:1043140041528A088B09F50AF50B781079081218AE
:1043240054780C7910121815400579120243D39071
:1043340009F6E0C3940240317AFF7BFF1212AE8A81
:104344000A8B0B7403780A121B37124405500302BC
:1043540043E8C3EA9508EB95095077A808A9091220
:104364001ACE8B09EA4509707BE5142476F582E5BB
:104374001512411D7402F0E5142477F582E5151237
:10438400411DE4F0A3F0E5142430F582E515124450
:1043940035E514247412441DE5142479F582E515D9
:1043A40012411DE516F0A3E517F0741A121BC21290
:1043B4004121E514247B12441DE514247DF582E596
:1043C400153400124413AA14AB1512127E7900029C
:1043D40034ABEAF8EBF9AA08AB09121ACE8B09EA56
:1043E40045096085793B80E712465E9477E9940C31
:1043F4002212465E947BE9940C22F582EF1245B8B2
:10440400229009F6E0F8C3E50A98E50B940022F53A
:1044140083EEF0A3EFF0790022F582E5151241381E
:10442400E8F0A3E9F022740F28F582740D124138E4
:10443400221245B82407F8A3E03400F92274F212DA
:104444001BCEEAFEEBFF8C088D099009C9E06408D5
:104454006005790C02459EEC45096024740E121B1C
:10446400C2E0F50CA3E0F50DE50C450D60127410E7
:10447400121BC2E0F50AA3E0F50BE50A450B700533
:10448400791202459E12111CE9600302459E1246F0
:1044940064FE74093FFFEE24E31243FE70207A00A9
:1044A4008A82A8821245ADC0E01245BE24E4F5829A
:1044B400E912411DD0E0F00AEAC3940840E2EE2478
:1044C400E41243FEA2E04005791102459E7A008A77
:1044D40082A882E50828F582E509124401C0E012A9
:1044E40045BE249BF582E912411DD0E0F00AEAC3DF
:1044F400940840DB850C82850D83E0C0E0EE24A3A4
:1045040012411AD0E0F0850C82850D83A3E0C0E04F
:10451400EE24A412411AD0E0F07A008A82AC82E53B
:104524000A2CF582E50B124401C0E0C3E49CF89523
:10453400E0F9EE28F8EF1245C7D0E0F00AEAC39498
:104544001040D8EE2493FAEF3400FB121314EE2437
:1045540087FAEF3400FB12131A9009CBE04480F081
:10456400EE24621245A324D21245A324D31245A3F8
:1045740024DCF8EF3400F9EE2482F582EF12315591
:104584008882898370077401F0790A8004E4F079E1
:1045940003EEFAEFFB12127E79007F06021CA0F5EF
:1045A40082EF124138E4F0EE2274DD28F5827409BA
:1045B4001245B8223400F583E022EE28F8EF3400E7
:1045C400F9E82239F9E824D1F582E91241382212B6
:1045D40045D72212466F74F92EFA74093FFB227FE5
:1045E40008021CA0F07900D083D082020122C0828C
:1045F400C083E9F8900D9EE07004790C800EE860A9
:104604000D1470109009CE7401F0790080D99009CE
:10461400CEE480F5791280F4124112E508450922AE
:10462400F0850A82850B83E0229009B6E09009C2E6
:10463400F09009B7E09009C3F09009B8E09009C47C
:10464400F09009B9E09009C5F09009BAE09009C664
:10465400F09009BBE09009C7F02234FFF9C3E822C7
:1046640012466B74F92E2212466F22EE75F005A4E1
:10467400CEA8F028F875F005EFA428FF22F08C826C
:104684008D8322C082C0839061907404F0A3744827
:10469400F0A3E4F09061807440F09061BC7407F082
:1046A4009061877469F09061B67416F07900121104
:1046B400B879021211BE902994E493F46006E4934D
:1046C400F9121194790512159C024AB7C082C0836D
:1046D400E9540FF9906185E0696012E5C65480449D
:1046E40049F5C6E59E547F644970F8E9F053C680E5
:1046F400E59E547F70FA024AB774F7121BCEE5A800
:10470400FE53A87E1211A0C2BA539AFEC289759BA9
:1047140000C2C21211A675A91175B9051211ACD245
:10472400BA439A0174805E42A8025606C082C083CE
:10473400906181E4F0A3F0A3F0024AB775E9007533
:10474400910075BF00020122C082C083906181E4A0
:10475400F0A374C0F0A3E480DFC082C08374F812B5
:104764001B599009CB12628A700302483C9009CB12
:10477400E0544060237908851882851983AA82ABA6
:104784008312130E851882851983AA82AB83120EB5
:10479400FA9009CBE054BFF0E054806010790C7AB1
:1047A400C27B0D12130E9009CBE0547FF0E0A2E01F
:1047B400500F79001211B8120F009009CBE054FE8B
:1047C400F0E05402600F79011211B8120F00900941
:1047D400CBE054FDF0E05404600F79001211BE12D6
:1047E4000F069009CBE054FBF0E05408600F790108
:1047F4001211BE120F069009CBE054F7F0E05410EA
:10480400600F79021211BE120F069009CBE054EF2B
:10481400F0E05420600F79031211BE120F069009C4
:10482400CBE054DFF0A3E05401600D1211CA120F63
:104834000C9009CCE054FEF07408121B6F024AB7C6
:10484400C082C083E9600514602A804F90619A7425
:1048540033F0A37455F09061A0743AF0900D9CE08D
:1048640064017009C2919009CD7467802D9009CDBF
:104874007461802690619A743FF0A3745AF0906139
:10488400A0747FF0900D9CE064017009D2919009AE
:10489400CD747180059009CD746AF0024AB7C08264
:1048A400C083E9600B14600D14601714600C802041
:1048B40090299880159029998010900D9CE06401AE
:1048C400700590299A800390299BE493906186F067
:1048D400024AB774EE121BCE74F4121B5985188267
:1048E400851983AC82AD8375839575822374041214
:1048F4001A6C90299893F46003024A01907808E0B6
:10490400C3940250030249E17404121BC2AC82AD89
:10491400837583947582667408121A6CFC7EFF7F1B
:10492400FF8E0C7D008C8285820E800F74086D6072
:104934006D74096D6068740A6D60638D0875090093
:1049440074027808121B46124A0B121A29A909E5A7
:104954000AC9F8881074187808121944E510450833
:10496400FAE9FBE50EC333F8E433F97404121BC20D
:10497400E58228F582E583391254BDC3E89AE99BA0
:104984004008E8C39AF8E99B8006EAC398F8EB99D3
:10499400F9C3E89EE99F5006E8FEE9FF8D0C0DED92
:1049A400C39413408774FF6E700374FF6F60248593
:1049B4000C0874027808121B46124A0B121A298535
:1049C4001882851983E582250EF582E5831259CE76
:1049D400E508F00CECC39404500302492175080166
:1049E4007509007808121DE17402121BC2AC82AD75
:1049F400837A667B0A1206BA7402121B6F740C1255
:104A04001B6F7F0A021CA074482508F58274783550
:104A140009F583780822C082C083906186E0F8900B
:104A2400299BE49368700990299AE493906186F035
:104A34009061AE7468F0A3746AF090624574FBF000
:104A4400A304F053F4FD43FE02900D9C7401F09016
:104A540061A0E0643A70047900800279011211B80F
:104A6400024AB7F07F04021CA0C082C083900D7A72
:104A7400E064017013900D80E0F87401686027E829
:104A84007006A3E06401601E900D91E0640170085B
:104A9400900D97E06401600E900D24E06401700AAB
:104AA400900D29E06004790C800279008005E0F91A
:104AB400122983D083D082020122C082C08375E18F
:104AC400F1900D27E0604B14600914604F146047A7
:104AD40014704E1211DC900D1DE0F97A1E7B0D123C
:104AE40014E8909527121A4712153690953B121A1E
:104AF400471214F4900D28E0F912150079011215EB
:104B040090900D1B124D94740CF0A37412F0790064
:104B140080A11211E280BF1211E880BA1211EE8056
:104B2400B5791280EB74F4121BCE75D90D900D0873
:104B3400E0A2E0E4331313F8124C2B484401F5D9F6
:104B44007800124C3540FB780088087409125F1015
:104B5400740D124C3F40F275E195900D08E0F97A1E
:104B6400097B0D1214EE9015B4746AF0A37411123B
:104B74004C45124EBA7488F0A37411124ECD900DA8
:104B840027E06401900D1B700B124BC7121A299079
:104B940095178009124BC7121A2990951378081299
:104BA400198F90958378081219F0124C73125C696E
:104BB400121A38900D1B124EA17413124D48740230
:104BC400024A67125DA278082274F6121BCE124CB8
:104BD40021FA8AD97800124C3540FB7800800612FD
:104BE4004CBC125303E8C39940F5124D36124C35B0
:104BF40040FB78008008125F0C740D125303E8C365
:104C04009940F375E1959015B47476F0A37411127C
:104C14004C45124C4F7412124D48025576900D2D8E
:104C2400E0F9740729F5D9900D1DE0C4333354C05D
:104C3400228808741E2508F582740D1255629406A4
:104C44002212502D7470F0A3741122124EC0F0A3DE
:104C54007488F0A37411124ED1124C73125AA174B9
:104C6400FFF0A3F0A3F0A3F0900D1B124EA5229029
:104C74000D1B124E9B240EF582E82274F6121BCEF5
:104C8400124C214402F5D97800124C3540FB7800CF
:104C94008006124CBC125303E8C39940F575E195A4
:104CA4009015B4124CC7F0A3124CC7124C52741492
:104CB400124D4874040255788808742E2508F5822C
:104CC400740D227482124CD4124CD4F0A3741122A9
:104CD400F0A37411F0A374822274F6121BCE124C4A
:104CE40021FA74064AF5D97800124C3540FB780055
:104CF4008006124CBC125303E8C39940F5124D369A
:104D0400124C3540FB78008008125F0C740D12536E
:104D140003E8C39940F375E1959015B4747CF0A34E
:104D24007411125026124C4F7415124D487403021C
:104D34005578900D4DE0F9740729F5D974044AF5B6
:104D4400D9780022F09009C922C082C083900D84D2
:104D54007425F0900D827401F0A3E4F07A01FB1243
:104D64001512900D70124D947418F0A37412F090F3
:104D74000D81E064017016900D80E07010790112CD
:104D840015781215421215727900121584024AB769
:104D9400124E9B2416F582E8125AA12274F6121BB5
:104DA400CE74FA121B59900D79E064017008121147
:104DB400F4900D79E4F075E1F1900D70124E9B249E
:104DC40015F582E81259CE7401F0900D7BE0640170
:104DD40070539094CEC082851882851983AC82ADBD
:104DE40083758394D0827406121A6C75D90D900D54
:104DF40072124C2E4403F5D9780088087473125F3C
:104E040010740D124C3F40F2780088088518828592
:104E14001983E582125F10E583124C3F40EC75E183
:104E2400957901800279001215189015B474B0F0C8
:104E3400A37413F0A374B6F0A37413124EB1124EFC
:104E4400B1124EBA124EC6F0A374BCF0A37413127E
:104E54004ECD900D72E0F97A737B0D1214E8900D2B
:104E640084E0F9122983790112151E909527121AEC
:104E74004712153690953B121A471214F479001212
:104E84001590900D70124EA17416124D487405F0D1
:104E940004121B6F025579E0F8A3E0C822124EA554
:104EA40022124E9B2414F582E8125AA522F0A37410
:104EB400B0F0A3741322124EC0F0A322124EC422E7
:104EC400F0A3747AF0A3741322124ED122F0901539
:104ED400C2124EC6125031124EC6124EC4F0227483
:104EE400F4121BCE8908A808125D87900D89E0F999
:104EF4007A8A7B0D1214E8900D97E0701A790012EB
:104F0400155A900D08E070047900800279017A093D
:104F14007B0D1214EE8005790112155A75E1F175B5
:104F2400D923900D89124C2E4405F5D97800880AAE
:104F3400748A250AF582740D124C3F40F175D9002C
:104F440075D90075D90075D90075D90075D9007A5D
:104F5400001261D624221253C740F67A001261D699
:104F64002426F582E91255FA0AEAC3940340EEEEC8
:104F7400242B1255F77A001261D6242C1253CD40FB
:104F8400F67A001261D6242E1253CD40F67A00121E
:104F940061D624301253CD40F67A001261D6243201
:104FA4001253CD40F67A008A0AEE250AF8EF125A17
:104FB400911253D9940540EFEE2437F582EF125C39
:104FC400D7541FF8EE242AF582EF125CD7C4335469
:104FD400E048F5D975E1959015B47480F0A3741385
:104FE400F0A37486F0A37413125026F0A3748CF00B
:104FF400A37413124ECD900D96E0F9122983909567
:1050040027121A4712153690953B121A471214F4B8
:1050140090600DE4F079011215909009C9740602AC
:105024004A6712502D124EC6221250312212503E9F
:10503400747AF0A3741312503E22F0A3747AF0A38E
:105044007413F0A32274EC121BCE900D87125D9E94
:105054007810121A29900D98E0FAF875F005A4C892
:10506400ACF02CF9742728F582740A39F583E0FE34
:10507400A3E0FFEEC333FEEF33FF8E0CF50D750E88
:1050840000750F0085100885110985120A85130B18
:10509400909513780812198F7808121DDD85100871
:1050A40085110985120A85130B7808790C12197C6D
:1050B4007810790C1218D4E4F50EF50F7808790CF1
:1050C4001219B58A0C750D007403780C121B4678FE
:1050D40008790C12197C90958378081219F0AA08A3
:1050E400AB09AC0AAD0B1227797404121B6F8A0842
:1050F4008B09A808A909C3EE98EF995006E82EF881
:10510400E93FF9E890600EF0E9A3F0EEA3F0EFA315
:10511400F090600D74C1F07F0C021CA0C082C083AB
:10512400900D1B1251941259CEE402473A74F712AF
:105134001BCE9009F7E0125ED139F9E82405FAE9AB
:10514400126122A3A3A3A3A3A3A3A3A3ECF0A3ED9F
:10515400125D1BA3E024FFF8A3E034FFF98A828BDD
:1051640083E8F0A3E9F0025606C082C083900D7074
:1051740012518D900D84024AB2C082C083900D8773
:1051840012518D900D96024AB21251941257112267
:10519400124E9B2406F582E82202012274F2121BAD
:1051A400CE12530AF50AEF1257EF60047804800216
:1051B4007800E8240EF8EAC3985003025267750891
:1051C4000C900DA2E4F0EE2476F582EF125CD790F9
:1051D4000DA3F07902EE2477FCEF3400FD7AA47B72
:1051E4000D1212FC7902EE2479FCEF3400FD121248
:1051F400FC7902EE247BFCEF3400FD1212FC7902F0
:10520400EE247DFCEF3400FD1212FCEE24741253E4
:10521400201212FC850A82850B83E0601E7508A2A9
:1052240075090D7808121DE17C0C7903EEFAEFFB89
:1052340012136E7402121B6F75081074012508F5A1
:10524400D975D90378008009880A74A2250A1252F4
:10525400FFE8C3950840F175E195790412153C798E
:1052640001800279007F06021CA074F2121BCE1288
:10527400530AF508EF3400F509850882F583E060E8
:1052840004780480027800E8240AF8EAC3984060AD
:10529400750A08900DA27401F079057C0F7D0D7AD2
:1052A400A37B0D1212FCEE24801253201212FC85F3
:1052B4000882850983E0601E7508A275090D7808C7
:1052C400121DE17C087903EEFAEFFB12136E7402EF
:1052D400121B6F750A0C12567B80031252F9E8C335
:1052E400950A40F775E195790412153C790180021D
:1052F4007900025269880874A22508F582740D1297
:105304005CDBF5D9082212530E22EAFEEBFF906112
:10531400D0E0F87480C398FAEE248222FCEF3400C3
:10532400FD8E828F83A3A3A3A3A31262998C828D83
:1053340083E028F0A3E039F079022274F6121BCE40
:10534400EAFEEBFF9061D0E0707475D91875D9034B
:1053540075D9037A008A08EE25081261DB249B12B2
:10536400547040F17A008A08EE25081261DB24A308
:105374001253CD40F17A008A08EE25081261DB242D
:105384009312547040F17A008A08EE25081261DB0A
:1053940024871253C740F175E1957908EE2493FAF6
:1053A400EF3400FB1213027904EE2487FAEF340081
:1053B400FB121302790412153C125479800279000D
:1053C4000255791253D39404221253D3940222F532
:1053D40082E9125AA5E0F5D90AEAC32274F6121B2F
:1053E400CEEAFEEBFF9061D0E0707C75D90E75D9E2
:1053F4000375D9047A008A08EE25081261DB248B30
:1054040012547040F17A008A08EE25081261DB24F8
:10541400831253C740F175E1957908EE248BFAEFB6
:105424003400FB1213027904EE2483FAEF3400FBF8
:105434001213027C008C82AA82C3E49AF895E0F9E4
:10544400EE28F8EF39F9E8248A125CD4C0E0EE2A99
:105454001261DB24AA1259CBD0E0F00CECC39408FF
:1054640040D3125479800279000255791253D394AF
:10547400082275E195EE246FF582EF125AA11262AB
:1054840099EE2471F582EF125AA1E8F0A3E9F079BC
:105494000122C082C08375D90275D90375D90575F7
:1054A400E195EA246FF582EB1254BBEA2471F5828C
:1054B400EB12548B024AB73400F5831262992274BA
:1054C400F6121BCEEAFEEBFF900DA2740612556C89
:1054D400121DE17C01790312136E7402121B6F75A5
:1054E400D90675D903780012555240FB75E19590A1
:1054F40009C9E064087017EE246FF582EF1254BBFB
:10550400EE2471F582EF1259CEE8F0A3E9F07901A7
:10551400806374F6121BCEEAFEEBFF9061D0E0705C
:1055240029900DA2740A12556C121DE17C017903B5
:1055340012136E7402121B6F75D90675D9037800A5
:1055440012555240FB125476800279008027880855
:1055540074A22508F582740D125562940522125A1C
:10556400A5E0F5D908E8C322F07508A275090D78FD
:1055740008227401F07F02021CA074F6121BCEEA0A
:10558400FEEBFF9061D0E070417901900DA2740BA5
:10559400124D48E0640770197508A275090D780862
:1055A400121DE17C01090912136E7402121B6F793A
:1055B40005740129F5D975D903780080031252F9CD
:1055C400E8C39940F81254768002790080A774F7F2
:1055D400121BCEEAFEEBFF75D90375D90375D90DFD
:1055E400EE24DD1255F775E195790412153C125439
:1055F40079800FF582EF125CDBF5D922A2E092AF3D
:1056040079007F01021CA074F5121BCE1257196099
:1056140004780480027800E8240BF8EAC398405226
:10562400750A09900DA27408F0F91256FA1212FCC8
:10563400850882850983E0601E7508A275090D78C6
:1056440008121DE17C097903EEFAEFFB12136E7464
:1056540002121B6F750A0D12567B80031252F9E871
:10566400C3950A40F775E195790412153C125479F3
:105674008002790002596F7401250AF5D975D9039E
:1056840078002274F5121BCE125719600478048036
:10569400027800E8240BF8EAC3984055750A09908B
:1056A4000DA27409F079081256FA1212FC850882C8
:1056B400850983E0601E7508A275090D7808121D1E
:1056C400E17C097903EEFAEFFB12136E7402121BEC
:1056D4006F750A0D12567B80031252F9E8C3950ABE
:1056E40040F775E195790412153C1257077901804A
:1056F40002790002596FEE24E4FCEF3400FD7AA332
:105704007B0D22EE241DF582EF12571122125AA5A9
:10571400E4F0A3F02212530EF8EF125722223400C1
:10572400F9880889098882F583E02274F3121BCE74
:105734008A088B09125885FAE5082482F50AEB12C7
:1057440057EF6004780480027800E82408F8EAC37C
:105754009850030257E8750C06900DA2740CF09053
:1057640009E6E0900DA3F07402C0E0F97CE77D093E
:105774007AA47B0D1212FCD0E0F97CE97D091212A7
:10578400FC850A82850B83E0601E750AA2750B0DE9
:10579400780A121DE17C067903AA08AB0912136E7C
:1057A4007402121B6F750C0A7401250CF5D975D996
:1057B4000378008009880A74A2250A1252FFE8C3FC
:1057C400950C40F175E195790412153CE508246FB8
:1057D400F582E5091254BBE5082471F582E5091246
:1057E400548B800279007F05021CA03400F50B85E0
:1057F4000A82F583E02274F6121BCEEAFEEBFF1256
:105804005885FCEE2482F8EF12590860047A04806B
:10581400027A00EA2404FAECC39A40607A02900DFA
:10582400A2EAF0EE24F6F582EF12588F601B750899
:10583400A275090D7808121DE17C027903EEFA12B3
:10584400136E7402121B6F7A0674012AF5D975D986
:1058540003780080031252F9E8C39A40F875E19581
:10586400EE2473125F15EE247F125F151257077929
:105874000412153CEE240D12547C8002790002556A
:10588400799061D0E0F87480C39822125CDB900DAB
:10589400A3F088828983E02274F6121BCE12588505
:1058A400FEEA2482F8EB12590860047C0480027C2E
:1058B40000EC2404FCEEC39C40457C02900DA274D1
:1058C40007F0EA24F7F582EB12588F60177508A2E7
:1058D40075090D7808121DE1790312136E74021212
:1058E4001B6F7C0674012CF5D975D90378008003ED
:1058F4001252F9E8C39C40F875E195790180027968
:10590400000255793400F988828983E02274F51203
:105914001BCEE9FEA2AFE433F50AC2AF7F00EA244E
:105924006EF8EB3400F980010F88828983E0F50872
:10593400EFC3950850188F08EA2508FCEB3400FDE6
:10594400EC246AF582ED125CD76E70DC8017EA25D0
:1059540008FAEB3400FBEA246AF582EB1259CEEE26
:1059640012589504F0E50AA2E092AF7F03021CA04E
:1059740074F6121BCEA2AFE433FFC2AFEA246EF872
:10598400EB125FC4E014F07E0080198E08EA25084B
:10599400F8EB1261DD246B125CD4C0E0E81259C943
:1059A400D0E0F00E8C828D83E0F8EEC39840DCEA00
:1059B400246DF582EB1259CE74FF1259F2EFA2E076
:1059C40092AF025579246AF582E9125AA122C08263
:1059D400C083E5A8F8C2AFEA246AF582EB1259CE77
:1059E400E91259F2E8A2E7A2E792AF024AB7F0EA55
:1059F40024691259FA22F582EB125AA5E4F02274B2
:105A0400F2121BCE8C828D83A3A3A3A3E0541FF0B8
:105A1400EA2436125FBA8E828F83E4F0F50C850C8B
:105A24008285820AEC250AF8ED125722C0E0EA25A5
:105A34000AF8EB125A91D0E0F0750D0085088285C2
:105A44000983E0F50A750B00E50D780A121B27E5BA
:105A54000AA2E05023E50C33333354F8250DC0E09B
:105A64008E828F83E0F8125C7424381259CBD0E014
:105A7400F08E828F83E004F0050DE50DC394084099
:105A8400BB050CE50CC3940540940252693400F93B
:105A9400E8245DF582E9125AA122F582EB125AA597
:105AA400223400F5832274F4121BCE9009F5E064CD
:105AB400037003025C577E00EEF875F005A4C8AAD3
:105AC400F02AF974FB28F582740939F583E0600340
:105AD400025C4D74F928FA740939FB8A828B83A31A
:105AE400A37401126230A3A3A3E4F0EA2404F8EB44
:105AF4001261DDFCE9FDEE8C828D83F0EA246212F2
:105B04005C5E2467F582EB1259CE7401125C86E464
:105B1400F0A3125C86A3A3125C81240F125C5E24A2
:105B240035F582EB125F18F508F509F50AF50BEA6D
