:020000040800F2
:100000000006002001010008951300080D130008E8
:100010006913000869100008011E000800000000B4
:10002000000000000000000000000000111800089F
:1000300099100008000000002515000809190008A3
:100040001B0100081B0100081B0100081B01000820
:100050001B0100081B0100081B0100081B01000810
:100060001B0100081B0100081B0100081B01000800
:100070001B0100081B0100081B0100081B010008F0
:100080001B0100081B0100081B0100081B010008E0
:100090001B0100081B0100081B0100081B010008D0
:1000A0001B0100081B0100081B0100081B010008C0
:1000B0001B0100081B0100081B0100081B010008B0
:1000C0001B0100081B0100081B0100081B010008A0
:1000D0001B0100086D190008C11900082D1A00083D
:1000E0001B0100081B0100081B010008DFF80CD0F1
:1000F00000F0B6F9004800472D2F00080006002048
:100100000648804706480047FEE7FEE7FEE7FEE7B1
:10011000FEE7FEE7FEE7FEE7FEE7FEE70D19000853
:10012000ED000008D2B201E000F8012B491EFBD21D
:1001300070470022F6E710B513460A4604461946F2
:10014000FFF7F0FF204610BD30B50EE003460A462B
:1001500001E05B1C521C1C781578AC4201D1002CCC
:10016000F7D115F0FF0F04D0401C0278002AEDD122
:10017000002030BD10B5044604E00B7800F8013BC8
:1001800003B1491C521EF8D2204610BD0146002082
:1001900000E0401C0A5C002AFBD170470FB400B598
:1001A0008DB010A909900B9000914FF0FF300A908C
:1001B00000200C9005480690054807906A4609A85B
:1001C0000F9900F0E7F80DB05DF814FBB1030008DB
:1001D000CF0300082DE9FF5F1D464FF0FF3BD5E937
:1001E000014691465F464FF00008A9697F1C0198BF
:1001F0008847296A824688470028F6D11AF101000B
:100200000CD024F4C064002E19DD600614D5BAF1B8
:100210002B0F09D0BAF12D0F0ED103E0584604B0D0
:10022000BDE8F09F44F48064A9697F1C0198884769
:10023000761E8246002E02DDBAF1300F03D0B9F1EE
:10024000000F26D032E0761EA96944F400747F1CAA
:10025000019888478246002E05DDBAF1780F06D056
:10026000BAF1580F03D0B9F1000F10D01EE0B9F168
:10027000000F02D0B9F1100F18D1761EA96924F42D
:1002800000747F1C019888478246102002E00820F5
:1002900000E00A20814609E008FB0908761EA969EA
:1002A00044F400747F1C019888478246002E05DDC7
:1002B0004946504600F059F80028EDDAE9690198FE
:1002C0008847A00502D46FF00100A8E7E00727D116
:1002D000600614D5600502D5C8F1000000E0404674
:1002E000296801F104022A600968220501D5087015
:1002F00016E0220701D5088012E0086010E02868A7
:1003000000F1040129600068210502D580F8008011
:1003100006E0210702D5A0F8008001E0C0F80080C7
:1003200038467CE770B5064602F0F2FB04680546E5
:100330000A220021304600F05BF82C6070BD30B519
:100340000B46014600202022012409E021FA02F593
:100350009D4205D303FA02F5491B04FA02F528442D
:10036000151EA2F10102F1DC30BD3A2800D230386E
:1003700020F02002412A01D3A2F13700884201D3A4
:100380004FF0FF307047000002681144137801609D
:1003900018467047D1600449516104491162002137
:1003A0001161114600F07CB8890300088D04000833
:1003B000426842B1016811F8013B23B1521EC0E905
:1003C0000012184670470121C160881E70474268BC
:1003D0005AB1C368016843B983688B4205D0491E8E
:1003E000521CC0E90012002070474FF0FF307047E8
:1003F0002DE9F04791460F4680460446002614F842
:10040000015B2DB100F03EF80068405DC007F6D1F9
:100410002B2D02D02D2D18D0641E4A463946204679
:1004200000F0D4F927B13968A14201D1C7F80080A2
:1004300071054FF002040BD54042002803DD02F0A5
:1004400067FB0460A007BDE8F08746F48066E4E738
:100450000028F8DA02F05CFB04606FF00040F2E77D
:10046000064C074D06E0E06840F0010394E8070001
:1004700098471034AC42F6D3FFF73CFEB433000883
:10048000D433000800487047B033000810B5044664
:10049000FFF7F8FF0068005D00F0010010BD0000EC
:1004A0002DE9F34F8BB04FF0000801F10C000C4622
:1004B0004FF0010B46460DF1080A019062690121D7
:1004C0000198904705002DD0252D2CD0216A884712
:1004D000C0B16269012101989047216A88470028CC
:1004E000F7D1411E62690198904700E0761CA1692E
:1004F0000B988847216A88470028F7D1E1690B9853
:100500008847DBE7A1690B9888470746A84201D1D5
:10051000761CD3E7E1690B9888477F1C02D1B8F1BC
:10052000000F6FD045E1002762693D4639460198CA
:1005300090472A2804D1626901210198904701253A
:10054000DFF884926269012101989047A0F130019F
:100550000A290AD24F45E5DC07EB870100EB41078A
:10056000303FDFD445F01005ECE7E90601D46FF029
:1005700000476C280AD04C2814D0682815D06A2867
:100580000DD074281CD07A281AD01DE06269012190
:10059000019890476C2802D045F0040514E045F01E
:1005A00002050DE045F020050AE06269012101988D
:1005B0009047682802D045F0080505E045F400653D
:1005C0006269012101989047C4E9015765283DD02F
:1005D00019DC582879D00CDC452837D004DC2528D4
:1005E00026D0412831D131E046282FD047282CD1C0
:1005F0002CE05B287FD0612828D063287BD064283A
:1006000023D159E0CFE06F2847D008DC66281DD001
:1006100067281BD0692821D06E2816D127E07028C2
:1006200044D0732867D0752846D078280DD14CE087
:10063000A1690B988847054625283FF469AFE16911
:100640000B9888476D1C3FF46AAFB2E023466A46B8
:100650006FF001000B99AFF300809DE045F0400082
:100660006060A80723464FF0000235D43DE02068C3
:1006700000F1040121600068290501D506701DE71D
:10068000290701D5068019E7A90704D54FEAE671C5
:10069000C0E9006112E7066010E745F040006060C5
:1006A000A80723464FF0080216D41EE040F60E01BC
:1006B00025EA0100606016E045F040006060A80790
:1006C00023464FF00A0207D40FE045F04000606077
:1006D000A80708D5234610226FF001000B99AFF34D
:1006E000008059E007E0234610226FF001000B99CB
:1006F000FFF770FD50E04FF000094F464B4663286E
:1007000002D05B2806D040E0E80601D40120A060BA
:1007100001273AE062690121019890475E2805D1DE
:100720004FF001096269494601989047216939B93A
:1007300000210B46524642F82130491C0829FADBB9
:10074000B0B3216969B9C11700EBD1614B110AEB54
:10075000830221F01F01411A0120136888400343DE
:10076000136062690121019890475D28E8D1B9F1D1
:10077000000F09D00020514651F82020D24341F803
:100780002020401C0828F7DB02AB224600976FF0C0
:1007900001000B99AFF3008000280CDA401C08D14F
:1007A000BBF1000F05D04FF0FF300DB0BDE8F08F6A
:1007B000FFE74046F9E7E90701D108F101080644DF
:1007C0004FF0000B7AE60000CCCCCC0C2DE9F05FAA
:1007D00082460078002715468B460AF10104B94687
:1007E000302801D09DB113E014F8010B01277828BF
:1007F00003D0582801D045B10AE00DB1102D07D122
:100800000027102514F8010B02E0082500E00A2556
:100810000026B0460EE005FB080005FB06F10127A7
:1008200001EB10461FFA80F8B6F5803F00D3B946B9
:1008300014F8010B2946FFF798FD0028EBDABBF10D
:10084000000F05D00FB1641E00E05446CBF8004005
:10085000B9F1000F06D002F05BF902210160C81E59
:10086000BDE8F09F48EA0640FAE700002DE9F041B4
:1008700004460E4617460025C8211348FFF759FCC9
:1008800000201249086000BF0BE0615D104801F0D4
:10089000B2FA00BF40210E4801F0E0F90028F9D07B
:1008A0006D1C605D0028F0D1384602F0EFFA46B1C9
:1008B00031460548FFF748FC18B94FF0FF30BDE856
:1008C000F0810020FBE70000F40000201C00002065
:1008D00000480040FEB507460C4615461E46C82295
:1008E000002149A0FFF7C2FF38B1572349A24E4962
:1008F0004EA002F0E9F80120FEBD5A2345A24A4964
:1009000056A002F0E1F863485B2342A246490090FA
:1009100061A002F0D9F814225E493846FFF72AFC9C
:10092000C822002167A0FFF7A1FF38B15F2339A2D9
:100930003D4968A002F0C8F80120DDE7622335A236
:10094000394971A002F0C0F85248632331A23649F8
:1009500000907CA002F0B8F814224E492046FFF720
:1009600009FCC822002183A0FFF780FF38B167236C
:1009700028A22D4982A002F0A7F80120BCE76A2333
:1009800024A229498AA002F09FF842486B2321A2A1
:100990002549009094A002F097F802AA9DA13D4835
:1009A000FFF7FCFB0298C0B20299C1F30721CDE921
:1009B00000100298020EC0F3074397A1284602F0E8
:1009C00093F8C822002197A0FFF750FF38B1712398
:1009D00010A2154996A002F077F801208CE7742345
:1009E0000CA211499EA002F06FF82A48752309A2B3
:1009F0000D490090A8A002F067F8324685A125486D
:100A0000FFF7CCFB002077E741542B535349440DAB
:100A1000000000002E2E5C4253505C626C756554E1
:100A20006F6F74682E630000433200082573282915
:100A300020696E2025732C206C696E652025693A2B
:100A400020424C45207265616420737369642E2EC8
:100A50006661696C65640D0A000000002573282931
:100A600020696E2025732C206C696E652025693AFB
:100A700020424C45207265616420535349442073E1
:100A800075636365737366756C6C792121210D0A3A
:100A900000000000F40000202573282920696E2042
:100AA00025732C206C696E652025693A20494E46D5
:100AB0004F3A20535349442069733A2025730D0A55
:100AC0000000000041542B50415353574F52440DE6
:100AD000000000002573282920696E2025732C2032
:100AE0006C696E652025693A20424C45207265612B
:100AF000642070617373776F72642E2E6661696C07
:100B000065640D0A000000002573282920696E2005
:100B100025732C206C696E652025693A20424C456E
:100B200020726561642070617373776F72642073E3
:100B300075636365737366756C6C792121210D0A89
:100B4000000000002573282920696E2025732C20C1
:100B50006C696E652025693A20494E464F3A20500F
:100B6000415353574F52442069733A2025730D0A5D
:100B70000000000041542B484F53540D000000006A
:100B80002573282920696E2025732C206C696E65D9
:100B90002025693A20424C45207265616420686FC7
:100BA00073742E2E6661696C65640D0A0000000086
:100BB0002573282920696E2025732C206C696E65A9
:100BC0002025693A20424C45207265616420686F97
:100BD0007374207375636365737366756C6C7921C8
:100BE00021210D0A000000002573282920696E20AC
:100BF00025732C206C696E652025693A20494E4684
:100C00004F3A20484F53542069733A2025730D0AF8
:100C1000000000002578000025642E25642E256440
:100C20002E25640041542B504F52540D00000000FB
:100C30002573282920696E2025732C206C696E6528
:100C40002025693A20424C45207265616420504F4E
:100C500052542E2E6661696C65640D0A0000000016
:100C60002573282920696E2025732C206C696E65F8
:100C70002025693A20424C45207265616420706FDE
:100C80007274207375636365737366756C6C792118
:100C900021210D0A000000002573282920696E20FB
:100CA00025732C206C696E652025693A20494E46D3
:100CB0004F3A20504F52542069733A2025730D0A41
:100CC0000000000010B524230DA2124912A001F06B
:100CD000FBFEC8221AA11BA0FFF7C8FD40B12623C6
:100CE00007A20C4919A001F0EFFE4FF0FF3010BD34
:100CF000292303A2074922A001F0E6FE0020F6E71F
:100D00002E2E5C4253505C626C7565546F6F746834
:100D10002E6300002D3200082573282920696E20DB
:100D200025732C206C696E652025693A200D0A49CF
:100D30006E697420424C452E2E2E0D0A00000000D4
:100D40004F4B000041540D0A000000002573282974
:100D500020696E2025732C206C696E652025693A08
:100D6000200D0A424C4520696E6974696174696F8F
:100D70006E206661696C65642121210D0A00000006
:100D80002573282920696E2025732C206C696E65D7
:100D90002025693A200D0A424C452069732072656E
:100DA0006164792121210D0A00000000F8B5044694
:100DB0000D460026322331A2354936A001F084FECB
:100DC00040F6B8323CA13FA0FFF750FD38B13423C4
:100DD0002AA22F493EA001F077FE701EF8BD3723EE
:100DE00026A22B4944A001F06FFE392323A22849F3
:100DF0004AA001F069FEC822002155A0FFF736FD88
:100E000040B13B231DA2224954A001F05DFE6FF0CA
:100E10000100E3E73E2319A21D495EA001F054FE44
:100E200069483F2315A21A49009068A001F04CFEC2
:100E30006548FFF777FA06465EB900202060286013
:100E400045230EA212496EA001F03EFE6FF0020093
:100E5000C4E74FF4FA72002174A0FFF707FD5A4867
:100E60004A2306A20A49009073A001F02DFE5648BD
:100E70002060FFF78BF928600020AFE72E2E5C4240
:100E800053505C626C7565546F6F74682E6300001C
:100E9000363200082573282920696E2025732C20FE
:100EA0006C696E652025693A20424C452073636168
:100EB0006E2E2E0D0A000000446973636F76657212
:100EC000696E670041542B5343414E0D0A000000E8
:100ED0002573282920696E2025732C206C696E6586
:100EE0002025693A20424C45207363616E2E2E66A0
:100EF00061696C65640D0A002573282920696E20DC
:100F000025732C206C696E652025693A20424C457A
:100F1000207363616E2E2E4F4B0D0A002573282916
:100F200020696E2025732C206C696E652025693A36
:100F300020424C452072656164206E756D62657259
:100F4000206F662063617264732E2E0D0A0000000C
:100F500041542B434152444E554D0D0025732829D1
:100F600020696E2025732C206C696E652025693AF6
:100F700020424C452072656164206E756D62657219
:100F8000206F662063617264732E2E6661696C65E2
:100F9000640D0A002573282920696E2025732C20F2
:100FA0006C696E652025693A20424C452072656166
:100FB00064206E756D626572206F66206361726475
:100FC000732E2E4F4B0D0A00F400002025732829A4
:100FD00020696E2025732C206C696E652025693A86
:100FE00020494E464F3A206E756D626572206F66DD
:100FF0002063617264732069733A2025730D0A00BF
:101000002573282920696E2025732C206C696E6554
:101010002025693A205741524E3A206E6F20636175
:1010200072647320666F756E640D0A0041542B471D
:101030004554444154410D002573282920696E20F0
:1010400025732C206C696E652025693A20494E462F
:101050004F3A20636172647320646174613A0D0ACF
:1010600025730D0A000000000AE006A001F02CFD27
:1010700072B671B64FF4FA6001F008FF00F040FA62
:10108000F3E700000D0A4552524F525F4275734616
:1010900061756C740D0A000005A001F015FD72B6B3
:1010A00071B64FF4FA6001F0F1FE00F029FA000089
:1010B0000D0A4552524F525F44656275674D6F6E1F
:1010C00069746F720D0A00000549096821F010016A
:1010D000034A11601146096801431160704700001E
:1010E0000020024001460020034A106800F038004A
:1010F00008431060704700000020024008B54FF61A
:10110000FF70ADF8000000208DF8030003208DF87B
:1011100002004FF40070ADF8000018208DF80300B5
:1011200003208DF8020069462D4800F05DF84FF469
:101130008060ADF8000004208DF80300694628485F
:1011400000F052F80420ADF8000018208DF80300DC
:1011500003208DF802006946214800F045F8082078
:10116000ADF8000004208DF8030069461C4800F02B
:101170003BF84FF48060ADF8000018208DF80300B4
:1011800003208DF802006946164800F02DF84FF450
:101190000060ADF8000004208DF8030003208DF8F6
:1011A000020069460F4800F01FF82020ADF800004B
:1011B00010208DF8030002208DF8020069460948CE
:1011C00000F012F84020ADF8000010208DF8030068
:1011D00002208DF802006946024800F005F808BDBB
:1011E00000080140000C01402DE9F04102460025B5
:1011F0000026002000230024002791F803C00CF0F3
:101200000F0591F803C01CF0100F03D091F802C035
:101210004CEA050591F800C0BCF1000F31D014680C
:1012200000202BE04FF0010C0CFA00F3B1F800C0E5
:101230000CEA03069E4220D183004FF00F0C0CFAFB
:1012400003F7BC4305FA03FC4CEA040491F803C01D
:10125000BCF1280F06D14FF0010C0CFA00FCC2F8CB
:1012600014C00AE091F803C0BCF1480F05D14FF05B
:10127000010C0CFA00FCC2F810C0401C0828D1D3A5
:101280001460B1F800C0BCF1FF0F34DD54680020D9
:101290002EE000F1080C4FF0010808FA0CF3B1F849
:1012A00000C00CEA03069E4221D183004FF00F0CD0
:1012B0000CFA03F7BC4305FA03FC4CEA040491F86A
:1012C00003C0BCF1280F05D100F1080C08FA0CF896
:1012D000C2F8148091F803C0BCF1480F07D100F1A7
:1012E000080C4FF0010808FA0CF8C2F81080401CF6
:1012F0000828CED35460BDE8F08141617047016198
:1013000070470AB1016100E0416170470AE006A040
:1013100001F0DAFB72B671B64FF4FA6001F0B6FD77
:1013200000F0EEF8F3E700000D0A4552524F525F0D
:10133000486172644661756C740D0A0010B5012233
:1013400040210848FFF7DDFFC82001F09FFD002283
:1013500040210448FFF7D5FF40210248FFF7CDFFA9
:1013600010BD0000000C01400AE006A001F0ACFB3B
:1013700072B671B64FF4FA6001F088FD00F0C0F863
:10138000F3E700000D0A4552524F525F4D454D0D97
:101390000A00000005A001F097FB72B671B64FF489
:1013A000FA6001F073FD00F0ABF800000D0A455241
:1013B000524F525F4E4D490D0A00000008B54FF4E0
:1013C000E06000F093F825208DF8000002208DF8F1
:1013D000010000208DF8020001208DF8030068460E
:1013E00000F04AF84FF4E06000F080F826208DF815
:1013F000000000208DF801008DF8020001208DF81A
:101400000300684600F038F84FF4E06000F06EF832
:1014100027208DF8000001208DF8010000208DF8B4
:10142000020001208DF80300684600F025F84FF413
:10143000C06000F05BF829208DF8000000208DF8D6
:1014400001008DF802008DF80300684600F014F8E2
:101450004FF4A06000F04AF81D208DF80000002035
:101460008DF801008DF8020001208DF80300684618
:1014700000F002F808BD000070B5002100230F2223
:10148000C4780CB3164C246804F4E064C4F5E0643A
:10149000210AC1F10403CA40447804FA03F18478B4
:1014A0001440214309010F4C0678A155047804F03B
:1014B0001F050124AC4005786D114FF0E02606EBC6
:1014C0008505C5F8004109E0047804F01F050124F2
:1014D000AC40054D0678761145F8264070BD0000F9
:1014E0000CED00E000E400E080E100E0024901438F
:1014F000024A1160704700000000FA050CED00E0A0
:101500000648006800F4E06005490843001D0349EF
:101510000860BFF3408F00BFFEE700000CED00E065
:101520000000FA0505A001F0CFFA72B671B64FF4CB
:10153000FA6001F0ABFCFFF7E3FF00000D0A455233
:10154000524F525F44656275674D6F6E69746F727A
:101550000D0A000029B1064AD2690243044BDA6140
:1015600004E0034AD2698243014BDA61704700000C
:101570000010024029B1064A92690243044B9A6165
:1015800004E0034A92698243014B9A61704700006C
:101590000010024010B500F03BF8012000F0FAF80E
:1015A00000BF212000F0C4F80028FAD01020FFF777
:1015B0008BFD0220FFF796FD002000F0DFF80020F1
:1015C00000F0FAF8002000F0EBF84FF46011002072
:1015D00000F004F9012000F0FBF800BF392000F012
:1015E000A7F80028FAD0022000F006F900BF00F0AA
:1015F000BDF80828FBD1012144F23D00FFF7BAFFF6
:1016000001210248FFF7A6FF10BD000002000618E6
:101610000F48006840F001000D4908600846406826
:101620000C4908400A494860084600680A490840D1
:10163000074908600846006820F4802008600846D2
:10164000406820F4FE0048604FF41F008860704737
:10165000001002400000FFF8FFFFF6FE30B5002149
:101660000022002400232D4D6D6805F00C0121B1EE
:10167000042905D0082923D105E0294D056022E081
:10168000274D05601FE0254D6D6805F47012234D50
:101690006D6805F48034022505EB92421CB9214D9A
:1016A000554305600BE01D4D6D6815F4003F03D0F8
:1016B0001C4D5543056002E0194D5543056002E09D
:1016C000174D056000BF00BF144D6D6805F0F001B7
:1016D0000909154D6B5C0568DD4045600F4D6D686F
:1016E00005F4E061090A104D6B5C4568DD408560DA
:1016F0000A4D6D6805F46051C90A0B4D6B5C456875
:10170000DD40C560054D6D6805F44041890B074D0E
:101710006B5CC568B5FBF3F5056130BD0010024098
:1017200000127A0000093D00000000201000002097
:1017300010B501460022002300204A11012A02D1DF
:10174000094C236806E0022A02D1074C236A01E013
:10175000054C636A01F01F02012494401C4201D031
:10176000012000E0002010BD001002400248406847
:1017700000F00C00704700000010024001460020FD
:10178000034A506820F0F0000843506070470000A2
:10179000001002400149086070470000000042420A
:1017A00001460020034A506820F4E060084350607E
:1017B000704700000010024001460020034A5068B4
:1017C00020F4605040EAC1005060704700100240B1
:1017D00001490866704700000000424202460020AE
:1017E000044B586820F47C1042EA01031843014B73
:1017F000586070470010024001460020034A5068BC
:1018000020F00300084350607047000000100240C1
:1018100005A001F059F972B671B64FF4FA6001F003
:1018200035FBFFF76DFE00000D0A4552524F525F27
:101830005356430D0A00000010B500F001F810BD2A
:10184000002100202E4A126842F480322C4B1A608C
:1018500000BF2B4A126802F40030491C10B9B1F5E0
:10186000A06FF6D1264A126812F4003F01D0012081
:1018700000E00020012842D1224A126842F0100202
:10188000204B1A601A46126822F003021A601A46A8
:10189000126842F002021A60194A5268184B5A60E4
:1018A0001A4652685A601A46526842F480625A6078
:1018B0001A46526822F47C125A601A46526842F460
:1018C000E8125A601A46126842F080721A6000BF2D
:1018D0000B4A126812F0007FFAD0094A526822F0CF
:1018E0000302074B5A601A46526842F002025A60DD
:1018F00000BF034A526802F00C02082AF9D170476F
:1019000000100240002002407047000010B513484C
:10191000006840F00100114908600846406810491D
:1019200008400E494860084600680E4908400B49C7
:1019300008600846006820F4802008600846406877
:1019400020F4FE0048604FF41F008860FFF774FF2A
:101950004FF000600449086010BD00000010024014
:101960000000FFF8FFFFF6FE08ED00E010B5402193
:101970001048FFF7C4FC20210F4800F06FF90F4911
:10198000087008460078012812D10B4800F02EFAA2
:1019900004462146084800F02EFA00BF40210648C0
:1019A00000F05CF90028F9D040210248FFF7A5FCBF
:1019B00010BD0000000C0140003801401400002060
:1019C00010B50821164800F049F930B10821144833
:1019D00000F062F8124800F009FA40F22551104870
:1019E00000F049F9D0B10E4800F000FAC4B20D4839
:1019F00001680068401C0B4A10600B4844540020EA
:101A000009491268885407480068C82802D900208C
:101A1000044908602021024800F03EF810BD000093
:101A200000440040180000202C00002010B50821C0
:101A3000164800F013F930B10821144800F02CF8D2
:101A4000124800F0D3F940F22551104800F013F984
:101A5000D0B10E4800F0CAF9C4B20D480168006860
:101A6000401C0B4A10600B4844540020094912687E
:101A7000885407480068C82802D900200449086033
:101A80002021024800F008F810BD00000048004086
:101A90001C000020F400002001F40072B2F5007F69
:101AA00000D100BFCA430280704721B1828942F44D
:101AB0000052828104E082894DF6FF731A408281D0
:101AC0007047000000B585B0012144F20400FFF723
:101AD00051FD4FF40070ADF8100018208DF8130080
:101AE00003208DF8120004A95748FFF77DFB4FF43F
:101AF0008060ADF8100004208DF8130003208DF8ED
:101B0000120004A95048FFF76FFB4FF4E13000903A
:101B10000020ADF80400ADF80600ADF80800ADF8FF
:101B20000C000C20ADF80A006946484800F0F2F8B5
:101B3000012240F22551454800F0C7F801214348F1
:101B4000FFF7B3FF01214804FFF704FD0121042042
:101B5000FFF710FD0420ADF8100018208DF81300D9
:101B600003208DF8120004A93748FFF73DFB082039
:101B7000ADF8100004208DF8130003208DF812003A
:101B800004A93148FFF730FB4FF4E130009000200A
:101B9000ADF80400ADF80600ADF80800ADF80C0093
:101BA0000C20ADF80A006946294800F0B3F801227C
:101BB00040F22551264800F088F801212448FFF71B
:101BC00074FF01218804FFF7C5FC01210820FFF7FD
:101BD000D1FC4FF48060ADF8100018208DF8130090
:101BE00003208DF8120004A91A48FFF7FDFA4FF4FC
:101BF0000060ADF8100028208DF8130003208DF848
:101C0000120004A91348FFF7EFFA4FF4E1300090F7
:101C10000020ADF80400ADF80600ADF80800ADF8FE
:101C20000C000C20ADF80A0069460B4800F072F871
:101C3000012240F22551084800F047F801210648EA
:101C4000FFF733FF05B000BD000801400038014038
:101C500000440040000C01400048004002460020C3
:101C6000B1F5007F00D100BF13880B4201D00120E5
:101C700000E00020704770B50246002400230025D4
:101C80000020A1F510666A3E00D100BFC1F34215E5
:101C900001F01F03012606FA03F3012D02D19689F4
:101CA000334006E0022D02D1168A334001E0968AC5
:101CB00033400C12012606FA04F41688344013B19E
:101CC0000CB1012000E0002070BDF0B503460024F7
:101CD000002600250020A1F510676A3F00D100BF53
:101CE0001846C1F3421401F01F06012707FA06F552
:101CF000012C01D10C3004E0022C01D1103000E0A5
:101D000014301AB107682F43076002E00768AF4339
:101D10000760F0BD2DE9F04786B005460E46002469
:101D2000A24600BFA1460027B08900B100BF2F46E0
:101D30002C8A4CF6FF700440F08804432C82AC8956
:101D40004EF6F3100440B088318908437189084386
:101D50000443AC81AC8A4FF6FF400440B089044391
:101D6000AC8201A8FFF77AFC1F48874202D1DDF858
:101D700010A001E0DDF80CA0A88910F4004F08D0F5
:101D80000AEBCA0000EB0A1031684900B0FBF1F819
:101D900007E00AEBCA0000EB0A1031688900B0FBCB
:101DA000F1F86420B8FBF0F004012009642101FB84
:101DB0001089A88910F4004F08D0322000EBC90028
:101DC000B0FBF1F000F00700044308E0322000EB24
:101DD00009106421B0FBF1F000F00F0004432C81E6
:101DE00006B0BDE8F0870000003801400146888851
:101DF000C0F308007047C1F30802828070470000FA
:101E00000AE006A000F060FE72B671B64FF4FA6008
:101E100001F03CF8FFF774FBF3E700000D0A4552B0
:101E2000524F525F55736167654661756C740D0A58
:101E300000000000F8B504460E461746242316A2FB
:101E400019491AA0009400F03FFEC8211F48FEF770
:101E500070F900201E49086000250BE0615D1D48F7
:101E6000FFF7C9FF00BF40211A48FFF7F7FE00281F
:101E7000F9D06D1C605D0028F0D1384601F006F8FD
:101E80003EB131461148FEF75FF910B94FF0FF300F
:101E9000F8BD0020FCE700002E2E5C4253505C771A
:101EA0006966692E630000005032000825732829F6
:101EB00020696E2025732C206C696E652025693A97
:101EC00020574946493C3C25730D0A002C00002050
:101ED000180000200044004010B5522329A22D49CB
:101EE0002DA000F0F1FDC82239A13AA0FFF7A2FF12
:101EF00040B1542323A227493BA000F0E5FD6FF039
:101F0000010010BD57231FA2224946A000F0DCFDAE
:101F10005A231CA21F4951A000F0D6FDC8222CA1B3
:101F200059A0FFF787FF40B15C2316A219495BA0B7
:101F300000F0CAFD6FF00200E3E75F2311A215492C
:101F400062A000F0C1FD62230EA212496AA000F057
:101F5000BBFDC8221EA178A0FFF76CFF40B164232F
:101F600008A20C49784800F0AFFD6FF00300C8E705
:101F7000672304A207497448483000F0A5FD0020FB
:101F8000BFE700002E2E5C4253505C776966692ED5
:101F900063000000713200082573282920696E2033
:101FA00025732C206C696E652025693A20574946B7
:101FB000492073776974636820746F207374617447
:101FC000696F6E206D6F64652E2E0D0A0000000093
:101FD0004F4B000041542B43574D4F44455F4355F1
:101FE000523D310D0A0000002573282920696E201A
:101FF00025732C206C696E652025693A2057494667
:10200000492073776974636820746F2073746174F6
:10201000696F6E206D6F64652E2E6661696C6564F4
:102020000D0A00002573282920696E2025732C20B5
:102030006C696E652025693A2057494649207377B7
:102040006974636820746F2073746174696F6E20A3
:102050006D6F64652E2E4F4B0D0A000025732829E5
:1020600020696E2025732C206C696E652025693AE5
:10207000205749464920656E61626C65204448439B
:10208000502E2E0D0A00000041542B435744484364
:10209000505F4355523D312C310D0A0025732829DC
:1020A00020696E2025732C206C696E652025693AA5
:1020B000205749464920656E61626C65204448435B
:1020C000502E2E6661696C65640D0A0025732829FF
:1020D00020696E2025732C206C696E652025693A75
:1020E000205749464920656E61626C65204448432B
:1020F000502E2E4F4B0D0A002573282920696E2083
:1021000025732C206C696E652025693A2057494655
:102110004920656E61626C65206D756C7469706CC8
:102120006520636F6E6E656374696F6E73206D6F8B
:1021300064652E2E0D0A000041542B4349504D5525
:10214000583D310D0A000000A432000810B5A2B0BD
:10215000802102A8FDF7EDFF02AC24A1204600F08B
:10216000C3FC04442549204600F09DFE044424A1FC
:10217000204600F0B9FC04442249204600F093FEBA
:10218000044421A1204600F0AFFC044442F2107246
:102190001EA102A8FFF74EFE40B177231CA22049E2
:1021A00020A000F091FC012022B010BD13487A233A
:1021B00017A21B49009026A000F086FCC82213A19C
:1021C0002EA0FFF737FE38B17D2311A214492EA0AF
:1021D00000F07AFC0120E7E7364880230CA2104982
:1021E000009035A000F070FC0020DDE741542B4347
:1021F000574A41505F4355523D220000BC01002028
:10220000222C2200DD010020220D0A004F4B00008D
:102210002E2E5C4253505C776966692E6300000085
:102220007D3200082573282920696E2025732C2013
:102230006C696E652025693A20436F6E6E65637424
:10224000206661696C7572652121210D0A0000000C
:102250002573282920696E2025732C206C696E65F2
:102260002025693A20436F6E6E656374656420743F
:102270006F2025732121210D0A00000041542B43BA
:10228000494653520D0A00002573282920696E2003
:1022900025732C206C696E652025693A204765748A
:1022A000204950206661696C7572652121210D0AF3
:1022B000000000002C0000202573282920696E20D2
:1022C00025732C206C696E652025693A2043757250
:1022D00072656E742049503A25730D0A00000000A3
:1022E0007CB504460D46202221461848FDF742FFE2
:1022F000402229461648FDF73DFF154813493A2369
:1023000014A2CDE90010174917A000F0DDFB3C2313
:1023100010A214491EA000F0D7FB4FF47A7227A137
:1023200027A0FFF787FD40B13E230AA20D4926A052
:1023300000F0CAFB4FF0FF307CBD412305A20949E4
:102340002DA000F0C1FB0020F6E70000BC0100203A
:10235000DD0100202E2E5C4253505C776966692EA9
:10236000630000005A3200082573282920696E2076
:1023700025732C206C696E652025693A207373697A
:10238000643D25732C706173733D25730A00000052
:102390002573282920696E2025732C206C696E65B1
:1023A0002025693A2057494649206D6F64756C6550
:1023B00020696E69742E2E0D0A0000004F4B00003C
:1023C00041540D0A000000002573282920696E2061
:1023D00025732C206C696E652025693A2057494683
:1023E00049206D6F64756C6520696E69742E2E6668
:1023F00061696C65640D0A002573282920696E20C7
:1024000025732C206C696E652025693A2057494652
:1024100049206D6F64756C6520696E69742E2E4F4E
:102420004B0D0A0010B547230AA20E490EA000F07A
:102430004BFBC82217A118A0FFF7FCFC40B14923B1
:1024400004A2084917A000F03FFB4FF0FF3010BD79
:102450000020FCE72E2E5C4253505C776966692EA3
:1024600063000000643200082573282920696E206B
:1024700025732C206C696E652025693A20574946E2
:1024800049206D6F64756C652072657365742E2EBE
:102490000D0A00004F4B000041542B5253540D0ABB
:1024A000000000002573282920696E2025732C2048
:1024B0006C696E652025693A2057494649206D6F41
:1024C00064756C652072657365742E2E6661696C27
:1024D00065640D0A000000002DE9F041A2B0064637
:1024E0000C4617469846802102A8FDF722FE0025DB
:1024F0009E235EA2614962A000F0E6FA00F080FA35
:102500000546022D0BD0032D08D0042D0ED1A22399
:1025100056A25A4964A000F0D7FA41E08EE0A72302
:1025200052A256496EA000F0CFFA39E0AA234FA27A
:10253000524975A0009500F0C7FAAB234BA24F4952
:102540007FA000F0C1FAFFF7C7FC60B1AD2347A23E
:102550004A4985A000F0B8FAFFF764FF4FF0FF305A
:1025600022B0BDE8F081B12340A2444989A000F027
:10257000ABFAB3233DA2414990A000F0A5FAFFF7C2
:10258000E5FD30B1B52339A23C4996A000F09CFA94
:1025900054E0B82335A239499DA000F095FA4DE0EA
:1025A00000BF43463A46A4A102A800F09DFABD230D
:1025B0002EA23249A8A000F087FA4FF4FA72B0A117
:1025C00002A8FFF737FC30B1BF2328A22B49ADA0EA
:1025D00000F07AFA32E0C22324A22849B5A000F024
:1025E00073FA2246BEA102A800F07EFAC5231FA2FC
:1025F0002249C1A000F068FA4FF4FA72C8A102A8FB
:10260000FFF718FC30B1C72318A21C49C5A000F081
:102610005BFA13E0C822CFA13046FFF70BFC30B1C4
:10262000CC2312A21549BFA000F04EFA06E0CF233A
:102630000EA21249C9A000F047FA00BF4FF4FA7287
:102640008FA1D1A0FFF7F6FB40B1D32307A20B491E
:10265000D1A000F039FA4FF0FF3081E7D62303A272
:102660000649DBA000F030FA002079E72E2E5C420C
:1026700053505C776966692E630000009832000849
:102680002573282920696E2025732C206C696E65BE
:102690002025693A2057494649207374617475733F
:1026A0002E2E0D0A000000002573282920696E20B7
:1026B00025732C206C696E652025693A20494E46A9
:1026C0004F3A2057494649207374617475732064EA
:1026D0006973636F6E6E65637465640D0A00000054
:1026E0002573282920696E2025732C206C696E655E
:1026F0002025693A205749464920737461747573DF
:102700002E2E4F4B0D0A00002573282920696E20BC
:1027100025732C206C696E652025693A204552523C
:102720004F523A20696E76616C6964205749464978
:10273000207374617475733A25640D0A00000000FB
:102740002573282920696E2025732C206C696E65FD
:102750002025693A205749464920636F6E666967AC
:102760002E2E0D0A000000002573282920696E20F6
:1027700025732C206C696E652025693A20574946DF
:102780004920636F6E6669672E2E6661696C6564A9
:102790000D0A00002573282920696E2025732C203E
:1027A0006C696E652025693A205749464920636F58
:1027B0006E6669672E2E4F4B0D0A0000257328297F
:1027C00020696E2025732C206C696E652025693A7E
:1027D000205749464920636F6E6E6563742E2E0D37
:1027E0000A0000002573282920696E2025732C20FB
:1027F0006C696E652025693A205749464920636F08
:102800006E6E6563742E2E6661696C65640D0A00D8
:102810002573282920696E2025732C206C696E652C
:102820002025693A205749464920636F6E6E6563DB
:10283000742E2E4F4B0D0A0041542B4349505354D4
:102840004152543D302C22544350222C22257322D5
:102850002C25750D0A0000002573282920696E209B
:1028600025732C206C696E652025693A20574946EE
:102870004920746370206C696E6B2E2E0D0A000067
:102880004F4B00002573282920696E2025732C20CA
:102890006C696E652025693A205749464920746362
:1028A00070206C696E6B2E2E6661696C65640D0A12
:1028B000000000002573282920696E2025732C2034
:1028C0006C696E652025693A205749464920746332
:1028D00070206C696E6B2E2E4F4B0D0A00000000AD
:1028E00041542B43495053454E4445583D302C25C7
:1028F0006C750D0A000000002573282920696E20E0
:1029000025732C206C696E652025693A205749464D
:10291000492073656E6420646174612E2E0D0A0077
:1029200041542B002573282920696E2025732C2003
:102930006C696E652025693A2057494649207365C0
:102940006E6420646174612E2E6661696C65640D2D
:102950000A00000053454E44204F4B0025732829A0
:1029600020696E2025732C206C696E652025693ADC
:1029700020574946492073656E6420646174612E56
:102980002E4F4B0D0A00000041542B434950434C3D
:102990004F53453D350D0A002573282920696E20C7
:1029A00025732C206C696E652025693A200D0A4636
:1029B00061696C656420746F20636C6F736520635C
:1029C0006F6E6E656374696F6E2121210D0A0000C0
:1029D0002573282920696E2025732C206C696E656B
:1029E0002025693A200D0A636F6E6E656374696F06
:1029F0006E7320636C6F7365642121210D0A0000E2
:102A000038B50024C82210A111A0FFF713FA38B17D
:102A10008E2313A2164917A000F056F8601E38BD89
:102A2000214892230EA21249009020A000F04CF8F9
:102A300005A11D48FDF788FB044614B94FF0FF308F
:102A4000EDE7E0793038EAE75354415455533A0002
:102A500041542B4349505354415455530D0A0000DF
:102A60002E2E5C4253505C776966692E630000002D
:102A70008C3200082573282920696E2025732C20AC
:102A80006C696E652025693A206661696C65642011
:102A9000746F206765742077696669207374617448
:102AA00075730D0A000000002C00002025732829F2
:102AB00020696E2025732C206C696E652025693A8B
:102AC0002025730D0A0000000FB4054B10B503A9B3
:102AD000044A029800F030F810BC5DF814FB0000C6
:102AE000E92E0008240000200FB4084B10B504A9FB
:102AF00002AA039800F020F8044602A9002000F082
:102B0000C0F9204610BC5DF814FB0000832E0008BD
:102B1000004870472800002002E008C8121F08C1C2
:102B2000002AFAD170477047002001E001C1121F4E
:102B3000002AFBD1704700002DE9FF4F8BB088467B
:102B40000546002667E125287AD100246D1CB64988
:102B5000A146A24601222B78203B02FA03F008424C
:102B600002D004436D1CF6E728782A2810D06FF0B5
:102B70002F022878A0F13001092915D809EB890125
:102B800002EB410144F0020400EB01096D1CF0E787
:102B900058F8049BB9F1000F03DA44F40054C9F16A
:102BA000000944F002046D1C28782E2817D115F86E
:102BB000010F44F004042A280ED06FF02F02287869
:102BC000A0F1300109290AD80AEB8A0102EB410180
:102BD00000EB010A6D1CF2E758F804AB6D1C287875
:102BE0006C280FD006DC4C2817D068280DD06A2836
:102BF00014D104E0742810D07A280FD10DE044F4E9
:102C000000140AE044F4801401E044F440146978AC
:102C1000814202D16D1C04F580146D1C287869284E
:102C200066D007DC002876D0632828D0642807D136
:102C30005EE005E06E2808D073282AD075287AD087
:102C4000DDE90D129047761CE4E0C4F3025002283F
:102C500009D003280DD0D8F8001004280DD00E603C
:102C600008F10408D6E0D8F80010F217C1E90062B4
:102C7000F6E7D8F800100E80F2E70E70F0E718F8CB
:102C8000041B8DF8001000208DF80100EB46012098
:102C900003E058F804BB4FF0FF3061074FF0000726
:102CA00001D40AE07F1C57450DDA8742FADB1BF896
:102CB00007100029F6D106E07F1C8742FCDB1BF8D9
:102CC00007100029F8D1DDE90D23A9EB07008146A3
:102CD000214600F0BEF83044C61904E0DDE90D12CB
:102CE0001BF8010B90477F1EF8D2214648468CE026
:102CF00058F8040BC4F302514FF00A0B032900D11A
:102D000000B2042900D140B2002806DAC0F1000068
:102D10004FF02D0104E082E00DE0210504D52B21C8
:102D20008DF82410012103E0E10710D02021F7E7FE
:102D300008AF089114E058F8040BC4F302514FF0A7
:102D40000A0B032900D180B2042900D1C0B20021AE
:102D5000EEE75946FDF7F3FA01F1300107F8011DDE
:102D60000028F6D1ADEB070000F1200B600702D57B
:102D700024F4803401E04FF0010ADA4502DDAAEBC9
:102D80000B0000E00020824600EB0B010898014494
:102D9000A9EB01000A90E00306D4DDE90D232146EA
:102DA0000A9800F056F80644002008E009A8DDE97A
:102DB0000D1210F809009047761C09F101000899DE
:102DC00081468842F2DBE0030CD5DDE90D23214684
:102DD0000A9800F03EF8064404E0DDE90D123020C8
:102DE0009047761CBAF10001AAF1010AF5DC05E072
:102DF000DDE90D1217F8010B9047761CBBF10001BD
:102E0000ABF1010BF4DC0A982146DDE90D2300F05B
:102E10000DF806446D1C287800287FF494AE0FB09E
:102E20003046BDE8F08F0000092801002DE9F0418F
:102E3000044600251E461746880405D406E0394698
:102E40002020B04705F10105641EF8D52846BDE8ED
:102E5000F0812DE9F041044600251E469046C80346
:102E600001D5302700E02027880405D506E041463B
:102E70003846B04705F10105641EF8D52846BDE87F
:102E8000F0810A68531C0B6010707047002107E046
:102E9000002200E0521C43F2C8239A42FAD3491C94
:102EA0008142F5D3704770B506460C460025304682
:102EB000FDF76CF9064435460FE020782C2805D044
:102EC00020785C2802D02078222802D15C2028704B
:102ED0006D1C207828706D1C641C20780028ECD1B3
:102EE0002870A81B70BD000070B504460D46E1B205
:102EF0000548FEF780FF00BF40210348FEF7AEFE05
:102F00000028F9D0204670BD0038014010B5FEF70A
:102F100041FBFEF7F3F8FEF7D5FDFEF74FFA02206E
:102F20000149087010BD00002000002096B000206C
:102F30001590149018210EA8FDF7FBF8182108A889
:102F4000FDF7F7F8182102A8FDF7F3F8002001902B
:102F50000024FFF7DBFF61233AA23E493EA0FFF7C2
:102F6000B3FD05E0652337A23A4943A0FFF7ACFD66
:102F7000FDF7A8FE0028F5D105E0692331A2354907
:102F80004AA0FFF7A1FD01AB02AA08A90EA8FDF710
:102F9000A1FC0028F1D105E06E232AA22D4950A002
:102FA000FFF792FD08A90EA8FFF79AF90028F3D1C0
:102FB00046E0601CC4B2142C13D101AB02AA08A9CC
:102FC0000EA8FDF787FC28B17D231EA2214951A040
:102FD000FFF77AFD7F231BA21E495CA0FFF774FD5B
:102FE0000024FEF7ABF914A915A8FDF7DFFE30B1F8
:102FF000852314A2174963A0FFF766FD20E0BDF802
:10300000043002AADDE91410FFF766FA88B18A23BA
:103010000CA210496748FFF757FD08A90EA8FFF753
:103020005FF9BDF8043002AADDE91410FFF754FA85
:1030300006E0902303A207495FA0FFF745FD00BF0C
:10304000B7E700002E2E5C557365725C6D61696E8A
:103050002E630000E43100082573282920696E20C2
:1030600025732C206C696E652025693A2048656CB3
:103070006C6F0D0A000000002573282920696E205E
:1030800025732C206C696E652025693A20455252C3
:103090004F523A206661696C656420746F20696ED6
:1030A000697420424C450D0A000000002573282950
:1030B00020696E2025732C206C696E652025693A85
:1030C000204552524F523A206661696C6564207403
:1030D0006F20636F6E66696720776966690D0A0005
:1030E0002573282920696E2025732C206C696E6554
:1030F0002025693A204552524F523A206661696C48
:10310000656420746F20696E697420574946490DC3
:103110000A0000002573282920696E2025732C20C1
:103120006C696E652025693A204552524F523A200B
:103130006661696C656420746F20636F6E66696791
:103140002074686520776966690D0A00257328294F
:1031500020696E2025732C206C696E652025693AE4
:1031600020494E464F3A20636F6E66696720776943
:103170006669207375636365737366756C6C790D2E
:103180000A0000002573282920696E2025732C2051
:103190006C696E652025693A205741524E3A206E7F
:1031A0006F20636172647320666F756E642E0D0A02
:1031B00000000000EC3100082573282920696E20EA
:1031C00025732C206C696E652025693A20494E468E
:1031D0004F3A206361726473207265706F72746518
:1031E000640D0A006D61696E0000000025732829D6
:1031F00020696E2025732C206C696E652025693A44
:10320000204552524F523A206661696C65642074C1
:103210006F207265706F72742063617264732069CD
:103220006E666F726D6174696F6E0D0A00424C4577
:103230005F496E697400424C455F5363616E436140
:10324000726400424C455F47657443464700000086
:10325000574946495F43616C6C00574946495F498D
:103260006E697400574946495F52657374617274A0
:1032700000574946495F436F6E6669670057494684
:10328000495F436F6E6E656374415000574946490C
:103290005F53746174757300574946495F53656E97
:1032A000640000002573282920696E2025732C20D6
:1032B0006C696E652025693A205749464920656E3C
:1032C00061626C65206D756C7469706C6520636FEC
:1032D0006E6E656374696F6E73206D6F64652E2EFC
:1032E0006661696C65640D0A000000002573282979
:1032F00020696E2025732C206C696E652025693A43
:10330000205749464920656E61626C65206D756C79
:103310007469706C6520636F6E6E656374696F6E3F
:1033200073206D6F64652E2E4F4B0D0A00004040D8
:103330004040404040404041414141414040404088
:1033400040404040404040404040404040400502F6
:103350000202020202020202020202020202202011
:1033600020202020202020200202020202020290BF
:1033700090909090901010101010101010101010CD
:103380001010101010101010100202020202028819
:10339000888888888808080808080808080808082D
:1033A000080808080808080808020202024000008D
:1033B0002E330008D4330008000000202C00000049
:1033C000182B0008003400082C000020D405000051
:1033D000282B00080000000001020304010203047E
:1033E000060708090204060800000000C8000000E3
:1033F000C800000000000000000000000000000005
:04000005080000ED02
:00000001FF
