:020000040000FA
:0600000002010A0221CFFB
:03002B00021A7046
:03003300021A525C
:03003B00021A9115
:03004300021A0698
:0300530002224244
:03006B00021A2C4A
:1000830002203BE5C754F84401F5C779012200007B
:100093000080FB120086B900030200F4E4791A78A9
:1000A30002B800028004F709D8FCE4791C7802B88E
:1000B30000028004F709D8FCE4900281784D79109E
:1000C3008002F0A3D8FCD9FA9011CDAA82AB839019
:1000D300013A78D679018015E493A3AC82AD838A83
:1000E300828B83F0A3AA82AB838C828D83D8E9D9D8
:1000F300E775828D7583D2740312011C7582917525
:100103008300740012011C75D00075813F7518813E
:10011300751902759F00020096C09FF59FE473D086
:100123009F22D083D082C09FE493C0E0740193C028
:10013300E0740293F59F22FF01E803053F10020AD2
:10014300FF00FEFF9707A907D3079D07FF0000B431
:10015300000028002800283075A000A000A000A0FF
:100163000000080008E001F000100010001000106B
:10017300001000100050005000500010001000D07C
:10018300070000000000000F0001000500307507A4
:10019300001000010081FF00000000FF02020200C6
:1001A30084010000F483020484010000321202027D
:1001B30084010000200702048401000033120206B8
:1001C300840100003607FFFF0100FF2002008401C5
:1001D3000000F1830204840100006112020884001C
:1001E3000000000002FC830300001308110F110F2D
:1001F300110F110F110F110F110F110F110F110FFC
:10020300110F110F110FE5100311DF1012012588D3
:10021300D70212012592D702120125D0D70212016B
:100223002519D80212012553D802120125ADD8028F
:10023300120125CED802120125A6DB02120125AF39
:10024300DB02120125FCDB0212012525DC0212016F
:10025300252FDC021201259BDC021201252DDD0274
:1002630012012577DD02120125ADDD0212012539C8
:10027300DE021201257ADE02120125B1DE0212012D
:1002830025C3DE02120125E2DE02120125EBDE02A6
:10029300120125B3DF0212012571CD0312012533AB
:1002A300BF0312012569BF031201259FBF0312017A
:1002B30025EAC0031201257FFF0112012595FF01E5
:1002C3001201259FFF01120125AFFB02120125C474
:1002D300FB0212012577FC02120125B7FC02120171
:1002E30025D0FC021201250BFD0212012558FD0247
:1002F3001201258AFD02120125CCFD02120125D728
:10030300FF021201252ED20312012557CF0312013A
:100313002569CF0312012598CF0312012515C603C2
:1003230012012523C60312012595C603120125EEEA
:10033300C6031201250CC703120125D2850312013E
:1003430025148603120125968603120125AB860325
:10035300120125FC8603120125418703120125F5AD
:1003630087031201255088031201259F8803120178
:1003730025F58803120125EA8903120125E18A0381
:100383001201251E8B031201257B7F0012012529F3
:100393009C01120125AA9E0112012544A00112010C
:1003A30025F8A0011201258BA10112012510A2013C
:1003B30012012535A201120125EAA50112012570BA
:1003C300A601120125A3A701120125DDA701120130
:1003D3002512A801120125CFA90112012503AA01A3
:1003E30012012560AA01120125A9AA0112012510F3
:1003F300AB0112012589AB01120125B8AB01120132
:1004030025D0AB0112012519AD0112012529AD013A
:1004130012012547AE0112012569AE011201259F84
:10042300AE011201254EB001120125DBB00112010C
:10043300251AB10112012533B20112012530D0036F
:1004430012012541D003120125E0D2031201251F19
:10045300D303120125EA7F0012012591D103120172
:1004630025A1D103120125BCD10312012524D203F6
:100473001201256DCC03120125F2CC03120125587C
:10048300CD0312012559CB0312012587CB0312019A
:1004930025D8CB0312012533CC031201259A9E03E1
:1004A300120125D39E03120125459F031201255AEC
:1004B3009F0312012576A0031201253CA10312011B
:1004C300255BA10312012582A103120125BFA1030C
:1004D300120125D7A10312012528A2031201255DCC
:1004E300A20312012574A203120125EEA203120135
:1004F30025D2A303120125A9A503120125CDB0031B
:100503001201255DB103120125E9B1031201258210
:10051300B20312012513B3031201251CB303120105
:10052300259AB303120125ADB303120125C3B30307
:1005330012012523B40312012536B40312012573D6
:10054300C403120125C5C4031201254FC5031201BB
:1005530025B6C5031201255CBA0312012586BA0329
:1005630012012554BB031201252FBC03120125B62A
:10057300BC03120125E1DF02120125A8E0021201EA
:1005830025DFE00212012509E10212012569E102DA
:10059300120125BFE10212012524E202120125BC4A
:1005A300E202120125CBE30212012562E5021201E8
:1005B30025EFE50212012556E6021201256DE6023A
:1005C30012012587E702120125C5E702120125263C
:1005D300B70212012555B80212012553B9021201BF
:1005E3002571B902120125FABB02120125FDBB02D6
:1005F30012012500BC0212012503BD021201258B45
:10060300BD02120125E7BD0212012523BE0212011C
:100613002557C20212012538C30212012550C30215
:10062300120125A3C703120125B9C703120125E847
:10063300C7031201251EC80312012535C803120181
:10064300256CC803120125BFC803120125D6C803B0
:1006530012012524C1031201253BC1031201256C9C
:10066300C103120125A7C103120125D1C103120140
:1006730025FBC10312012512C20312012529C2035E
:1006830012012540C20312012569C2031201257C10
:10069300C20312012592C203120125BCC203120137
:1006A3002535AA0212012539AB0212012566AB02D8
:1006B300120125BCAB02120125DFAB02120125F3A7
:1006C300AB02120125F5AB0212012518AC0212018F
:1006D3002527AD02120125EBAD02120125C0AE02A2
:1006E30012012531AF02120125BDAF02120125C04F
:1006F300AF0212012548B00212012583B002120194
:1007030025EAB00212012521B102120125AFB1027F
:1007130012012539B20212012588B2021201259570
:10072300B20212012598B202120125F8B202120197
:100733002503B30212012582B30212012585B302F8
:1007430012012598B3021201259BB3021201252A37
:10075300B40212012544B40212012554B402120159
:100763002584B40212012591B40212012594B40226
:1007730012012515B50212012503B602120125B592
:10078300B602120125BBCD02120125B8CE02120119
:10079300253ACF021201255ACF02120125A2CF0218
:1007A300120125F5CF0212012559D002120125E6C7
:1007B300D002120125A0D102120125AFD4021201E9
:1007C300253AD6021201255DD6021201250EA60393
:1007D300120125ABA7031201250FA8031201256EF1
:1007E300A8031201257CA803120125A5A803120161
:1007F30025568B031201257E8B03120125AC8B0337
:10080300120125E38B03120125418C031201258C70
:100813008C03120125D78C03120125178D031201B6
:10082300255D8D031201258B8D03120125488E034F
:10083300120125528E031201255F8E0312012592A8
:100843008E031201255E8F031201256A8F031201A5
:1008530025828F031201258C8F031201250A900331
:1008630012012568CE0312012576CE031201258ECF
:10087300CE03120125A6CE03120125BECE0312011B
:100883002536F101120125E2F1011201255DF20184
:100893001201257EF301120125BAF301120125632A
:1008A300F4011201254AF501120125AEF6011201E8
:1008B3002505F70112012586F70112012576F801B6
:1008C300120125C3F80112012549F9011201257B03
:1008D300F9011201258FFB01120125D1FB01120140
:1008E30025EFFB0112012591FC0112012559FD01A0
:1008F30012012566FF01120125B9A903120125CFB3
:10090300A903120125F5A90312012511AB03120155
:10091300251BAB0312012550AC0312012548AD037F
:10092300120125AC9503120125509603120125836C
:100933009603120125CD9603120125909803120107
:10094300256AB201120125E3B201120125F3B201B6
:10095300120125E1B30112012506B401120125118B
:10096300B401120125FBB401120125B1B501120135
:100973002598B70112012551B9011201252DBA019C
:10098300120125E1BA011201251EBE01120125CC77
:10099300BE011201253BC001120125BBC101120199
:1009A3002562C201120125ABC201120125E2C20177
:1009B3001201257FC3011201250AC401120125E793
:1009C300C4011201253CC5011201259BC601120178
:1009D30025ABC601120125D8C6011201252FC70177
:1009E300120125D8C701120125DFC801120125A96B
:1009F300C90112012509CB011201254CCB011201BA
:100A030025F1CB0112012517CC0112012525CE01B9
:100A13001201252ACE011201252FD0011201257CB6
:100A2300D001120125EFD00112012522D1011201BB
:100A330025C4D1011201256DD201120125A5D201D0
:100A4300120125A8D201120125F0D201120125328B
:100A5300D30112012589D30112012580B7031201A5
:100A63002593B703120125A1B703120125E9B703A3
:100A7300120125FFB70312012546B8031201255AB7
:100A8300B903120125E7B90312012532BA03120192
:100A930025055F00120125155F00120125785F000F
:100AA300120125BD5F001201257360001201254E5E
:100AB3006100120125776100120125A7610012016F
:100AC30025E76300120125CE6500120125A6670004
:100AD300120125EA6800120125516B001201255FFE
:100AE3006C00120125B16D00120125BB6E001201CD
:100AF30025FD6E00120125356F00120125576F0089
:100B0300120125BA6F001201257C74001201251110
:100B130075001201256575001201258C75001201FF
:100B230025CA7500120125E97500120125437600D7
:100B3300120125437700120125C87700120125F120
:100B4300EE02120125FBEE02120125A3EF021201B0
:100B530025E6EF0212012501F00212012591F002B0
:100B6300120125B9F002120125F1F0021201252824
:100B7300F10212012551F1021201258BF10212013A
:100B830025A0F1021201256DF20212012590F20255
:100B9300120125B2F202120125C7F2021201254DFC
:100BA300F30212012587F302120125BCF30212019D
:100BB300255EF402120125A0F402120125E9F402D4
:100BC30012012513F5021201253EF50212012540FB
:100BD300CA031201250080021201252E8002120190
:100BE3002589810212012569820212012588820268
:100BF300120125058302120125488302120125C330
:100C030084021201253285021201255D8702120139
:100C130025E18902120125928A02120125888B029D
:100C2300120125288C02120125268D02120125B1FD
:100C33008D02120125EDC80312012556C9031201C5
:100C430025AAC903120125D9C903120125FAC9032B
:100C53001201252D9A031201259A9A03120125E107
:100C63009A03120125F99B03120125F59C03120136
:100C730025D89D0312012523E80212012565E80208
:100C83001201253EE90212012538EA021201251A52
:100C9300EB0212012583EB021201259FEC021201E4
:100CA300250BED021201250EED0212012537ED028F
:100CB300120125B1ED0212012556EE021201256B38
:100CC300EE02120125B1EE02120125CAEE02120153
:100CD30025CDEE0212012552AD031201258EAD037F
:100CE300120125CCAD0312012596AE031201250591
:100CF300AF0312012540AF031201257EAF0312019A
:100D030025AEAF03120125D5AF0312012543B0036E
:100D130012012585B0031201251684011201253520
:100D23008601120125188801120125548801120138
:100D33002581880112012548890112012593890122
:100D4300120125DE8901120125F0890112012530E6
:100D53008A01120125648A01120125B28A01120156
:100D630025E38A01120125068B011201258D8B01D2
:100D7300120125758C01120125628D011201255B7B
:100D83008E011201256A90011201250C96011201B0
:100D9300255C9601120125D39801120125EC9A01D5
:100DA3001201259A9B0112012528BD03120125DD9D
:100DB300BE03120125D041001201257F420012011A
:100DC30025C94200120125FF43001201255D44009D
:100DD300120125F34500120125684600120125A9D9
:100DE3004600120125FB46001201256C4800120142
:100DF30025B14A00120125AB4B00120125CA4B0055
:100E0300120125E94B00120125EC4B001201251DAF
:100E13004D00120125154E00120125014F0012014C
:100E230025714F00120125E34F001201256A50007E
:100E33001201254551001201251A5200120125F90C
:100E43005200120125845300120125F253001201AE
:100E530025665400120125915400120125505500B6
:100E63001201253D5800120125865800120125C99B
:100E73005800120125425900120125DA59001201C6
:100E830025CB5A00120125F05A00120125365B00CA
:100E9300120125605B00120125A85B0012012523C6
:100EA3005C001201257D5C00120125E65D00120144
:100EB30025945E00120125D55E00120125619C0276
:100EC300120125AF9C02120125BB9C021201259938
:100ED3009D02120125CA9D02120125FB9D021201EA
:100EE300257B9E02120125B39E02120125059F0256
:100EF300120125429F021201255FA10212012585DD
:100F0300A30212012570A5021201255AA70212019C
:100F130025FD7F001201250080031201254B840368
:100F23001201258F8503120125E2E2011201259AA0
:100F3300E501120125A0E5011201255AE80112017C
:100F43002527EB0112012592900312012536910307
:100F53001201250892031201253292031201258002
:100F63009403120125F023001201253A24001201F3
:100F7300257B3200120125003400120125233500A0
:100F8300120125943B001201258F3C00120125CC50
:100F93003C00120125EF3C00120125313D001201F6
:100FA300253B3D00120125293E001201251F3F006C
:100FB300120125B83F0012012539B403120125336C
:100FC300B503120125A7B503120125E5B5031201E7
:100FD3002559B603120125D2B603120125DBB60348
:100FE300120125E7B603120125FCB6031201253AC7
:100FF300B70312012550B70312012566F50212014A
:101003002573F5021201258DF502120125CCF50297
:101013001201250AF6021201256FF6021201258438
:10102300F6021201259BF602120125A9F60212010E
:1010330025B8F602120125CDF602120125E2F602C9
:10104300120125EDF602120125F9F6021201250619
:10105300F70212012515F70212012520F7021201EA
:101063002545F702120125ECF70212012501F802CA
:1010730012012516F80212012530F8021201254B40
:10108300F80212012568F80212012573F802120111
:10109300252FF9021201251BFA0212012540FA023B
:1010A3001201254BFA0212012560FA02120125747E
:1010B300FA02120125D5FA02120125DBFA02120106
:1010C30025E1FA02120125E7FA02120125FFFA02CD
:1010D30012012532FB0212012565C3021201258785
:1010E300C30212012567C4021201253EC702120181
:1010F300256AC8021201258EC90212012540CA02BF
:10110300120125E1CA02120125378E02120125BB05
:101113008E021201256A8F02120125C99002120163
:1011230025EA9202120125D693021201250B94029D
:101133001201252D9402120125DC9402120125D4FB
:101143009602120125FD96021201258F97021201C4
:1011530025C19702120125CE970212012525980277
:101163001201254B9802120125B89A02120125BBE0
:101173009B02120125139C0212012576D401120150
:101183002580D50112012567D60112012571D601EB
:1011930012012593D6011201259FD601120125388C
:1011A300D80112012567D80112012583D901120143
:1011B30025DCD90112012542DB0112012521DC01C5
:1011C3001201257DDC01120125EADC01120125252E
:1011D300DD0112012564DD011201251DE00112016B
:1011E3002537E001120125C3E001120125D1E001F9
:1011F3001201252AE10112012538E101120125AB73
:10120300E1011201250FE20112012559E201120148
:1012130025CEC203120125F3C20312012565C303C0
:101223001201252F7800120125387800120125417B
:101233007800120125187900120125C97A001201DC
:1012430025FF7A00120125397B001201256F7B00EF
:10125300120125A97B00120125DD7B00120125095E
:101263007C00120125527C001201258C7C001201A6
:1012730025D57C001201252D7D00120125627D00FC
:10128300120125BD7D00120125F77D0012012548BD
:101293007E001201257E7E00120125B87E00120118
:1012A30025DB7E00120125E6D00312012512D103AE
:1012B3001201256DD10312012577D1031201258770
:1012C300D1031201255FD30312012529D303120190
:1012D300258BD303120125B3D303E76670100809E6
:1012E300E766700A0809E76670040809E76622E002
:1012F30066701008A3E066700A08A3E0667004082D
:10130300A3E06622C3E7960809E7960809E796086B
:1013130009E79622C3E09608A3E09608A3E096089F
:10132300A3E09622C008C3E096F50808A3E096421E
:101333000808A3E096420808A3E09645087001D385
:10134300D00822080808EAC0E0EBC0E086F0E7A472
:10135300FA180986F0E7A42AFA180986F0E7A42AFE
:10136300FA180986F0E7A42AFA1986F0E7A4FBE540
:10137300F02AFA190886F0E7A42BFBE5F03AFA19EC
:101383000886F0E7A42BFBE5F03AFA18180986F073
:10139300E7A4C5F02BFBE43AFA1908E7C5F0C6A4A5
:1013A30026F6E5F03BFBE43AFA1886F0E7A4F6E507
:1013B300F00826F6E43B08F6E43A08F6D0E0FBD062
:1013C300E0FA22E4CFC0E0E4CEC0E0E4CDC0E0E444
:1013D300CCC0E075F020C3E633F608E633F608E642
:1013E30033F608E633F6181818EC33FCED33FDEE4C
:1013F30033FEEF33FFC3EC9709ED9709EE9709EF3F
:1014030097191919400FFFEC97FC09ED97FD09EEA9
:1014130097FE191906D5F0BEECF709EDF709EEF7BB
:1014230009EFF7191919D0E0FCD0E0FDD0E0FED0A8
:10143300E0FF226016080808C6C313C618C613C601
:1014430018C613C618C613C6D5E0EA2270090808E1
:1014530008226016181818C6C333C608C633C60850
:10146300C633C608C633C6D5E0EA22E627F608091E
:10147300E637F60809E637F60809E637F622E026E6
:10148300F608A3E036F608A3E036F608A3E036F63E
:1014930022E026F008A3E036F008A3E036F008A324
:1014A300E036F022C3E697F60809E697F60809E660
:1014B30097F60809E697F622C3E096F008A3E096AC
:1014C300F008A3E096F008A3E096F022E657F608AA
:1014D30009E657F60809E657F60809E657F622E043
:1014E30056F008A3E056F008A3E056F008A3E05630
:1014F300F022E667F60809E667F60809E667F608E4
:1015030009E667F622E0F608A3E0F608A3E0F6088A
:10151300A3E0F622E6F008A3E6F008A3E6F008A3AA
:10152300E6F022E0FAA3E0FBA3E0FCA3E0FD22EA5D
:10153300F0A3EBF0A3ECF0A3EDF022CAC0E0E6F0D9
:10154300A308DAFAD0E0FA22CAC0E0E0A3C582CC4D
:10155300C582C583CDC583F0A3C582CCC582C583AF
:10156300CDC583DAE6D0E0CA22C3E498F8E499F95A
:101573001215AD8026C3E49AFAE49BFBE920E7E960
:101583001215ADE498F8E499F922C3E498F8E499C4
:10159300F91215ADE498F8E499F9C3E49AFAE49BD7
:1015A300FB22EB20E7CFE920E7E0B90010BB0008FE
:1015B300E88AF084F8AAF022E4FBC8FA22EB70224E
:1015C3007B10C833C8C933C9335007C39AC3DBF28E
:1015D30080069A50012ADBEAC833F4C8C933F4C938
:1015E300FA2275F008E4C833C8C933C933C99AC9A4
:1015F3009B5004C92AC93BD5F0ECFBC833F4C8E4BB
:10160300C9FA22600D08C6A2E713C618C613C6D5C9
:10161300E0F322600C08C6C313C618C613C6D5E090
:10162300F422700422600D18C6C333C608C633C63D
:10163300D5E0F41822251810AF08F5184002151943
:101643008008F51840021519D2AF22C0D025181012
:10165300AF08F518500205198008F518500205194E
:10166300D2AFD0D0222518F58210AF08F51840026A
:1016730015198008F51840021519D2AF8519832270
:10168300C5822518C582C583351910AF07F519859D
:1016930082188007F519858218D2AFC583222518D1
:1016A300F582E43519F58322E4732518C582C0E079
:1016B300E51934FFC583C0E0E518C3958224F8100B
:1016C300AF08858319858218800885831985821858
:1016D300D2AFCEF0A3E520F0A37808E608F0A3DEAE
:1016E300FAEFF0A3E58124FAF8E608F0A3E608F0A0
:1016F300A3E608F0A30808E608F0A3E608F0A3159C
:10170300811581D0E0FED0E0F8158115811581E8BF
:10171300C0E0EEC0E0222518C582C0E0E51934FF21
:10172300C583C0E0E518C3958224F910AF0885830B
:10173300198582188008858319858218D2AFCEF067
:10174300A3E520F0A37808E608F0A3DEFAEFF0A300
:10175300E58124FBF8E608F0A3E608F0A30808E611
:1017630008F0A3E608F0A315811581D0E0FED0E0D0
:10177300F815811581E8C0E0EEC0E0228519838564
:101783001882E0A3FEE0A3F5207808E0A3F608DFC3
:10179300FAE0A3FFE0A3C0E0E0A3C0E0E0A3C0E061
:1017A300E0A3C0E0E0A3C0E010AF08858218858302
:1017B300198008858218858319D2AFD083D082021D
:1017C3000122851983851882E0A3FEE0A3F5207822
:1017D30008E0A3F608DFFAE0A3FFE0A3C0E0E0A37C
:1017E300C0E0E0A3C0E0E0A3C0E010AF088582182A
:1017F3008583198008858218858319D2AFD083D059
:101803008222C0D02518C582C0E0E51934FFC58304
:10181300C0E0E518C3958224F310AF0885831985CA
:1018230082188008858319858218D2AFC8F0A3E98E
:10183300F0A3EAF0A3EBF0A37908E709F0A3D8FA41
:10184300ECF0A3EDF0A3EEF0A3EFF0A3D0E0F0A350
:10185300D0E0F0A3D0E0F0A3E520F0A3E5F0F0A3FF
:1018630022851983851882E0C0E0A3E0F9A3E0FA9A
:10187300A3E0FBA37808E0F608A3DFFAE0FCA3E00B
:10188300FDA3E0FEA3E0FFA3E0C0E0A3E0C0E0A36C
:10189300E0F5D0A3E0F520A3E0A3F5F010AF0885B1
:1018A30083198582188008858319858218D2AFD061
:1018B30082D083D0E0F8D0E03274048006740280D2
:1018C300027401C0E0F404121668D0E012153E223F
:1018D3007404800474028000CCC0E0EDC0E0E5181D
:1018E300C39CCCAD1950011D10AF068C188D198007
:1018F300068C188D19D2AF12154BD0E0FDD0E0FC49
:1019030022D083D082E9C0E0E493A3C386F0C5F07C
:1019130095F0F908E493A386F0C5F095F0700BE415
:1019230093A3C3994005E9048002A3E475F002A4DC
:101933002582F582E5F03583F583D0E0F9E493A3BE
:10194300C0E0E493C0E022D083D082ECC0E0EDC0DD
:10195300E0E493A3FCE493A3FDED4C600D12199610
:10196300EC24FFFCED34FFFD80EFE493A3FCE49350
:10197300A3FDED4C600D1219D5EC24FFFCED34FFF3
:10198300FD80EFD0E0FDD0E0FCE493A3C0E0E4935E
:10199300C0E022C0E0C3E493960874019396184014
:1019A3000FE4936670080874019366187000701949
:1019B300A3A3C3E49396087401939618A3A3400DBD
:1019C300D0E0D0E0D0E0021986A3A3A3A3A3A3D0C1
:1019D300E022C0E0C0F088F0E49366700808740168
:1019E3009366187000A8F0A3A3700BD0F0D0E0D0DA
:1019F300E0D0E0021986A3A3D0F0D0E022C2AF0268
:101A0300000022C0E074F2121805A2AFE433FED244
:101A1300AFC2C0E5D1A2E4500653D1EF120539EEAF
:101A2300A2E092AF7F01021864C0E074F2121805BD
:101A3300A2AFE433FED2AFE589A2E15003120497CB
:101A4300758900C2C5EEA2E092AF7F01021864C09F
:101A5300E074F2121805A2AFE433FED2AFE58BA215
:101A6300E05003120497758B00C2E880D8C0E0C031
:101A7300D0E8C0E0E9C0E0E5A8D2AFC2C7A2E7A2C0
:101A8300E792AFD0E0F9D0E0F8D0D0D0E032C0E0B8
:101A9300C0D0E8C0E0E9C0E0C008C009C082C0838C
:101AA300A2AFE433F9D2AF900575E0F8A3E0687014
:101AB30008539AFBA374018026C2E9900575E0F5EB
:101AC3000874012508F074F52508F58274043400C0
:101AD300F583E0F5C1900575E0C394804002E4F01E
:101AE300E9A2E092AFD083D082D009D008D0E0F948
:101AF300D0E0F8D0D0D0E03274F5121719EAFEEB3B
:101B0300FFEE2434F8EF3400F988088909EE243510
:101B1300F582EF3400F583E0F8EE2437F582EF34F5
:101B230000F583E0F50AEC850AF0A4FCAAF0850A27
:101B3300F0EDA42AFDE82CF8E43DF97A257B0012A8
:101B430015ADEA850882850983F0F8740758F9749E
:101B530001B900028004C333D9FCFAE81313135408
:101B63001FF8EE28F8EF3400F9E8245DF582E93434
:101B730000F583E05A6008EE2434F582EF802CEE02
:101B83002434F582EF3400F583E0C0E0EE2436F52B
:101B930082EF3400F583E0F5F0D0E084A8F0EE287E
:101BA300F8EF3400F9E82438F582E93400F583E0EE
:101BB300F97F040217C574F5121719EAFEEBFFEE5D
:101BC3002434F582EF3400F583E0C0E0EE2435F5EC
:101BD30082EF3400F583D0E0F08E828F83A3A3A33A
:101BE300A3A3A3A3C082C0838E828F83A3A3A3A333
:101BF300A3E0F8A3E0F9D083D082E0C398F508A36B
:101C0300E099F509EE247FF582EF3400F583E06473
:101C1300017069EE2480F582EF3400F583E0F8A3C8
:101C2300E0F98E828F83A3A3A3A3A3A3A3E0FCA3C2
:101C3300E0FD8E828F83A3A3A3A3A3E0FAA3E0FB1B
:101C4300C3EA9CEB9D5010C3EC98ED99402EC3EA78
:101C530098EB995027800EC3EA98EB994007C3ECA1
:101C630098ED9940177C2D7D0CEEFAEFFB120E5781
:101C7300EE247FF582EF3400F583E4F0EE2434F8AC
:101C8300EF3400F9E8FCE9FDEE2435F582EF34008A
:101C9300F583E0F8EE2437F582EF3400F583E0F5C1
:101CA3000AE508850AF0A4F508AAF0850AF0E50913
:101CB300A42AF509E82508F8E43509F97A257B0013
:101CC3001215ADEA8C828D83F0F8740758F974010C
:101CD300B900028004C333D9FCFAE8131313541F69
:101CE300F8EE28F8EF3400F9E8245DF582E93400D2
:101CF300F583E05A6008EE2434F582EF802CEE245D
:101D030034F582EF3400F583E0C0E0EE2436F5824B
:101D1300EF3400F583E0F5F0D0E084A8F0EE28F886
:101D2300EF3400F9E82438F582E93400F583E0F96B
:101D33001223D9021BB474EF1217199008E7E06459
:101D4300086005E06407702A9061C8E06024900988
:101D530015E0F4601DE0F875F005A4C8AAF02AF9AF
:101D6300741728FE740939FF8E828F83A3A3A3E01F
:101D73007003021E69906060E0C0E0EE2468F582A3
:101D8300EF3400F583D0E0F0750C69750D0C750820
:101D930000750900E5D914F50AE5D95403F50E6079
:101DA300177403650E605CE50A6010EE2467F58224
:101DB300EF3400F583E07003021E4E900C64E06480
:101DC30001602AEE2482F582EF3400F583E060049B
:101DD300780480027800850A08E508C398FA95E03C
:101DE300FB120D2B8A088B09EA450970051210BBFB
:101DF3008074EE2482F582EF3400F583E070048A68
:101E03000C8B0DE50A6012850C82850D83F50BE5BD
:101E1300D9F0A3150BE50B70F6EE2482F582EF34AF
:101E230000F583E0604474FC250AF50A780C121867
:101E3300C0AC0AA90EEEFAEFFB120F0B74021216D6
:101E43004EE97026AA08AB09120545793D8E828FAB
:101E530083A3A3A3A3E0FA7B00120C11EEFAEFFB1A
:101E6300120E7B120F6B790080747403650E60563B
:101E7300850A1075110078101218C0AC0CAD0DAAAC
:101E830008AB09120EE7740212164EEE2468F582AF
:101E9300EF3400F583E064807004747F8001E0F523
:101EA3000C780C1218C4E50EF50C780C1218C4A9A2
:101EB3000AAC08AD09900915E0FA7B00120BCF7448
:101EC3000212164E80139008E7E06408700BAC0C06
:101ED300AD0DEEFAEFFB120F3B1210C779017F0A2B
:101EE3000217C574F512171974FC121638EAFEEBC3
:101EF300FF8908A2AFE433F509C2AF806AEE246319
:101F0300F8EF3400F97A007B00A2AFE433F50AC29C
:101F1300AF88828983E0FCA3E0FDEC4D603A8882C0
:101F23008983E0FAA3E0FB8A828B83E0FCA3E0FDD4
:101F330088828983ECF0A3EDF08A828B83E4F0A39B
:101F4300F088828983E0FCA3E0FDEC4D700A88826F
:101F53008983A3A3E4F0A3F0E50AA2E092AF1205FC
:101F630045900C34E004F0EE2463F582EF3400F581
:101F730083E0F8A3E0F9E849603DEE2463F582EFDE
:101F83003400F583E02402FAA3E03400FBEA2402E0
:101F9300F50AEB3400F50B780A1218C08A828B839A
:101FA300E0FCA3E0F9EEFAEFFB120EAB740212169B
:101FB3004EE97003021F00900C34E06063900C350F
:101FC300E0F8900C34E0C398500C7402650870502C
:101FD300900C36E0604A8E828F83A3A3A3A3E0858F
:101FE3001882851983F0A3E4F0900C34E0F87402AE
:101FF3001216A1E8F0A3E4F0900C34E0F8900C334F
:10200300E028F074021216A1AC82AD838518828594
:102013001983AA82AB837901120BDB900C34E4F0B1
:10202300E509A2E092AF740412164E021BB400003D
:1020330000851A87851BC622C0E0C0D0E8C0E0E94E
:10204300C0E0EAC0E0EBC0E0ECC0E0EDC0E0EEC011
:10205300E0C008C009C00AC00BC082C083C0F0A2A0
:10206300AFE433FEC2AF759B00906182E0A2E05003
:1020730012E591A2E0500C7591FE7401651A70038C
:10208300121D39E0A2E55051E591A2E5504B75913F
:10209300DF9008E7E064076005E0640870237401DB
:1020A300651A70357901900915E0FA75F005A4CA2F
:1020B300A8F028FB74172AFA74093BFB121EE6806A
:1020C30018E0640D7013900909E004F064287002AD
:1020D300E4F07A00E0F91210CD906182E0A2E640CC
:1020E30003022182E591A2E640030221827591BF9A
:1020F3009008E7E064057008120FD7120FE380031E
:10210300120FDD751A0012103DE99008E8F079000E
:1021130012101F120DC17A017B009008E6E0F9123C
:10212300026F907803E064427055900C68E014F0FD
:10213300704DC2AF12213A00781DD0E0F618D0E0FE
:10214300F6E59F540770057509FF800375097FC481
:10215300C0E0781CE6F50808E65509F509740B7824
:1021630008121616D0E02508F8906270E0A2E74046
:10217300F8E8C333906272F0906270E0D2E0F090BE
:102183006181E0A2E35009E5E9A2E3500375E9F7B1
:10219300A3E0A2E75009E591A2E7500375917FEE12
:1021A300A2E092AFD0F0D083D082D00BD00AD00976
:1021B300D008D0E0FED0E0FDD0E0FCD0E0FBD0E0E2
:1021C300FAD0E0F9D0E0F8D0D0D0E032C0E0C0D00F
:1021D300C082C083906183E0A2E05009E5BFA2E022
:1021E300500375BFFEE0A2E15009E5BFA2E1500331
:1021F30075BFFDE0A2E25009E5BFA2E2500375BF3F
:10220300FBE0A2E35009E5BFA2E3500375BFF7E08B
:10221300A2E45009E5BFA2E4500375BFEFE0A2E5D5
:102223005009E5BFA2E5500375BFDFE0A2E6500900
:10223300E5BFA2E6500375BFBFD083D0828088C0BC
:10224300E0C0D0E8C0E0E9C0E0EAC0E0EBC0E0EC09
:10225300C0E0EDC0E0C0F0E5A7A2E6500FE5A1A203
:10226300E6500953A7BF75A1BF1222A7E5A7A2E5B0
:10227300500CE5A1A2E5500653A7DF75A1DFE5A742
:10228300A2E15009E5A1A2E1500375A1FDE5A7A2D2
:10229300E2500CE5A1A2E2500653A7FB75A1FBD0C7
:1022A300F00221B874F8121719751A019008E7E0C3
:1022B30064067015120F8F8A828B83A3A3A3A3A333
:1022C300A3E0FAA3E0FB120FC5A2AFE433FED2AF43
:1022D3009008EDE0640170187A207B009008E6E036
:1022E300F91202ED7A207B009008E6E0F9120275FC
:1022F300906182E0D2E6F0900C65E0602185C61B18
:1023030080169008ECE064017008E5C654F84405B3
:10231300F5C653BEFC1220347401651A60E4EEA2C4
:10232300E092AF7F010217C574ED1217198A088B6B
:10233300098C0A8D0B74131216A1780C12150878E8
:1023430008790C1213077510017511C87512007501
:10235300130050127808790C1214A7781079081218
:10236300130750168010780C79081214A778107987
:102373000C12130740047901800279007F0C0217C5
:10238300C574ED1217198A088B098C0A8D0B741307
:102393001216A1780C121508780C7908121307404D
:1023A300117808790C1214A7AA08AB09AC0AAD0B73
:1023B30080227510007511007512007513017810D5
:1023C300790C1214A77810790812146EAA10AB11A5
:1023D300AC12AD1380A6C082C083E9906000F0D038
:0423E30083D08222FF
:1023E800FFFFFFFFFFFFFFFFC082C08378BA790CB1
:1023F80088828983A3A3A3A3A3A3E4F08882898303
:10240800A3A3A3A3A374FFF0E82418F8E93400F900
:10241800E8641A7003E9640D70D6900CBC74FFF080
:10242800900CBBE4F0900CBAF0900CBDF0A3F00255
:102438003CE874EC1216AD900CBDE0F508A3E0F58D
:1024480009E50845097006120DC102327685088231
:10245800850983E014601814601524FE601124C4F3
:102468007003022C7C24C07003022C7C023276E0BC
:10247800F9120F7D8A0A8B0BAE0AAF0B900914E094
:10248800700302287A120E6FE9F875F005A4C8AA3D
:10249800F02AF9741728F50C740939F50D850C82A2
:1024A800F583E0F50AA3E0F50BAC0AFDEEFAEFFBC5
:1024B800120F77E9F50E7402650E70030228228E5A
:1024C800828F83E024FE600A24FE700302270C0238
:1024D8003276EE65087003EF65096021120DE5900C
:1024E8000C48E064017016900C47E07010790112F6
:1024F800108B12105B1210857900121091E50E6096
:1025080021E5082415F582E5093400F583E0601219
:10251800900C43E0F8A3E0F9A3E0687003A3E06936
:102528007042120FEF8A0C8B0D8C0E8D0F751003F5
:10253800751100751200751300780C791012146E5D
:102548007510FF7511FF7512FF780C79101214CFF2
:102558008E828F83A3A3E50CF0A3E50DF0A3E50E0F
:10256800F0A3E4F0E5082415F582E5093400F583C5
:10257800E064016003022624850A82850B83A3A3F5
:10258800750CF1750DFF750EFF750FFF780C1214A1
:1025980081780C1218BC8E828F83A3A3C082C0835B
:1025A800900C45E0F508A3E085080CF50DE4F50E60
:1025B800F50FD083D082780C121481AA0CAB0DAC25
:1025C8000EAD0F12232B740412164EE9701F8E8263
:1025D8008F83A3A3C082C083900C45E0F508A3E0D5
:1025E800F509E4F50AF50BD083D0828014850A82B8
:1025F800850B83A3A37508F17509FF750AFF750B91
:10260800FF7808121481750CFF750DFF750EFF75A4
:102618000F007808790C1214CF022B74EE240EF5F3
:1026280082EF3400F5831218D38E828F83A3A3120E
:10263800152612232B740412164EE9640160030256
:102648003197850A82850B83A3A3750CF1750DFF5D
:10265800750EFF750FFF780C121481780C1218BCD8
:102668008E828F83A3A3C082C083900C45E0F508B7
:10267800A3E085080CF50DE4F50EF50FD083D082A4
:10268800780C121481AA0CAB0DAC0EAD0F12232BD3
:10269800740412164EE9701F8E828F83A3A3C08222
:1026A800C083900C45E0F508A3E0F509E4F50AF5C8
:1026B8000BD083D0828014850A82850B83A3A375EF
:1026C80008F17509FF750AFF750BFF780812148168
:1026D800750CFF750DFF750EFF750F007808790CE6
:1026E8001214CFEE240EF582EF3400F58378081229
:1026F8001517900C4BE06427700474258002E004E1
:10270800F0023197EE65087003EF65096031900CAF
:102718005FE0F9120DEB850882850983E064027099
:102728001E900C48E064017016900C47E070107918
:102738000012108B12105B1210857901121091E5AE
:102748000E6012900C59E0F8A3E0F9A3E06870035A
:10275800A3E0697039120FEF8A0C8B0D8C0E8D0F68
:10276800751003751100751200751300780C791037
:1027780012146E7510FF7511FF7512FF780C791021
:102788001214CF8E828F83A3A3780C121517850A93
:1027980082850B83A3A3750CF1750DFF750EFF756C
:1027A8000FFF780C121481780C1218BC8E828F835C
:1027B800A3A3C082C083900C5BE0F508A3E0850862
:1027C8000CF50DE4F50EF50FD083D082780C1214B9
:1027D80081AA0CAB0DAC0EAD0F12232B740412168C
:1027E8004EE9701F8E828F83A3A3C082C083900C92
:1027F8005BE0F508A3E0F509E4F50AF50BD083D012
:10280800828014850A82850B83A3A37508F1750954
:10281800FF750AFF750BFF022F80850882850983E3
:10282800E064027013900C48E06401700B900C4750
:10283800E07005790012108BE50C2404FEE50D34D8
:1028480000FF8E828F83E0F9120FB38E828F83E0B0
:10285800900915F07902FA75F005A4CAA8F028FBCA
:1028680074172AFA74093BFB121EE6AA0AAB0B027C
:102878003273EE65087003EF65098E828F836003FB
:10288800022A96E024FE600A24FE70030229D3027D
:10289800326FEE2415F582EF3400F583E0604C903A
:1028A8000C43E0F8A3E0F9A3E0687003A3E06960D3
:1028B8003A120FEF8A088B098C0A8D0B750C0A7572
:1028C8000D00750E00750F007808790C12146E78DB
:1028D800081218BC8E828F83A3A312152612232BED
:1028E800740412164EE9600302326F120FEF8A0861
:1028F8008B098C0A8D0B750C03750D00750E007510
:102908000F007808790C12146E750CFF750DFF75A1
:102918000EFF7808790C1214CF8E828F83A3A378C8
:1029280008121517EE2415F582EF3400F583E064DC
:102938000170328E828F83A3A3C082C083900C451E
:10294800E0F508A3E0F509E4F50AD083D082780819
:10295800121481EE240EF582EF3400F58378081204
:10296800151702326FEE240EF582EF3400F583124C
:1029780018D38E828F83A3A312152612232B7404D7
:1029880012164EE96401600302326F8E828F83A3B0
:10299800A3C082C083900C45E0F508A3E0F509E4E4
:1029A800F50AD083D0827808121481EE240EF582BD
:1029B800EF3400F5837808121517900C4BE0642764
:1029C800700474258002E00402326E900C59E0F81D
:1029D800A3E0F9A3E0687003A3E0696037120FEF82
:1029E8008A088B098C0A8D0B750C0A750D00750EFB
:1029F80000750F007808790C12146E78081218BC4C
:102A08008E828F83A3A312152612232B7404121609
:102A18004EE97077EE2402F508EF3400F509120F3D
:102A2800EF8A0C8B0D8C0E8D0F75100375110075C8
:102A38001200751300780C791012146E7510FF755A
:102A480011FF7512FF780C79101214CF8508828552
:102A58000983780C121517850882850983C082C0FE
:102A680083900C5BE0F508A3E0F509E4F50AF50BA3
:102A7800D083D0827808121481EE240EF582EF34C8
:102A880000F5837808121517120DF102326FE02451
:102A9800FE600A24FE7003022B86023276120DE5D0
:102AA800900C48E064017016900C47E070107901B2
:102AB80012108B12105B1210857900121091900C75
:102AC80043E0F8A3E0F9A3E0687003A3E069603786
:102AD800120FEF8A088B098C0A8D0B750C0A750D7D
:102AE80000750E00750F007808790C12146E7808BE
:102AF8001218BC8E828F83A3A312152612232B745F
:102B08000412164EE97074EE2402F508EF3400F54D
:102B180009120FEF8A0C8B0D8C0E8D0F7510037533
:102B28001100751200751300780C791012146E7567
:102B380010FF7511FF7512FF780C79101214CF85EC
:102B48000882850983780C12151785088285098300
:102B5800C082C083900C45E0F508A3E0F509E4F5D0
:102B68000AF50BD083D0827808121481EE240EF572
:102B780082EF3400F5837808121517023197900C0C
:102B88005FE0F9120DEB850882850983E064027025
:102B98001E900C48E064017016900C47E0701079A4
:102BA8000012108B12105B1210857901121091908F
:102BB8000C59E0F8A3E0F9A3E0687003A3E06960AA
:102BC80037120FEF8A088B098C0A8D0B750C0A7562
:102BD8000D00750E00750F007808790C12146E78C8
:102BE800081218BC8E828F83A3A312152612232BDA
:102BF800740412164EE97079EE2402F8EF3400F9E5
:102C080088088909120FEF8A0C8B0D8C0E8D0F75B1
:102C18001003751100751200751300780C791012E5
:102C2800146E7510FF7511FF7512FF780C7910126C
:102C380014CF850882850983780C121517850882B8
:102C4800850983C082C083900C5BE0F508A3E0F59A
:102C580009E4F50AF50BD083D0827808121481EEC6
:102C6800240EF582EF3400F5837808121517120D3B
:102C7800F1023269900914E0700302308D120E6F70
:102C8800E9F875F005A4C8AAF02AF9741728F51010
:102C9800740939F511851082F583E0F508A3E0F58C
:102CA80009900915E0F875F005A4C8AAF02AF97486
:102CB8001728F50C740939F50D900CBBE054077012
:102CC80003022F9BA3E0F9120F7D8A0A8B0BAE0A31
:102CD800AF0BAC08AD09120F77E9F50E7402650E5B
:102CE8007003022F9B850C82850D83A3A3A3A3E009
:102CF800F875F08AA4C8AAF02AF9741F28F50A748E
:102D08000D39F50BAA0AFB120FA7AA0AAB0B120F73
:102D1800A175128075130078121218C07C007D60AE
:102D2800E50A2406FAE50B3401FB120EE7740212D9
:102D3800164EA80AA90B906195E0C0E0E82486F534
:102D480082E93401F583D0E0F0906196E0C0E0E8D4
:102D58002487F582E93401F583D0E0F0906197E0AB
:102D6800C0E0E82488F582E93401F583D0E0F090EA
:102D78006198E0C0E0E82489F582E93401F583D060
:102D8800E0F08E828F83E024FE600A24FE70030246
:102D98002EA6022F9B120DE5900C48E064017011DD
:102DA800900C47E0700B12105B121085790012101E
:102DB80091E50E6012900C43E0F8A3E0F9A3E068F7
:102DC8007003A3E0697036120FEF8A0C8B0D8C0E1E
:102DD8008D0F751003751100751200780C7910129B
:102DE800146E7510FF7511FF7512FF780C791012AB
:102DF80014CF8E828F83A3A3780C121517850882AF
:102E0800850983A3A3750CF1750DFF750EFF750F6A
:102E1800FF780C121481780C1218BC8E828F83A351
:102E2800A3C082C083900C45E0F50CA3E0F50DE447
:102E3800F50EF50FD083D082780C121481AA0CAB52
:102E48000DAC0EAD0F12232B740412164EE9701F31
:102E58008E828F83A3A3C082C083900C45E0F508BF
:102E6800A3E0F509E4F50AF50BD083D08280148538
:102E78000882850983A3A37508F17509FF750AFF00
:102E8800750BFF7808121481750CFF750DFF750E10
:102E9800FF750F007808790C1214CF023188900C56
:102EA8005FE0F9120DEBE50E6012900C59E0F8A303
:102EB800E0F9A3E0687003A3E0697036120FEF8AA7
:102EC8000C8B0D8C0E8D0F7510037511007512008B
:102ED800780C791012146E7510FF7511FF7512FFBA
:102EE800780C79101214CF8E828F83A3A3780C12DA
:102EF8001517850882850983A3A3750CF1750DFF45
:102F0800750EFF750FFF780C121481780C1218BC1F
:102F18008E828F83A3A3C082C083900C5BE0F50CE4
:102F2800A3E0F50DE4F50EF50FD083D082780C12EE
:102F38001481AA0CAB0DAC0EAD0F12232B74041226
:102F4800164EE9701F8E828F83A3A3C082C0839020
:102F58000C5BE0F508A3E0F509E4F50AF50BD0836E
:102F6800D0828014850882850983A3A37508F1752A
:102F780009FF750AFF750BFF7808121481750CFF9D
:102F8800750DFF750EFF750F007808790C1214CFB8
:102F9800023257E510650C7004E511650D700302E7
:102FA800306B850C82850D83A3A3A3E070030230E8
:102FB8004F850C82850D83A3A3A3A3E0F875F08A3F
:102FC800A4C8AAF02AF9741F28FE740D39FFEEFA76
:102FD800EFFB120FA7EEFAEFFB120FA1750A80752F
:102FE8000B00780A1218C07C007D60EE2406FAEF08
:102FF8003401FB120EE7740212164E906195E0C080
:10300800E0EE2486F582EF3401F583D0E0F090619C
:1030180096E0C0E0EE2487F582EF3401F583D0E036
:10302800F0906197E0C0E0EE2488F582EF3401F576
:1030380083D0E0F0906198E0C0E0EE2489F582EF5B
:103048003401F583D0E0F0E5102404FEE5113400E6
:10305800FF8E828F83E0F9120FB38E828F83E09008
:103068000915F07902900915E0FA75F005A4CAA8C7
:10307800F028FB74172AFA74093BFB121EE6AA080B
:10308800AB09023273900CBBE0540770030232762E
:10309800A3E0F9120F7D8A088B09AE08AF098E826A
:1030A8008F83E024FE600A24FE700302319F0232FF
:1030B80076120DE5900C48E064017016900C47E01C
:1030C8007010790112108B12105B121085790012A2
:1030D8001091900C43E0F8A3E0F9A3E0687003A313
:1030E800E0696037120FEF8A088B098C0A8D0B751F
:1030F8000C0A750D00750E00750F007808790C1212
:10310800146E78081218BC8E828F83A3A31215261A
:1031180012232B740412164EE97074EE2402F5087B
:10312800EF3400F509120FEF8A0C8B0D8C0E8D0F02
:10313800751003751100751200751300780C79105D
:1031480012146E7510FF7511FF7512FF780C791047
:103158001214CF850882850983780C121517850803
:1031680082850983C082C083900C45E0F508A3E0FE
:10317800F509E4F50AF50BD083D08278081214819A
:10318800EE240EF582EF3400F583780812151790B7
:103198000CBC740202326E900C5FE0F9120DEB90D9
:1031A8000C59E0F8A3E0F9A3E0687003A3E06960B4
:1031B80037120FEF8A088B098C0A8D0B750C0A756C
:1031C8000D00750E00750F007808790C12146E78D2
:1031D800081218BC8E828F83A3A312152612232BE4
:1031E800740412164EE97076EE2402F8EF3400F9F2
:1031F80088088909120FEF8A0C8B0D8C0E8D0F75BC
:103208001003751100751200751300780C791012EF
:10321800146E7510FF7511FF7512FF780C79101276
:1032280014CF850882850983780C121517850882C2
:10323800850983C082C083900C5BE0F508A3E0F5A4
:1032480009E4F50AF50BD083D0827808121481EED0
:10325800240EF582EF3400F5837808121517120D45
:10326800F1900CBC7404F0EEFAEFFB120F717F0CB6
:1032780002177F74F01216ADEAFEEBFFEE2402F897
:10328800EF3400F988088909EE2406F8EF3400F9CC
:10329800880A890B8882F5831218D78508828509E0
:1032A80083121526120FCB740212164E850A8285D8
:1032B8000B831218D7850882850983121526120FE9
:1032C800BF740212164EEE240EF582EF3400F58319
:1032D800121526120FD18E828F83E06440701CEE87
:1032E8002412F8EF3400F988828983E0906064F052
:1032F80088828983A3E09060658006906064E4F02A
:10330800A3F0900CBDEEF0A3EFF0EE2416F582EFDB
:103318003400F583E0F8A3E0F58388821216AB90B9
:103328006054E4F0A3F0A3F0A3F0A3F0A3F0A3F09B
:10333800A3F0A3F0A3F0A3F0A3F0906182E0C2E6AB
:10334800F07591BFEE2415F582EF3400F583E06443
:10335800017003121001E5E170FCEE2414F582EF10
:103368003400F583E0F46003E0F5E1EE2415F5821E
:10337800EF3400F5837401F09008EDE06401707398
:10338800120FEF8A088B098C0A8D0B78081218BC6B
:103398008E828F83A3A31215261223847404121617
:1033A8004E8A088B098C0A8D0B750C05750D0075F6
:1033B8000E00750F007808790C121346740378080C
:1033C800121436E50824F4F508E5093401F50990E6
:1033D8000C65E06003120299E4F50AF50B7808120F
:1033E80018BC7A207B009008E6E0F91202E1740428
:1033F80012164E7F0802177F74EA1216ADEAFEEB2A
:10340800FF8C148D15EE4F700302351C120FEF8AD6
:10341800088B098C0A8D0B750C01750D00750E0053
:10342800750F007808790C12146E750CFF750DFF76
:10343800750EFF7808790C1214CF8E828F83E064A2
:10344800027014900C43E0F8A3E0F9A3E06870035D
:10345800A3E06970248017E06404701D900C59E0A3
:10346800F8A3E0F9A3E0687003A3E069700B8E820B
:103478008F83A3A3780812151775101A7511007594
:10348800120075130078081218BC851482851583FC
:10349800A3A3121526122384740412164E8A0C8BC9
:1034A8000D8C0E8D0F7810790C1213074066851459
:1034B80082851583A3A3750CE7750DFF750EFF753F
:1034C8000FFF780C121481780C1218BC8E828F832F
:1034D800A3A312152612232B740412164EE9703476
:1034E800750C07750D00750E00750F007808790CBE
:1034F80012146E78081218BC8E828F83A3A312153B
:103508002612232B740412164EE9700479008006E3
:103518007901800279027F0E02177F74F01216ADCE
:10352800890874FF650860030236B1900CBBE0544B
:10353800077003023B8D7A0078BA790C88828983F8
:10354800A3A3A3A3A3E06404703FEA75F018A4F84A
:10355800A9F074C028F582740C39F583E064017011
:10356800377A0078BA790C88828983A3A3A3A3A3A6
:10357800E06404600302360688828983A3A3A3A3B8
:10358800A3A3E06401707780630AE82418F8E9349B
:1035980000F9EAC3940440A47A0078BA790C8882C6
:1035A8008983A3A3A3A3A3E064017067EA75F01855
:1035B800A4F8A9F074C028F582740C39F583E06486
:1035C8000170627A0078BA790C88828983A3A3A3F0
:1035D800A3A3E06401600302368D88828983A3A3D4
:1035E800A3A3A3A3E06401600302368DEA75F01873
:1035F800A4F8A9F074BF28FA740C39023B8A0AE8C7
:103608002418F8E93400F9EAC39404500302356F2A
:10361800023B8D0AE82418F8E93400F9EAC3940457
:1036280050030235A67A0078BA790C88828983A378
:10363800A3A3A3A3E064027061EA75F018A4F8A933
:10364800F074C028F582740C39F583E06401705970
:103658007A0078BA790C88828983A3A3A3A3A3E00C
:103668006402707A88828983A3A3A3A3A3A3E064D6
:1036780001706BEA75F018A4F8A9F074BF28FA7401
:103688000C39FB806F0AE82418F8E93400F9EAC31A
:10369800940450030235D1023B8D0AE82418F8E956
:1036A8003400F9EAC3940440827A0078BA790C8825
:1036B800828983A3A3A3A3A3E06508703A888289BB
:1036C80083A3A3A3A3A3A3E06401702BEA75F01856
:1036D800A4F8A9F074BF28FE740C39FF802C0AE8FE
:1036E8002418F8E93400F9EAC39404500302365E5A
:1036F8007A007B00023B910AE82418F8E93400F9C3
:10370800EAC3940440A97E007F007A0078BA790C55
:1037180088828983A3A3A3A3A3E06508701BEA7525
:10372800F018A4F8A9F074C028F582740C39F58350
:10373800E0640170137A0180110AE82418F8E9346A
:1037480000F9EAC3940440C87A00E508146010142C
:1037580070030238C824FE70030239DB023B8D7BFC
:103768000078BA790C88828983A3A3A3A3A3E06411
:10377800027052EB75F018A4F8A9F074C028F5820D
:10378800740C39F583E06401704A7B0078BA790CCF
:1037980088828983A3A3A3A3A3E0640260030238F9
:1037A8003688828983A3A3A3A3A3A3E06401707EC0
:1037B800EB75F018A4F8A9F074BF28F50A740C3951
:1037C800F50B02384E0BE82418F8E93400F9EBC37E
:1037D800940440917B0078BA790C88828983A3A3EA
:1037E800A3A3A3E06404600302388FEB75F018A468
:1037F800F8A9F074C028F582740C39F583E06401E7
:1038080060030238A17B0078BA790C88828983A387
:10381800A3A3A3A3E0640460030238AC888289836D
:10382800A3A3A3A3A3A3E064017079023A2F0BE832
:103838002418F8E93400F9EBC394045003023798CC
:10384800750A00750B00EAA2E05035850A82850BDF
:1038580083A3A3750CF6750DFF750EFF750FFF7822
:103868000C121481780C1218BC8E828F83A3A312B9
:10387800152612232B740412164EE97003023B8797
:10388800AA0AAB0B023B910BE82418F8E93400F9BB
:10389800EBC3940450030237E2EAA2E0501BEEFAAD
:1038A800EFFB80190BE82418F8E93400F9EBC3940E
:1038B800045003023813023AD47A007B00023B9189
:1038C8007B0078BA790C88828983A3A3A3A3A3E099
:1038D80064047040EB75F018A4F8A9F074C028F5DA
:1038E80082740C39F583E0640170387B0078BA790A
:1038F8000C88828983A3A3A3A3A3E06404600302C2
:10390800398D88828983A3A3A3A3A3A3E06401704C
:1039180074023A2F0BE82418F8E93400F9EBC39441
:103928000440A37B0078BA790C88828983A3A3A377
:10393800A3A3E064017063EB75F018A4F8A9F07410
:10394800C028F582740C39F583E06401705B7B0054
:1039580078BA790C88828983A3A3A3A3A3E064011E
:10396800705288828983A3A3A3A3A3A3E0640170F0
:1039780043EB75F018A4F8A9F074BF28F50A740C85
:1039880039F50B80440BE82418F8E93400F9EBC347
:10399800940450030238F9023AD40BE82418F8E9E1
:1039A8003400F9EBC394044080EAA2E0501EEEFA1A
:1039B800EFFB801C0BE82418F8E93400F9EBC394FA
:1039C800044091750A00750B00023ADA7A007B0010
:1039D800023B917B0078BA790C88828983A3A3A3E0
:1039E800A3A3E064017055EB75F018A4F8A9F0746E
:1039F800C028F582740C39F583E06401704D7B00B2
:103A080078BA790C88828983A3A3A3A3A3E064016D
:103A18006003023AC288828983A3A3A3A3A3A3E075
:103A280064016003023AC2EB75F018A4F8A9F074B7
:103A3800BF28F50A740C39F50B023ADA0BE824189A
:103A4800F8E93400F9EBC39404408E7B0078BA7926
:103A58000C88828983A3A3A3A3A3E0640260030262
:103A68003B19EB75F018A4F8A9F074C028F5827416
:103A78000C39F583E064016003023B2B7B0078BAC4
:103A8800790C88828983A3A3A3A3A3E064026003BB
:103A9800023B3288828983A3A3A3A3A3A3E0640182
:103AA8006003023B32EB75F018A4F8A9F074BF2844
:103AB800F50A740C39F50B023B4A0BE82418F8E9AF
:103AC8003400F9EBC394045003023A0C750A0075EC
:103AD8000B00EAA2E04003023888850A82850B833E
:103AE800A3A3750CF6750DFF750EFF750FFF780C07
:103AF800121481780C1218BC8E828F83A3A312151E
:103B08002612232B740412164EE9600302388880AB
:103B18006E0BE82418F8E93400F9EBC39404500359
:103B2800023A59EAA2E0505D80550BE82418F8E9FA
:103B38003400F9EBC394045003023A8A750A0075FD
:103B48000B00EAA2E04003023888850A82850B83CD
:103B5800A3A3750CF6750DFF750EFF750FFF780C96
:103B6800121481780C1218BC8E828F83A3A31215AD
:103B78002612232B740412164EE96003023888EECD
:103B8800FAEFFB80047A007B000233FB74F612160E
:103B9800AD890975080078BA790C88828983A3A34E
:103BA800A3A3A3A3E06003023C70E50875F018A482
:103BB800F8A9F074BF28FE740C39FF8E828F83A396
:103BC8007401F08E828F83E509F0120FEF8E828FD9
:103BD80083A3A31215328E828F83A3A3A3A3A3A3C7
:103BE800E4F0A3F0EE240EF582EF3400F58374FFC1
:103BF800F0A3F0A3F0A3F0EE2414F582EF3400F55F
:103C0800837401F0EE2415F582EF3400F583740116
:103C1800F0EE2416F582EF3400F583E4F0A3F0907B
:103C28000CBBE04509F0900CBAE004F06401600CAC
:103C3800748065096006744065097019E50875F0B7
:103C480018A4F8A9F074BF28F8740C39F9900CBDC1
:103C5800E8F0A3E9F0E50875F018A4F8A9F074BF36
:103C680028FA740C39FB80180508E82418F8E93498
:103C780000F9E508C394045003023BA27A007B00D4
:103C880080007F0202177FC082C0838A828B83E014
:103C9800F8A3E0F98A828B83E4F0A3F08882898311
:103CA800A3F088828983E0F4F8900CBBE058F09088
:103CB8000CBAE014F0700B900CBDE4F0A3F090087F
:103CC800E7F0801CC082C083900CBAE0600A900CB8
:103CD800BDE0FAA3E0FB80047A007B008002E0F9F3
:103CE800D083D082020122C082C083E9FB7A0078A7
:103CF800BA790C88828983A3A3A3A3A3E06B701667
:103D0800EA75F018A4F8A9F074C028F582740C3983
:103D1800F583E0F980110AE82418F8E93400F9EA93
:103D2800C3940440CE790080B7C082C083900CBA97
:103D3800023CE674F61216ADEAFEEBFF9061D0E0A5
:103D4800C0E0EE2400F582EF3401F583D0E0F09076
:103D580061D7E0F89061D5E0C398547FC0E0EE24C5
:103D680001F582EF3401F583D0E0F09061D6E0C32D
:103D780098547FC0E0EE2402F582EF3401F583D039
:103D8800E0F0701A9061C5E0A2E45012E0A2E7509A
:103D98000DEE2402F582EF3401F5837480F01210E1
:103DA800B5EE2401F582EF3401F583E07034EE249A
:103DB80002F582EF3401F583E070279061C5E0A237
:103DC800E4501FE0A2E7501AEE2402F582EF340116
:103DD800F5837480F0EE2401F582EF3401F58374E5
:103DE80080F075E1957800EE2400F582EF3401F556
:103DF80083E060279061D3E0C0E08808EE2508F5ED
:103E080082EF3400F583D0E0F008EE2400F582EF6D
:103E18003401F583E0F9E8C39940D975E191023C92
:103E28008A74F61216ADEAFEEBFF9061C8E0C0E0B6
:103E3800EE2403F582EF3401F583D0E0F09061CFF2
:103E4800E0F89061CDE0C398547FC0E0EE2404F51B
:103E580082EF3401F583D0E0F09061CEE0C398544E
:103E68007FC0E0EE2405F582EF3401F583D0E0F061
:103E7800701A9061C5E0A2E05012E0A2E3500DEE86
:103E88002405F582EF3401F5837480F01210BBEE3F
:103E98002404F582EF3401F583E07034EE2405F54F
:103EA80082EF3401F583E070279061C5E0A2E0500D
:103EB8001FE0A2E3501AEE2405F582EF3401F583E2
:103EC8007480F0EE2404F582EF3401F5837480F0F9
:103ED8001210C17A00EE2403F582EF3401F583E075
:103EE800602F9061CBE0C0E08A08EE2508F8EF3437
:103EF80000F9E82480F582E93400F583D0E0F00A7F
:103F0800EE2403F582EF3401F583E0F8EAC3984024
:103F1800D175E181023C8A74F41216AD8908A808AB
:103F2800E875F08AA4C8AAF02AF9741F28FE740D4F
:103F380039FFEEFAEFFB120FA7EEFAEFFB120FA113
:103F4800750A80750B00780A1218C07C007D60EE37
:103F58002406FAEF3401FB120EE7740212164E9093
:103F68006195E0C0E0EE2486F582EF3401F583D058
:103F7800E0F0906196E0C0E0EE2487F582EF34012E
:103F8800F583D0E0F0906197E0C0E0EE2488F582F8
:103F9800EF3401F583D0E0F0906198E0C0E0EE24C2
:103FA80089F582EF3401F583D0E0F07F0402177FB2
:103FB80074F21216AD8908A808E875F08AA4C8AA90
:103FC800F02AF9741F28F8740D39F99061C6E0FDDC
:103FD800E054F0F075E1817C00E82403F582E934CF
:103FE80001F583E0602B8C0AE8250AFAE93400FB26
:103FF800EA2480F582EB3400F583E09061CAF00C86
:10400800E82403F582E93401F583E0FAECC39A4029
:10401800D5E82405F582E93401F583E06004906170
:10402800CEF0E82404F582E93401F583E0600490D9
:1040380061CDF0ED9061C6F0A808E875F08AA4C8D3
:10404800AAF02AF9741F28F8740D39F9E0FCE05435
:104058000FF075E1917A00E82400F582E93401F562
:1040680083E060238A0AE8250AF582E93400F583AB
:10407800E09061D2F00AE82400F582E93401F58382
:10408800E0FBEAC39B40DDE82402F582E93401F550
:1040980083E060049061D6F0E82401F582E93401F8
:1040A800F583E060049061D5F0EC9061C6F0850876
:1040B80082AE82EEF875F08AA4C8AAF02AF9741FB5
:1040C80028F50A740D39F50B750C80750D00780C00
:1040D8001218C0E50A2406FCE50B3401FD7A007BC2
:1040E80060120EE7740212164EA80AA90BE824867D
:1040F800F582E93401F583E0906195F0E82487F5CD
:1041080082E93401F583E0906196F0E82488F5822D
:10411800E93401F583E0906197F0E82489F582E9B4
:104128003401F583E0906198F0EE75F005A4CEA80F
:10413800F028FF74172EF58274093FF583E0F8A381
:10414800E0F5838882E0648070419012827429F0DF
:10415800A3740FF0A37411F0A3740FF0A37429F0E3
:10416800A3740FF0A37429F0A3740FF0A37411F0D3
:10417800A3740FF0A37429F0A3740FF0A3742FF0A5
:10418800A3740FF09008E7740880059008E7740797
:10419800F09012907411F0A3740FF0A37411F0A3AF
:1041A800740FF0A37411F0A3740FF0A37411F0A3AB
:1041B800740FF0A37411F0A3740FF0A37411F0A39B
:1041C800740FF07F0602177FC082C08390619074DD
:1041D80004F0A37448F0A37402F09061807440F076
:1041E8009061BC7403F09061877419F090626574F3
:1041F8001BF0906249E0C3941390619C400A7409D3
:10420800F090606674018007740DF0906066E4F0C9
:1042180090619A7433F0A37455F09061A0743AF0E9
:10422800900C63E064017009C2919008EB74678098
:10423800059008EB7461F09023EEE493906186F0AA
:104248009023E8E493F46027E493540FF890618591
:10425800E0686012E5C654804449F5C6E59E547F7F
:10426800644970F8E8F053C680E59E547F70FA7987
:10427800051210AF0246A2C082C083E5A8F853A871
:104288007E906181E4F0A3F0A3F0C2BA539AFEC213
:1042980089759B00C2C275E90075910075BF0075EC
:1042A800A91175B905906181F0A374C0F0A3E4F079
:1042B800D2BA439A0174805842A80246A2F0024634
:1042C800A2C082C08374F81216389008E9E0F8A3F7
:1042D800E0F9E84970030243F79008E9E0544060C8
:1042E800237908851882851983AA82AB83120EC99F
:1042F800851882851983AA82AB83120BB79008E9C7
:10430800E054BFF0E054806010790C7A897B0C127D
:104318000EC99008E9E0547FF0E0A2E050319061C6
:104328009A7433F0A37455F09061A0743AF0900C2D
:1043380063E064017009C2919008EB74678005908E
:1043480008EB7461F0120BBD9008E9E054FEF0E050
:104358005402603190619A743FF0A3745AF09061EE
:10436800A0747FF0900C63E064017009D29190080A
:10437800EB747180059008EB746AF0120BBD90081D
:10438800E9E054FDF0E0540460139023ECE49390CA
:104398006186F0120BC39008E9E054FBF0E0540882
:1043A80060139023EDE493906186F0120BC390089C
:1043B800E9E054F7F0E0541060139023EEE4939092
:1043C8006186F0120BC39008E9E054EFF0E0542046
:1043D800600A120BC39008E9E054DFF0A3E054012F
:1043E800600D120DD3120BC99008EAE054FEF07468
:1043F8000812164E0246A2C082C083E96005146006
:104408002A804F90619A7433F0A37455F09061A09C
:10441800743AF0900C63E064017009C2919008EB63
:104428007467802D9008EB7461802690619A743FC0
:10443800F0A3745AF09061A0747FF0900C63E0646C
:10444800017009D2919008EB747180059008EB74A3
:104458006AF00246A274EC1216AD74F4121638858E
:104468001882851983AC82AD837583837582D9746C
:104478000412154B9023EC93F460030245E99078FD
:1044880008E0C3940250030245C974041216A1AC93
:1044980082AD83758383758270740812154B8518F5
:1044A8008285198385821285831374041216A1AC40
:1044B80082AD83750EFF750FFF7FFF7E00750C4878
:1044C800750D78801574086E700302455D74096E69
:1044D800700302455D740A6E607B850C82850D83CE
:1044E80078081215088C828D83A909E50AC9F8880D
:1044F8001074187808121436E5104508F8C3E098C7
:10450800A3E099850C82850D837808121508401858
:104518008C828D8374187808121436E5104508F8D3
:10452800E0C398F8A3E0801C74187808121436E5E4
:10453800104508FAE9FB8C828D83E0F8A3E0F9EADC
:10454800C398F8EB99F9C3E8950EE9950F500688DA
:104558000E890FEEFF0EE50C2404F50CE50D340072
:10456800F50DEEC3941350030244CD74FF650E702D
:104578000474FF650F60238F0874027808121625EB
:1045880074482508F58274783509F583780812157A
:1045980008851282851383E508F0EC2402FCED34CB
:1045A80000FD851282851383A38582128583137487
:1045B8000C1216A1E5826C7003E5836D600302445A
:1045C800BB75080175090078081218C07402121624
:1045D800A1AC82AD837AFB7B0812047974021216AF
:1045E8004E740C12164E7F0C02177FC082C0839047
:1045F80061AE7468F0A3746AF090624574FBF0A32E
:1046080004F053F4FD43FE02900C637401F09061D2
:10461800A0E0643A90619A70237433F0A37455F063
:104628009061A0743AF0740164017009C291900815
:10463800EB746780289008EB74618021743FF0A3C5
:10464800745AF09061A0747FF0740164017009D20B
:10465800919008EB747180059008EB746A0242C56A
:10466800C082C083900C41E064017011900C47E057
:1046780064016019E07006A3E064016010900C58B2
:10468800E06401700C900C5EE064017004790C80A9
:104698000279008005E0F91223D9D083D082020183
:1046A80022C082C083900C4B7425F0900C49740191
:1046B800F0A3E4F07A01FB12102B900C37E0F8A37A
:1046C800E0C82416F582E83400F58374F7F0A37483
:1046D8000DF0900C48E064017016900C47E07010E3
:1046E800790112108B12105B121085790012109745
:1046F8000246A2C082C08374FA121638900C40E0B9
:1047080064017008120DDF900C40E4F075E1F1903F
:104718000C37E0F8A3E0C82415F582E83400F583E7
:104728007401F0900C42E0640170769083A3C0821B
:10473800851882851983AC82AD83758383D0827492
:104748000612154B75D90D900C39E0C4333354C09B
:104758004403F5D97837790C88828983A3A3A3E029
:10476800F5D988828983A3A882A983E8643D700368
:10477800E9640C70E3851882851983A882A9838867
:10478800828983E0F5D9A3A882A98374061216A1A9
:10479800E582687003E5836970E575E195790180C4
:1047A8000279001210319012827447F0A3740FF04E
:1047B800A3744DF0A3740FF0A37447F0A3740FF023
:1047C800A37447F0A3740FF0A37411F0A3740FF04F
:1047D800A37411F0A3740FF0A37453F0A3740FF033
:1047E8009012907411F0A3740FF0A37411F0A374D5
:1047F8000FF0A37411F0A3740FF0A37411F0A37455
:104808000FF0A37411F0A3740FF0A37411F0A37444
:104818000FF0900C39E0F97A3A7B0C12100D900CDD
:104828004BE0F91223D979011210377AD67BBE7C76
:10483800897D8E12104F7A557B557C557D0012105C
:104848001979001210A3900C37E0F8A3E0C82414DB
:10485800F582E83400F5837416F09008E77405F0E3
:10486800040243F974F71216AD8908A808E875F030
:1048780005A4C8AAF02AF9741728FE740939FF900C
:104888000C50E0F97A517B0C12100D900C5EE07020
:104898001A790012106D900C26E0700479008002DD
:1048A80079017A277B0C1210138005790112106D9B
:1048B80075E1F175D923900C50E0C4333354C044EA
:1048C80005F5D9784E790C88828983A3A3A3E0F5EE
:1048D800D988828983A3A882A983E864547003E9EC
:1048E800640C70E375D90075D90075D90075D900C5
:1048F80075D90075D900EEF8EFF9E82404FAE9341F
:1049080000FBE82422F582E93400F583E0F5D98834
:10491800828983A3A882A983EA687002EB6970E29E
:10492800EEF8EFF9E824031AE93400FBE82426F549
:1049380082E93400F583E0F5D988828983A3A882C7
:10494800A983EA687002EB6970E2EE242BF582EF26
:104958003400F583E0F5D9EE242CF582EF3400F528
:1049680083E0F5D9EE242DF582EF3400F583E0F5E8
:10497800D9EE242EF582EF3400F583E0F5D9EE2444
:104988002FF582EF3400F583E0F5D9EE2430F58277
:10499800EF3400F583E0F5D9EE2431F582EF3400E9
:1049A800F583E0F5D9EE2432F582EF3400F583E0A3
:1049B800F5D9EE2433F582EF3400F583E0F5D9EE2E
:1049C800F8EFF9E82405FAE93400FBE8245DF582FC
:1049D800E93400F583E0F5D988828983A3A882A900
:1049E80083EA687002EB6970E2EE2437F582EF34EF
:1049F80000F583E0541FF8EE242AF582EF3400F521
:104A080083E0C43354E048F5D975E1959012827477
:104A180017F0A3740FF0A3741DF0A3740FF0A37420
:104A280011F0A3740FF0A37411F0A3740FF0A37422
:104A380011F0A3740FF0A37411F0A3740FF0A37412
:104A480023F0A3740FF09012907411F0A3740FF078
:104A5800A37411F0A3740FF0A37411F0A3740FF0F2
:104A6800A37411F0A3740FF0A37411F0A3740FF0E2
:104A7800A37411F0A3740FF0900C5DE0F91223D920
:104A88007AD67BBE7C897D8E12104F7A557B557CF9
:104A9800557D0012101990600DE4F079011210A3F1
:104AA8009008E77406F002506574E81216AD900C91
:104AB8004EE0F8A3E0F5838882A3A3780C121508CA
:104AC800900C5FE0FAF875F005A4C8ACF02CF97406
:104AD8004528F582740939F583E0FEA3E0FFEEC3AB
:104AE80033FEEF33FF8E14F5157516007517008524
:104AF8000C08850D09850E0A850F0B7510047511B4
:104B0800007512007513007808791012146E780871
:104B18001218BC850C08850D09850E0A850F0B78BF
:104B280008791412146E780C79141213C6E4F51669
:104B3800F517780879141214A78A0C750D007403F8
:104B4800780C121625E50D3395E0F50EF50F78086B
:104B5800790C12146E750CFF750DFF750EFF780831
:104B6800790C1214CFAA08AB09AC0A7D0012238471
:104B7800740412164E8A088B09A808A909C3EE986E
:104B8800EF995006E82EF8E93FF9E890600EF0E951
:104B9800A3F0EEA3F0EFA3F090600D74C1F07F10C6
:104BA80002177FC082C083900C37E0F8A3E0C824C6
:104BB80006F582E83400F583E4F0A3F0900C4B028C
:104BC800469DC082C083900C4EE0F8A3E0C824063E
:104BD800F582E83400F583E4F0A3F0900C5D02461A
:104BE8009D02012274F61216AD9061D0E0F874802F
:104BF800C398FCEA2482F582EB3400F583E0600474
:104C0800780480027800E8240EF8ECC39850030278
:104C18004D187C0C900C69E4F0EA2476F582EB34AC
:104C280000F583E0900C6AF0EA2477F8EB3400F999
:104C380088828983E0900C6BF088828983A3E09056
:104C48000C6CF0EA2479F8EB3400F988828983E067
:104C5800900C6DF088828983A3E0900C6EF0EA24B2
:104C68007BF8EB3400F988828983E0900C6FF08838
:104C7800828983A3E0900C70F0EA247DF8EB34007D
:104C8800F988828983E0900C71F088828983A3E097
:104C9800900C72F0EA2474F8EB3400F98A828B8362
:104CA800A3A3A3A3A3E0FEA3E0FF88828983E02E49
:104CB800F0A3E03FF088828983E0900C73F088824B
:104CC8008983A3E0900C74F0EA2482F582EB340027
:104CD800F583E0601775086975090C78081218C023
:104CE8007903120F05740212164E7C1074012CF50C
:104CF800D975D90375826975830CECFEE0F5D9A3E3
:104D08001EEE70F875E1957904121055790180024C
:104D1800790002521574F61216AD9061D0E0F8745D
:104D280080C398FCEA2482F582EB3400F583E060C6
:104D380004780480027800E8240AF8ECC398500349
:104D4800024E10750808900C697401F07C2D7D0CDA
:104D5800786A790C7E058C828D83E088828983F05D
:104D68008C828D83A3AC82AD8388828983A3A88239
:104D7800A9831EEE70E0EA2480FCEB3400FD8A82F1
:104D88008B83A3A3A3A3A3E0FEA3E0FF8C828D8360
:104D9800E02EF0A3E03FF08C828D83E08882898347
:104DA800F08C828D83A3AC82AD8388828983A3082B
:104DB800A9838C828D83E088828983F0EA2482F536
:104DC80082EB3400F583E0601A75086975090C7880
:104DD800081218C07C087903120F05740212164EC7
:104DE80075080C74012508F5D975D903758269759C
:104DF800830CAE08E0F5D9A31EEE70F875E195793D
:104E08000412105579018002790002521574F712C4
:104E180016ADEAFEEBFF9061D0E06003024EFC7530
:104E2800D91875D90375D903EEF8EFF9E82408FA0B
:104E3800E93400FBE8249BF582E93400F583E0F5CA
:104E4800D988828983A3A882A983EA687002EB695A
:104E580070E2EE24A3F582EF3400F583E0F5D9EE95
:104E680024A4F582EF3400F583E0F5D9EE2493F518
:104E780082EF3400F583E5822408F8E5833400F9ED
:104E8800E0F5D9A3E865827003E9658370F2EE2442
:104E980087F582EF3400F583E5822404F8E583344E
:104EA80000F9E0F5D9A3E865827003E9658370F23B
:104EB80075E1957908EE2493FAEF3400FB120EBDE4
:104EC8007904EE2487FAEF3400FB120EBD79041240
:104ED8001055EE246FF582EF3400F583E0F8A3E077
:104EE800F9EE2471F582EF3400F583E8F0A3E9F0D8
:104EF80079018002790002506574F61216ADEAFE57
:104F0800EBFF900C697406F075086975090C780850
:104F18001218C07C017903120F05740212164E751F
:104F2800D90675D90375826975830CE0F5D9A3E5AF
:104F380082646E7004E583640C70F075E1959008E6
:104F4800E7E06408701EEE246FF582EF3400F58305
:104F5800E0F8A3E0F9EE2471F582EF3400F583E878
:104F6800F0A3E9F0790102521574F61216ADEAFEC3
:104F7800EBFF9061D0E0705E900C69740AF07508E0
:104F88006975090C78081218C07C017903120F059D
:104F9800740212164E75D90675D903758269758320
:104FA8000CE0F5D9A3E582646E7004E583640C70A7
:104FB800F075E195EE246FF582EF3400F583E0F8A3
:104FC800A3E0F9EE2471F582EF3400F583E8F0A34D
:104FD800E9F079018002790002521574F61216ADD3
:104FE800EAFEEBFF9061D0E070667801900C69747E
:104FF8000BF09008E7E06407701975086975090CEB
:1050080078081218C07C017903120F057402121671
:105018004E7805740128F5D975D9037582697583A9
:105028000CE8FAE0F5D9A31AEA70F875E195EE24D0
:105038006FF582EF3400F583E0F8A3E0F9EE247110
:10504800F582EF3400F583E8F0A3E9F079018002F6
:105058007900025215F0EEA2E092AF79007F0102CA
:10506800177F74F61216ADEAFEEBFF9061D0E0F8F8
:105078007480C398FAEE2482F582EF3400F583E059
:105088006004780480027800E8240BF8EAC398509A
:10509800030251407D09900C697408F0EE24E4F88D
:1050A800EF3400F97A6A7B0C7C0888828983E08A6D
:1050B800828B83F088828983A3A882A9838A828BC2
:1050C80083A3AA82AB831CEC70E0EE2482F582EF06
:1050D8003400F583E0601D75086975090C780812BD
:1050E80018C07C097903EEFAEFFB120F057402125F
:1050F800164E7D0D74012DF5D975D9037582697524
:10510800830C8D08E0F5D9A31508E50870F675E15C
:10511800957904121055EE246FF582EF3400F5836B
:10512800E0F8A3E0F9EE2471F582EF3400F583E8A6
:10513800F0A3E9F079018002790002521574F612A1
:1051480016ADEAFEEBFF9061D0E0F87480C398FAE0
:10515800EE2482F582EF3400F583E0600478048061
:10516800027800E82408F8EAC3985003025213783A
:1051780006900C69740CF0900904E0900C6AF090A9
:105188000905E0900C6BF0900906E0900C6CF0902B
:105198000907E0900C6DF0900908E0900C6EF0EEB5
:1051A8002482F582EF3400F583E0601B7508697589
:1051B800090C78081218C07C067903EEFA120F055C
:1051C800740212164E780A740128F5D975D9037538
:1051D800826975830C8808E0F5D9A31508E508707D
:1051E800F675E1957904121055EE246FF582EF34C7
:1051F80000F583E0F8A3E0F9EE2471F582EF3400BE
:10520800F583E8F0A3E9F07901800279007F0202D2
:10521800177F74F61216ADEAFEEBFF9061D0E0F846
:105228007480C398FAEE2482F582EF3400F583E0A7
:105238006004780480027800E82404F8EAC39850EF
:10524800030252F47802900C69E8F0EE24F6F58235
:10525800EF3400F583E0900C6AF0EE2482F582EFDB
:105268003400F583E0601B75086975090C7808122D
:1052780018C07C027903EEFA120F05740212164E5A
:105288007806740128F5D975D90375826975830C78
:105298008808E0F5D9A31508E50870F675E195EEDC
:1052A8002473F582EF3400F583E4F0EE247FF58271
:1052B800EF3400F583E4F0EE241DF582EF3400F5B9
:1052C80083E4F0A3F07904121055EE240DF582EF73
:1052D8003400F583E0F8A3E0F9EE2471F582EF34A9
:1052E80000F583E8F0A3E9F0790180027900025221
:1052F8001574F61216AD9061D0E0F87480C398FC6E
:10530800EA2482F582EB3400F583E06004780480B7
:10531800027800E82404F8ECC398405B7902900C0A
:10532800697407F0EA24F7F582EB3400F583E0901E
:105338000C6AF0EA2482F582EB3400F583E0601809
:1053480075086975090C78081218C07C0209120FD3
:1053580005740212164E7906740129F5D975D90318
:1053680075826975830CE9F8E0F5D9A318E870F837
:1053780075E19579018002790002521574F51216CB
:10538800ADE9FCA2AFE433F50AC2AF7D0080010DA0
:10539800EA246EF582EB3400F583E0F8EDC398500B
:1053A8001A8D08EA2508F8EB3400F9E8246AF58232
:1053B800E93400F583E06C70D68024EA246EF8EBBB
:1053C8003400F9E0FEEA2EFAEB3400FBEA246AF531
:1053D80082EB3400F583ECF088828983E004F0E501
:1053E8000AA2E092AF7F0302177F74F61216ADA2ED
:1053F800AFE433FDC2AFEA246EF582EB3400F583E7
:10540800E014F07C0060368C08EA2508F8EB3400DC
:10541800F9E8246BF582E93400F583E0C0E0E8247C
:105428006AF582E93400F583D0E0F00CEA246EF5E1
:1054380082EB3400F583E0F8ECC39840CAEA246DA7
:10544800F582EB3400F58374FFF0EA2469F582EB0A
:105458003400F583E4F0EDA2E092AF025215C08269
:10546800C083E5A8F8C2AFEA246AF582EB3400F5F8
:1054780083E9F0EA2469F582EB3400F583E4F0E887
:10548800A2E7A2E792AF0246A274F31216ADEAFEB3
:10549800EBFFECFAEDFB8A828B83A3A3A3A3E05472
:1054A8001FF0EE2436F582EF3400F583E4F0F50AB8
:1054B800EEFCEFFD8A828B83E0C0E0EC245DF58290
:1054C800ED3400F583D0E0F0750B00E50A33333393
:1054D80054F8F50C8A828B83E0F508750900E50B12
:1054E8007808121606E508A2E0502FEE2436F8EFE9
:1054F8003400F988828983E0F508EE2508F508EF7D
:105508003400F509E5082438F582E5093400F58307
:10551800E50CF088828983E004F0050B050CE50BA7
:10552800C3940840AF050A8A828B83A3AA82AB83FF
:105538008C828D83A3AC82AD83E50AC394055003A6
:105548000254BC7F0502177F74F71216AD90091339
:10555800E0640370030258367C0078137909888266
:105568008983A3A3A3A3A3A3E06003025824ECF8B0
:1055780075F005A4C8AAF02AF9741728FA7409392D
:10558800FB8A828B83A3A37401F08A828B83A3A3F3
:10559800A3E4F0EC8A828B83A3A3A3A3F0EA24629A
:1055A800F582EB3400F5837401F0EA2467F582EBA9
:1055B8003400F5837401F08A828B83A3A3A3A3A389
:1055C800E4F0A3F08A828B83A3A3A3A3A3A3A3F0ED
:1055D800A3F0EA240FF582EB3400F5837401F0EAB6
:1055E8002435F582EB3400F583E4F0EA2418F582DB
:1055F800EB3400F583E4F0A3F0A3F0A3F0EA241C55
:10560800F582EB3400F583E4F0EA241DF582EB34EF
:1056180000F583E4F0A3F0EA247FF582EB3400F58B
:1056280083E4F0EA2473F582EB3400F583E4F0EACE
:105638002468F582EB3400F5837480F0EA2469F578
:1056480082EB3400F583E4F0EA246EF582EB340053
:10565800F583E4F0EA24ECF582EB3400F583E4F01A
:10566800EA24EDF582EB3400F583E4F0EA24EEF564
:1056780082EB3400F583E4F0EA24EFF582EB3400A2
:10568800F583E4F0EA24F0F582EB3400F583E4F0E6
:10569800A3F0EA24F2F582EB3400F583E4F0A3F0FA
:1056A800EA24F5F582EB3400F583E4F0EA2482F588
:1056B80082EB3400F583E4F0EA24D2F582EB34007F
:1056C800F583E4F0EA24D3F582EB3400F583E4F0C3
:1056D800EA24D4F582EB3400F583E4F0A3F0A3F0D8
:1056E800A3F0EA24D8F582EB3400F583E4F0A3F0C4
:1056F800A3F0A3F0EA24DEF582EB3400F583E4F0AE
:10570800EA24E0F582EB3400F583E4F0EA24DCF5E2
:1057180082EB3400F583E4F0EA24E1F582EB34000F
:10572800F583E4F0EA24E2F582EB3400F583E4F053
:10573800EA24F8F582EB3400F583E4F0A3F0EA24D8
:10574800FAF582EB3400F583E4F0A3F0EA24FCF5E3
:1057580082EB3400F583E4F0A3F0EA24FEF582EB53
:105768003400F583E4F0A3F0EAF8EBF9E82404FC4C
:10577800E93400FDE8246AF582E93400F58374FF12
:10578800F088828983A3A882A983EC687002ED69F6
:1057980070E2EAF8EBF97C2D7D0C8C828D83E0C0F9
:1057A800E0E8245DF582E93400F583D0E0F08C82EE
:1057B8008D83A3AC82AD8388828983A3A882A983C1
:1057C800EC64327003ED640C70D0EAF8EBF97CFA03
:1057D8007D088C828D83A3E0C0E0E824E4F582E9AB
:1057E8003400F583D0E0F08C828D83A3AC82AD8346
:1057F80088828983A3A882A983EC64027003ED647C
:105808000970CF900913E004F0640170258A828B37
:1058180083A3A3A3A3E0900915F080160CE8240540
:10582800F8E93401F9ECC3940350030255667A0091
:105838007B00025065C082C0838A828B83A3A3A3A6
:10584800E0600F8A828B83A3A3A3E4F0900914E09D
:1058580014F0900913E014F0700690091574FFF025
:105868008A828B83A3A3E4F0900C32E0700D900938
:1058780014E064017005790012101F0246A2C0826C
:10588800C0837813790988828983A3A3A3A3A3A3D8
:10589800A3E4F088828983A3A3A3A3A3A3F0E824A5
:1058A80005F8E93401F9E864227003E9640C70D65C
:1058B800900913E4F0A3F0A374FFF075E1F1024638
:1058C800A274F51216AD750800750900750A007EF8
:1058D800177F098E828F83A3A3A3E0603DE5084567
:1058E80009602F850882850983E0F8A3E0F583889D
:1058F80082A3A31218D38E828F83E0F8A3E0F583E6
:105908008882A3A312152612232B740412164EE9BB
:105918007008EEF8EFF988088909050AEE2405FEF3
:10592800EF3401FFE50AC3940340A885088285097E
:1059380083A3A3A3A3E0F90253ED74F71216AD787D
:10594800FF79FF7E007C177D098C828D83A3A3A33A
:10595800E0606274FF68700374FF697011EC24736F
:10596800F582ED3400F583E06401703A8021EC247F
:1059780073F582ED3400F583E064017017EC247947
:10598800F582ED3400F583C3E098A3E0995026EC46
:1059980024798015EC242EF582ED3400F583C3E0DC
:1059A80098A3E099500FEC242EF582ED3400F5838E
:1059B800E0F8A3E0F90EEC2405FCED3401FDEEC39C
:1059C80094034085C3EA98EB994004E8FAE9FB029E
:1059D800506574F61216ADEAFEEBFFEE2463F5820D
:1059E800EF3400F583E0F8A3E0F9E8497003025AC0
:1059F8007FEE2463F8EF3400F97A007B00A2AFE46D
:105A080033F508C2AF88828983E0FCA3E0FDEC4D42
:105A1800603A88828983E0FAA3E0FB8A828B83E07C
:105A2800FCA3E0FD88828983ECF0A3EDF08A828BE9
:105A380083E4F0A3F088828983E0FCA3E0FDEC4DC9
:105A4800700A88828983A3A3E4F0A3F0E508A2E0A2
:105A580092AF120545900C33E004F0900C34E0044A
:105A6800F0EE2463F582EF3400F583E0F8A3E0F963
:105A7800E84960030259F98E828F83A3A3A3E060EB
:105A88000F8E828F83A3A3A3E4F0900914E014F08F
:105A9800900913E014F0700690091574FFF08E82D7
:105AA8008F83A3A3E4F0900C32E0700D900914E00A
:105AB80064017005790012101FEEFAEFFB120F89CE
:105AC80002521574F71216ADEAFEEBFF8E828F8331
:105AD800A3A3A3A3E0FA7B00120C11EEFAEFFB12CA
:105AE8000E7B120F6B025065C082C0837A00781754
:105AF800790988828983A3A3A3E0601EE8246EF550
:105B080082E93400F583E06011E8246AF582E9341B
:105B180000F583E07004790180110AE82405F8E9AA
